{
	"contracts/NFTBridge.sol": {
		"NFTBridge": {
			"abi": [
				{
					"inputs": [
						{
							"internalType": "address",
							"name": "_msgBus",
							"type": "address"
						}
					],
					"stateMutability": "nonpayable",
					"type": "constructor"
				},
				{
					"anonymous": false,
					"inputs": [
						{
							"indexed": false,
							"internalType": "bytes",
							"name": "returnData",
							"type": "bytes"
						}
					],
					"name": "ExtCallErr",
					"type": "event"
				},
				{
					"anonymous": false,
					"inputs": [
						{
							"indexed": false,
							"internalType": "uint256",
							"name": "amount",
							"type": "uint256"
						}
					],
					"name": "FeeClaimed",
					"type": "event"
				},
				{
					"anonymous": false,
					"inputs": [
						{
							"indexed": false,
							"internalType": "address",
							"name": "messageBus",
							"type": "address"
						}
					],
					"name": "MessageBusUpdated",
					"type": "event"
				},
				{
					"anonymous": false,
					"inputs": [
						{
							"indexed": true,
							"internalType": "address",
							"name": "previousOwner",
							"type": "address"
						},
						{
							"indexed": true,
							"internalType": "address",
							"name": "newOwner",
							"type": "address"
						}
					],
					"name": "OwnershipTransferred",
					"type": "event"
				},
				{
					"anonymous": false,
					"inputs": [
						{
							"indexed": false,
							"internalType": "address",
							"name": "account",
							"type": "address"
						}
					],
					"name": "Paused",
					"type": "event"
				},
				{
					"anonymous": false,
					"inputs": [
						{
							"indexed": false,
							"internalType": "address",
							"name": "account",
							"type": "address"
						}
					],
					"name": "PauserAdded",
					"type": "event"
				},
				{
					"anonymous": false,
					"inputs": [
						{
							"indexed": false,
							"internalType": "address",
							"name": "account",
							"type": "address"
						}
					],
					"name": "PauserRemoved",
					"type": "event"
				},
				{
					"anonymous": false,
					"inputs": [
						{
							"indexed": false,
							"internalType": "address",
							"name": "receiver",
							"type": "address"
						},
						{
							"indexed": false,
							"internalType": "address",
							"name": "nft",
							"type": "address"
						},
						{
							"indexed": false,
							"internalType": "uint256",
							"name": "id",
							"type": "uint256"
						},
						{
							"indexed": false,
							"internalType": "uint64",
							"name": "srcChid",
							"type": "uint64"
						}
					],
					"name": "Received",
					"type": "event"
				},
				{
					"anonymous": false,
					"inputs": [
						{
							"indexed": false,
							"internalType": "address",
							"name": "sender",
							"type": "address"
						},
						{
							"indexed": false,
							"internalType": "address",
							"name": "srcNft",
							"type": "address"
						},
						{
							"indexed": false,
							"internalType": "uint256",
							"name": "id",
							"type": "uint256"
						},
						{
							"indexed": false,
							"internalType": "uint64",
							"name": "dstChid",
							"type": "uint64"
						},
						{
							"indexed": false,
							"internalType": "address",
							"name": "receiver",
							"type": "address"
						},
						{
							"indexed": false,
							"internalType": "address",
							"name": "dstNft",
							"type": "address"
						}
					],
					"name": "Sent",
					"type": "event"
				},
				{
					"anonymous": false,
					"inputs": [
						{
							"indexed": false,
							"internalType": "uint64",
							"name": "dstChid",
							"type": "uint64"
						},
						{
							"indexed": false,
							"internalType": "address",
							"name": "dstNftBridge",
							"type": "address"
						}
					],
					"name": "SetDestBridge",
					"type": "event"
				},
				{
					"anonymous": false,
					"inputs": [
						{
							"indexed": false,
							"internalType": "address",
							"name": "srcNft",
							"type": "address"
						},
						{
							"indexed": false,
							"internalType": "uint64",
							"name": "dstChid",
							"type": "uint64"
						},
						{
							"indexed": false,
							"internalType": "address",
							"name": "dstNft",
							"type": "address"
						}
					],
					"name": "SetDestNFT",
					"type": "event"
				},
				{
					"anonymous": false,
					"inputs": [
						{
							"indexed": false,
							"internalType": "address",
							"name": "nft",
							"type": "address"
						},
						{
							"indexed": false,
							"internalType": "bool",
							"name": "isOrig",
							"type": "bool"
						}
					],
					"name": "SetOrigNFT",
					"type": "event"
				},
				{
					"anonymous": false,
					"inputs": [
						{
							"indexed": false,
							"internalType": "uint64",
							"name": "chid",
							"type": "uint64"
						},
						{
							"indexed": false,
							"internalType": "uint256",
							"name": "fee",
							"type": "uint256"
						}
					],
					"name": "SetTxFee",
					"type": "event"
				},
				{
					"anonymous": false,
					"inputs": [
						{
							"indexed": false,
							"internalType": "address",
							"name": "account",
							"type": "address"
						}
					],
					"name": "Unpaused",
					"type": "event"
				},
				{
					"inputs": [
						{
							"internalType": "address",
							"name": "account",
							"type": "address"
						}
					],
					"name": "addPauser",
					"outputs": [],
					"stateMutability": "nonpayable",
					"type": "function"
				},
				{
					"inputs": [],
					"name": "claimFee",
					"outputs": [],
					"stateMutability": "nonpayable",
					"type": "function"
				},
				{
					"inputs": [
						{
							"internalType": "address",
							"name": "_nft",
							"type": "address"
						}
					],
					"name": "delOrigNFT",
					"outputs": [],
					"stateMutability": "nonpayable",
					"type": "function"
				},
				{
					"inputs": [
						{
							"internalType": "uint64",
							"name": "",
							"type": "uint64"
						}
					],
					"name": "destBridge",
					"outputs": [
						{
							"internalType": "address",
							"name": "",
							"type": "address"
						}
					],
					"stateMutability": "view",
					"type": "function"
				},
				{
					"inputs": [
						{
							"internalType": "address",
							"name": "",
							"type": "address"
						},
						{
							"internalType": "uint64",
							"name": "",
							"type": "uint64"
						}
					],
					"name": "destNFTAddr",
					"outputs": [
						{
							"internalType": "address",
							"name": "",
							"type": "address"
						}
					],
					"stateMutability": "view",
					"type": "function"
				},
				{
					"inputs": [
						{
							"internalType": "uint64",
							"name": "",
							"type": "uint64"
						}
					],
					"name": "destTxFee",
					"outputs": [
						{
							"internalType": "uint256",
							"name": "",
							"type": "uint256"
						}
					],
					"stateMutability": "view",
					"type": "function"
				},
				{
					"inputs": [
						{
							"internalType": "address",
							"name": "sender",
							"type": "address"
						},
						{
							"internalType": "uint64",
							"name": "srcChid",
							"type": "uint64"
						},
						{
							"internalType": "bytes",
							"name": "_message",
							"type": "bytes"
						},
						{
							"internalType": "address",
							"name": "",
							"type": "address"
						}
					],
					"name": "executeMessage",
					"outputs": [
						{
							"internalType": "enum IMessageReceiverApp.ExecutionStatus",
							"name": "",
							"type": "uint8"
						}
					],
					"stateMutability": "payable",
					"type": "function"
				},
				{
					"inputs": [
						{
							"internalType": "address",
							"name": "_sender",
							"type": "address"
						},
						{
							"internalType": "address",
							"name": "_token",
							"type": "address"
						},
						{
							"internalType": "uint256",
							"name": "_amount",
							"type": "uint256"
						},
						{
							"internalType": "uint64",
							"name": "_srcChainId",
							"type": "uint64"
						},
						{
							"internalType": "bytes",
							"name": "_message",
							"type": "bytes"
						},
						{
							"internalType": "address",
							"name": "_executor",
							"type": "address"
						}
					],
					"name": "executeMessageWithTransfer",
					"outputs": [
						{
							"internalType": "enum IMessageReceiverApp.ExecutionStatus",
							"name": "",
							"type": "uint8"
						}
					],
					"stateMutability": "payable",
					"type": "function"
				},
				{
					"inputs": [
						{
							"internalType": "address",
							"name": "_sender",
							"type": "address"
						},
						{
							"internalType": "address",
							"name": "_token",
							"type": "address"
						},
						{
							"internalType": "uint256",
							"name": "_amount",
							"type": "uint256"
						},
						{
							"internalType": "uint64",
							"name": "_srcChainId",
							"type": "uint64"
						},
						{
							"internalType": "bytes",
							"name": "_message",
							"type": "bytes"
						},
						{
							"internalType": "address",
							"name": "_executor",
							"type": "address"
						}
					],
					"name": "executeMessageWithTransferFallback",
					"outputs": [
						{
							"internalType": "enum IMessageReceiverApp.ExecutionStatus",
							"name": "",
							"type": "uint8"
						}
					],
					"stateMutability": "payable",
					"type": "function"
				},
				{
					"inputs": [
						{
							"internalType": "address",
							"name": "_token",
							"type": "address"
						},
						{
							"internalType": "uint256",
							"name": "_amount",
							"type": "uint256"
						},
						{
							"internalType": "bytes",
							"name": "_message",
							"type": "bytes"
						},
						{
							"internalType": "address",
							"name": "_executor",
							"type": "address"
						}
					],
					"name": "executeMessageWithTransferRefund",
					"outputs": [
						{
							"internalType": "enum IMessageReceiverApp.ExecutionStatus",
							"name": "",
							"type": "uint8"
						}
					],
					"stateMutability": "payable",
					"type": "function"
				},
				{
					"inputs": [
						{
							"internalType": "address",
							"name": "_msgBus",
							"type": "address"
						}
					],
					"name": "init",
					"outputs": [],
					"stateMutability": "nonpayable",
					"type": "function"
				},
				{
					"inputs": [
						{
							"internalType": "address",
							"name": "account",
							"type": "address"
						}
					],
					"name": "isPauser",
					"outputs": [
						{
							"internalType": "bool",
							"name": "",
							"type": "bool"
						}
					],
					"stateMutability": "view",
					"type": "function"
				},
				{
					"inputs": [],
					"name": "messageBus",
					"outputs": [
						{
							"internalType": "address",
							"name": "",
							"type": "address"
						}
					],
					"stateMutability": "view",
					"type": "function"
				},
				{
					"inputs": [
						{
							"internalType": "address",
							"name": "",
							"type": "address"
						}
					],
					"name": "origNFT",
					"outputs": [
						{
							"internalType": "bool",
							"name": "",
							"type": "bool"
						}
					],
					"stateMutability": "view",
					"type": "function"
				},
				{
					"inputs": [],
					"name": "owner",
					"outputs": [
						{
							"internalType": "address",
							"name": "",
							"type": "address"
						}
					],
					"stateMutability": "view",
					"type": "function"
				},
				{
					"inputs": [],
					"name": "pause",
					"outputs": [],
					"stateMutability": "nonpayable",
					"type": "function"
				},
				{
					"inputs": [],
					"name": "paused",
					"outputs": [
						{
							"internalType": "bool",
							"name": "",
							"type": "bool"
						}
					],
					"stateMutability": "view",
					"type": "function"
				},
				{
					"inputs": [
						{
							"internalType": "address",
							"name": "",
							"type": "address"
						}
					],
					"name": "pausers",
					"outputs": [
						{
							"internalType": "bool",
							"name": "",
							"type": "bool"
						}
					],
					"stateMutability": "view",
					"type": "function"
				},
				{
					"inputs": [
						{
							"internalType": "address",
							"name": "account",
							"type": "address"
						}
					],
					"name": "removePauser",
					"outputs": [],
					"stateMutability": "nonpayable",
					"type": "function"
				},
				{
					"inputs": [],
					"name": "renouncePauser",
					"outputs": [],
					"stateMutability": "nonpayable",
					"type": "function"
				},
				{
					"inputs": [
						{
							"internalType": "uint64",
							"name": "_dstChid",
							"type": "uint64"
						},
						{
							"internalType": "address",
							"name": "_sender",
							"type": "address"
						},
						{
							"internalType": "address",
							"name": "_receiver",
							"type": "address"
						},
						{
							"internalType": "uint256",
							"name": "_id",
							"type": "uint256"
						},
						{
							"internalType": "string",
							"name": "_uri",
							"type": "string"
						}
					],
					"name": "sendMsg",
					"outputs": [],
					"stateMutability": "payable",
					"type": "function"
				},
				{
					"inputs": [
						{
							"internalType": "address",
							"name": "_nft",
							"type": "address"
						},
						{
							"internalType": "uint256",
							"name": "_id",
							"type": "uint256"
						},
						{
							"internalType": "uint64",
							"name": "_dstChid",
							"type": "uint64"
						},
						{
							"internalType": "address",
							"name": "_receiver",
							"type": "address"
						}
					],
					"name": "sendTo",
					"outputs": [],
					"stateMutability": "payable",
					"type": "function"
				},
				{
					"inputs": [
						{
							"internalType": "uint64",
							"name": "dstChid",
							"type": "uint64"
						},
						{
							"internalType": "address",
							"name": "dstNftBridge",
							"type": "address"
						}
					],
					"name": "setDestBridge",
					"outputs": [],
					"stateMutability": "nonpayable",
					"type": "function"
				},
				{
					"inputs": [
						{
							"internalType": "uint64[]",
							"name": "dstChid",
							"type": "uint64[]"
						},
						{
							"internalType": "address[]",
							"name": "dstNftBridge",
							"type": "address[]"
						}
					],
					"name": "setDestBridges",
					"outputs": [],
					"stateMutability": "nonpayable",
					"type": "function"
				},
				{
					"inputs": [
						{
							"internalType": "address",
							"name": "srcNft",
							"type": "address"
						},
						{
							"internalType": "uint64",
							"name": "dstChid",
							"type": "uint64"
						},
						{
							"internalType": "address",
							"name": "dstNft",
							"type": "address"
						}
					],
					"name": "setDestNFT",
					"outputs": [],
					"stateMutability": "nonpayable",
					"type": "function"
				},
				{
					"inputs": [
						{
							"internalType": "address",
							"name": "srcNft",
							"type": "address"
						},
						{
							"internalType": "uint64[]",
							"name": "dstChid",
							"type": "uint64[]"
						},
						{
							"internalType": "address[]",
							"name": "dstNft",
							"type": "address[]"
						}
					],
					"name": "setDestNFTs",
					"outputs": [],
					"stateMutability": "nonpayable",
					"type": "function"
				},
				{
					"inputs": [
						{
							"internalType": "address",
							"name": "_messageBus",
							"type": "address"
						}
					],
					"name": "setMessageBus",
					"outputs": [],
					"stateMutability": "nonpayable",
					"type": "function"
				},
				{
					"inputs": [
						{
							"internalType": "address",
							"name": "_nft",
							"type": "address"
						}
					],
					"name": "setOrigNFT",
					"outputs": [],
					"stateMutability": "nonpayable",
					"type": "function"
				},
				{
					"inputs": [
						{
							"internalType": "uint64",
							"name": "chid",
							"type": "uint64"
						},
						{
							"internalType": "uint256",
							"name": "fee",
							"type": "uint256"
						}
					],
					"name": "setTxFee",
					"outputs": [],
					"stateMutability": "nonpayable",
					"type": "function"
				},
				{
					"inputs": [
						{
							"internalType": "uint64",
							"name": "_dstChid",
							"type": "uint64"
						},
						{
							"internalType": "address",
							"name": "_nft",
							"type": "address"
						},
						{
							"internalType": "uint256",
							"name": "_id",
							"type": "uint256"
						}
					],
					"name": "totalFee",
					"outputs": [
						{
							"internalType": "uint256",
							"name": "",
							"type": "uint256"
						}
					],
					"stateMutability": "view",
					"type": "function"
				},
				{
					"inputs": [
						{
							"internalType": "address",
							"name": "newOwner",
							"type": "address"
						}
					],
					"name": "transferOwnership",
					"outputs": [],
					"stateMutability": "nonpayable",
					"type": "function"
				},
				{
					"inputs": [],
					"name": "unpause",
					"outputs": [],
					"stateMutability": "nonpayable",
					"type": "function"
				}
			],
			"devdoc": {
				"kind": "dev",
				"methods": {
					"executeMessageWithTransfer(address,address,uint256,uint64,bytes,address)": {
						"params": {
							"_amount": "The amount of tokens received at this contract through the cross-chain bridge.        the contract that implements this contract can safely assume that the tokens will arrive before this        function is called.",
							"_executor": "Address who called the MessageBus execution function",
							"_message": "Arbitrary message bytes originated from and encoded by the source app contract",
							"_sender": "The address of the source app contract",
							"_srcChainId": "The source chain ID where the transfer is originated from",
							"_token": "The address of the token that comes out of the bridge"
						}
					},
					"executeMessageWithTransferFallback(address,address,uint256,uint64,bytes,address)": {
						"params": {
							"_amount": "The amount of tokens received at this contract through the cross-chain bridge.        the contract that implements this contract can safely assume that the tokens will arrive before this        function is called.",
							"_executor": "Address who called the MessageBus execution function",
							"_message": "Arbitrary message bytes originated from and encoded by the source app contract",
							"_sender": "The address of the source app contract",
							"_srcChainId": "The source chain ID where the transfer is originated from",
							"_token": "The address of the token that comes out of the bridge"
						}
					},
					"executeMessageWithTransferRefund(address,uint256,bytes,address)": {
						"params": {
							"_amount": "The amount of the original transfer",
							"_executor": "Address who called the MessageBus execution function",
							"_message": "The same message associated with the original transfer",
							"_token": "The token address of the original transfer"
						}
					},
					"owner()": {
						"details": "Returns the address of the current owner."
					},
					"paused()": {
						"details": "Returns true if the contract is paused, and false otherwise."
					},
					"sendTo(address,uint256,uint64,address)": {
						"params": {
							"_dstChid": "dest chain ID",
							"_id": "nft token ID to bridge",
							"_nft": "address of source NFT contract",
							"_receiver": "receiver address on dest chain"
						}
					},
					"totalFee(uint64,address,uint256)": {
						"details": "we use _nft address for user as it's same length so same msg cost",
						"params": {
							"_dstChid": "dest chain ID",
							"_id": "token ID to bridge (need to get accurate tokenURI length)",
							"_nft": "address of source NFT contract"
						},
						"returns": {
							"_0": "total fee needed for user tx"
						}
					},
					"transferOwnership(address)": {
						"details": "Transfers ownership of the contract to a new account (`newOwner`). Can only be called by the current owner."
					}
				},
				"title": "NFT Bridge ",
				"version": 1
			},
			"evm": {
				"assembly": "    /* \"contracts/NFTBridge.sol\":859:9711  contract NFTBridge is MessageReceiverApp, Pauser {... */\n  mstore(0x40, 0x80)\n    /* \"contracts/NFTBridge.sol\":2420:2486  constructor(address _msgBus) {... */\n  callvalue\n  dup1\n  iszero\n  tag_1\n  jumpi\n  0x00\n  dup1\n  revert\ntag_1:\n  pop\n  mload(0x40)\n  sub(codesize, bytecodeSize)\n  dup1\n  bytecodeSize\n  dup4\n  codecopy\n  dup2\n  dup2\n  add\n  0x40\n  mstore\n  dup2\n  add\n  swap1\n  tag_2\n  swap2\n  swap1\n  tag_3\n  jump\t// in\ntag_2:\n    /* \"contracts/safeguard/Ownable.sol\":992:1013  _setOwner(msg.sender) */\n  tag_9\n    /* \"contracts/safeguard/Ownable.sol\":1002:1012  msg.sender */\n  caller\n    /* \"contracts/safeguard/Ownable.sol\":992:1001  _setOwner */\n  shl(0x20, tag_10)\n    /* \"contracts/safeguard/Ownable.sol\":992:1013  _setOwner(msg.sender) */\n  0x20\n  shr\n  jump\t// in\ntag_9:\n    /* \"@openzeppelin/contracts/security/Pausable.sol\":991:996  false */\n  0x00\n    /* \"@openzeppelin/contracts/security/Pausable.sol\":981:988  _paused */\n  0x01\n  0x14\n    /* \"@openzeppelin/contracts/security/Pausable.sol\":981:996  _paused = false */\n  0x0100\n  exp\n  dup2\n  sload\n  dup2\n  0xff\n  mul\n  not\n  and\n  swap1\n  dup4\n  iszero\n  iszero\n  mul\n  or\n  swap1\n  sstore\n  pop\n    /* \"contracts/safeguard/Pauser.sol\":352:374  _addPauser(msg.sender) */\n  tag_13\n    /* \"contracts/safeguard/Pauser.sol\":363:373  msg.sender */\n  caller\n    /* \"contracts/safeguard/Pauser.sol\":352:362  _addPauser */\n  shl(0x20, tag_14)\n    /* \"contracts/safeguard/Pauser.sol\":352:374  _addPauser(msg.sender) */\n  0x20\n  shr\n  jump\t// in\ntag_13:\n    /* \"contracts/NFTBridge.sol\":2472:2479  _msgBus */\n  dup1\n    /* \"contracts/NFTBridge.sol\":2459:2469  messageBus */\n  0x01\n  0x00\n    /* \"contracts/NFTBridge.sol\":2459:2479  messageBus = _msgBus */\n  0x0100\n  exp\n  dup2\n  sload\n  dup2\n  0xffffffffffffffffffffffffffffffffffffffff\n  mul\n  not\n  and\n  swap1\n  dup4\n  0xffffffffffffffffffffffffffffffffffffffff\n  and\n  mul\n  or\n  swap1\n  sstore\n  pop\n    /* \"contracts/NFTBridge.sol\":2420:2486  constructor(address _msgBus) {... */\n  pop\n    /* \"contracts/NFTBridge.sol\":859:9711  contract NFTBridge is MessageReceiverApp, Pauser {... */\n  jump(tag_16)\n    /* \"contracts/safeguard/Ownable.sol\":2111:2280  function _setOwner(address newOwner) private {... */\ntag_10:\n    /* \"contracts/safeguard/Ownable.sol\":2166:2182  address oldOwner */\n  0x00\n    /* \"contracts/safeguard/Ownable.sol\":2185:2191  _owner */\n  dup1\n  0x00\n  swap1\n  sload\n  swap1\n  0x0100\n  exp\n  swap1\n  div\n  0xffffffffffffffffffffffffffffffffffffffff\n  and\n    /* \"contracts/safeguard/Ownable.sol\":2166:2191  address oldOwner = _owner */\n  swap1\n  pop\n    /* \"contracts/safeguard/Ownable.sol\":2210:2218  newOwner */\n  dup2\n    /* \"contracts/safeguard/Ownable.sol\":2201:2207  _owner */\n  0x00\n  dup1\n    /* \"contracts/safeguard/Ownable.sol\":2201:2218  _owner = newOwner */\n  0x0100\n  exp\n  dup2\n  sload\n  dup2\n  0xffffffffffffffffffffffffffffffffffffffff\n  mul\n  not\n  and\n  swap1\n  dup4\n  0xffffffffffffffffffffffffffffffffffffffff\n  and\n  mul\n  or\n  swap1\n  sstore\n  pop\n    /* \"contracts/safeguard/Ownable.sol\":2264:2272  newOwner */\n  dup2\n    /* \"contracts/safeguard/Ownable.sol\":2233:2273  OwnershipTransferred(oldOwner, newOwner) */\n  0xffffffffffffffffffffffffffffffffffffffff\n  and\n    /* \"contracts/safeguard/Ownable.sol\":2254:2262  oldOwner */\n  dup2\n    /* \"contracts/safeguard/Ownable.sol\":2233:2273  OwnershipTransferred(oldOwner, newOwner) */\n  0xffffffffffffffffffffffffffffffffffffffff\n  and\n  0x8be0079c531659141344cd1fd0a4f28419497f9722a3daafe3b4186f6b6457e0\n  mload(0x40)\n  mload(0x40)\n  dup1\n  swap2\n  sub\n  swap1\n  log3\n    /* \"contracts/safeguard/Ownable.sol\":2156:2280  {... */\n  pop\n    /* \"contracts/safeguard/Ownable.sol\":2111:2280  function _setOwner(address newOwner) private {... */\n  pop\n  jump\t// out\n    /* \"contracts/safeguard/Pauser.sol\":1017:1203  function _addPauser(address account) private {... */\ntag_14:\n    /* \"contracts/safeguard/Pauser.sol\":1081:1098  isPauser(account) */\n  tag_19\n    /* \"contracts/safeguard/Pauser.sol\":1090:1097  account */\n  dup2\n    /* \"contracts/safeguard/Pauser.sol\":1081:1089  isPauser */\n  shl(0x20, tag_20)\n    /* \"contracts/safeguard/Pauser.sol\":1081:1098  isPauser(account) */\n  0x20\n  shr\n  jump\t// in\ntag_19:\n    /* \"contracts/safeguard/Pauser.sol\":1080:1098  !isPauser(account) */\n  iszero\n    /* \"contracts/safeguard/Pauser.sol\":1072:1128  require(!isPauser(account), \"Account is already pauser\") */\n  tag_21\n  jumpi\n  mload(0x40)\n  0x08c379a000000000000000000000000000000000000000000000000000000000\n  dup2\n  mstore\n  0x04\n  add\n  tag_22\n  swap1\n  tag_23\n  jump\t// in\ntag_22:\n  mload(0x40)\n  dup1\n  swap2\n  sub\n  swap1\n  revert\ntag_21:\n    /* \"contracts/safeguard/Pauser.sol\":1157:1161  true */\n  0x01\n    /* \"contracts/safeguard/Pauser.sol\":1138:1145  pausers */\n  0x02\n    /* \"contracts/safeguard/Pauser.sol\":1138:1154  pausers[account] */\n  0x00\n    /* \"contracts/safeguard/Pauser.sol\":1146:1153  account */\n  dup4\n    /* \"contracts/safeguard/Pauser.sol\":1138:1154  pausers[account] */\n  0xffffffffffffffffffffffffffffffffffffffff\n  and\n  0xffffffffffffffffffffffffffffffffffffffff\n  and\n  dup2\n  mstore\n  0x20\n  add\n  swap1\n  dup2\n  mstore\n  0x20\n  add\n  0x00\n  keccak256\n  0x00\n    /* \"contracts/safeguard/Pauser.sol\":1138:1161  pausers[account] = true */\n  0x0100\n  exp\n  dup2\n  sload\n  dup2\n  0xff\n  mul\n  not\n  and\n  swap1\n  dup4\n  iszero\n  iszero\n  mul\n  or\n  swap1\n  sstore\n  pop\n    /* \"contracts/safeguard/Pauser.sol\":1176:1196  PauserAdded(account) */\n  0x6719d08c1888103bea251a4ed56406bd0c3e69723c8a1686e017e7bbe159b6f8\n    /* \"contracts/safeguard/Pauser.sol\":1188:1195  account */\n  dup2\n    /* \"contracts/safeguard/Pauser.sol\":1176:1196  PauserAdded(account) */\n  mload(0x40)\n  tag_24\n  swap2\n  swap1\n  tag_25\n  jump\t// in\ntag_24:\n  mload(0x40)\n  dup1\n  swap2\n  sub\n  swap1\n  log1\n    /* \"contracts/safeguard/Pauser.sol\":1017:1203  function _addPauser(address account) private {... */\n  pop\n  jump\t// out\n    /* \"contracts/safeguard/Pauser.sol\":632:734  function isPauser(address account) public view returns (bool) {... */\ntag_20:\n    /* \"contracts/safeguard/Pauser.sol\":688:692  bool */\n  0x00\n    /* \"contracts/safeguard/Pauser.sol\":711:718  pausers */\n  0x02\n    /* \"contracts/safeguard/Pauser.sol\":711:727  pausers[account] */\n  0x00\n    /* \"contracts/safeguard/Pauser.sol\":719:726  account */\n  dup4\n    /* \"contracts/safeguard/Pauser.sol\":711:727  pausers[account] */\n  0xffffffffffffffffffffffffffffffffffffffff\n  and\n  0xffffffffffffffffffffffffffffffffffffffff\n  and\n  dup2\n  mstore\n  0x20\n  add\n  swap1\n  dup2\n  mstore\n  0x20\n  add\n  0x00\n  keccak256\n  0x00\n  swap1\n  sload\n  swap1\n  0x0100\n  exp\n  swap1\n  div\n  0xff\n  and\n    /* \"contracts/safeguard/Pauser.sol\":704:727  return pausers[account] */\n  swap1\n  pop\n    /* \"contracts/safeguard/Pauser.sol\":632:734  function isPauser(address account) public view returns (bool) {... */\n  swap2\n  swap1\n  pop\n  jump\t// out\n    /* \"#utility.yul\":88:205   */\ntag_28:\n    /* \"#utility.yul\":197:198   */\n  0x00\n    /* \"#utility.yul\":194:195   */\n  dup1\n    /* \"#utility.yul\":187:199   */\n  revert\n    /* \"#utility.yul\":334:460   */\ntag_30:\n    /* \"#utility.yul\":371:378   */\n  0x00\n    /* \"#utility.yul\":411:453   */\n  0xffffffffffffffffffffffffffffffffffffffff\n    /* \"#utility.yul\":404:409   */\n  dup3\n    /* \"#utility.yul\":400:454   */\n  and\n    /* \"#utility.yul\":389:454   */\n  swap1\n  pop\n    /* \"#utility.yul\":334:460   */\n  swap2\n  swap1\n  pop\n  jump\t// out\n    /* \"#utility.yul\":466:562   */\ntag_31:\n    /* \"#utility.yul\":503:510   */\n  0x00\n    /* \"#utility.yul\":532:556   */\n  tag_44\n    /* \"#utility.yul\":550:555   */\n  dup3\n    /* \"#utility.yul\":532:556   */\n  tag_30\n  jump\t// in\ntag_44:\n    /* \"#utility.yul\":521:556   */\n  swap1\n  pop\n    /* \"#utility.yul\":466:562   */\n  swap2\n  swap1\n  pop\n  jump\t// out\n    /* \"#utility.yul\":568:690   */\ntag_32:\n    /* \"#utility.yul\":641:665   */\n  tag_46\n    /* \"#utility.yul\":659:664   */\n  dup2\n    /* \"#utility.yul\":641:665   */\n  tag_31\n  jump\t// in\ntag_46:\n    /* \"#utility.yul\":634:639   */\n  dup2\n    /* \"#utility.yul\":631:666   */\n  eq\n    /* \"#utility.yul\":621:684   */\n  tag_47\n  jumpi\n    /* \"#utility.yul\":680:681   */\n  0x00\n    /* \"#utility.yul\":677:678   */\n  dup1\n    /* \"#utility.yul\":670:682   */\n  revert\n    /* \"#utility.yul\":621:684   */\ntag_47:\n    /* \"#utility.yul\":568:690   */\n  pop\n  jump\t// out\n    /* \"#utility.yul\":696:839   */\ntag_33:\n    /* \"#utility.yul\":753:758   */\n  0x00\n    /* \"#utility.yul\":784:790   */\n  dup2\n    /* \"#utility.yul\":778:791   */\n  mload\n    /* \"#utility.yul\":769:791   */\n  swap1\n  pop\n    /* \"#utility.yul\":800:833   */\n  tag_49\n    /* \"#utility.yul\":827:832   */\n  dup2\n    /* \"#utility.yul\":800:833   */\n  tag_32\n  jump\t// in\ntag_49:\n    /* \"#utility.yul\":696:839   */\n  swap3\n  swap2\n  pop\n  pop\n  jump\t// out\n    /* \"#utility.yul\":845:1196   */\ntag_3:\n    /* \"#utility.yul\":915:921   */\n  0x00\n    /* \"#utility.yul\":964:966   */\n  0x20\n    /* \"#utility.yul\":952:961   */\n  dup3\n    /* \"#utility.yul\":943:950   */\n  dup5\n    /* \"#utility.yul\":939:962   */\n  sub\n    /* \"#utility.yul\":935:967   */\n  slt\n    /* \"#utility.yul\":932:1051   */\n  iszero\n  tag_51\n  jumpi\n    /* \"#utility.yul\":970:1049   */\n  tag_52\n  tag_28\n  jump\t// in\ntag_52:\n    /* \"#utility.yul\":932:1051   */\ntag_51:\n    /* \"#utility.yul\":1090:1091   */\n  0x00\n    /* \"#utility.yul\":1115:1179   */\n  tag_53\n    /* \"#utility.yul\":1171:1178   */\n  dup5\n    /* \"#utility.yul\":1162:1168   */\n  dup3\n    /* \"#utility.yul\":1151:1160   */\n  dup6\n    /* \"#utility.yul\":1147:1169   */\n  add\n    /* \"#utility.yul\":1115:1179   */\n  tag_33\n  jump\t// in\ntag_53:\n    /* \"#utility.yul\":1105:1179   */\n  swap2\n  pop\n    /* \"#utility.yul\":1061:1189   */\n  pop\n    /* \"#utility.yul\":845:1196   */\n  swap3\n  swap2\n  pop\n  pop\n  jump\t// out\n    /* \"#utility.yul\":1202:1371   */\ntag_34:\n    /* \"#utility.yul\":1286:1297   */\n  0x00\n    /* \"#utility.yul\":1320:1326   */\n  dup3\n    /* \"#utility.yul\":1315:1318   */\n  dup3\n    /* \"#utility.yul\":1308:1327   */\n  mstore\n    /* \"#utility.yul\":1360:1364   */\n  0x20\n    /* \"#utility.yul\":1355:1358   */\n  dup3\n    /* \"#utility.yul\":1351:1365   */\n  add\n    /* \"#utility.yul\":1336:1365   */\n  swap1\n  pop\n    /* \"#utility.yul\":1202:1371   */\n  swap3\n  swap2\n  pop\n  pop\n  jump\t// out\n    /* \"#utility.yul\":1377:1552   */\ntag_35:\n    /* \"#utility.yul\":1517:1544   */\n  0x4163636f756e7420697320616c72656164792070617573657200000000000000\n    /* \"#utility.yul\":1513:1514   */\n  0x00\n    /* \"#utility.yul\":1505:1511   */\n  dup3\n    /* \"#utility.yul\":1501:1515   */\n  add\n    /* \"#utility.yul\":1494:1545   */\n  mstore\n    /* \"#utility.yul\":1377:1552   */\n  pop\n  jump\t// out\n    /* \"#utility.yul\":1558:1924   */\ntag_36:\n    /* \"#utility.yul\":1700:1703   */\n  0x00\n    /* \"#utility.yul\":1721:1788   */\n  tag_57\n    /* \"#utility.yul\":1785:1787   */\n  0x19\n    /* \"#utility.yul\":1780:1783   */\n  dup4\n    /* \"#utility.yul\":1721:1788   */\n  tag_34\n  jump\t// in\ntag_57:\n    /* \"#utility.yul\":1714:1788   */\n  swap2\n  pop\n    /* \"#utility.yul\":1797:1890   */\n  tag_58\n    /* \"#utility.yul\":1886:1889   */\n  dup3\n    /* \"#utility.yul\":1797:1890   */\n  tag_35\n  jump\t// in\ntag_58:\n    /* \"#utility.yul\":1915:1917   */\n  0x20\n    /* \"#utility.yul\":1910:1913   */\n  dup3\n    /* \"#utility.yul\":1906:1918   */\n  add\n    /* \"#utility.yul\":1899:1918   */\n  swap1\n  pop\n    /* \"#utility.yul\":1558:1924   */\n  swap2\n  swap1\n  pop\n  jump\t// out\n    /* \"#utility.yul\":1930:2349   */\ntag_23:\n    /* \"#utility.yul\":2096:2100   */\n  0x00\n    /* \"#utility.yul\":2134:2136   */\n  0x20\n    /* \"#utility.yul\":2123:2132   */\n  dup3\n    /* \"#utility.yul\":2119:2137   */\n  add\n    /* \"#utility.yul\":2111:2137   */\n  swap1\n  pop\n    /* \"#utility.yul\":2183:2192   */\n  dup2\n    /* \"#utility.yul\":2177:2181   */\n  dup2\n    /* \"#utility.yul\":2173:2193   */\n  sub\n    /* \"#utility.yul\":2169:2170   */\n  0x00\n    /* \"#utility.yul\":2158:2167   */\n  dup4\n    /* \"#utility.yul\":2154:2171   */\n  add\n    /* \"#utility.yul\":2147:2194   */\n  mstore\n    /* \"#utility.yul\":2211:2342   */\n  tag_60\n    /* \"#utility.yul\":2337:2341   */\n  dup2\n    /* \"#utility.yul\":2211:2342   */\n  tag_36\n  jump\t// in\ntag_60:\n    /* \"#utility.yul\":2203:2342   */\n  swap1\n  pop\n    /* \"#utility.yul\":1930:2349   */\n  swap2\n  swap1\n  pop\n  jump\t// out\n    /* \"#utility.yul\":2355:2473   */\ntag_37:\n    /* \"#utility.yul\":2442:2466   */\n  tag_62\n    /* \"#utility.yul\":2460:2465   */\n  dup2\n    /* \"#utility.yul\":2442:2466   */\n  tag_31\n  jump\t// in\ntag_62:\n    /* \"#utility.yul\":2437:2440   */\n  dup3\n    /* \"#utility.yul\":2430:2467   */\n  mstore\n    /* \"#utility.yul\":2355:2473   */\n  pop\n  pop\n  jump\t// out\n    /* \"#utility.yul\":2479:2701   */\ntag_25:\n    /* \"#utility.yul\":2572:2576   */\n  0x00\n    /* \"#utility.yul\":2610:2612   */\n  0x20\n    /* \"#utility.yul\":2599:2608   */\n  dup3\n    /* \"#utility.yul\":2595:2613   */\n  add\n    /* \"#utility.yul\":2587:2613   */\n  swap1\n  pop\n    /* \"#utility.yul\":2623:2694   */\n  tag_64\n    /* \"#utility.yul\":2691:2692   */\n  0x00\n    /* \"#utility.yul\":2680:2689   */\n  dup4\n    /* \"#utility.yul\":2676:2693   */\n  add\n    /* \"#utility.yul\":2667:2673   */\n  dup5\n    /* \"#utility.yul\":2623:2694   */\n  tag_37\n  jump\t// in\ntag_64:\n    /* \"#utility.yul\":2479:2701   */\n  swap3\n  swap2\n  pop\n  pop\n  jump\t// out\n    /* \"contracts/NFTBridge.sol\":859:9711  contract NFTBridge is MessageReceiverApp, Pauser {... */\ntag_16:\n  dataSize(sub_0)\n  dup1\n  dataOffset(sub_0)\n  0x00\n  codecopy\n  0x00\n  return\nstop\n\nsub_0: assembly {\n        /* \"contracts/NFTBridge.sol\":859:9711  contract NFTBridge is MessageReceiverApp, Pauser {... */\n      mstore(0x40, 0x80)\n      jumpi(tag_1, lt(calldatasize, 0x04))\n      shr(0xe0, calldataload(0x00))\n      dup1\n      0x80f51c12\n      gt\n      tag_34\n      jumpi\n      dup1\n      0x9e041b9d\n      gt\n      tag_35\n      jumpi\n      dup1\n      0xda754f44\n      gt\n      tag_36\n      jumpi\n      dup1\n      0xda754f44\n      eq\n      tag_30\n      jumpi\n      dup1\n      0xed99bf43\n      eq\n      tag_31\n      jumpi\n      dup1\n      0xf0cb57ce\n      eq\n      tag_32\n      jumpi\n      dup1\n      0xf2fde38b\n      eq\n      tag_33\n      jumpi\n      jump(tag_1)\n    tag_36:\n      dup1\n      0x9e041b9d\n      eq\n      tag_26\n      jumpi\n      dup1\n      0x9f825f07\n      eq\n      tag_27\n      jumpi\n      dup1\n      0xa1a227fa\n      eq\n      tag_28\n      jumpi\n      dup1\n      0xb2c88775\n      eq\n      tag_29\n      jumpi\n      jump(tag_1)\n    tag_35:\n      dup1\n      0x95b6a191\n      gt\n      tag_37\n      jumpi\n      dup1\n      0x95b6a191\n      eq\n      tag_22\n      jumpi\n      dup1\n      0x99d32fc4\n      eq\n      tag_23\n      jumpi\n      dup1\n      0x9c1a65bd\n      eq\n      tag_24\n      jumpi\n      dup1\n      0x9c649fdf\n      eq\n      tag_25\n      jumpi\n      jump(tag_1)\n    tag_37:\n      dup1\n      0x80f51c12\n      eq\n      tag_18\n      jumpi\n      dup1\n      0x82dc1ec4\n      eq\n      tag_19\n      jumpi\n      dup1\n      0x8456cb59\n      eq\n      tag_20\n      jumpi\n      dup1\n      0x8da5cb5b\n      eq\n      tag_21\n      jumpi\n      jump(tag_1)\n    tag_34:\n      dup1\n      0x43a8c137\n      gt\n      tag_38\n      jumpi\n      dup1\n      0x5c975abb\n      gt\n      tag_39\n      jumpi\n      dup1\n      0x5c975abb\n      eq\n      tag_14\n      jumpi\n      dup1\n      0x6b2c0f55\n      eq\n      tag_15\n      jumpi\n      dup1\n      0x6ef8d66d\n      eq\n      tag_16\n      jumpi\n      dup1\n      0x7cd2bffc\n      eq\n      tag_17\n      jumpi\n      jump(tag_1)\n    tag_39:\n      dup1\n      0x43a8c137\n      eq\n      tag_10\n      jumpi\n      dup1\n      0x46fbf68e\n      eq\n      tag_11\n      jumpi\n      dup1\n      0x547cad12\n      eq\n      tag_12\n      jumpi\n      dup1\n      0x5ab7afc6\n      eq\n      tag_13\n      jumpi\n      jump(tag_1)\n    tag_38:\n      dup1\n      0x19ab453c\n      gt\n      tag_40\n      jumpi\n      dup1\n      0x19ab453c\n      eq\n      tag_6\n      jumpi\n      dup1\n      0x27cbe705\n      eq\n      tag_7\n      jumpi\n      dup1\n      0x2d5fa47c\n      eq\n      tag_8\n      jumpi\n      dup1\n      0x3f4ba83a\n      eq\n      tag_9\n      jumpi\n      jump(tag_1)\n    tag_40:\n      dup1\n      0x065c38fd\n      eq\n      tag_2\n      jumpi\n      dup1\n      0x0bcb4982\n      eq\n      tag_3\n      jumpi\n      dup1\n      0x1140c84e\n      eq\n      tag_4\n      jumpi\n      dup1\n      0x151ff4eb\n      eq\n      tag_5\n      jumpi\n    tag_1:\n      0x00\n      dup1\n      revert\n        /* \"contracts/NFTBridge.sol\":9188:9315  function setOrigNFT(address _nft) external onlyOwner {... */\n    tag_2:\n      callvalue\n      dup1\n      iszero\n      tag_41\n      jumpi\n      0x00\n      dup1\n      revert\n    tag_41:\n      pop\n      tag_42\n      0x04\n      dup1\n      calldatasize\n      sub\n      dup2\n      add\n      swap1\n      tag_43\n      swap2\n      swap1\n      tag_44\n      jump\t// in\n    tag_43:\n      tag_45\n      jump\t// in\n    tag_42:\n      stop\n        /* \"contracts/framework/MessageReceiverApp.sol\":3126:3360  function executeMessageWithTransferRefund(... */\n    tag_3:\n      tag_46\n      0x04\n      dup1\n      calldatasize\n      sub\n      dup2\n      add\n      swap1\n      tag_47\n      swap2\n      swap1\n      tag_48\n      jump\t// in\n    tag_47:\n      tag_49\n      jump\t// in\n    tag_46:\n      mload(0x40)\n      tag_50\n      swap2\n      swap1\n      tag_51\n      jump\t// in\n    tag_50:\n      mload(0x40)\n      dup1\n      swap2\n      sub\n      swap1\n      return\n        /* \"contracts/NFTBridge.sol\":1471:1510  mapping(address => bool) public origNFT */\n    tag_4:\n      callvalue\n      dup1\n      iszero\n      tag_52\n      jumpi\n      0x00\n      dup1\n      revert\n    tag_52:\n      pop\n      tag_53\n      0x04\n      dup1\n      calldatasize\n      sub\n      dup2\n      add\n      swap1\n      tag_54\n      swap2\n      swap1\n      tag_44\n      jump\t// in\n    tag_54:\n      tag_55\n      jump\t// in\n    tag_53:\n      mload(0x40)\n      tag_56\n      swap2\n      swap1\n      tag_57\n      jump\t// in\n    tag_56:\n      mload(0x40)\n      dup1\n      swap2\n      sub\n      swap1\n      return\n        /* \"contracts/NFTBridge.sol\":979:1022  mapping(uint64 => uint256) public destTxFee */\n    tag_5:\n      callvalue\n      dup1\n      iszero\n      tag_58\n      jumpi\n      0x00\n      dup1\n      revert\n    tag_58:\n      pop\n      tag_59\n      0x04\n      dup1\n      calldatasize\n      sub\n      dup2\n      add\n      swap1\n      tag_60\n      swap2\n      swap1\n      tag_61\n      jump\t// in\n    tag_60:\n      tag_62\n      jump\t// in\n    tag_59:\n      mload(0x40)\n      tag_63\n      swap2\n      swap1\n      tag_64\n      jump\t// in\n    tag_63:\n      mload(0x40)\n      dup1\n      swap2\n      sub\n      swap1\n      return\n        /* \"contracts/NFTBridge.sol\":2654:2752  function init(address _msgBus) external {... */\n    tag_6:\n      callvalue\n      dup1\n      iszero\n      tag_65\n      jumpi\n      0x00\n      dup1\n      revert\n    tag_65:\n      pop\n      tag_66\n      0x04\n      dup1\n      calldatasize\n      sub\n      dup2\n      add\n      swap1\n      tag_67\n      swap2\n      swap1\n      tag_44\n      jump\t// in\n    tag_67:\n      tag_68\n      jump\t// in\n    tag_66:\n      stop\n        /* \"contracts/NFTBridge.sol\":1072:1116  mapping(uint64 => address) public destBridge */\n    tag_7:\n      callvalue\n      dup1\n      iszero\n      tag_69\n      jumpi\n      0x00\n      dup1\n      revert\n    tag_69:\n      pop\n      tag_70\n      0x04\n      dup1\n      calldatasize\n      sub\n      dup2\n      add\n      swap1\n      tag_71\n      swap2\n      swap1\n      tag_61\n      jump\t// in\n    tag_71:\n      tag_72\n      jump\t// in\n    tag_70:\n      mload(0x40)\n      tag_73\n      swap2\n      swap1\n      tag_74\n      jump\t// in\n    tag_73:\n      mload(0x40)\n      dup1\n      swap2\n      sub\n      swap1\n      return\n        /* \"contracts/NFTBridge.sol\":8088:8426  function setDestNFTs(... */\n    tag_8:\n      callvalue\n      dup1\n      iszero\n      tag_75\n      jumpi\n      0x00\n      dup1\n      revert\n    tag_75:\n      pop\n      tag_76\n      0x04\n      dup1\n      calldatasize\n      sub\n      dup2\n      add\n      swap1\n      tag_77\n      swap2\n      swap1\n      tag_78\n      jump\t// in\n    tag_77:\n      tag_79\n      jump\t// in\n    tag_76:\n      stop\n        /* \"contracts/safeguard/Pauser.sol\":562:626  function unpause() public onlyPauser {... */\n    tag_9:\n      callvalue\n      dup1\n      iszero\n      tag_80\n      jumpi\n      0x00\n      dup1\n      revert\n    tag_80:\n      pop\n      tag_81\n      tag_82\n      jump\t// in\n    tag_81:\n      stop\n        /* \"contracts/NFTBridge.sol\":8886:9115  function setDestBridges(uint64[] calldata dstChid, address[] calldata dstNftBridge) external onlyOwner {... */\n    tag_10:\n      callvalue\n      dup1\n      iszero\n      tag_83\n      jumpi\n      0x00\n      dup1\n      revert\n    tag_83:\n      pop\n      tag_84\n      0x04\n      dup1\n      calldatasize\n      sub\n      dup2\n      add\n      swap1\n      tag_85\n      swap2\n      swap1\n      tag_86\n      jump\t// in\n    tag_85:\n      tag_87\n      jump\t// in\n    tag_84:\n      stop\n        /* \"contracts/safeguard/Pauser.sol\":632:734  function isPauser(address account) public view returns (bool) {... */\n    tag_11:\n      callvalue\n      dup1\n      iszero\n      tag_88\n      jumpi\n      0x00\n      dup1\n      revert\n    tag_88:\n      pop\n      tag_89\n      0x04\n      dup1\n      calldatasize\n      sub\n      dup2\n      add\n      swap1\n      tag_90\n      swap2\n      swap1\n      tag_44\n      jump\t// in\n    tag_90:\n      tag_91\n      jump\t// in\n    tag_89:\n      mload(0x40)\n      tag_92\n      swap2\n      swap1\n      tag_57\n      jump\t// in\n    tag_92:\n      mload(0x40)\n      dup1\n      swap2\n      sub\n      swap1\n      return\n        /* \"contracts/framework/MessageBusAddress.sol\":239:385  function setMessageBus(address _messageBus) public onlyOwner {... */\n    tag_12:\n      callvalue\n      dup1\n      iszero\n      tag_93\n      jumpi\n      0x00\n      dup1\n      revert\n    tag_93:\n      pop\n      tag_94\n      0x04\n      dup1\n      calldatasize\n      sub\n      dup2\n      add\n      swap1\n      tag_95\n      swap2\n      swap1\n      tag_44\n      jump\t// in\n    tag_95:\n      tag_96\n      jump\t// in\n    tag_94:\n      stop\n        /* \"contracts/framework/MessageReceiverApp.sol\":2419:2708  function executeMessageWithTransferFallback(... */\n    tag_13:\n      tag_97\n      0x04\n      dup1\n      calldatasize\n      sub\n      dup2\n      add\n      swap1\n      tag_98\n      swap2\n      swap1\n      tag_99\n      jump\t// in\n    tag_98:\n      tag_100\n      jump\t// in\n    tag_97:\n      mload(0x40)\n      tag_101\n      swap2\n      swap1\n      tag_51\n      jump\t// in\n    tag_101:\n      mload(0x40)\n      dup1\n      swap2\n      sub\n      swap1\n      return\n        /* \"@openzeppelin/contracts/security/Pausable.sol\":1098:1182  function paused() public view virtual returns (bool) {... */\n    tag_14:\n      callvalue\n      dup1\n      iszero\n      tag_102\n      jumpi\n      0x00\n      dup1\n      revert\n    tag_102:\n      pop\n      tag_103\n      tag_104\n      jump\t// in\n    tag_103:\n      mload(0x40)\n      tag_105\n      swap2\n      swap1\n      tag_57\n      jump\t// in\n    tag_105:\n      mload(0x40)\n      dup1\n      swap2\n      sub\n      swap1\n      return\n        /* \"contracts/safeguard/Pauser.sol\":835:930  function removePauser(address account) public onlyOwner {... */\n    tag_15:\n      callvalue\n      dup1\n      iszero\n      tag_106\n      jumpi\n      0x00\n      dup1\n      revert\n    tag_106:\n      pop\n      tag_107\n      0x04\n      dup1\n      calldatasize\n      sub\n      dup2\n      add\n      swap1\n      tag_108\n      swap2\n      swap1\n      tag_44\n      jump\t// in\n    tag_108:\n      tag_109\n      jump\t// in\n    tag_107:\n      stop\n        /* \"contracts/safeguard/Pauser.sol\":936:1011  function renouncePauser() public {... */\n    tag_16:\n      callvalue\n      dup1\n      iszero\n      tag_110\n      jumpi\n      0x00\n      dup1\n      revert\n    tag_110:\n      pop\n      tag_111\n      tag_112\n      jump\t// in\n    tag_111:\n      stop\n        /* \"contracts/framework/MessageReceiverApp.sol\":1271:1552  function executeMessageWithTransfer(... */\n    tag_17:\n      tag_113\n      0x04\n      dup1\n      calldatasize\n      sub\n      dup2\n      add\n      swap1\n      tag_114\n      swap2\n      swap1\n      tag_99\n      jump\t// in\n    tag_114:\n      tag_115\n      jump\t// in\n    tag_113:\n      mload(0x40)\n      tag_116\n      swap2\n      swap1\n      tag_51\n      jump\t// in\n    tag_116:\n      mload(0x40)\n      dup1\n      swap2\n      sub\n      swap1\n      return\n        /* \"contracts/safeguard/Pauser.sol\":199:238  mapping(address => bool) public pausers */\n    tag_18:\n      callvalue\n      dup1\n      iszero\n      tag_117\n      jumpi\n      0x00\n      dup1\n      revert\n    tag_117:\n      pop\n      tag_118\n      0x04\n      dup1\n      calldatasize\n      sub\n      dup2\n      add\n      swap1\n      tag_119\n      swap2\n      swap1\n      tag_44\n      jump\t// in\n    tag_119:\n      tag_120\n      jump\t// in\n    tag_118:\n      mload(0x40)\n      tag_121\n      swap2\n      swap1\n      tag_57\n      jump\t// in\n    tag_121:\n      mload(0x40)\n      dup1\n      swap2\n      sub\n      swap1\n      return\n        /* \"contracts/safeguard/Pauser.sol\":740:829  function addPauser(address account) public onlyOwner {... */\n    tag_19:\n      callvalue\n      dup1\n      iszero\n      tag_122\n      jumpi\n      0x00\n      dup1\n      revert\n    tag_122:\n      pop\n      tag_123\n      0x04\n      dup1\n      calldatasize\n      sub\n      dup2\n      add\n      swap1\n      tag_124\n      swap2\n      swap1\n      tag_44\n      jump\t// in\n    tag_124:\n      tag_125\n      jump\t// in\n    tag_123:\n      stop\n        /* \"contracts/safeguard/Pauser.sol\":496:556  function pause() public onlyPauser {... */\n    tag_20:\n      callvalue\n      dup1\n      iszero\n      tag_126\n      jumpi\n      0x00\n      dup1\n      revert\n    tag_126:\n      pop\n      tag_127\n      tag_128\n      jump\t// in\n    tag_127:\n      stop\n        /* \"contracts/safeguard/Ownable.sol\":1479:1564  function owner() public view virtual returns (address) {... */\n    tag_21:\n      callvalue\n      dup1\n      iszero\n      tag_129\n      jumpi\n      0x00\n      dup1\n      revert\n    tag_129:\n      pop\n      tag_130\n      tag_131\n      jump\t// in\n    tag_130:\n      mload(0x40)\n      tag_132\n      swap2\n      swap1\n      tag_74\n      jump\t// in\n    tag_132:\n      mload(0x40)\n      dup1\n      swap2\n      sub\n      swap1\n      return\n        /* \"contracts/NFTBridge.sol\":7834:8055  function setDestNFT(... */\n    tag_22:\n      callvalue\n      dup1\n      iszero\n      tag_133\n      jumpi\n      0x00\n      dup1\n      revert\n    tag_133:\n      pop\n      tag_134\n      0x04\n      dup1\n      calldatasize\n      sub\n      dup2\n      add\n      swap1\n      tag_135\n      swap2\n      swap1\n      tag_136\n      jump\t// in\n    tag_135:\n      tag_137\n      jump\t// in\n    tag_134:\n      stop\n        /* \"contracts/NFTBridge.sol\":9536:9709  function claimFee() external onlyOwner {... */\n    tag_23:\n      callvalue\n      dup1\n      iszero\n      tag_138\n      jumpi\n      0x00\n      dup1\n      revert\n    tag_138:\n      pop\n      tag_139\n      tag_140\n      jump\t// in\n    tag_139:\n      stop\n        /* \"contracts/NFTBridge.sol\":3190:3529  function totalFee(... */\n    tag_24:\n      callvalue\n      dup1\n      iszero\n      tag_141\n      jumpi\n      0x00\n      dup1\n      revert\n    tag_141:\n      pop\n      tag_142\n      0x04\n      dup1\n      calldatasize\n      sub\n      dup2\n      add\n      swap1\n      tag_143\n      swap2\n      swap1\n      tag_144\n      jump\t// in\n    tag_143:\n      tag_145\n      jump\t// in\n    tag_142:\n      mload(0x40)\n      tag_146\n      swap2\n      swap1\n      tag_64\n      jump\t// in\n    tag_146:\n      mload(0x40)\n      dup1\n      swap2\n      sub\n      swap1\n      return\n        /* \"contracts/NFTBridge.sol\":5238:6928  function executeMessage(... */\n    tag_25:\n      tag_147\n      0x04\n      dup1\n      calldatasize\n      sub\n      dup2\n      add\n      swap1\n      tag_148\n      swap2\n      swap1\n      tag_149\n      jump\t// in\n    tag_148:\n      tag_150\n      jump\t// in\n    tag_147:\n      mload(0x40)\n      tag_151\n      swap2\n      swap1\n      tag_51\n      jump\t// in\n    tag_151:\n      mload(0x40)\n      dup1\n      swap2\n      sub\n      swap1\n      return\n        /* \"contracts/NFTBridge.sol\":1227:1292  mapping(address => mapping(uint64 => address)) public destNFTAddr */\n    tag_26:\n      callvalue\n      dup1\n      iszero\n      tag_152\n      jumpi\n      0x00\n      dup1\n      revert\n    tag_152:\n      pop\n      tag_153\n      0x04\n      dup1\n      calldatasize\n      sub\n      dup2\n      add\n      swap1\n      tag_154\n      swap2\n      swap1\n      tag_155\n      jump\t// in\n    tag_154:\n      tag_156\n      jump\t// in\n    tag_153:\n      mload(0x40)\n      tag_157\n      swap2\n      swap1\n      tag_74\n      jump\t// in\n    tag_157:\n      mload(0x40)\n      dup1\n      swap2\n      sub\n      swap1\n      return\n        /* \"contracts/NFTBridge.sol\":8453:8588  function setTxFee(uint64 chid, uint256 fee) external onlyOwner {... */\n    tag_27:\n      callvalue\n      dup1\n      iszero\n      tag_158\n      jumpi\n      0x00\n      dup1\n      revert\n    tag_158:\n      pop\n      tag_159\n      0x04\n      dup1\n      calldatasize\n      sub\n      dup2\n      add\n      swap1\n      tag_160\n      swap2\n      swap1\n      tag_161\n      jump\t// in\n    tag_160:\n      tag_162\n      jump\t// in\n    tag_159:\n      stop\n        /* \"contracts/framework/MessageBusAddress.sol\":207:232  address public messageBus */\n    tag_28:\n      callvalue\n      dup1\n      iszero\n      tag_163\n      jumpi\n      0x00\n      dup1\n      revert\n    tag_163:\n      pop\n      tag_164\n      tag_165\n      jump\t// in\n    tag_164:\n      mload(0x40)\n      tag_166\n      swap2\n      swap1\n      tag_74\n      jump\t// in\n    tag_166:\n      mload(0x40)\n      dup1\n      swap2\n      sub\n      swap1\n      return\n        /* \"contracts/NFTBridge.sol\":3872:4689  function sendTo(... */\n    tag_29:\n      tag_167\n      0x04\n      dup1\n      calldatasize\n      sub\n      dup2\n      add\n      swap1\n      tag_168\n      swap2\n      swap1\n      tag_169\n      jump\t// in\n    tag_168:\n      tag_170\n      jump\t// in\n    tag_167:\n      stop\n        /* \"contracts/NFTBridge.sol\":8638:8820  function setDestBridge(uint64 dstChid, address dstNftBridge) external onlyOwner {... */\n    tag_30:\n      callvalue\n      dup1\n      iszero\n      tag_171\n      jumpi\n      0x00\n      dup1\n      revert\n    tag_171:\n      pop\n      tag_172\n      0x04\n      dup1\n      calldatasize\n      sub\n      dup2\n      add\n      swap1\n      tag_173\n      swap2\n      swap1\n      tag_174\n      jump\t// in\n    tag_173:\n      tag_175\n      jump\t// in\n    tag_172:\n      stop\n        /* \"contracts/NFTBridge.sol\":9349:9477  function delOrigNFT(address _nft) external onlyOwner {... */\n    tag_31:\n      callvalue\n      dup1\n      iszero\n      tag_176\n      jumpi\n      0x00\n      dup1\n      revert\n    tag_176:\n      pop\n      tag_177\n      0x04\n      dup1\n      calldatasize\n      sub\n      dup2\n      add\n      swap1\n      tag_178\n      swap2\n      swap1\n      tag_44\n      jump\t// in\n    tag_178:\n      tag_179\n      jump\t// in\n    tag_177:\n      stop\n        /* \"contracts/NFTBridge.sol\":4745:5202  function sendMsg(... */\n    tag_32:\n      tag_180\n      0x04\n      dup1\n      calldatasize\n      sub\n      dup2\n      add\n      swap1\n      tag_181\n      swap2\n      swap1\n      tag_182\n      jump\t// in\n    tag_181:\n      tag_183\n      jump\t// in\n    tag_180:\n      stop\n        /* \"contracts/safeguard/Ownable.sol\":1916:2105  function transferOwnership(address newOwner) public virtual onlyOwner {... */\n    tag_33:\n      callvalue\n      dup1\n      iszero\n      tag_184\n      jumpi\n      0x00\n      dup1\n      revert\n    tag_184:\n      pop\n      tag_185\n      0x04\n      dup1\n      calldatasize\n      sub\n      dup2\n      add\n      swap1\n      tag_186\n      swap2\n      swap1\n      tag_44\n      jump\t// in\n    tag_186:\n      tag_187\n      jump\t// in\n    tag_185:\n      stop\n        /* \"contracts/NFTBridge.sol\":9188:9315  function setOrigNFT(address _nft) external onlyOwner {... */\n    tag_45:\n        /* \"contracts/safeguard/Ownable.sol\":1702:1712  msg.sender */\n      caller\n        /* \"contracts/safeguard/Ownable.sol\":1691:1712  owner() == msg.sender */\n      0xffffffffffffffffffffffffffffffffffffffff\n      and\n        /* \"contracts/safeguard/Ownable.sol\":1691:1698  owner() */\n      tag_189\n        /* \"contracts/safeguard/Ownable.sol\":1691:1696  owner */\n      tag_131\n        /* \"contracts/safeguard/Ownable.sol\":1691:1698  owner() */\n      jump\t// in\n    tag_189:\n        /* \"contracts/safeguard/Ownable.sol\":1691:1712  owner() == msg.sender */\n      0xffffffffffffffffffffffffffffffffffffffff\n      and\n      eq\n        /* \"contracts/safeguard/Ownable.sol\":1683:1749  require(owner() == msg.sender, \"Ownable: caller is not the owner\") */\n      tag_190\n      jumpi\n      mload(0x40)\n      0x08c379a000000000000000000000000000000000000000000000000000000000\n      dup2\n      mstore\n      0x04\n      add\n      tag_191\n      swap1\n      tag_192\n      jump\t// in\n    tag_191:\n      mload(0x40)\n      dup1\n      swap2\n      sub\n      swap1\n      revert\n    tag_190:\n        /* \"contracts/NFTBridge.sol\":9267:9271  true */\n      0x01\n        /* \"contracts/NFTBridge.sol\":9251:9258  origNFT */\n      0x06\n        /* \"contracts/NFTBridge.sol\":9251:9264  origNFT[_nft] */\n      0x00\n        /* \"contracts/NFTBridge.sol\":9259:9263  _nft */\n      dup4\n        /* \"contracts/NFTBridge.sol\":9251:9264  origNFT[_nft] */\n      0xffffffffffffffffffffffffffffffffffffffff\n      and\n      0xffffffffffffffffffffffffffffffffffffffff\n      and\n      dup2\n      mstore\n      0x20\n      add\n      swap1\n      dup2\n      mstore\n      0x20\n      add\n      0x00\n      keccak256\n      0x00\n        /* \"contracts/NFTBridge.sol\":9251:9271  origNFT[_nft] = true */\n      0x0100\n      exp\n      dup2\n      sload\n      dup2\n      0xff\n      mul\n      not\n      and\n      swap1\n      dup4\n      iszero\n      iszero\n      mul\n      or\n      swap1\n      sstore\n      pop\n        /* \"contracts/NFTBridge.sol\":9286:9308  SetOrigNFT(_nft, true) */\n      0x9800fb32bf5eb9a3b2e42c910912da10ed1881dc538475101797669146166bf8\n        /* \"contracts/NFTBridge.sol\":9297:9301  _nft */\n      dup2\n        /* \"contracts/NFTBridge.sol\":9303:9307  true */\n      0x01\n        /* \"contracts/NFTBridge.sol\":9286:9308  SetOrigNFT(_nft, true) */\n      mload(0x40)\n      tag_194\n      swap3\n      swap2\n      swap1\n      tag_195\n      jump\t// in\n    tag_194:\n      mload(0x40)\n      dup1\n      swap2\n      sub\n      swap1\n      log1\n        /* \"contracts/NFTBridge.sol\":9188:9315  function setOrigNFT(address _nft) external onlyOwner {... */\n      pop\n      jump\t// out\n        /* \"contracts/framework/MessageReceiverApp.sol\":3126:3360  function executeMessageWithTransferRefund(... */\n    tag_49:\n        /* \"contracts/framework/MessageReceiverApp.sol\":3341:3356  ExecutionStatus */\n      0x00\n        /* \"contracts/framework/MessageReceiverApp.sol\":292:302  messageBus */\n      0x01\n      0x00\n      swap1\n      sload\n      swap1\n      0x0100\n      exp\n      swap1\n      div\n      0xffffffffffffffffffffffffffffffffffffffff\n      and\n        /* \"contracts/framework/MessageReceiverApp.sol\":278:302  msg.sender == messageBus */\n      0xffffffffffffffffffffffffffffffffffffffff\n      and\n        /* \"contracts/framework/MessageReceiverApp.sol\":278:288  msg.sender */\n      caller\n        /* \"contracts/framework/MessageReceiverApp.sol\":278:302  msg.sender == messageBus */\n      0xffffffffffffffffffffffffffffffffffffffff\n      and\n      eq\n        /* \"contracts/framework/MessageReceiverApp.sol\":270:332  require(msg.sender == messageBus, \"caller is not message bus\") */\n      tag_197\n      jumpi\n      mload(0x40)\n      0x08c379a000000000000000000000000000000000000000000000000000000000\n      dup2\n      mstore\n      0x04\n      add\n      tag_198\n      swap1\n      tag_199\n      jump\t// in\n    tag_198:\n      mload(0x40)\n      dup1\n      swap2\n      sub\n      swap1\n      revert\n    tag_197:\n        /* \"contracts/framework/MessageReceiverApp.sol\":3126:3360  function executeMessageWithTransferRefund(... */\n      swap6\n      swap5\n      pop\n      pop\n      pop\n      pop\n      pop\n      jump\t// out\n        /* \"contracts/NFTBridge.sol\":1471:1510  mapping(address => bool) public origNFT */\n    tag_55:\n      mstore(0x20, 0x06)\n      dup1\n      0x00\n      mstore\n      keccak256(0x00, 0x40)\n      0x00\n      swap2\n      pop\n      sload\n      swap1\n      0x0100\n      exp\n      swap1\n      div\n      0xff\n      and\n      dup2\n      jump\t// out\n        /* \"contracts/NFTBridge.sol\":979:1022  mapping(uint64 => uint256) public destTxFee */\n    tag_62:\n      mstore(0x20, 0x03)\n      dup1\n      0x00\n      mstore\n      keccak256(0x00, 0x40)\n      0x00\n      swap2\n      pop\n      swap1\n      pop\n      sload\n      dup2\n      jump\t// out\n        /* \"contracts/NFTBridge.sol\":2654:2752  function init(address _msgBus) external {... */\n    tag_68:\n        /* \"contracts/NFTBridge.sol\":2704:2715  initOwner() */\n      tag_202\n        /* \"contracts/NFTBridge.sol\":2704:2713  initOwner */\n      tag_203\n        /* \"contracts/NFTBridge.sol\":2704:2715  initOwner() */\n      jump\t// in\n    tag_202:\n        /* \"contracts/NFTBridge.sol\":2738:2745  _msgBus */\n      dup1\n        /* \"contracts/NFTBridge.sol\":2725:2735  messageBus */\n      0x01\n      0x00\n        /* \"contracts/NFTBridge.sol\":2725:2745  messageBus = _msgBus */\n      0x0100\n      exp\n      dup2\n      sload\n      dup2\n      0xffffffffffffffffffffffffffffffffffffffff\n      mul\n      not\n      and\n      swap1\n      dup4\n      0xffffffffffffffffffffffffffffffffffffffff\n      and\n      mul\n      or\n      swap1\n      sstore\n      pop\n        /* \"contracts/NFTBridge.sol\":2654:2752  function init(address _msgBus) external {... */\n      pop\n      jump\t// out\n        /* \"contracts/NFTBridge.sol\":1072:1116  mapping(uint64 => address) public destBridge */\n    tag_72:\n      mstore(0x20, 0x04)\n      dup1\n      0x00\n      mstore\n      keccak256(0x00, 0x40)\n      0x00\n      swap2\n      pop\n      sload\n      swap1\n      0x0100\n      exp\n      swap1\n      div\n      0xffffffffffffffffffffffffffffffffffffffff\n      and\n      dup2\n      jump\t// out\n        /* \"contracts/NFTBridge.sol\":8088:8426  function setDestNFTs(... */\n    tag_79:\n        /* \"contracts/safeguard/Ownable.sol\":1702:1712  msg.sender */\n      caller\n        /* \"contracts/safeguard/Ownable.sol\":1691:1712  owner() == msg.sender */\n      0xffffffffffffffffffffffffffffffffffffffff\n      and\n        /* \"contracts/safeguard/Ownable.sol\":1691:1698  owner() */\n      tag_205\n        /* \"contracts/safeguard/Ownable.sol\":1691:1696  owner */\n      tag_131\n        /* \"contracts/safeguard/Ownable.sol\":1691:1698  owner() */\n      jump\t// in\n    tag_205:\n        /* \"contracts/safeguard/Ownable.sol\":1691:1712  owner() == msg.sender */\n      0xffffffffffffffffffffffffffffffffffffffff\n      and\n      eq\n        /* \"contracts/safeguard/Ownable.sol\":1683:1749  require(owner() == msg.sender, \"Ownable: caller is not the owner\") */\n      tag_206\n      jumpi\n      mload(0x40)\n      0x08c379a000000000000000000000000000000000000000000000000000000000\n      dup2\n      mstore\n      0x04\n      add\n      tag_207\n      swap1\n      tag_192\n      jump\t// in\n    tag_207:\n      mload(0x40)\n      dup1\n      swap2\n      sub\n      swap1\n      revert\n    tag_206:\n        /* \"contracts/NFTBridge.sol\":8264:8270  dstNft */\n      dup2\n      dup2\n        /* \"contracts/NFTBridge.sol\":8264:8277  dstNft.length */\n      swap1\n      pop\n        /* \"contracts/NFTBridge.sol\":8246:8253  dstChid */\n      dup5\n      dup5\n        /* \"contracts/NFTBridge.sol\":8246:8260  dstChid.length */\n      swap1\n      pop\n        /* \"contracts/NFTBridge.sol\":8246:8277  dstChid.length == dstNft.length */\n      eq\n        /* \"contracts/NFTBridge.sol\":8238:8297  require(dstChid.length == dstNft.length, \"length mismatch\") */\n      tag_209\n      jumpi\n      mload(0x40)\n      0x08c379a000000000000000000000000000000000000000000000000000000000\n      dup2\n      mstore\n      0x04\n      add\n      tag_210\n      swap1\n      tag_211\n      jump\t// in\n    tag_210:\n      mload(0x40)\n      dup1\n      swap2\n      sub\n      swap1\n      revert\n    tag_209:\n        /* \"contracts/NFTBridge.sol\":8312:8321  uint256 i */\n      0x00\n        /* \"contracts/NFTBridge.sol\":8307:8420  for (uint256 i = 0; i < dstChid.length; i++) {... */\n    tag_212:\n        /* \"contracts/NFTBridge.sol\":8331:8338  dstChid */\n      dup5\n      dup5\n        /* \"contracts/NFTBridge.sol\":8331:8345  dstChid.length */\n      swap1\n      pop\n        /* \"contracts/NFTBridge.sol\":8327:8328  i */\n      dup2\n        /* \"contracts/NFTBridge.sol\":8327:8345  i < dstChid.length */\n      lt\n        /* \"contracts/NFTBridge.sol\":8307:8420  for (uint256 i = 0; i < dstChid.length; i++) {... */\n      iszero\n      tag_213\n      jumpi\n        /* \"contracts/NFTBridge.sol\":8400:8406  dstNft */\n      dup3\n      dup3\n        /* \"contracts/NFTBridge.sol\":8407:8408  i */\n      dup3\n        /* \"contracts/NFTBridge.sol\":8400:8409  dstNft[i] */\n      dup2\n      dup2\n      lt\n      tag_215\n      jumpi\n      tag_216\n      tag_217\n      jump\t// in\n    tag_216:\n    tag_215:\n      swap1\n      pop\n      0x20\n      mul\n      add\n      0x20\n      dup2\n      add\n      swap1\n      tag_218\n      swap2\n      swap1\n      tag_44\n      jump\t// in\n    tag_218:\n        /* \"contracts/NFTBridge.sol\":8366:8377  destNFTAddr */\n      0x05\n        /* \"contracts/NFTBridge.sol\":8366:8385  destNFTAddr[srcNft] */\n      0x00\n        /* \"contracts/NFTBridge.sol\":8378:8384  srcNft */\n      dup9\n        /* \"contracts/NFTBridge.sol\":8366:8385  destNFTAddr[srcNft] */\n      0xffffffffffffffffffffffffffffffffffffffff\n      and\n      0xffffffffffffffffffffffffffffffffffffffff\n      and\n      dup2\n      mstore\n      0x20\n      add\n      swap1\n      dup2\n      mstore\n      0x20\n      add\n      0x00\n      keccak256\n        /* \"contracts/NFTBridge.sol\":8366:8397  destNFTAddr[srcNft][dstChid[i]] */\n      0x00\n        /* \"contracts/NFTBridge.sol\":8386:8393  dstChid */\n      dup8\n      dup8\n        /* \"contracts/NFTBridge.sol\":8394:8395  i */\n      dup6\n        /* \"contracts/NFTBridge.sol\":8386:8396  dstChid[i] */\n      dup2\n      dup2\n      lt\n      tag_219\n      jumpi\n      tag_220\n      tag_217\n      jump\t// in\n    tag_220:\n    tag_219:\n      swap1\n      pop\n      0x20\n      mul\n      add\n      0x20\n      dup2\n      add\n      swap1\n      tag_221\n      swap2\n      swap1\n      tag_61\n      jump\t// in\n    tag_221:\n        /* \"contracts/NFTBridge.sol\":8366:8397  destNFTAddr[srcNft][dstChid[i]] */\n      0xffffffffffffffff\n      and\n      0xffffffffffffffff\n      and\n      dup2\n      mstore\n      0x20\n      add\n      swap1\n      dup2\n      mstore\n      0x20\n      add\n      0x00\n      keccak256\n      0x00\n        /* \"contracts/NFTBridge.sol\":8366:8409  destNFTAddr[srcNft][dstChid[i]] = dstNft[i] */\n      0x0100\n      exp\n      dup2\n      sload\n      dup2\n      0xffffffffffffffffffffffffffffffffffffffff\n      mul\n      not\n      and\n      swap1\n      dup4\n      0xffffffffffffffffffffffffffffffffffffffff\n      and\n      mul\n      or\n      swap1\n      sstore\n      pop\n        /* \"contracts/NFTBridge.sol\":8347:8350  i++ */\n      dup1\n      dup1\n      tag_222\n      swap1\n      tag_223\n      jump\t// in\n    tag_222:\n      swap2\n      pop\n      pop\n        /* \"contracts/NFTBridge.sol\":8307:8420  for (uint256 i = 0; i < dstChid.length; i++) {... */\n      jump(tag_212)\n    tag_213:\n      pop\n        /* \"contracts/NFTBridge.sol\":8088:8426  function setDestNFTs(... */\n      pop\n      pop\n      pop\n      pop\n      pop\n      jump\t// out\n        /* \"contracts/safeguard/Pauser.sol\":562:626  function unpause() public onlyPauser {... */\n    tag_82:\n        /* \"contracts/safeguard/Pauser.sol\":427:447  isPauser(msg.sender) */\n      tag_225\n        /* \"contracts/safeguard/Pauser.sol\":436:446  msg.sender */\n      caller\n        /* \"contracts/safeguard/Pauser.sol\":427:435  isPauser */\n      tag_91\n        /* \"contracts/safeguard/Pauser.sol\":427:447  isPauser(msg.sender) */\n      jump\t// in\n    tag_225:\n        /* \"contracts/safeguard/Pauser.sol\":419:472  require(isPauser(msg.sender), \"Caller is not pauser\") */\n      tag_226\n      jumpi\n      mload(0x40)\n      0x08c379a000000000000000000000000000000000000000000000000000000000\n      dup2\n      mstore\n      0x04\n      add\n      tag_227\n      swap1\n      tag_228\n      jump\t// in\n    tag_227:\n      mload(0x40)\n      dup1\n      swap2\n      sub\n      swap1\n      revert\n    tag_226:\n        /* \"contracts/safeguard/Pauser.sol\":609:619  _unpause() */\n      tag_230\n        /* \"contracts/safeguard/Pauser.sol\":609:617  _unpause */\n      tag_231\n        /* \"contracts/safeguard/Pauser.sol\":609:619  _unpause() */\n      jump\t// in\n    tag_230:\n        /* \"contracts/safeguard/Pauser.sol\":562:626  function unpause() public onlyPauser {... */\n      jump\t// out\n        /* \"contracts/NFTBridge.sol\":8886:9115  function setDestBridges(uint64[] calldata dstChid, address[] calldata dstNftBridge) external onlyOwner {... */\n    tag_87:\n        /* \"contracts/safeguard/Ownable.sol\":1702:1712  msg.sender */\n      caller\n        /* \"contracts/safeguard/Ownable.sol\":1691:1712  owner() == msg.sender */\n      0xffffffffffffffffffffffffffffffffffffffff\n      and\n        /* \"contracts/safeguard/Ownable.sol\":1691:1698  owner() */\n      tag_233\n        /* \"contracts/safeguard/Ownable.sol\":1691:1696  owner */\n      tag_131\n        /* \"contracts/safeguard/Ownable.sol\":1691:1698  owner() */\n      jump\t// in\n    tag_233:\n        /* \"contracts/safeguard/Ownable.sol\":1691:1712  owner() == msg.sender */\n      0xffffffffffffffffffffffffffffffffffffffff\n      and\n      eq\n        /* \"contracts/safeguard/Ownable.sol\":1683:1749  require(owner() == msg.sender, \"Ownable: caller is not the owner\") */\n      tag_234\n      jumpi\n      mload(0x40)\n      0x08c379a000000000000000000000000000000000000000000000000000000000\n      dup2\n      mstore\n      0x04\n      add\n      tag_235\n      swap1\n      tag_192\n      jump\t// in\n    tag_235:\n      mload(0x40)\n      dup1\n      swap2\n      sub\n      swap1\n      revert\n    tag_234:\n        /* \"contracts/NFTBridge.sol\":9004:9013  uint256 i */\n      0x00\n        /* \"contracts/NFTBridge.sol\":8999:9109  for (uint256 i = 0; i < dstChid.length; i++) {... */\n    tag_237:\n        /* \"contracts/NFTBridge.sol\":9023:9030  dstChid */\n      dup5\n      dup5\n        /* \"contracts/NFTBridge.sol\":9023:9037  dstChid.length */\n      swap1\n      pop\n        /* \"contracts/NFTBridge.sol\":9019:9020  i */\n      dup2\n        /* \"contracts/NFTBridge.sol\":9019:9037  i < dstChid.length */\n      lt\n        /* \"contracts/NFTBridge.sol\":8999:9109  for (uint256 i = 0; i < dstChid.length; i++) {... */\n      iszero\n      tag_238\n      jumpi\n        /* \"contracts/NFTBridge.sol\":9083:9095  dstNftBridge */\n      dup3\n      dup3\n        /* \"contracts/NFTBridge.sol\":9096:9097  i */\n      dup3\n        /* \"contracts/NFTBridge.sol\":9083:9098  dstNftBridge[i] */\n      dup2\n      dup2\n      lt\n      tag_240\n      jumpi\n      tag_241\n      tag_217\n      jump\t// in\n    tag_241:\n    tag_240:\n      swap1\n      pop\n      0x20\n      mul\n      add\n      0x20\n      dup2\n      add\n      swap1\n      tag_242\n      swap2\n      swap1\n      tag_44\n      jump\t// in\n    tag_242:\n        /* \"contracts/NFTBridge.sol\":9058:9068  destBridge */\n      0x04\n        /* \"contracts/NFTBridge.sol\":9058:9080  destBridge[dstChid[i]] */\n      0x00\n        /* \"contracts/NFTBridge.sol\":9069:9076  dstChid */\n      dup8\n      dup8\n        /* \"contracts/NFTBridge.sol\":9077:9078  i */\n      dup6\n        /* \"contracts/NFTBridge.sol\":9069:9079  dstChid[i] */\n      dup2\n      dup2\n      lt\n      tag_243\n      jumpi\n      tag_244\n      tag_217\n      jump\t// in\n    tag_244:\n    tag_243:\n      swap1\n      pop\n      0x20\n      mul\n      add\n      0x20\n      dup2\n      add\n      swap1\n      tag_245\n      swap2\n      swap1\n      tag_61\n      jump\t// in\n    tag_245:\n        /* \"contracts/NFTBridge.sol\":9058:9080  destBridge[dstChid[i]] */\n      0xffffffffffffffff\n      and\n      0xffffffffffffffff\n      and\n      dup2\n      mstore\n      0x20\n      add\n      swap1\n      dup2\n      mstore\n      0x20\n      add\n      0x00\n      keccak256\n      0x00\n        /* \"contracts/NFTBridge.sol\":9058:9098  destBridge[dstChid[i]] = dstNftBridge[i] */\n      0x0100\n      exp\n      dup2\n      sload\n      dup2\n      0xffffffffffffffffffffffffffffffffffffffff\n      mul\n      not\n      and\n      swap1\n      dup4\n      0xffffffffffffffffffffffffffffffffffffffff\n      and\n      mul\n      or\n      swap1\n      sstore\n      pop\n        /* \"contracts/NFTBridge.sol\":9039:9042  i++ */\n      dup1\n      dup1\n      tag_246\n      swap1\n      tag_223\n      jump\t// in\n    tag_246:\n      swap2\n      pop\n      pop\n        /* \"contracts/NFTBridge.sol\":8999:9109  for (uint256 i = 0; i < dstChid.length; i++) {... */\n      jump(tag_237)\n    tag_238:\n      pop\n        /* \"contracts/NFTBridge.sol\":8886:9115  function setDestBridges(uint64[] calldata dstChid, address[] calldata dstNftBridge) external onlyOwner {... */\n      pop\n      pop\n      pop\n      pop\n      jump\t// out\n        /* \"contracts/safeguard/Pauser.sol\":632:734  function isPauser(address account) public view returns (bool) {... */\n    tag_91:\n        /* \"contracts/safeguard/Pauser.sol\":688:692  bool */\n      0x00\n        /* \"contracts/safeguard/Pauser.sol\":711:718  pausers */\n      0x02\n        /* \"contracts/safeguard/Pauser.sol\":711:727  pausers[account] */\n      0x00\n        /* \"contracts/safeguard/Pauser.sol\":719:726  account */\n      dup4\n        /* \"contracts/safeguard/Pauser.sol\":711:727  pausers[account] */\n      0xffffffffffffffffffffffffffffffffffffffff\n      and\n      0xffffffffffffffffffffffffffffffffffffffff\n      and\n      dup2\n      mstore\n      0x20\n      add\n      swap1\n      dup2\n      mstore\n      0x20\n      add\n      0x00\n      keccak256\n      0x00\n      swap1\n      sload\n      swap1\n      0x0100\n      exp\n      swap1\n      div\n      0xff\n      and\n        /* \"contracts/safeguard/Pauser.sol\":704:727  return pausers[account] */\n      swap1\n      pop\n        /* \"contracts/safeguard/Pauser.sol\":632:734  function isPauser(address account) public view returns (bool) {... */\n      swap2\n      swap1\n      pop\n      jump\t// out\n        /* \"contracts/framework/MessageBusAddress.sol\":239:385  function setMessageBus(address _messageBus) public onlyOwner {... */\n    tag_96:\n        /* \"contracts/safeguard/Ownable.sol\":1702:1712  msg.sender */\n      caller\n        /* \"contracts/safeguard/Ownable.sol\":1691:1712  owner() == msg.sender */\n      0xffffffffffffffffffffffffffffffffffffffff\n      and\n        /* \"contracts/safeguard/Ownable.sol\":1691:1698  owner() */\n      tag_249\n        /* \"contracts/safeguard/Ownable.sol\":1691:1696  owner */\n      tag_131\n        /* \"contracts/safeguard/Ownable.sol\":1691:1698  owner() */\n      jump\t// in\n    tag_249:\n        /* \"contracts/safeguard/Ownable.sol\":1691:1712  owner() == msg.sender */\n      0xffffffffffffffffffffffffffffffffffffffff\n      and\n      eq\n        /* \"contracts/safeguard/Ownable.sol\":1683:1749  require(owner() == msg.sender, \"Ownable: caller is not the owner\") */\n      tag_250\n      jumpi\n      mload(0x40)\n      0x08c379a000000000000000000000000000000000000000000000000000000000\n      dup2\n      mstore\n      0x04\n      add\n      tag_251\n      swap1\n      tag_192\n      jump\t// in\n    tag_251:\n      mload(0x40)\n      dup1\n      swap2\n      sub\n      swap1\n      revert\n    tag_250:\n        /* \"contracts/framework/MessageBusAddress.sol\":323:334  _messageBus */\n      dup1\n        /* \"contracts/framework/MessageBusAddress.sol\":310:320  messageBus */\n      0x01\n      0x00\n        /* \"contracts/framework/MessageBusAddress.sol\":310:334  messageBus = _messageBus */\n      0x0100\n      exp\n      dup2\n      sload\n      dup2\n      0xffffffffffffffffffffffffffffffffffffffff\n      mul\n      not\n      and\n      swap1\n      dup4\n      0xffffffffffffffffffffffffffffffffffffffff\n      and\n      mul\n      or\n      swap1\n      sstore\n      pop\n        /* \"contracts/framework/MessageBusAddress.sol\":349:378  MessageBusUpdated(messageBus) */\n      0x3f8223bcd8b3b875473e9f9e14e1ad075451a2b5ffd31591655da9a01516bf5e\n        /* \"contracts/framework/MessageBusAddress.sol\":367:377  messageBus */\n      0x01\n      0x00\n      swap1\n      sload\n      swap1\n      0x0100\n      exp\n      swap1\n      div\n      0xffffffffffffffffffffffffffffffffffffffff\n      and\n        /* \"contracts/framework/MessageBusAddress.sol\":349:378  MessageBusUpdated(messageBus) */\n      mload(0x40)\n      tag_253\n      swap2\n      swap1\n      tag_74\n      jump\t// in\n    tag_253:\n      mload(0x40)\n      dup1\n      swap2\n      sub\n      swap1\n      log1\n        /* \"contracts/framework/MessageBusAddress.sol\":239:385  function setMessageBus(address _messageBus) public onlyOwner {... */\n      pop\n      jump\t// out\n        /* \"contracts/framework/MessageReceiverApp.sol\":2419:2708  function executeMessageWithTransferFallback(... */\n    tag_100:\n        /* \"contracts/framework/MessageReceiverApp.sol\":2689:2704  ExecutionStatus */\n      0x00\n        /* \"contracts/framework/MessageReceiverApp.sol\":292:302  messageBus */\n      0x01\n      0x00\n      swap1\n      sload\n      swap1\n      0x0100\n      exp\n      swap1\n      div\n      0xffffffffffffffffffffffffffffffffffffffff\n      and\n        /* \"contracts/framework/MessageReceiverApp.sol\":278:302  msg.sender == messageBus */\n      0xffffffffffffffffffffffffffffffffffffffff\n      and\n        /* \"contracts/framework/MessageReceiverApp.sol\":278:288  msg.sender */\n      caller\n        /* \"contracts/framework/MessageReceiverApp.sol\":278:302  msg.sender == messageBus */\n      0xffffffffffffffffffffffffffffffffffffffff\n      and\n      eq\n        /* \"contracts/framework/MessageReceiverApp.sol\":270:332  require(msg.sender == messageBus, \"caller is not message bus\") */\n      tag_255\n      jumpi\n      mload(0x40)\n      0x08c379a000000000000000000000000000000000000000000000000000000000\n      dup2\n      mstore\n      0x04\n      add\n      tag_256\n      swap1\n      tag_199\n      jump\t// in\n    tag_256:\n      mload(0x40)\n      dup1\n      swap2\n      sub\n      swap1\n      revert\n    tag_255:\n        /* \"contracts/framework/MessageReceiverApp.sol\":2419:2708  function executeMessageWithTransferFallback(... */\n      swap8\n      swap7\n      pop\n      pop\n      pop\n      pop\n      pop\n      pop\n      pop\n      jump\t// out\n        /* \"@openzeppelin/contracts/security/Pausable.sol\":1098:1182  function paused() public view virtual returns (bool) {... */\n    tag_104:\n        /* \"@openzeppelin/contracts/security/Pausable.sol\":1145:1149  bool */\n      0x00\n        /* \"@openzeppelin/contracts/security/Pausable.sol\":1168:1175  _paused */\n      0x01\n      0x14\n      swap1\n      sload\n      swap1\n      0x0100\n      exp\n      swap1\n      div\n      0xff\n      and\n        /* \"@openzeppelin/contracts/security/Pausable.sol\":1161:1175  return _paused */\n      swap1\n      pop\n        /* \"@openzeppelin/contracts/security/Pausable.sol\":1098:1182  function paused() public view virtual returns (bool) {... */\n      swap1\n      jump\t// out\n        /* \"contracts/safeguard/Pauser.sol\":835:930  function removePauser(address account) public onlyOwner {... */\n    tag_109:\n        /* \"contracts/safeguard/Ownable.sol\":1702:1712  msg.sender */\n      caller\n        /* \"contracts/safeguard/Ownable.sol\":1691:1712  owner() == msg.sender */\n      0xffffffffffffffffffffffffffffffffffffffff\n      and\n        /* \"contracts/safeguard/Ownable.sol\":1691:1698  owner() */\n      tag_260\n        /* \"contracts/safeguard/Ownable.sol\":1691:1696  owner */\n      tag_131\n        /* \"contracts/safeguard/Ownable.sol\":1691:1698  owner() */\n      jump\t// in\n    tag_260:\n        /* \"contracts/safeguard/Ownable.sol\":1691:1712  owner() == msg.sender */\n      0xffffffffffffffffffffffffffffffffffffffff\n      and\n      eq\n        /* \"contracts/safeguard/Ownable.sol\":1683:1749  require(owner() == msg.sender, \"Ownable: caller is not the owner\") */\n      tag_261\n      jumpi\n      mload(0x40)\n      0x08c379a000000000000000000000000000000000000000000000000000000000\n      dup2\n      mstore\n      0x04\n      add\n      tag_262\n      swap1\n      tag_192\n      jump\t// in\n    tag_262:\n      mload(0x40)\n      dup1\n      swap2\n      sub\n      swap1\n      revert\n    tag_261:\n        /* \"contracts/safeguard/Pauser.sol\":901:923  _removePauser(account) */\n      tag_264\n        /* \"contracts/safeguard/Pauser.sol\":915:922  account */\n      dup2\n        /* \"contracts/safeguard/Pauser.sol\":901:914  _removePauser */\n      tag_265\n        /* \"contracts/safeguard/Pauser.sol\":901:923  _removePauser(account) */\n      jump\t// in\n    tag_264:\n        /* \"contracts/safeguard/Pauser.sol\":835:930  function removePauser(address account) public onlyOwner {... */\n      pop\n      jump\t// out\n        /* \"contracts/safeguard/Pauser.sol\":936:1011  function renouncePauser() public {... */\n    tag_112:\n        /* \"contracts/safeguard/Pauser.sol\":979:1004  _removePauser(msg.sender) */\n      tag_267\n        /* \"contracts/safeguard/Pauser.sol\":993:1003  msg.sender */\n      caller\n        /* \"contracts/safeguard/Pauser.sol\":979:992  _removePauser */\n      tag_265\n        /* \"contracts/safeguard/Pauser.sol\":979:1004  _removePauser(msg.sender) */\n      jump\t// in\n    tag_267:\n        /* \"contracts/safeguard/Pauser.sol\":936:1011  function renouncePauser() public {... */\n      jump\t// out\n        /* \"contracts/framework/MessageReceiverApp.sol\":1271:1552  function executeMessageWithTransfer(... */\n    tag_115:\n        /* \"contracts/framework/MessageReceiverApp.sol\":1533:1548  ExecutionStatus */\n      0x00\n        /* \"contracts/framework/MessageReceiverApp.sol\":292:302  messageBus */\n      0x01\n      0x00\n      swap1\n      sload\n      swap1\n      0x0100\n      exp\n      swap1\n      div\n      0xffffffffffffffffffffffffffffffffffffffff\n      and\n        /* \"contracts/framework/MessageReceiverApp.sol\":278:302  msg.sender == messageBus */\n      0xffffffffffffffffffffffffffffffffffffffff\n      and\n        /* \"contracts/framework/MessageReceiverApp.sol\":278:288  msg.sender */\n      caller\n        /* \"contracts/framework/MessageReceiverApp.sol\":278:302  msg.sender == messageBus */\n      0xffffffffffffffffffffffffffffffffffffffff\n      and\n      eq\n        /* \"contracts/framework/MessageReceiverApp.sol\":270:332  require(msg.sender == messageBus, \"caller is not message bus\") */\n      tag_269\n      jumpi\n      mload(0x40)\n      0x08c379a000000000000000000000000000000000000000000000000000000000\n      dup2\n      mstore\n      0x04\n      add\n      tag_270\n      swap1\n      tag_199\n      jump\t// in\n    tag_270:\n      mload(0x40)\n      dup1\n      swap2\n      sub\n      swap1\n      revert\n    tag_269:\n        /* \"contracts/framework/MessageReceiverApp.sol\":1271:1552  function executeMessageWithTransfer(... */\n      swap8\n      swap7\n      pop\n      pop\n      pop\n      pop\n      pop\n      pop\n      pop\n      jump\t// out\n        /* \"contracts/safeguard/Pauser.sol\":199:238  mapping(address => bool) public pausers */\n    tag_120:\n      mstore(0x20, 0x02)\n      dup1\n      0x00\n      mstore\n      keccak256(0x00, 0x40)\n      0x00\n      swap2\n      pop\n      sload\n      swap1\n      0x0100\n      exp\n      swap1\n      div\n      0xff\n      and\n      dup2\n      jump\t// out\n        /* \"contracts/safeguard/Pauser.sol\":740:829  function addPauser(address account) public onlyOwner {... */\n    tag_125:\n        /* \"contracts/safeguard/Ownable.sol\":1702:1712  msg.sender */\n      caller\n        /* \"contracts/safeguard/Ownable.sol\":1691:1712  owner() == msg.sender */\n      0xffffffffffffffffffffffffffffffffffffffff\n      and\n        /* \"contracts/safeguard/Ownable.sol\":1691:1698  owner() */\n      tag_273\n        /* \"contracts/safeguard/Ownable.sol\":1691:1696  owner */\n      tag_131\n        /* \"contracts/safeguard/Ownable.sol\":1691:1698  owner() */\n      jump\t// in\n    tag_273:\n        /* \"contracts/safeguard/Ownable.sol\":1691:1712  owner() == msg.sender */\n      0xffffffffffffffffffffffffffffffffffffffff\n      and\n      eq\n        /* \"contracts/safeguard/Ownable.sol\":1683:1749  require(owner() == msg.sender, \"Ownable: caller is not the owner\") */\n      tag_274\n      jumpi\n      mload(0x40)\n      0x08c379a000000000000000000000000000000000000000000000000000000000\n      dup2\n      mstore\n      0x04\n      add\n      tag_275\n      swap1\n      tag_192\n      jump\t// in\n    tag_275:\n      mload(0x40)\n      dup1\n      swap2\n      sub\n      swap1\n      revert\n    tag_274:\n        /* \"contracts/safeguard/Pauser.sol\":803:822  _addPauser(account) */\n      tag_277\n        /* \"contracts/safeguard/Pauser.sol\":814:821  account */\n      dup2\n        /* \"contracts/safeguard/Pauser.sol\":803:813  _addPauser */\n      tag_278\n        /* \"contracts/safeguard/Pauser.sol\":803:822  _addPauser(account) */\n      jump\t// in\n    tag_277:\n        /* \"contracts/safeguard/Pauser.sol\":740:829  function addPauser(address account) public onlyOwner {... */\n      pop\n      jump\t// out\n        /* \"contracts/safeguard/Pauser.sol\":496:556  function pause() public onlyPauser {... */\n    tag_128:\n        /* \"contracts/safeguard/Pauser.sol\":427:447  isPauser(msg.sender) */\n      tag_280\n        /* \"contracts/safeguard/Pauser.sol\":436:446  msg.sender */\n      caller\n        /* \"contracts/safeguard/Pauser.sol\":427:435  isPauser */\n      tag_91\n        /* \"contracts/safeguard/Pauser.sol\":427:447  isPauser(msg.sender) */\n      jump\t// in\n    tag_280:\n        /* \"contracts/safeguard/Pauser.sol\":419:472  require(isPauser(msg.sender), \"Caller is not pauser\") */\n      tag_281\n      jumpi\n      mload(0x40)\n      0x08c379a000000000000000000000000000000000000000000000000000000000\n      dup2\n      mstore\n      0x04\n      add\n      tag_282\n      swap1\n      tag_228\n      jump\t// in\n    tag_282:\n      mload(0x40)\n      dup1\n      swap2\n      sub\n      swap1\n      revert\n    tag_281:\n        /* \"contracts/safeguard/Pauser.sol\":541:549  _pause() */\n      tag_284\n        /* \"contracts/safeguard/Pauser.sol\":541:547  _pause */\n      tag_285\n        /* \"contracts/safeguard/Pauser.sol\":541:549  _pause() */\n      jump\t// in\n    tag_284:\n        /* \"contracts/safeguard/Pauser.sol\":496:556  function pause() public onlyPauser {... */\n      jump\t// out\n        /* \"contracts/safeguard/Ownable.sol\":1479:1564  function owner() public view virtual returns (address) {... */\n    tag_131:\n        /* \"contracts/safeguard/Ownable.sol\":1525:1532  address */\n      0x00\n        /* \"contracts/safeguard/Ownable.sol\":1551:1557  _owner */\n      dup1\n      0x00\n      swap1\n      sload\n      swap1\n      0x0100\n      exp\n      swap1\n      div\n      0xffffffffffffffffffffffffffffffffffffffff\n      and\n        /* \"contracts/safeguard/Ownable.sol\":1544:1557  return _owner */\n      swap1\n      pop\n        /* \"contracts/safeguard/Ownable.sol\":1479:1564  function owner() public view virtual returns (address) {... */\n      swap1\n      jump\t// out\n        /* \"contracts/NFTBridge.sol\":7834:8055  function setDestNFT(... */\n    tag_137:\n        /* \"contracts/safeguard/Ownable.sol\":1702:1712  msg.sender */\n      caller\n        /* \"contracts/safeguard/Ownable.sol\":1691:1712  owner() == msg.sender */\n      0xffffffffffffffffffffffffffffffffffffffff\n      and\n        /* \"contracts/safeguard/Ownable.sol\":1691:1698  owner() */\n      tag_288\n        /* \"contracts/safeguard/Ownable.sol\":1691:1696  owner */\n      tag_131\n        /* \"contracts/safeguard/Ownable.sol\":1691:1698  owner() */\n      jump\t// in\n    tag_288:\n        /* \"contracts/safeguard/Ownable.sol\":1691:1712  owner() == msg.sender */\n      0xffffffffffffffffffffffffffffffffffffffff\n      and\n      eq\n        /* \"contracts/safeguard/Ownable.sol\":1683:1749  require(owner() == msg.sender, \"Ownable: caller is not the owner\") */\n      tag_289\n      jumpi\n      mload(0x40)\n      0x08c379a000000000000000000000000000000000000000000000000000000000\n      dup2\n      mstore\n      0x04\n      add\n      tag_290\n      swap1\n      tag_192\n      jump\t// in\n    tag_290:\n      mload(0x40)\n      dup1\n      swap2\n      sub\n      swap1\n      revert\n    tag_289:\n        /* \"contracts/NFTBridge.sol\":7992:7998  dstNft */\n      dup1\n        /* \"contracts/NFTBridge.sol\":7961:7972  destNFTAddr */\n      0x05\n        /* \"contracts/NFTBridge.sol\":7961:7980  destNFTAddr[srcNft] */\n      0x00\n        /* \"contracts/NFTBridge.sol\":7973:7979  srcNft */\n      dup6\n        /* \"contracts/NFTBridge.sol\":7961:7980  destNFTAddr[srcNft] */\n      0xffffffffffffffffffffffffffffffffffffffff\n      and\n      0xffffffffffffffffffffffffffffffffffffffff\n      and\n      dup2\n      mstore\n      0x20\n      add\n      swap1\n      dup2\n      mstore\n      0x20\n      add\n      0x00\n      keccak256\n        /* \"contracts/NFTBridge.sol\":7961:7989  destNFTAddr[srcNft][dstChid] */\n      0x00\n        /* \"contracts/NFTBridge.sol\":7981:7988  dstChid */\n      dup5\n        /* \"contracts/NFTBridge.sol\":7961:7989  destNFTAddr[srcNft][dstChid] */\n      0xffffffffffffffff\n      and\n      0xffffffffffffffff\n      and\n      dup2\n      mstore\n      0x20\n      add\n      swap1\n      dup2\n      mstore\n      0x20\n      add\n      0x00\n      keccak256\n      0x00\n        /* \"contracts/NFTBridge.sol\":7961:7998  destNFTAddr[srcNft][dstChid] = dstNft */\n      0x0100\n      exp\n      dup2\n      sload\n      dup2\n      0xffffffffffffffffffffffffffffffffffffffff\n      mul\n      not\n      and\n      swap1\n      dup4\n      0xffffffffffffffffffffffffffffffffffffffff\n      and\n      mul\n      or\n      swap1\n      sstore\n      pop\n        /* \"contracts/NFTBridge.sol\":8013:8048  SetDestNFT(srcNft, dstChid, dstNft) */\n      0xa5a9b84f1b7eb437335ea919a3ff6de6e242e4733d0100a77391106173794871\n        /* \"contracts/NFTBridge.sol\":8024:8030  srcNft */\n      dup4\n        /* \"contracts/NFTBridge.sol\":8032:8039  dstChid */\n      dup4\n        /* \"contracts/NFTBridge.sol\":8041:8047  dstNft */\n      dup4\n        /* \"contracts/NFTBridge.sol\":8013:8048  SetDestNFT(srcNft, dstChid, dstNft) */\n      mload(0x40)\n      tag_292\n      swap4\n      swap3\n      swap2\n      swap1\n      tag_293\n      jump\t// in\n    tag_292:\n      mload(0x40)\n      dup1\n      swap2\n      sub\n      swap1\n      log1\n        /* \"contracts/NFTBridge.sol\":7834:8055  function setDestNFT(... */\n      pop\n      pop\n      pop\n      jump\t// out\n        /* \"contracts/NFTBridge.sol\":9536:9709  function claimFee() external onlyOwner {... */\n    tag_140:\n        /* \"contracts/safeguard/Ownable.sol\":1702:1712  msg.sender */\n      caller\n        /* \"contracts/safeguard/Ownable.sol\":1691:1712  owner() == msg.sender */\n      0xffffffffffffffffffffffffffffffffffffffff\n      and\n        /* \"contracts/safeguard/Ownable.sol\":1691:1698  owner() */\n      tag_295\n        /* \"contracts/safeguard/Ownable.sol\":1691:1696  owner */\n      tag_131\n        /* \"contracts/safeguard/Ownable.sol\":1691:1698  owner() */\n      jump\t// in\n    tag_295:\n        /* \"contracts/safeguard/Ownable.sol\":1691:1712  owner() == msg.sender */\n      0xffffffffffffffffffffffffffffffffffffffff\n      and\n      eq\n        /* \"contracts/safeguard/Ownable.sol\":1683:1749  require(owner() == msg.sender, \"Ownable: caller is not the owner\") */\n      tag_296\n      jumpi\n      mload(0x40)\n      0x08c379a000000000000000000000000000000000000000000000000000000000\n      dup2\n      mstore\n      0x04\n      add\n      tag_297\n      swap1\n      tag_192\n      jump\t// in\n    tag_297:\n      mload(0x40)\n      dup1\n      swap2\n      sub\n      swap1\n      revert\n    tag_296:\n        /* \"contracts/NFTBridge.sol\":9585:9599  uint256 amount */\n      0x00\n        /* \"contracts/NFTBridge.sol\":9602:9623  address(this).balance */\n      selfbalance\n        /* \"contracts/NFTBridge.sol\":9585:9623  uint256 amount = address(this).balance */\n      swap1\n      pop\n        /* \"contracts/NFTBridge.sol\":9641:9651  msg.sender */\n      caller\n        /* \"contracts/NFTBridge.sol\":9633:9661  payable(msg.sender).transfer */\n      0xffffffffffffffffffffffffffffffffffffffff\n      and\n        /* \"contracts/NFTBridge.sol\":9633:9669  payable(msg.sender).transfer(amount) */\n      0x08fc\n        /* \"contracts/NFTBridge.sol\":9662:9668  amount */\n      dup3\n        /* \"contracts/NFTBridge.sol\":9633:9669  payable(msg.sender).transfer(amount) */\n      swap1\n      dup2\n      iszero\n      mul\n      swap1\n      mload(0x40)\n      0x00\n      mload(0x40)\n      dup1\n      dup4\n      sub\n      dup2\n      dup6\n      dup9\n      dup9\n      call\n      swap4\n      pop\n      pop\n      pop\n      pop\n      iszero\n      dup1\n      iszero\n      tag_300\n      jumpi\n      returndatasize\n      0x00\n      dup1\n      returndatacopy\n      revert(0x00, returndatasize)\n    tag_300:\n      pop\n        /* \"contracts/NFTBridge.sol\":9684:9702  FeeClaimed(amount) */\n      0x62b10e3ff3d45b5ff546e740b893897facb1680285f989a64ae932d62c5388e1\n        /* \"contracts/NFTBridge.sol\":9695:9701  amount */\n      dup2\n        /* \"contracts/NFTBridge.sol\":9684:9702  FeeClaimed(amount) */\n      mload(0x40)\n      tag_301\n      swap2\n      swap1\n      tag_64\n      jump\t// in\n    tag_301:\n      mload(0x40)\n      dup1\n      swap2\n      sub\n      swap1\n      log1\n        /* \"contracts/NFTBridge.sol\":9575:9709  {... */\n      pop\n        /* \"contracts/NFTBridge.sol\":9536:9709  function claimFee() external onlyOwner {... */\n      jump\t// out\n        /* \"contracts/NFTBridge.sol\":3190:3529  function totalFee(... */\n    tag_145:\n        /* \"contracts/NFTBridge.sol\":3305:3312  uint256 */\n      0x00\n        /* \"contracts/NFTBridge.sol\":3324:3342  string memory _uri */\n      dup1\n        /* \"contracts/NFTBridge.sol\":3350:3354  _nft */\n      dup4\n        /* \"contracts/NFTBridge.sol\":3345:3364  INFT(_nft).tokenURI */\n      0xffffffffffffffffffffffffffffffffffffffff\n      and\n      0xc87b56dd\n        /* \"contracts/NFTBridge.sol\":3365:3368  _id */\n      dup5\n        /* \"contracts/NFTBridge.sol\":3345:3369  INFT(_nft).tokenURI(_id) */\n      mload(0x40)\n      dup3\n      0xffffffff\n      and\n      0xe0\n      shl\n      dup2\n      mstore\n      0x04\n      add\n      tag_303\n      swap2\n      swap1\n      tag_64\n      jump\t// in\n    tag_303:\n      0x00\n      mload(0x40)\n      dup1\n      dup4\n      sub\n      dup2\n      dup7\n      dup1\n      extcodesize\n      iszero\n      dup1\n      iszero\n      tag_304\n      jumpi\n      0x00\n      dup1\n      revert\n    tag_304:\n      pop\n      gas\n      staticcall\n      iszero\n      dup1\n      iszero\n      tag_306\n      jumpi\n      returndatasize\n      0x00\n      dup1\n      returndatacopy\n      revert(0x00, returndatasize)\n    tag_306:\n      pop\n      pop\n      pop\n      pop\n      mload(0x40)\n      returndatasize\n      0x00\n      dup3\n      returndatacopy\n      returndatasize\n      not(0x1f)\n      0x1f\n      dup3\n      add\n      and\n      dup3\n      add\n      dup1\n      0x40\n      mstore\n      pop\n      dup2\n      add\n      swap1\n      tag_307\n      swap2\n      swap1\n      tag_308\n      jump\t// in\n    tag_307:\n        /* \"contracts/NFTBridge.sol\":3324:3369  string memory _uri = INFT(_nft).tokenURI(_id) */\n      swap1\n      pop\n        /* \"contracts/NFTBridge.sol\":3379:3399  bytes memory message */\n      0x00\n        /* \"contracts/NFTBridge.sol\":3413:3442  NFTMsg(_nft, _nft, _id, _uri) */\n      mload(0x40)\n      dup1\n      0x80\n      add\n      0x40\n      mstore\n      dup1\n        /* \"contracts/NFTBridge.sol\":3420:3424  _nft */\n      dup7\n        /* \"contracts/NFTBridge.sol\":3413:3442  NFTMsg(_nft, _nft, _id, _uri) */\n      0xffffffffffffffffffffffffffffffffffffffff\n      and\n      dup2\n      mstore\n      0x20\n      add\n        /* \"contracts/NFTBridge.sol\":3426:3430  _nft */\n      dup7\n        /* \"contracts/NFTBridge.sol\":3413:3442  NFTMsg(_nft, _nft, _id, _uri) */\n      0xffffffffffffffffffffffffffffffffffffffff\n      and\n      dup2\n      mstore\n      0x20\n      add\n        /* \"contracts/NFTBridge.sol\":3432:3435  _id */\n      dup6\n        /* \"contracts/NFTBridge.sol\":3413:3442  NFTMsg(_nft, _nft, _id, _uri) */\n      dup2\n      mstore\n      0x20\n      add\n        /* \"contracts/NFTBridge.sol\":3437:3441  _uri */\n      dup4\n        /* \"contracts/NFTBridge.sol\":3413:3442  NFTMsg(_nft, _nft, _id, _uri) */\n      dup2\n      mstore\n      pop\n        /* \"contracts/NFTBridge.sol\":3402:3443  abi.encode(NFTMsg(_nft, _nft, _id, _uri)) */\n      add(0x20, mload(0x40))\n      tag_309\n      swap2\n      swap1\n      tag_310\n      jump\t// in\n    tag_309:\n      mload(0x40)\n      0x20\n      dup2\n      dup4\n      sub\n      sub\n      dup2\n      mstore\n      swap1\n      0x40\n      mstore\n        /* \"contracts/NFTBridge.sol\":3379:3443  bytes memory message = abi.encode(NFTMsg(_nft, _nft, _id, _uri)) */\n      swap1\n      pop\n        /* \"contracts/NFTBridge.sol\":3503:3512  destTxFee */\n      0x03\n        /* \"contracts/NFTBridge.sol\":3503:3522  destTxFee[_dstChid] */\n      0x00\n        /* \"contracts/NFTBridge.sol\":3513:3521  _dstChid */\n      dup8\n        /* \"contracts/NFTBridge.sol\":3503:3522  destTxFee[_dstChid] */\n      0xffffffffffffffff\n      and\n      0xffffffffffffffff\n      and\n      dup2\n      mstore\n      0x20\n      add\n      swap1\n      dup2\n      mstore\n      0x20\n      add\n      0x00\n      keccak256\n      sload\n        /* \"contracts/NFTBridge.sol\":3472:3482  messageBus */\n      0x01\n      0x00\n      swap1\n      sload\n      swap1\n      0x0100\n      exp\n      swap1\n      div\n      0xffffffffffffffffffffffffffffffffffffffff\n      and\n        /* \"contracts/NFTBridge.sol\":3460:3491  IMessageBus(messageBus).calcFee */\n      0xffffffffffffffffffffffffffffffffffffffff\n      and\n      0x5335dca2\n        /* \"contracts/NFTBridge.sol\":3492:3499  message */\n      dup4\n        /* \"contracts/NFTBridge.sol\":3460:3500  IMessageBus(messageBus).calcFee(message) */\n      mload(0x40)\n      dup3\n      0xffffffff\n      and\n      0xe0\n      shl\n      dup2\n      mstore\n      0x04\n      add\n      tag_311\n      swap2\n      swap1\n      tag_312\n      jump\t// in\n    tag_311:\n      0x20\n      mload(0x40)\n      dup1\n      dup4\n      sub\n      dup2\n      dup7\n      dup1\n      extcodesize\n      iszero\n      dup1\n      iszero\n      tag_313\n      jumpi\n      0x00\n      dup1\n      revert\n    tag_313:\n      pop\n      gas\n      staticcall\n      iszero\n      dup1\n      iszero\n      tag_315\n      jumpi\n      returndatasize\n      0x00\n      dup1\n      returndatacopy\n      revert(0x00, returndatasize)\n    tag_315:\n      pop\n      pop\n      pop\n      pop\n      mload(0x40)\n      returndatasize\n      not(0x1f)\n      0x1f\n      dup3\n      add\n      and\n      dup3\n      add\n      dup1\n      0x40\n      mstore\n      pop\n      dup2\n      add\n      swap1\n      tag_316\n      swap2\n      swap1\n      tag_317\n      jump\t// in\n    tag_316:\n        /* \"contracts/NFTBridge.sol\":3460:3522  IMessageBus(messageBus).calcFee(message) + destTxFee[_dstChid] */\n      tag_318\n      swap2\n      swap1\n      tag_319\n      jump\t// in\n    tag_318:\n        /* \"contracts/NFTBridge.sol\":3453:3522  return IMessageBus(messageBus).calcFee(message) + destTxFee[_dstChid] */\n      swap3\n      pop\n      pop\n      pop\n        /* \"contracts/NFTBridge.sol\":3190:3529  function totalFee(... */\n      swap4\n      swap3\n      pop\n      pop\n      pop\n      jump\t// out\n        /* \"contracts/NFTBridge.sol\":5238:6928  function executeMessage(... */\n    tag_150:\n        /* \"contracts/NFTBridge.sol\":5426:5441  ExecutionStatus */\n      0x00\n        /* \"contracts/framework/MessageReceiverApp.sol\":292:302  messageBus */\n      0x01\n      0x00\n      swap1\n      sload\n      swap1\n      0x0100\n      exp\n      swap1\n      div\n      0xffffffffffffffffffffffffffffffffffffffff\n      and\n        /* \"contracts/framework/MessageReceiverApp.sol\":278:302  msg.sender == messageBus */\n      0xffffffffffffffffffffffffffffffffffffffff\n      and\n        /* \"contracts/framework/MessageReceiverApp.sol\":278:288  msg.sender */\n      caller\n        /* \"contracts/framework/MessageReceiverApp.sol\":278:302  msg.sender == messageBus */\n      0xffffffffffffffffffffffffffffffffffffffff\n      and\n      eq\n        /* \"contracts/framework/MessageReceiverApp.sol\":270:332  require(msg.sender == messageBus, \"caller is not message bus\") */\n      tag_321\n      jumpi\n      mload(0x40)\n      0x08c379a000000000000000000000000000000000000000000000000000000000\n      dup2\n      mstore\n      0x04\n      add\n      tag_322\n      swap1\n      tag_199\n      jump\t// in\n    tag_322:\n      mload(0x40)\n      dup1\n      swap2\n      sub\n      swap1\n      revert\n    tag_321:\n        /* \"contracts/NFTBridge.sol\":5742:5750  paused() */\n      tag_324\n        /* \"contracts/NFTBridge.sol\":5742:5748  paused */\n      tag_104\n        /* \"contracts/NFTBridge.sol\":5742:5750  paused() */\n      jump\t// in\n    tag_324:\n        /* \"contracts/NFTBridge.sol\":5742:5783  paused() || sender != destBridge[srcChid] */\n      dup1\n      tag_325\n      jumpi\n      pop\n        /* \"contracts/NFTBridge.sol\":5764:5774  destBridge */\n      0x04\n        /* \"contracts/NFTBridge.sol\":5764:5783  destBridge[srcChid] */\n      0x00\n        /* \"contracts/NFTBridge.sol\":5775:5782  srcChid */\n      dup6\n        /* \"contracts/NFTBridge.sol\":5764:5783  destBridge[srcChid] */\n      0xffffffffffffffff\n      and\n      0xffffffffffffffff\n      and\n      dup2\n      mstore\n      0x20\n      add\n      swap1\n      dup2\n      mstore\n      0x20\n      add\n      0x00\n      keccak256\n      0x00\n      swap1\n      sload\n      swap1\n      0x0100\n      exp\n      swap1\n      div\n      0xffffffffffffffffffffffffffffffffffffffff\n      and\n        /* \"contracts/NFTBridge.sol\":5754:5783  sender != destBridge[srcChid] */\n      0xffffffffffffffffffffffffffffffffffffffff\n      and\n        /* \"contracts/NFTBridge.sol\":5754:5760  sender */\n      dup6\n        /* \"contracts/NFTBridge.sol\":5754:5783  sender != destBridge[srcChid] */\n      0xffffffffffffffffffffffffffffffffffffffff\n      and\n      eq\n      iszero\n        /* \"contracts/NFTBridge.sol\":5742:5783  paused() || sender != destBridge[srcChid] */\n    tag_325:\n        /* \"contracts/NFTBridge.sol\":5738:5838  if (paused() || sender != destBridge[srcChid]) {... */\n      iszero\n      tag_326\n      jumpi\n        /* \"contracts/NFTBridge.sol\":5806:5827  ExecutionStatus.Retry */\n      0x02\n        /* \"contracts/NFTBridge.sol\":5799:5827  return ExecutionStatus.Retry */\n      swap1\n      pop\n      jump(tag_323)\n        /* \"contracts/NFTBridge.sol\":5738:5838  if (paused() || sender != destBridge[srcChid]) {... */\n    tag_326:\n        /* \"contracts/NFTBridge.sol\":5963:5983  NFTMsg memory nftMsg */\n      0x00\n        /* \"contracts/NFTBridge.sol\":5998:6006  _message */\n      dup4\n        /* \"contracts/NFTBridge.sol\":5986:6018  abi.decode((_message), (NFTMsg)) */\n      dup1\n      0x20\n      add\n      swap1\n      mload\n      dup2\n      add\n      swap1\n      tag_327\n      swap2\n      swap1\n      tag_328\n      jump\t// in\n    tag_327:\n        /* \"contracts/NFTBridge.sol\":5963:6018  NFTMsg memory nftMsg = abi.decode((_message), (NFTMsg)) */\n      swap1\n      pop\n        /* \"contracts/NFTBridge.sol\":6129:6133  true */\n      0x01\n        /* \"contracts/NFTBridge.sol\":6106:6133  origNFT[nftMsg.nft] == true */\n      iszero\n      iszero\n        /* \"contracts/NFTBridge.sol\":6106:6113  origNFT */\n      0x06\n        /* \"contracts/NFTBridge.sol\":6106:6125  origNFT[nftMsg.nft] */\n      0x00\n        /* \"contracts/NFTBridge.sol\":6114:6120  nftMsg */\n      dup4\n        /* \"contracts/NFTBridge.sol\":6114:6124  nftMsg.nft */\n      0x20\n      add\n      mload\n        /* \"contracts/NFTBridge.sol\":6106:6125  origNFT[nftMsg.nft] */\n      0xffffffffffffffffffffffffffffffffffffffff\n      and\n      0xffffffffffffffffffffffffffffffffffffffff\n      and\n      dup2\n      mstore\n      0x20\n      add\n      swap1\n      dup2\n      mstore\n      0x20\n      add\n      0x00\n      keccak256\n      0x00\n      swap1\n      sload\n      swap1\n      0x0100\n      exp\n      swap1\n      div\n      0xff\n      and\n        /* \"contracts/NFTBridge.sol\":6106:6133  origNFT[nftMsg.nft] == true */\n      iszero\n      iszero\n      eq\n        /* \"contracts/NFTBridge.sol\":6102:6814  if (origNFT[nftMsg.nft] == true) {... */\n      iszero\n      tag_329\n      jumpi\n        /* \"contracts/NFTBridge.sol\":6158:6164  nftMsg */\n      dup1\n        /* \"contracts/NFTBridge.sol\":6158:6168  nftMsg.nft */\n      0x20\n      add\n      mload\n        /* \"contracts/NFTBridge.sol\":6153:6182  INFT(nftMsg.nft).transferFrom */\n      0xffffffffffffffffffffffffffffffffffffffff\n      and\n      0x23b872dd\n        /* \"contracts/NFTBridge.sol\":6191:6195  this */\n      address\n        /* \"contracts/NFTBridge.sol\":6198:6204  nftMsg */\n      dup4\n        /* \"contracts/NFTBridge.sol\":6198:6209  nftMsg.user */\n      0x00\n      add\n      mload\n        /* \"contracts/NFTBridge.sol\":6211:6217  nftMsg */\n      dup5\n        /* \"contracts/NFTBridge.sol\":6211:6220  nftMsg.id */\n      0x40\n      add\n      mload\n        /* \"contracts/NFTBridge.sol\":6153:6221  INFT(nftMsg.nft).transferFrom(address(this), nftMsg.user, nftMsg.id) */\n      mload(0x40)\n      dup5\n      0xffffffff\n      and\n      0xe0\n      shl\n      dup2\n      mstore\n      0x04\n      add\n      tag_330\n      swap4\n      swap3\n      swap2\n      swap1\n      tag_331\n      jump\t// in\n    tag_330:\n      0x00\n      mload(0x40)\n      dup1\n      dup4\n      sub\n      dup2\n      0x00\n      dup8\n      dup1\n      extcodesize\n      iszero\n      dup1\n      iszero\n      tag_332\n      jumpi\n      0x00\n      dup1\n      revert\n    tag_332:\n      pop\n      gas\n      call\n      swap3\n      pop\n      pop\n      pop\n      dup1\n      iszero\n      tag_333\n      jumpi\n      pop\n      0x01\n    tag_333:\n        /* \"contracts/NFTBridge.sol\":6149:6464  try INFT(nftMsg.nft).transferFrom(address(this), nftMsg.user, nftMsg.id) {... */\n      tag_334\n      jumpi\n      returndatasize\n      dup1\n      0x00\n      dup2\n      eq\n      tag_339\n      jumpi\n      mload(0x40)\n      swap2\n      pop\n      and(add(returndatasize, 0x3f), not(0x1f))\n      dup3\n      add\n      0x40\n      mstore\n      returndatasize\n      dup3\n      mstore\n      returndatasize\n      0x00\n      0x20\n      dup5\n      add\n      returndatacopy\n      jump(tag_338)\n    tag_339:\n      0x60\n      swap2\n      pop\n    tag_338:\n      pop\n        /* \"contracts/NFTBridge.sol\":6381:6403  ExtCallErr(returnData) */\n      0x2c4d9008b1f58a23591c25a813b398a54f438d50b85bedea3d6e7302ee08a810\n        /* \"contracts/NFTBridge.sol\":6392:6402  returnData */\n      dup2\n        /* \"contracts/NFTBridge.sol\":6381:6403  ExtCallErr(returnData) */\n      mload(0x40)\n      tag_340\n      swap2\n      swap1\n      tag_312\n      jump\t// in\n    tag_340:\n      mload(0x40)\n      dup1\n      swap2\n      sub\n      swap1\n      log1\n        /* \"contracts/NFTBridge.sol\":6428:6449  ExecutionStatus.Retry */\n      0x02\n        /* \"contracts/NFTBridge.sol\":6421:6449  return ExecutionStatus.Retry */\n      swap3\n      pop\n      pop\n      pop\n      jump(tag_323)\n        /* \"contracts/NFTBridge.sol\":6149:6464  try INFT(nftMsg.nft).transferFrom(address(this), nftMsg.user, nftMsg.id) {... */\n    tag_334:\n        /* \"contracts/NFTBridge.sol\":6102:6814  if (origNFT[nftMsg.nft] == true) {... */\n      jump(tag_342)\n    tag_329:\n        /* \"contracts/NFTBridge.sol\":6503:6509  nftMsg */\n      dup1\n        /* \"contracts/NFTBridge.sol\":6503:6513  nftMsg.nft */\n      0x20\n      add\n      mload\n        /* \"contracts/NFTBridge.sol\":6498:6525  INFT(nftMsg.nft).bridgeMint */\n      0xffffffffffffffffffffffffffffffffffffffff\n      and\n      0x67d74de2\n        /* \"contracts/NFTBridge.sol\":6526:6532  nftMsg */\n      dup3\n        /* \"contracts/NFTBridge.sol\":6526:6537  nftMsg.user */\n      0x00\n      add\n      mload\n        /* \"contracts/NFTBridge.sol\":6539:6545  nftMsg */\n      dup4\n        /* \"contracts/NFTBridge.sol\":6539:6548  nftMsg.id */\n      0x40\n      add\n      mload\n        /* \"contracts/NFTBridge.sol\":6550:6556  nftMsg */\n      dup5\n        /* \"contracts/NFTBridge.sol\":6550:6560  nftMsg.uri */\n      0x60\n      add\n      mload\n        /* \"contracts/NFTBridge.sol\":6498:6561  INFT(nftMsg.nft).bridgeMint(nftMsg.user, nftMsg.id, nftMsg.uri) */\n      mload(0x40)\n      dup5\n      0xffffffff\n      and\n      0xe0\n      shl\n      dup2\n      mstore\n      0x04\n      add\n      tag_343\n      swap4\n      swap3\n      swap2\n      swap1\n      tag_344\n      jump\t// in\n    tag_343:\n      0x00\n      mload(0x40)\n      dup1\n      dup4\n      sub\n      dup2\n      0x00\n      dup8\n      dup1\n      extcodesize\n      iszero\n      dup1\n      iszero\n      tag_345\n      jumpi\n      0x00\n      dup1\n      revert\n    tag_345:\n      pop\n      gas\n      call\n      swap3\n      pop\n      pop\n      pop\n      dup1\n      iszero\n      tag_346\n      jumpi\n      pop\n      0x01\n    tag_346:\n        /* \"contracts/NFTBridge.sol\":6494:6804  try INFT(nftMsg.nft).bridgeMint(nftMsg.user, nftMsg.id, nftMsg.uri) {... */\n      tag_347\n      jumpi\n      returndatasize\n      dup1\n      0x00\n      dup2\n      eq\n      tag_352\n      jumpi\n      mload(0x40)\n      swap2\n      pop\n      and(add(returndatasize, 0x3f), not(0x1f))\n      dup3\n      add\n      0x40\n      mstore\n      returndatasize\n      dup3\n      mstore\n      returndatasize\n      0x00\n      0x20\n      dup5\n      add\n      returndatacopy\n      jump(tag_351)\n    tag_352:\n      0x60\n      swap2\n      pop\n    tag_351:\n      pop\n        /* \"contracts/NFTBridge.sol\":6721:6743  ExtCallErr(returnData) */\n      0x2c4d9008b1f58a23591c25a813b398a54f438d50b85bedea3d6e7302ee08a810\n        /* \"contracts/NFTBridge.sol\":6732:6742  returnData */\n      dup2\n        /* \"contracts/NFTBridge.sol\":6721:6743  ExtCallErr(returnData) */\n      mload(0x40)\n      tag_353\n      swap2\n      swap1\n      tag_312\n      jump\t// in\n    tag_353:\n      mload(0x40)\n      dup1\n      swap2\n      sub\n      swap1\n      log1\n        /* \"contracts/NFTBridge.sol\":6768:6789  ExecutionStatus.Retry */\n      0x02\n        /* \"contracts/NFTBridge.sol\":6761:6789  return ExecutionStatus.Retry */\n      swap3\n      pop\n      pop\n      pop\n      jump(tag_323)\n        /* \"contracts/NFTBridge.sol\":6494:6804  try INFT(nftMsg.nft).bridgeMint(nftMsg.user, nftMsg.id, nftMsg.uri) {... */\n    tag_347:\n        /* \"contracts/NFTBridge.sol\":6102:6814  if (origNFT[nftMsg.nft] == true) {... */\n    tag_342:\n        /* \"contracts/NFTBridge.sol\":6828:6881  Received(nftMsg.user, nftMsg.nft, nftMsg.id, srcChid) */\n      0x0aac355db06d21352d6b898d8e0ae1334d55f65b6c4c09e26951166a8eb4dba7\n        /* \"contracts/NFTBridge.sol\":6837:6843  nftMsg */\n      dup2\n        /* \"contracts/NFTBridge.sol\":6837:6848  nftMsg.user */\n      0x00\n      add\n      mload\n        /* \"contracts/NFTBridge.sol\":6850:6856  nftMsg */\n      dup3\n        /* \"contracts/NFTBridge.sol\":6850:6860  nftMsg.nft */\n      0x20\n      add\n      mload\n        /* \"contracts/NFTBridge.sol\":6862:6868  nftMsg */\n      dup4\n        /* \"contracts/NFTBridge.sol\":6862:6871  nftMsg.id */\n      0x40\n      add\n      mload\n        /* \"contracts/NFTBridge.sol\":6873:6880  srcChid */\n      dup9\n        /* \"contracts/NFTBridge.sol\":6828:6881  Received(nftMsg.user, nftMsg.nft, nftMsg.id, srcChid) */\n      mload(0x40)\n      tag_355\n      swap5\n      swap4\n      swap3\n      swap2\n      swap1\n      tag_356\n      jump\t// in\n    tag_355:\n      mload(0x40)\n      dup1\n      swap2\n      sub\n      swap1\n      log1\n        /* \"contracts/NFTBridge.sol\":6898:6921  ExecutionStatus.Success */\n      0x01\n        /* \"contracts/NFTBridge.sol\":6891:6921  return ExecutionStatus.Success */\n      swap2\n      pop\n      pop\n        /* \"contracts/framework/MessageReceiverApp.sol\":342:343  _ */\n    tag_323:\n        /* \"contracts/NFTBridge.sol\":5238:6928  function executeMessage(... */\n      swap5\n      swap4\n      pop\n      pop\n      pop\n      pop\n      jump\t// out\n        /* \"contracts/NFTBridge.sol\":1227:1292  mapping(address => mapping(uint64 => address)) public destNFTAddr */\n    tag_156:\n      mstore(0x20, 0x05)\n      dup2\n      0x00\n      mstore\n      mstore(0x20, keccak256(0x00, 0x40))\n      dup1\n      0x00\n      mstore\n      keccak256(0x00, 0x40)\n      0x00\n      swap2\n      pop\n      swap2\n      pop\n      swap1\n      sload\n      swap1\n      0x0100\n      exp\n      swap1\n      div\n      0xffffffffffffffffffffffffffffffffffffffff\n      and\n      dup2\n      jump\t// out\n        /* \"contracts/NFTBridge.sol\":8453:8588  function setTxFee(uint64 chid, uint256 fee) external onlyOwner {... */\n    tag_162:\n        /* \"contracts/safeguard/Ownable.sol\":1702:1712  msg.sender */\n      caller\n        /* \"contracts/safeguard/Ownable.sol\":1691:1712  owner() == msg.sender */\n      0xffffffffffffffffffffffffffffffffffffffff\n      and\n        /* \"contracts/safeguard/Ownable.sol\":1691:1698  owner() */\n      tag_358\n        /* \"contracts/safeguard/Ownable.sol\":1691:1696  owner */\n      tag_131\n        /* \"contracts/safeguard/Ownable.sol\":1691:1698  owner() */\n      jump\t// in\n    tag_358:\n        /* \"contracts/safeguard/Ownable.sol\":1691:1712  owner() == msg.sender */\n      0xffffffffffffffffffffffffffffffffffffffff\n      and\n      eq\n        /* \"contracts/safeguard/Ownable.sol\":1683:1749  require(owner() == msg.sender, \"Ownable: caller is not the owner\") */\n      tag_359\n      jumpi\n      mload(0x40)\n      0x08c379a000000000000000000000000000000000000000000000000000000000\n      dup2\n      mstore\n      0x04\n      add\n      tag_360\n      swap1\n      tag_192\n      jump\t// in\n    tag_360:\n      mload(0x40)\n      dup1\n      swap2\n      sub\n      swap1\n      revert\n    tag_359:\n        /* \"contracts/NFTBridge.sol\":8544:8547  fee */\n      dup1\n        /* \"contracts/NFTBridge.sol\":8526:8535  destTxFee */\n      0x03\n        /* \"contracts/NFTBridge.sol\":8526:8541  destTxFee[chid] */\n      0x00\n        /* \"contracts/NFTBridge.sol\":8536:8540  chid */\n      dup5\n        /* \"contracts/NFTBridge.sol\":8526:8541  destTxFee[chid] */\n      0xffffffffffffffff\n      and\n      0xffffffffffffffff\n      and\n      dup2\n      mstore\n      0x20\n      add\n      swap1\n      dup2\n      mstore\n      0x20\n      add\n      0x00\n      keccak256\n        /* \"contracts/NFTBridge.sol\":8526:8547  destTxFee[chid] = fee */\n      dup2\n      swap1\n      sstore\n      pop\n        /* \"contracts/NFTBridge.sol\":8562:8581  SetTxFee(chid, fee) */\n      0x446a287c2114fa54d0083d97ce8f6f15b2ce29fa1c2df4b5a580d581ea7c4ad3\n        /* \"contracts/NFTBridge.sol\":8571:8575  chid */\n      dup3\n        /* \"contracts/NFTBridge.sol\":8577:8580  fee */\n      dup3\n        /* \"contracts/NFTBridge.sol\":8562:8581  SetTxFee(chid, fee) */\n      mload(0x40)\n      tag_362\n      swap3\n      swap2\n      swap1\n      tag_363\n      jump\t// in\n    tag_362:\n      mload(0x40)\n      dup1\n      swap2\n      sub\n      swap1\n      log1\n        /* \"contracts/NFTBridge.sol\":8453:8588  function setTxFee(uint64 chid, uint256 fee) external onlyOwner {... */\n      pop\n      pop\n      jump\t// out\n        /* \"contracts/framework/MessageBusAddress.sol\":207:232  address public messageBus */\n    tag_165:\n      0x01\n      0x00\n      swap1\n      sload\n      swap1\n      0x0100\n      exp\n      swap1\n      div\n      0xffffffffffffffffffffffffffffffffffffffff\n      and\n      dup2\n      jump\t// out\n        /* \"contracts/NFTBridge.sol\":3872:4689  function sendTo(... */\n    tag_170:\n        /* \"@openzeppelin/contracts/security/Pausable.sol\":1412:1420  paused() */\n      tag_365\n        /* \"@openzeppelin/contracts/security/Pausable.sol\":1412:1418  paused */\n      tag_104\n        /* \"@openzeppelin/contracts/security/Pausable.sol\":1412:1420  paused() */\n      jump\t// in\n    tag_365:\n        /* \"@openzeppelin/contracts/security/Pausable.sol\":1411:1420  !paused() */\n      iszero\n        /* \"@openzeppelin/contracts/security/Pausable.sol\":1403:1441  require(!paused(), \"Pausable: paused\") */\n      tag_366\n      jumpi\n      mload(0x40)\n      0x08c379a000000000000000000000000000000000000000000000000000000000\n      dup2\n      mstore\n      0x04\n      add\n      tag_367\n      swap1\n      tag_368\n      jump\t// in\n    tag_367:\n      mload(0x40)\n      dup1\n      swap2\n      sub\n      swap1\n      revert\n    tag_366:\n        /* \"contracts/NFTBridge.sol\":4057:4061  _nft */\n      dup4\n        /* \"contracts/NFTBridge.sol\":4052:4070  INFT(_nft).ownerOf */\n      0xffffffffffffffffffffffffffffffffffffffff\n      and\n      0x6352211e\n        /* \"contracts/NFTBridge.sol\":4071:4074  _id */\n      dup5\n        /* \"contracts/NFTBridge.sol\":4052:4075  INFT(_nft).ownerOf(_id) */\n      mload(0x40)\n      dup3\n      0xffffffff\n      and\n      0xe0\n      shl\n      dup2\n      mstore\n      0x04\n      add\n      tag_370\n      swap2\n      swap1\n      tag_64\n      jump\t// in\n    tag_370:\n      0x20\n      mload(0x40)\n      dup1\n      dup4\n      sub\n      dup2\n      dup7\n      dup1\n      extcodesize\n      iszero\n      dup1\n      iszero\n      tag_371\n      jumpi\n      0x00\n      dup1\n      revert\n    tag_371:\n      pop\n      gas\n      staticcall\n      iszero\n      dup1\n      iszero\n      tag_373\n      jumpi\n      returndatasize\n      0x00\n      dup1\n      returndatacopy\n      revert(0x00, returndatasize)\n    tag_373:\n      pop\n      pop\n      pop\n      pop\n      mload(0x40)\n      returndatasize\n      not(0x1f)\n      0x1f\n      dup3\n      add\n      and\n      dup3\n      add\n      dup1\n      0x40\n      mstore\n      pop\n      dup2\n      add\n      swap1\n      tag_374\n      swap2\n      swap1\n      tag_375\n      jump\t// in\n    tag_374:\n        /* \"contracts/NFTBridge.sol\":4038:4075  msg.sender == INFT(_nft).ownerOf(_id) */\n      0xffffffffffffffffffffffffffffffffffffffff\n      and\n        /* \"contracts/NFTBridge.sol\":4038:4048  msg.sender */\n      caller\n        /* \"contracts/NFTBridge.sol\":4038:4075  msg.sender == INFT(_nft).ownerOf(_id) */\n      0xffffffffffffffffffffffffffffffffffffffff\n      and\n      eq\n        /* \"contracts/NFTBridge.sol\":4030:4095  require(msg.sender == INFT(_nft).ownerOf(_id), \"not token owner\") */\n      tag_376\n      jumpi\n      mload(0x40)\n      0x08c379a000000000000000000000000000000000000000000000000000000000\n      dup2\n      mstore\n      0x04\n      add\n      tag_377\n      swap1\n      tag_378\n      jump\t// in\n    tag_377:\n      mload(0x40)\n      dup1\n      swap2\n      sub\n      swap1\n      revert\n    tag_376:\n        /* \"contracts/NFTBridge.sol\":4105:4123  string memory _uri */\n      0x00\n        /* \"contracts/NFTBridge.sol\":4131:4135  _nft */\n      dup5\n        /* \"contracts/NFTBridge.sol\":4126:4145  INFT(_nft).tokenURI */\n      0xffffffffffffffffffffffffffffffffffffffff\n      and\n      0xc87b56dd\n        /* \"contracts/NFTBridge.sol\":4146:4149  _id */\n      dup6\n        /* \"contracts/NFTBridge.sol\":4126:4150  INFT(_nft).tokenURI(_id) */\n      mload(0x40)\n      dup3\n      0xffffffff\n      and\n      0xe0\n      shl\n      dup2\n      mstore\n      0x04\n      add\n      tag_379\n      swap2\n      swap1\n      tag_64\n      jump\t// in\n    tag_379:\n      0x00\n      mload(0x40)\n      dup1\n      dup4\n      sub\n      dup2\n      dup7\n      dup1\n      extcodesize\n      iszero\n      dup1\n      iszero\n      tag_380\n      jumpi\n      0x00\n      dup1\n      revert\n    tag_380:\n      pop\n      gas\n      staticcall\n      iszero\n      dup1\n      iszero\n      tag_382\n      jumpi\n      returndatasize\n      0x00\n      dup1\n      returndatacopy\n      revert(0x00, returndatasize)\n    tag_382:\n      pop\n      pop\n      pop\n      pop\n      mload(0x40)\n      returndatasize\n      0x00\n      dup3\n      returndatacopy\n      returndatasize\n      not(0x1f)\n      0x1f\n      dup3\n      add\n      and\n      dup3\n      add\n      dup1\n      0x40\n      mstore\n      pop\n      dup2\n      add\n      swap1\n      tag_383\n      swap2\n      swap1\n      tag_308\n      jump\t// in\n    tag_383:\n        /* \"contracts/NFTBridge.sol\":4105:4150  string memory _uri = INFT(_nft).tokenURI(_id) */\n      swap1\n      pop\n        /* \"contracts/NFTBridge.sol\":4181:4185  true */\n      0x01\n        /* \"contracts/NFTBridge.sol\":4164:4185  origNFT[_nft] == true */\n      iszero\n      iszero\n        /* \"contracts/NFTBridge.sol\":4164:4171  origNFT */\n      0x06\n        /* \"contracts/NFTBridge.sol\":4164:4177  origNFT[_nft] */\n      0x00\n        /* \"contracts/NFTBridge.sol\":4172:4176  _nft */\n      dup8\n        /* \"contracts/NFTBridge.sol\":4164:4177  origNFT[_nft] */\n      0xffffffffffffffffffffffffffffffffffffffff\n      and\n      0xffffffffffffffffffffffffffffffffffffffff\n      and\n      dup2\n      mstore\n      0x20\n      add\n      swap1\n      dup2\n      mstore\n      0x20\n      add\n      0x00\n      keccak256\n      0x00\n      swap1\n      sload\n      swap1\n      0x0100\n      exp\n      swap1\n      div\n      0xff\n      and\n        /* \"contracts/NFTBridge.sol\":4164:4185  origNFT[_nft] == true */\n      iszero\n      iszero\n      eq\n        /* \"contracts/NFTBridge.sol\":4160:4447  if (origNFT[_nft] == true) {... */\n      iszero\n      tag_384\n      jumpi\n        /* \"contracts/NFTBridge.sol\":4229:4233  _nft */\n      dup5\n        /* \"contracts/NFTBridge.sol\":4224:4247  INFT(_nft).transferFrom */\n      0xffffffffffffffffffffffffffffffffffffffff\n      and\n      0x23b872dd\n        /* \"contracts/NFTBridge.sol\":4248:4258  msg.sender */\n      caller\n        /* \"contracts/NFTBridge.sol\":4268:4272  this */\n      address\n        /* \"contracts/NFTBridge.sol\":4275:4278  _id */\n      dup8\n        /* \"contracts/NFTBridge.sol\":4224:4279  INFT(_nft).transferFrom(msg.sender, address(this), _id) */\n      mload(0x40)\n      dup5\n      0xffffffff\n      and\n      0xe0\n      shl\n      dup2\n      mstore\n      0x04\n      add\n      tag_385\n      swap4\n      swap3\n      swap2\n      swap1\n      tag_331\n      jump\t// in\n    tag_385:\n      0x00\n      mload(0x40)\n      dup1\n      dup4\n      sub\n      dup2\n      0x00\n      dup8\n      dup1\n      extcodesize\n      iszero\n      dup1\n      iszero\n      tag_386\n      jumpi\n      0x00\n      dup1\n      revert\n    tag_386:\n      pop\n      gas\n      call\n      iszero\n      dup1\n      iszero\n      tag_388\n      jumpi\n      returndatasize\n      0x00\n      dup1\n      returndatacopy\n      revert(0x00, returndatasize)\n    tag_388:\n      pop\n      pop\n      pop\n      pop\n        /* \"contracts/NFTBridge.sol\":4336:4340  this */\n      address\n        /* \"contracts/NFTBridge.sol\":4301:4341  INFT(_nft).ownerOf(_id) == address(this) */\n      0xffffffffffffffffffffffffffffffffffffffff\n      and\n        /* \"contracts/NFTBridge.sol\":4306:4310  _nft */\n      dup6\n        /* \"contracts/NFTBridge.sol\":4301:4319  INFT(_nft).ownerOf */\n      0xffffffffffffffffffffffffffffffffffffffff\n      and\n      0x6352211e\n        /* \"contracts/NFTBridge.sol\":4320:4323  _id */\n      dup7\n        /* \"contracts/NFTBridge.sol\":4301:4324  INFT(_nft).ownerOf(_id) */\n      mload(0x40)\n      dup3\n      0xffffffff\n      and\n      0xe0\n      shl\n      dup2\n      mstore\n      0x04\n      add\n      tag_389\n      swap2\n      swap1\n      tag_64\n      jump\t// in\n    tag_389:\n      0x20\n      mload(0x40)\n      dup1\n      dup4\n      sub\n      dup2\n      dup7\n      dup1\n      extcodesize\n      iszero\n      dup1\n      iszero\n      tag_390\n      jumpi\n      0x00\n      dup1\n      revert\n    tag_390:\n      pop\n      gas\n      staticcall\n      iszero\n      dup1\n      iszero\n      tag_392\n      jumpi\n      returndatasize\n      0x00\n      dup1\n      returndatacopy\n      revert(0x00, returndatasize)\n    tag_392:\n      pop\n      pop\n      pop\n      pop\n      mload(0x40)\n      returndatasize\n      not(0x1f)\n      0x1f\n      dup3\n      add\n      and\n      dup3\n      add\n      dup1\n      0x40\n      mstore\n      pop\n      dup2\n      add\n      swap1\n      tag_393\n      swap2\n      swap1\n      tag_375\n      jump\t// in\n    tag_393:\n        /* \"contracts/NFTBridge.sol\":4301:4341  INFT(_nft).ownerOf(_id) == address(this) */\n      0xffffffffffffffffffffffffffffffffffffffff\n      and\n      eq\n        /* \"contracts/NFTBridge.sol\":4293:4365  require(INFT(_nft).ownerOf(_id) == address(this), \"transfer NFT failed\") */\n      tag_394\n      jumpi\n      mload(0x40)\n      0x08c379a000000000000000000000000000000000000000000000000000000000\n      dup2\n      mstore\n      0x04\n      add\n      tag_395\n      swap1\n      tag_396\n      jump\t// in\n    tag_395:\n      mload(0x40)\n      dup1\n      swap2\n      sub\n      swap1\n      revert\n    tag_394:\n        /* \"contracts/NFTBridge.sol\":4160:4447  if (origNFT[_nft] == true) {... */\n      jump(tag_397)\n    tag_384:\n        /* \"contracts/NFTBridge.sol\":4421:4425  _nft */\n      dup5\n        /* \"contracts/NFTBridge.sol\":4416:4431  INFT(_nft).burn */\n      0xffffffffffffffffffffffffffffffffffffffff\n      and\n      0x42966c68\n        /* \"contracts/NFTBridge.sol\":4432:4435  _id */\n      dup6\n        /* \"contracts/NFTBridge.sol\":4416:4436  INFT(_nft).burn(_id) */\n      mload(0x40)\n      dup3\n      0xffffffff\n      and\n      0xe0\n      shl\n      dup2\n      mstore\n      0x04\n      add\n      tag_398\n      swap2\n      swap1\n      tag_64\n      jump\t// in\n    tag_398:\n      0x00\n      mload(0x40)\n      dup1\n      dup4\n      sub\n      dup2\n      0x00\n      dup8\n      dup1\n      extcodesize\n      iszero\n      dup1\n      iszero\n      tag_399\n      jumpi\n      0x00\n      dup1\n      revert\n    tag_399:\n      pop\n      gas\n      call\n      iszero\n      dup1\n      iszero\n      tag_401\n      jumpi\n      returndatasize\n      0x00\n      dup1\n      returndatacopy\n      revert(0x00, returndatasize)\n    tag_401:\n      pop\n      pop\n      pop\n      pop\n        /* \"contracts/NFTBridge.sol\":4160:4447  if (origNFT[_nft] == true) {... */\n    tag_397:\n        /* \"contracts/NFTBridge.sol\":4457:4475  address _dstBridge */\n      0x00\n        /* \"contracts/NFTBridge.sol\":4477:4492  address _dstNft */\n      dup1\n        /* \"contracts/NFTBridge.sol\":4496:4521  checkAddr(_nft, _dstChid) */\n      tag_402\n        /* \"contracts/NFTBridge.sol\":4506:4510  _nft */\n      dup8\n        /* \"contracts/NFTBridge.sol\":4512:4520  _dstChid */\n      dup7\n        /* \"contracts/NFTBridge.sol\":4496:4505  checkAddr */\n      tag_403\n        /* \"contracts/NFTBridge.sol\":4496:4521  checkAddr(_nft, _dstChid) */\n      jump\t// in\n    tag_402:\n        /* \"contracts/NFTBridge.sol\":4456:4521  (address _dstBridge, address _dstNft) = checkAddr(_nft, _dstChid) */\n      swap2\n      pop\n      swap2\n      pop\n        /* \"contracts/NFTBridge.sol\":4531:4610  msgBus(_dstBridge, _dstChid, abi.encode(NFTMsg(_receiver, _dstNft, _id, _uri))) */\n      tag_404\n        /* \"contracts/NFTBridge.sol\":4538:4548  _dstBridge */\n      dup3\n        /* \"contracts/NFTBridge.sol\":4550:4558  _dstChid */\n      dup7\n        /* \"contracts/NFTBridge.sol\":4571:4608  NFTMsg(_receiver, _dstNft, _id, _uri) */\n      mload(0x40)\n      dup1\n      0x80\n      add\n      0x40\n      mstore\n      dup1\n        /* \"contracts/NFTBridge.sol\":4578:4587  _receiver */\n      dup9\n        /* \"contracts/NFTBridge.sol\":4571:4608  NFTMsg(_receiver, _dstNft, _id, _uri) */\n      0xffffffffffffffffffffffffffffffffffffffff\n      and\n      dup2\n      mstore\n      0x20\n      add\n        /* \"contracts/NFTBridge.sol\":4589:4596  _dstNft */\n      dup6\n        /* \"contracts/NFTBridge.sol\":4571:4608  NFTMsg(_receiver, _dstNft, _id, _uri) */\n      0xffffffffffffffffffffffffffffffffffffffff\n      and\n      dup2\n      mstore\n      0x20\n      add\n        /* \"contracts/NFTBridge.sol\":4598:4601  _id */\n      dup11\n        /* \"contracts/NFTBridge.sol\":4571:4608  NFTMsg(_receiver, _dstNft, _id, _uri) */\n      dup2\n      mstore\n      0x20\n      add\n        /* \"contracts/NFTBridge.sol\":4603:4607  _uri */\n      dup8\n        /* \"contracts/NFTBridge.sol\":4571:4608  NFTMsg(_receiver, _dstNft, _id, _uri) */\n      dup2\n      mstore\n      pop\n        /* \"contracts/NFTBridge.sol\":4560:4609  abi.encode(NFTMsg(_receiver, _dstNft, _id, _uri)) */\n      add(0x20, mload(0x40))\n      tag_405\n      swap2\n      swap1\n      tag_310\n      jump\t// in\n    tag_405:\n      mload(0x40)\n      0x20\n      dup2\n      dup4\n      sub\n      sub\n      dup2\n      mstore\n      swap1\n      0x40\n      mstore\n        /* \"contracts/NFTBridge.sol\":4531:4537  msgBus */\n      tag_406\n        /* \"contracts/NFTBridge.sol\":4531:4610  msgBus(_dstBridge, _dstChid, abi.encode(NFTMsg(_receiver, _dstNft, _id, _uri))) */\n      jump\t// in\n    tag_404:\n        /* \"contracts/NFTBridge.sol\":4625:4682  Sent(msg.sender, _nft, _id, _dstChid, _receiver, _dstNft) */\n      0x40143e5b72b2109d658cfa709dec6213f60364dbd08b7253cdaf5f4e0c49561c\n        /* \"contracts/NFTBridge.sol\":4630:4640  msg.sender */\n      caller\n        /* \"contracts/NFTBridge.sol\":4642:4646  _nft */\n      dup9\n        /* \"contracts/NFTBridge.sol\":4648:4651  _id */\n      dup9\n        /* \"contracts/NFTBridge.sol\":4653:4661  _dstChid */\n      dup9\n        /* \"contracts/NFTBridge.sol\":4663:4672  _receiver */\n      dup9\n        /* \"contracts/NFTBridge.sol\":4674:4681  _dstNft */\n      dup7\n        /* \"contracts/NFTBridge.sol\":4625:4682  Sent(msg.sender, _nft, _id, _dstChid, _receiver, _dstNft) */\n      mload(0x40)\n      tag_407\n      swap7\n      swap6\n      swap5\n      swap4\n      swap3\n      swap2\n      swap1\n      tag_408\n      jump\t// in\n    tag_407:\n      mload(0x40)\n      dup1\n      swap2\n      sub\n      swap1\n      log1\n        /* \"contracts/NFTBridge.sol\":4020:4689  {... */\n      pop\n      pop\n      pop\n        /* \"contracts/NFTBridge.sol\":3872:4689  function sendTo(... */\n      pop\n      pop\n      pop\n      pop\n      jump\t// out\n        /* \"contracts/NFTBridge.sol\":8638:8820  function setDestBridge(uint64 dstChid, address dstNftBridge) external onlyOwner {... */\n    tag_175:\n        /* \"contracts/safeguard/Ownable.sol\":1702:1712  msg.sender */\n      caller\n        /* \"contracts/safeguard/Ownable.sol\":1691:1712  owner() == msg.sender */\n      0xffffffffffffffffffffffffffffffffffffffff\n      and\n        /* \"contracts/safeguard/Ownable.sol\":1691:1698  owner() */\n      tag_410\n        /* \"contracts/safeguard/Ownable.sol\":1691:1696  owner */\n      tag_131\n        /* \"contracts/safeguard/Ownable.sol\":1691:1698  owner() */\n      jump\t// in\n    tag_410:\n        /* \"contracts/safeguard/Ownable.sol\":1691:1712  owner() == msg.sender */\n      0xffffffffffffffffffffffffffffffffffffffff\n      and\n      eq\n        /* \"contracts/safeguard/Ownable.sol\":1683:1749  require(owner() == msg.sender, \"Ownable: caller is not the owner\") */\n      tag_411\n      jumpi\n      mload(0x40)\n      0x08c379a000000000000000000000000000000000000000000000000000000000\n      dup2\n      mstore\n      0x04\n      add\n      tag_412\n      swap1\n      tag_192\n      jump\t// in\n    tag_412:\n      mload(0x40)\n      dup1\n      swap2\n      sub\n      swap1\n      revert\n    tag_411:\n        /* \"contracts/NFTBridge.sol\":8750:8762  dstNftBridge */\n      dup1\n        /* \"contracts/NFTBridge.sol\":8728:8738  destBridge */\n      0x04\n        /* \"contracts/NFTBridge.sol\":8728:8747  destBridge[dstChid] */\n      0x00\n        /* \"contracts/NFTBridge.sol\":8739:8746  dstChid */\n      dup5\n        /* \"contracts/NFTBridge.sol\":8728:8747  destBridge[dstChid] */\n      0xffffffffffffffff\n      and\n      0xffffffffffffffff\n      and\n      dup2\n      mstore\n      0x20\n      add\n      swap1\n      dup2\n      mstore\n      0x20\n      add\n      0x00\n      keccak256\n      0x00\n        /* \"contracts/NFTBridge.sol\":8728:8762  destBridge[dstChid] = dstNftBridge */\n      0x0100\n      exp\n      dup2\n      sload\n      dup2\n      0xffffffffffffffffffffffffffffffffffffffff\n      mul\n      not\n      and\n      swap1\n      dup4\n      0xffffffffffffffffffffffffffffffffffffffff\n      and\n      mul\n      or\n      swap1\n      sstore\n      pop\n        /* \"contracts/NFTBridge.sol\":8777:8813  SetDestBridge(dstChid, dstNftBridge) */\n      0x3e776334b24c927645043308f89ac1ca734002e5a921ff384a70dcbb88c92cd4\n        /* \"contracts/NFTBridge.sol\":8791:8798  dstChid */\n      dup3\n        /* \"contracts/NFTBridge.sol\":8800:8812  dstNftBridge */\n      dup3\n        /* \"contracts/NFTBridge.sol\":8777:8813  SetDestBridge(dstChid, dstNftBridge) */\n      mload(0x40)\n      tag_414\n      swap3\n      swap2\n      swap1\n      tag_415\n      jump\t// in\n    tag_414:\n      mload(0x40)\n      dup1\n      swap2\n      sub\n      swap1\n      log1\n        /* \"contracts/NFTBridge.sol\":8638:8820  function setDestBridge(uint64 dstChid, address dstNftBridge) external onlyOwner {... */\n      pop\n      pop\n      jump\t// out\n        /* \"contracts/NFTBridge.sol\":9349:9477  function delOrigNFT(address _nft) external onlyOwner {... */\n    tag_179:\n        /* \"contracts/safeguard/Ownable.sol\":1702:1712  msg.sender */\n      caller\n        /* \"contracts/safeguard/Ownable.sol\":1691:1712  owner() == msg.sender */\n      0xffffffffffffffffffffffffffffffffffffffff\n      and\n        /* \"contracts/safeguard/Ownable.sol\":1691:1698  owner() */\n      tag_417\n        /* \"contracts/safeguard/Ownable.sol\":1691:1696  owner */\n      tag_131\n        /* \"contracts/safeguard/Ownable.sol\":1691:1698  owner() */\n      jump\t// in\n    tag_417:\n        /* \"contracts/safeguard/Ownable.sol\":1691:1712  owner() == msg.sender */\n      0xffffffffffffffffffffffffffffffffffffffff\n      and\n      eq\n        /* \"contracts/safeguard/Ownable.sol\":1683:1749  require(owner() == msg.sender, \"Ownable: caller is not the owner\") */\n      tag_418\n      jumpi\n      mload(0x40)\n      0x08c379a000000000000000000000000000000000000000000000000000000000\n      dup2\n      mstore\n      0x04\n      add\n      tag_419\n      swap1\n      tag_192\n      jump\t// in\n    tag_419:\n      mload(0x40)\n      dup1\n      swap2\n      sub\n      swap1\n      revert\n    tag_418:\n        /* \"contracts/NFTBridge.sol\":9419:9426  origNFT */\n      0x06\n        /* \"contracts/NFTBridge.sol\":9419:9432  origNFT[_nft] */\n      0x00\n        /* \"contracts/NFTBridge.sol\":9427:9431  _nft */\n      dup3\n        /* \"contracts/NFTBridge.sol\":9419:9432  origNFT[_nft] */\n      0xffffffffffffffffffffffffffffffffffffffff\n      and\n      0xffffffffffffffffffffffffffffffffffffffff\n      and\n      dup2\n      mstore\n      0x20\n      add\n      swap1\n      dup2\n      mstore\n      0x20\n      add\n      0x00\n      keccak256\n      0x00\n        /* \"contracts/NFTBridge.sol\":9412:9432  delete origNFT[_nft] */\n      0x0100\n      exp\n      dup2\n      sload\n      swap1\n      0xff\n      mul\n      not\n      and\n      swap1\n      sstore\n        /* \"contracts/NFTBridge.sol\":9447:9470  SetOrigNFT(_nft, false) */\n      0x9800fb32bf5eb9a3b2e42c910912da10ed1881dc538475101797669146166bf8\n        /* \"contracts/NFTBridge.sol\":9458:9462  _nft */\n      dup2\n        /* \"contracts/NFTBridge.sol\":9464:9469  false */\n      0x00\n        /* \"contracts/NFTBridge.sol\":9447:9470  SetOrigNFT(_nft, false) */\n      mload(0x40)\n      tag_421\n      swap3\n      swap2\n      swap1\n      tag_195\n      jump\t// in\n    tag_421:\n      mload(0x40)\n      dup1\n      swap2\n      sub\n      swap1\n      log1\n        /* \"contracts/NFTBridge.sol\":9349:9477  function delOrigNFT(address _nft) external onlyOwner {... */\n      pop\n      jump\t// out\n        /* \"contracts/NFTBridge.sol\":4745:5202  function sendMsg(... */\n    tag_183:\n        /* \"@openzeppelin/contracts/security/Pausable.sol\":1412:1420  paused() */\n      tag_423\n        /* \"@openzeppelin/contracts/security/Pausable.sol\":1412:1418  paused */\n      tag_104\n        /* \"@openzeppelin/contracts/security/Pausable.sol\":1412:1420  paused() */\n      jump\t// in\n    tag_423:\n        /* \"@openzeppelin/contracts/security/Pausable.sol\":1411:1420  !paused() */\n      iszero\n        /* \"@openzeppelin/contracts/security/Pausable.sol\":1403:1441  require(!paused(), \"Pausable: paused\") */\n      tag_424\n      jumpi\n      mload(0x40)\n      0x08c379a000000000000000000000000000000000000000000000000000000000\n      dup2\n      mstore\n      0x04\n      add\n      tag_425\n      swap1\n      tag_368\n      jump\t// in\n    tag_425:\n      mload(0x40)\n      dup1\n      swap2\n      sub\n      swap1\n      revert\n    tag_424:\n        /* \"contracts/NFTBridge.sol\":4937:4949  address _nft */\n      0x00\n        /* \"contracts/NFTBridge.sol\":4952:4962  msg.sender */\n      caller\n        /* \"contracts/NFTBridge.sol\":4937:4962  address _nft = msg.sender */\n      swap1\n      pop\n        /* \"contracts/NFTBridge.sol\":4973:4991  address _dstBridge */\n      0x00\n        /* \"contracts/NFTBridge.sol\":4993:5008  address _dstNft */\n      dup1\n        /* \"contracts/NFTBridge.sol\":5012:5037  checkAddr(_nft, _dstChid) */\n      tag_427\n        /* \"contracts/NFTBridge.sol\":5022:5026  _nft */\n      dup4\n        /* \"contracts/NFTBridge.sol\":5028:5036  _dstChid */\n      dup11\n        /* \"contracts/NFTBridge.sol\":5012:5021  checkAddr */\n      tag_403\n        /* \"contracts/NFTBridge.sol\":5012:5037  checkAddr(_nft, _dstChid) */\n      jump\t// in\n    tag_427:\n        /* \"contracts/NFTBridge.sol\":4972:5037  (address _dstBridge, address _dstNft) = checkAddr(_nft, _dstChid) */\n      swap2\n      pop\n      swap2\n      pop\n        /* \"contracts/NFTBridge.sol\":5047:5126  msgBus(_dstBridge, _dstChid, abi.encode(NFTMsg(_receiver, _dstNft, _id, _uri))) */\n      tag_428\n        /* \"contracts/NFTBridge.sol\":5054:5064  _dstBridge */\n      dup3\n        /* \"contracts/NFTBridge.sol\":5066:5074  _dstChid */\n      dup11\n        /* \"contracts/NFTBridge.sol\":5087:5124  NFTMsg(_receiver, _dstNft, _id, _uri) */\n      mload(0x40)\n      dup1\n      0x80\n      add\n      0x40\n      mstore\n      dup1\n        /* \"contracts/NFTBridge.sol\":5094:5103  _receiver */\n      dup12\n        /* \"contracts/NFTBridge.sol\":5087:5124  NFTMsg(_receiver, _dstNft, _id, _uri) */\n      0xffffffffffffffffffffffffffffffffffffffff\n      and\n      dup2\n      mstore\n      0x20\n      add\n        /* \"contracts/NFTBridge.sol\":5105:5112  _dstNft */\n      dup6\n        /* \"contracts/NFTBridge.sol\":5087:5124  NFTMsg(_receiver, _dstNft, _id, _uri) */\n      0xffffffffffffffffffffffffffffffffffffffff\n      and\n      dup2\n      mstore\n      0x20\n      add\n        /* \"contracts/NFTBridge.sol\":5114:5117  _id */\n      dup11\n        /* \"contracts/NFTBridge.sol\":5087:5124  NFTMsg(_receiver, _dstNft, _id, _uri) */\n      dup2\n      mstore\n      0x20\n      add\n        /* \"contracts/NFTBridge.sol\":5119:5123  _uri */\n      dup10\n      dup10\n        /* \"contracts/NFTBridge.sol\":5087:5124  NFTMsg(_receiver, _dstNft, _id, _uri) */\n      dup1\n      dup1\n      0x1f\n      add\n      0x20\n      dup1\n      swap2\n      div\n      mul\n      0x20\n      add\n      mload(0x40)\n      swap1\n      dup2\n      add\n      0x40\n      mstore\n      dup1\n      swap4\n      swap3\n      swap2\n      swap1\n      dup2\n      dup2\n      mstore\n      0x20\n      add\n      dup4\n      dup4\n      dup1\n      dup3\n      dup5\n      calldatacopy\n      0x00\n      dup2\n      dup5\n      add\n      mstore\n      not(0x1f)\n      0x1f\n      dup3\n      add\n      and\n      swap1\n      pop\n      dup1\n      dup4\n      add\n      swap3\n      pop\n      pop\n      pop\n      pop\n      pop\n      pop\n      pop\n      dup2\n      mstore\n      pop\n        /* \"contracts/NFTBridge.sol\":5076:5125  abi.encode(NFTMsg(_receiver, _dstNft, _id, _uri)) */\n      add(0x20, mload(0x40))\n      tag_429\n      swap2\n      swap1\n      tag_310\n      jump\t// in\n    tag_429:\n      mload(0x40)\n      0x20\n      dup2\n      dup4\n      sub\n      sub\n      dup2\n      mstore\n      swap1\n      0x40\n      mstore\n        /* \"contracts/NFTBridge.sol\":5047:5053  msgBus */\n      tag_406\n        /* \"contracts/NFTBridge.sol\":5047:5126  msgBus(_dstBridge, _dstChid, abi.encode(NFTMsg(_receiver, _dstNft, _id, _uri))) */\n      jump\t// in\n    tag_428:\n        /* \"contracts/NFTBridge.sol\":5141:5195  Sent(_sender, _nft, _id, _dstChid, _receiver, _dstNft) */\n      0x40143e5b72b2109d658cfa709dec6213f60364dbd08b7253cdaf5f4e0c49561c\n        /* \"contracts/NFTBridge.sol\":5146:5153  _sender */\n      dup9\n        /* \"contracts/NFTBridge.sol\":5155:5159  _nft */\n      dup5\n        /* \"contracts/NFTBridge.sol\":5161:5164  _id */\n      dup9\n        /* \"contracts/NFTBridge.sol\":5166:5174  _dstChid */\n      dup13\n        /* \"contracts/NFTBridge.sol\":5176:5185  _receiver */\n      dup12\n        /* \"contracts/NFTBridge.sol\":5187:5194  _dstNft */\n      dup7\n        /* \"contracts/NFTBridge.sol\":5141:5195  Sent(_sender, _nft, _id, _dstChid, _receiver, _dstNft) */\n      mload(0x40)\n      tag_430\n      swap7\n      swap6\n      swap5\n      swap4\n      swap3\n      swap2\n      swap1\n      tag_408\n      jump\t// in\n    tag_430:\n      mload(0x40)\n      dup1\n      swap2\n      sub\n      swap1\n      log1\n        /* \"contracts/NFTBridge.sol\":4927:5202  {... */\n      pop\n      pop\n      pop\n        /* \"contracts/NFTBridge.sol\":4745:5202  function sendMsg(... */\n      pop\n      pop\n      pop\n      pop\n      pop\n      pop\n      jump\t// out\n        /* \"contracts/safeguard/Ownable.sol\":1916:2105  function transferOwnership(address newOwner) public virtual onlyOwner {... */\n    tag_187:\n        /* \"contracts/safeguard/Ownable.sol\":1702:1712  msg.sender */\n      caller\n        /* \"contracts/safeguard/Ownable.sol\":1691:1712  owner() == msg.sender */\n      0xffffffffffffffffffffffffffffffffffffffff\n      and\n        /* \"contracts/safeguard/Ownable.sol\":1691:1698  owner() */\n      tag_432\n        /* \"contracts/safeguard/Ownable.sol\":1691:1696  owner */\n      tag_131\n        /* \"contracts/safeguard/Ownable.sol\":1691:1698  owner() */\n      jump\t// in\n    tag_432:\n        /* \"contracts/safeguard/Ownable.sol\":1691:1712  owner() == msg.sender */\n      0xffffffffffffffffffffffffffffffffffffffff\n      and\n      eq\n        /* \"contracts/safeguard/Ownable.sol\":1683:1749  require(owner() == msg.sender, \"Ownable: caller is not the owner\") */\n      tag_433\n      jumpi\n      mload(0x40)\n      0x08c379a000000000000000000000000000000000000000000000000000000000\n      dup2\n      mstore\n      0x04\n      add\n      tag_434\n      swap1\n      tag_192\n      jump\t// in\n    tag_434:\n      mload(0x40)\n      dup1\n      swap2\n      sub\n      swap1\n      revert\n    tag_433:\n        /* \"contracts/safeguard/Ownable.sol\":2024:2025  0 */\n      0x00\n        /* \"contracts/safeguard/Ownable.sol\":2004:2026  newOwner != address(0) */\n      0xffffffffffffffffffffffffffffffffffffffff\n      and\n        /* \"contracts/safeguard/Ownable.sol\":2004:2012  newOwner */\n      dup2\n        /* \"contracts/safeguard/Ownable.sol\":2004:2026  newOwner != address(0) */\n      0xffffffffffffffffffffffffffffffffffffffff\n      and\n      eq\n      iszero\n        /* \"contracts/safeguard/Ownable.sol\":1996:2069  require(newOwner != address(0), \"Ownable: new owner is the zero address\") */\n      tag_436\n      jumpi\n      mload(0x40)\n      0x08c379a000000000000000000000000000000000000000000000000000000000\n      dup2\n      mstore\n      0x04\n      add\n      tag_437\n      swap1\n      tag_438\n      jump\t// in\n    tag_437:\n      mload(0x40)\n      dup1\n      swap2\n      sub\n      swap1\n      revert\n    tag_436:\n        /* \"contracts/safeguard/Ownable.sol\":2079:2098  _setOwner(newOwner) */\n      tag_439\n        /* \"contracts/safeguard/Ownable.sol\":2089:2097  newOwner */\n      dup2\n        /* \"contracts/safeguard/Ownable.sol\":2079:2088  _setOwner */\n      tag_440\n        /* \"contracts/safeguard/Ownable.sol\":2079:2098  _setOwner(newOwner) */\n      jump\t// in\n    tag_439:\n        /* \"contracts/safeguard/Ownable.sol\":1916:2105  function transferOwnership(address newOwner) public virtual onlyOwner {... */\n      pop\n      jump\t// out\n        /* \"contracts/safeguard/Ownable.sol\":1275:1403  function initOwner() internal {... */\n    tag_203:\n        /* \"contracts/safeguard/Ownable.sol\":1341:1342  0 */\n      0x00\n        /* \"contracts/safeguard/Ownable.sol\":1323:1343  _owner == address(0) */\n      0xffffffffffffffffffffffffffffffffffffffff\n      and\n        /* \"contracts/safeguard/Ownable.sol\":1323:1329  _owner */\n      0x00\n      dup1\n      sload\n      swap1\n      0x0100\n      exp\n      swap1\n      div\n      0xffffffffffffffffffffffffffffffffffffffff\n      and\n        /* \"contracts/safeguard/Ownable.sol\":1323:1343  _owner == address(0) */\n      0xffffffffffffffffffffffffffffffffffffffff\n      and\n      eq\n        /* \"contracts/safeguard/Ownable.sol\":1315:1365  require(_owner == address(0), \"owner already set\") */\n      tag_442\n      jumpi\n      mload(0x40)\n      0x08c379a000000000000000000000000000000000000000000000000000000000\n      dup2\n      mstore\n      0x04\n      add\n      tag_443\n      swap1\n      tag_444\n      jump\t// in\n    tag_443:\n      mload(0x40)\n      dup1\n      swap2\n      sub\n      swap1\n      revert\n    tag_442:\n        /* \"contracts/safeguard/Ownable.sol\":1375:1396  _setOwner(msg.sender) */\n      tag_445\n        /* \"contracts/safeguard/Ownable.sol\":1385:1395  msg.sender */\n      caller\n        /* \"contracts/safeguard/Ownable.sol\":1375:1384  _setOwner */\n      tag_440\n        /* \"contracts/safeguard/Ownable.sol\":1375:1396  _setOwner(msg.sender) */\n      jump\t// in\n    tag_445:\n        /* \"contracts/safeguard/Ownable.sol\":1275:1403  function initOwner() internal {... */\n      jump\t// out\n        /* \"@openzeppelin/contracts/security/Pausable.sol\":2110:2227  function _unpause() internal virtual whenPaused {... */\n    tag_231:\n        /* \"@openzeppelin/contracts/security/Pausable.sol\":1677:1685  paused() */\n      tag_447\n        /* \"@openzeppelin/contracts/security/Pausable.sol\":1677:1683  paused */\n      tag_104\n        /* \"@openzeppelin/contracts/security/Pausable.sol\":1677:1685  paused() */\n      jump\t// in\n    tag_447:\n        /* \"@openzeppelin/contracts/security/Pausable.sol\":1669:1710  require(paused(), \"Pausable: not paused\") */\n      tag_448\n      jumpi\n      mload(0x40)\n      0x08c379a000000000000000000000000000000000000000000000000000000000\n      dup2\n      mstore\n      0x04\n      add\n      tag_449\n      swap1\n      tag_450\n      jump\t// in\n    tag_449:\n      mload(0x40)\n      dup1\n      swap2\n      sub\n      swap1\n      revert\n    tag_448:\n        /* \"@openzeppelin/contracts/security/Pausable.sol\":2178:2183  false */\n      0x00\n        /* \"@openzeppelin/contracts/security/Pausable.sol\":2168:2175  _paused */\n      0x01\n      0x14\n        /* \"@openzeppelin/contracts/security/Pausable.sol\":2168:2183  _paused = false */\n      0x0100\n      exp\n      dup2\n      sload\n      dup2\n      0xff\n      mul\n      not\n      and\n      swap1\n      dup4\n      iszero\n      iszero\n      mul\n      or\n      swap1\n      sstore\n      pop\n        /* \"@openzeppelin/contracts/security/Pausable.sol\":2198:2220  Unpaused(_msgSender()) */\n      0x5db9ee0a495bf2e6ff9c91a7834c1ba4fdd244a5e8aa4e537bd38aeae4b073aa\n        /* \"@openzeppelin/contracts/security/Pausable.sol\":2207:2219  _msgSender() */\n      tag_452\n        /* \"@openzeppelin/contracts/security/Pausable.sol\":2207:2217  _msgSender */\n      tag_453\n        /* \"@openzeppelin/contracts/security/Pausable.sol\":2207:2219  _msgSender() */\n      jump\t// in\n    tag_452:\n        /* \"@openzeppelin/contracts/security/Pausable.sol\":2198:2220  Unpaused(_msgSender()) */\n      mload(0x40)\n      tag_454\n      swap2\n      swap1\n      tag_74\n      jump\t// in\n    tag_454:\n      mload(0x40)\n      dup1\n      swap2\n      sub\n      swap1\n      log1\n        /* \"@openzeppelin/contracts/security/Pausable.sol\":2110:2227  function _unpause() internal virtual whenPaused {... */\n      jump\t// out\n        /* \"contracts/safeguard/Pauser.sol\":1209:1396  function _removePauser(address account) private {... */\n    tag_265:\n        /* \"contracts/safeguard/Pauser.sol\":1275:1292  isPauser(account) */\n      tag_456\n        /* \"contracts/safeguard/Pauser.sol\":1284:1291  account */\n      dup2\n        /* \"contracts/safeguard/Pauser.sol\":1275:1283  isPauser */\n      tag_91\n        /* \"contracts/safeguard/Pauser.sol\":1275:1292  isPauser(account) */\n      jump\t// in\n    tag_456:\n        /* \"contracts/safeguard/Pauser.sol\":1267:1318  require(isPauser(account), \"Account is not pauser\") */\n      tag_457\n      jumpi\n      mload(0x40)\n      0x08c379a000000000000000000000000000000000000000000000000000000000\n      dup2\n      mstore\n      0x04\n      add\n      tag_458\n      swap1\n      tag_459\n      jump\t// in\n    tag_458:\n      mload(0x40)\n      dup1\n      swap2\n      sub\n      swap1\n      revert\n    tag_457:\n        /* \"contracts/safeguard/Pauser.sol\":1347:1352  false */\n      0x00\n        /* \"contracts/safeguard/Pauser.sol\":1328:1335  pausers */\n      0x02\n        /* \"contracts/safeguard/Pauser.sol\":1328:1344  pausers[account] */\n      0x00\n        /* \"contracts/safeguard/Pauser.sol\":1336:1343  account */\n      dup4\n        /* \"contracts/safeguard/Pauser.sol\":1328:1344  pausers[account] */\n      0xffffffffffffffffffffffffffffffffffffffff\n      and\n      0xffffffffffffffffffffffffffffffffffffffff\n      and\n      dup2\n      mstore\n      0x20\n      add\n      swap1\n      dup2\n      mstore\n      0x20\n      add\n      0x00\n      keccak256\n      0x00\n        /* \"contracts/safeguard/Pauser.sol\":1328:1352  pausers[account] = false */\n      0x0100\n      exp\n      dup2\n      sload\n      dup2\n      0xff\n      mul\n      not\n      and\n      swap1\n      dup4\n      iszero\n      iszero\n      mul\n      or\n      swap1\n      sstore\n      pop\n        /* \"contracts/safeguard/Pauser.sol\":1367:1389  PauserRemoved(account) */\n      0xcd265ebaf09df2871cc7bd4133404a235ba12eff2041bb89d9c714a2621c7c7e\n        /* \"contracts/safeguard/Pauser.sol\":1381:1388  account */\n      dup2\n        /* \"contracts/safeguard/Pauser.sol\":1367:1389  PauserRemoved(account) */\n      mload(0x40)\n      tag_460\n      swap2\n      swap1\n      tag_74\n      jump\t// in\n    tag_460:\n      mload(0x40)\n      dup1\n      swap2\n      sub\n      swap1\n      log1\n        /* \"contracts/safeguard/Pauser.sol\":1209:1396  function _removePauser(address account) private {... */\n      pop\n      jump\t// out\n        /* \"contracts/safeguard/Pauser.sol\":1017:1203  function _addPauser(address account) private {... */\n    tag_278:\n        /* \"contracts/safeguard/Pauser.sol\":1081:1098  isPauser(account) */\n      tag_462\n        /* \"contracts/safeguard/Pauser.sol\":1090:1097  account */\n      dup2\n        /* \"contracts/safeguard/Pauser.sol\":1081:1089  isPauser */\n      tag_91\n        /* \"contracts/safeguard/Pauser.sol\":1081:1098  isPauser(account) */\n      jump\t// in\n    tag_462:\n        /* \"contracts/safeguard/Pauser.sol\":1080:1098  !isPauser(account) */\n      iszero\n        /* \"contracts/safeguard/Pauser.sol\":1072:1128  require(!isPauser(account), \"Account is already pauser\") */\n      tag_463\n      jumpi\n      mload(0x40)\n      0x08c379a000000000000000000000000000000000000000000000000000000000\n      dup2\n      mstore\n      0x04\n      add\n      tag_464\n      swap1\n      tag_465\n      jump\t// in\n    tag_464:\n      mload(0x40)\n      dup1\n      swap2\n      sub\n      swap1\n      revert\n    tag_463:\n        /* \"contracts/safeguard/Pauser.sol\":1157:1161  true */\n      0x01\n        /* \"contracts/safeguard/Pauser.sol\":1138:1145  pausers */\n      0x02\n        /* \"contracts/safeguard/Pauser.sol\":1138:1154  pausers[account] */\n      0x00\n        /* \"contracts/safeguard/Pauser.sol\":1146:1153  account */\n      dup4\n        /* \"contracts/safeguard/Pauser.sol\":1138:1154  pausers[account] */\n      0xffffffffffffffffffffffffffffffffffffffff\n      and\n      0xffffffffffffffffffffffffffffffffffffffff\n      and\n      dup2\n      mstore\n      0x20\n      add\n      swap1\n      dup2\n      mstore\n      0x20\n      add\n      0x00\n      keccak256\n      0x00\n        /* \"contracts/safeguard/Pauser.sol\":1138:1161  pausers[account] = true */\n      0x0100\n      exp\n      dup2\n      sload\n      dup2\n      0xff\n      mul\n      not\n      and\n      swap1\n      dup4\n      iszero\n      iszero\n      mul\n      or\n      swap1\n      sstore\n      pop\n        /* \"contracts/safeguard/Pauser.sol\":1176:1196  PauserAdded(account) */\n      0x6719d08c1888103bea251a4ed56406bd0c3e69723c8a1686e017e7bbe159b6f8\n        /* \"contracts/safeguard/Pauser.sol\":1188:1195  account */\n      dup2\n        /* \"contracts/safeguard/Pauser.sol\":1176:1196  PauserAdded(account) */\n      mload(0x40)\n      tag_466\n      swap2\n      swap1\n      tag_74\n      jump\t// in\n    tag_466:\n      mload(0x40)\n      dup1\n      swap2\n      sub\n      swap1\n      log1\n        /* \"contracts/safeguard/Pauser.sol\":1017:1203  function _addPauser(address account) private {... */\n      pop\n      jump\t// out\n        /* \"@openzeppelin/contracts/security/Pausable.sol\":1863:1978  function _pause() internal virtual whenNotPaused {... */\n    tag_285:\n        /* \"@openzeppelin/contracts/security/Pausable.sol\":1412:1420  paused() */\n      tag_468\n        /* \"@openzeppelin/contracts/security/Pausable.sol\":1412:1418  paused */\n      tag_104\n        /* \"@openzeppelin/contracts/security/Pausable.sol\":1412:1420  paused() */\n      jump\t// in\n    tag_468:\n        /* \"@openzeppelin/contracts/security/Pausable.sol\":1411:1420  !paused() */\n      iszero\n        /* \"@openzeppelin/contracts/security/Pausable.sol\":1403:1441  require(!paused(), \"Pausable: paused\") */\n      tag_469\n      jumpi\n      mload(0x40)\n      0x08c379a000000000000000000000000000000000000000000000000000000000\n      dup2\n      mstore\n      0x04\n      add\n      tag_470\n      swap1\n      tag_368\n      jump\t// in\n    tag_470:\n      mload(0x40)\n      dup1\n      swap2\n      sub\n      swap1\n      revert\n    tag_469:\n        /* \"@openzeppelin/contracts/security/Pausable.sol\":1932:1936  true */\n      0x01\n        /* \"@openzeppelin/contracts/security/Pausable.sol\":1922:1929  _paused */\n      dup1\n      0x14\n        /* \"@openzeppelin/contracts/security/Pausable.sol\":1922:1936  _paused = true */\n      0x0100\n      exp\n      dup2\n      sload\n      dup2\n      0xff\n      mul\n      not\n      and\n      swap1\n      dup4\n      iszero\n      iszero\n      mul\n      or\n      swap1\n      sstore\n      pop\n        /* \"@openzeppelin/contracts/security/Pausable.sol\":1951:1971  Paused(_msgSender()) */\n      0x62e78cea01bee320cd4e420270b5ea74000d11b0c9f74754ebdbfc544b05a258\n        /* \"@openzeppelin/contracts/security/Pausable.sol\":1958:1970  _msgSender() */\n      tag_472\n        /* \"@openzeppelin/contracts/security/Pausable.sol\":1958:1968  _msgSender */\n      tag_453\n        /* \"@openzeppelin/contracts/security/Pausable.sol\":1958:1970  _msgSender() */\n      jump\t// in\n    tag_472:\n        /* \"@openzeppelin/contracts/security/Pausable.sol\":1951:1971  Paused(_msgSender()) */\n      mload(0x40)\n      tag_473\n      swap2\n      swap1\n      tag_74\n      jump\t// in\n    tag_473:\n      mload(0x40)\n      dup1\n      swap2\n      sub\n      swap1\n      log1\n        /* \"@openzeppelin/contracts/security/Pausable.sol\":1863:1978  function _pause() internal virtual whenNotPaused {... */\n      jump\t// out\n        /* \"contracts/NFTBridge.sol\":7032:7367  function checkAddr(address _nft, uint64 _dstChid) internal view returns (address dstBridge, address dstNft) {... */\n    tag_403:\n        /* \"contracts/NFTBridge.sol\":7105:7122  address dstBridge */\n      0x00\n        /* \"contracts/NFTBridge.sol\":7124:7138  address dstNft */\n      dup1\n        /* \"contracts/NFTBridge.sol\":7162:7172  destBridge */\n      0x04\n        /* \"contracts/NFTBridge.sol\":7162:7182  destBridge[_dstChid] */\n      0x00\n        /* \"contracts/NFTBridge.sol\":7173:7181  _dstChid */\n      dup5\n        /* \"contracts/NFTBridge.sol\":7162:7182  destBridge[_dstChid] */\n      0xffffffffffffffff\n      and\n      0xffffffffffffffff\n      and\n      dup2\n      mstore\n      0x20\n      add\n      swap1\n      dup2\n      mstore\n      0x20\n      add\n      0x00\n      keccak256\n      0x00\n      swap1\n      sload\n      swap1\n      0x0100\n      exp\n      swap1\n      div\n      0xffffffffffffffffffffffffffffffffffffffff\n      and\n        /* \"contracts/NFTBridge.sol\":7150:7182  dstBridge = destBridge[_dstChid] */\n      swap2\n      pop\n        /* \"contracts/NFTBridge.sol\":7221:7222  0 */\n      0x00\n        /* \"contracts/NFTBridge.sol\":7200:7223  dstBridge != address(0) */\n      0xffffffffffffffffffffffffffffffffffffffff\n      and\n        /* \"contracts/NFTBridge.sol\":7200:7209  dstBridge */\n      dup3\n        /* \"contracts/NFTBridge.sol\":7200:7223  dstBridge != address(0) */\n      0xffffffffffffffffffffffffffffffffffffffff\n      and\n      eq\n      iszero\n        /* \"contracts/NFTBridge.sol\":7192:7253  require(dstBridge != address(0), \"dest NFT Bridge not found\") */\n      tag_475\n      jumpi\n      mload(0x40)\n      0x08c379a000000000000000000000000000000000000000000000000000000000\n      dup2\n      mstore\n      0x04\n      add\n      tag_476\n      swap1\n      tag_477\n      jump\t// in\n    tag_476:\n      mload(0x40)\n      dup1\n      swap2\n      sub\n      swap1\n      revert\n    tag_475:\n        /* \"contracts/NFTBridge.sol\":7272:7283  destNFTAddr */\n      0x05\n        /* \"contracts/NFTBridge.sol\":7272:7289  destNFTAddr[_nft] */\n      0x00\n        /* \"contracts/NFTBridge.sol\":7284:7288  _nft */\n      dup6\n        /* \"contracts/NFTBridge.sol\":7272:7289  destNFTAddr[_nft] */\n      0xffffffffffffffffffffffffffffffffffffffff\n      and\n      0xffffffffffffffffffffffffffffffffffffffff\n      and\n      dup2\n      mstore\n      0x20\n      add\n      swap1\n      dup2\n      mstore\n      0x20\n      add\n      0x00\n      keccak256\n        /* \"contracts/NFTBridge.sol\":7272:7299  destNFTAddr[_nft][_dstChid] */\n      0x00\n        /* \"contracts/NFTBridge.sol\":7290:7298  _dstChid */\n      dup5\n        /* \"contracts/NFTBridge.sol\":7272:7299  destNFTAddr[_nft][_dstChid] */\n      0xffffffffffffffff\n      and\n      0xffffffffffffffff\n      and\n      dup2\n      mstore\n      0x20\n      add\n      swap1\n      dup2\n      mstore\n      0x20\n      add\n      0x00\n      keccak256\n      0x00\n      swap1\n      sload\n      swap1\n      0x0100\n      exp\n      swap1\n      div\n      0xffffffffffffffffffffffffffffffffffffffff\n      and\n        /* \"contracts/NFTBridge.sol\":7263:7299  dstNft = destNFTAddr[_nft][_dstChid] */\n      swap1\n      pop\n        /* \"contracts/NFTBridge.sol\":7335:7336  0 */\n      0x00\n        /* \"contracts/NFTBridge.sol\":7317:7337  dstNft != address(0) */\n      0xffffffffffffffffffffffffffffffffffffffff\n      and\n        /* \"contracts/NFTBridge.sol\":7317:7323  dstNft */\n      dup2\n        /* \"contracts/NFTBridge.sol\":7317:7337  dstNft != address(0) */\n      0xffffffffffffffffffffffffffffffffffffffff\n      and\n      eq\n      iszero\n        /* \"contracts/NFTBridge.sol\":7309:7360  require(dstNft != address(0), \"dest NFT not found\") */\n      tag_478\n      jumpi\n      mload(0x40)\n      0x08c379a000000000000000000000000000000000000000000000000000000000\n      dup2\n      mstore\n      0x04\n      add\n      tag_479\n      swap1\n      tag_480\n      jump\t// in\n    tag_479:\n      mload(0x40)\n      dup1\n      swap2\n      sub\n      swap1\n      revert\n    tag_478:\n        /* \"contracts/NFTBridge.sol\":7032:7367  function checkAddr(address _nft, uint64 _dstChid) internal view returns (address dstBridge, address dstNft) {... */\n      swap3\n      pop\n      swap3\n      swap1\n      pop\n      jump\t// out\n        /* \"contracts/NFTBridge.sol\":7418:7768  function msgBus(... */\n    tag_406:\n        /* \"contracts/NFTBridge.sol\":7542:7553  uint256 fee */\n      0x00\n        /* \"contracts/NFTBridge.sol\":7568:7578  messageBus */\n      0x01\n      0x00\n      swap1\n      sload\n      swap1\n      0x0100\n      exp\n      swap1\n      div\n      0xffffffffffffffffffffffffffffffffffffffff\n      and\n        /* \"contracts/NFTBridge.sol\":7556:7587  IMessageBus(messageBus).calcFee */\n      0xffffffffffffffffffffffffffffffffffffffff\n      and\n      0x5335dca2\n        /* \"contracts/NFTBridge.sol\":7588:7595  message */\n      dup4\n        /* \"contracts/NFTBridge.sol\":7556:7596  IMessageBus(messageBus).calcFee(message) */\n      mload(0x40)\n      dup3\n      0xffffffff\n      and\n      0xe0\n      shl\n      dup2\n      mstore\n      0x04\n      add\n      tag_482\n      swap2\n      swap1\n      tag_312\n      jump\t// in\n    tag_482:\n      0x20\n      mload(0x40)\n      dup1\n      dup4\n      sub\n      dup2\n      dup7\n      dup1\n      extcodesize\n      iszero\n      dup1\n      iszero\n      tag_483\n      jumpi\n      0x00\n      dup1\n      revert\n    tag_483:\n      pop\n      gas\n      staticcall\n      iszero\n      dup1\n      iszero\n      tag_485\n      jumpi\n      returndatasize\n      0x00\n      dup1\n      returndatacopy\n      revert(0x00, returndatasize)\n    tag_485:\n      pop\n      pop\n      pop\n      pop\n      mload(0x40)\n      returndatasize\n      not(0x1f)\n      0x1f\n      dup3\n      add\n      and\n      dup3\n      add\n      dup1\n      0x40\n      mstore\n      pop\n      dup2\n      add\n      swap1\n      tag_486\n      swap2\n      swap1\n      tag_317\n      jump\t// in\n    tag_486:\n        /* \"contracts/NFTBridge.sol\":7542:7596  uint256 fee = IMessageBus(messageBus).calcFee(message) */\n      swap1\n      pop\n        /* \"contracts/NFTBridge.sol\":7633:7642  destTxFee */\n      0x03\n        /* \"contracts/NFTBridge.sol\":7633:7652  destTxFee[_dstChid] */\n      0x00\n        /* \"contracts/NFTBridge.sol\":7643:7651  _dstChid */\n      dup5\n        /* \"contracts/NFTBridge.sol\":7633:7652  destTxFee[_dstChid] */\n      0xffffffffffffffff\n      and\n      0xffffffffffffffff\n      and\n      dup2\n      mstore\n      0x20\n      add\n      swap1\n      dup2\n      mstore\n      0x20\n      add\n      0x00\n      keccak256\n      sload\n        /* \"contracts/NFTBridge.sol\":7627:7630  fee */\n      dup2\n        /* \"contracts/NFTBridge.sol\":7627:7652  fee + destTxFee[_dstChid] */\n      tag_487\n      swap2\n      swap1\n      tag_319\n      jump\t// in\n    tag_487:\n        /* \"contracts/NFTBridge.sol\":7614:7623  msg.value */\n      callvalue\n        /* \"contracts/NFTBridge.sol\":7614:7652  msg.value >= fee + destTxFee[_dstChid] */\n      lt\n      iszero\n        /* \"contracts/NFTBridge.sol\":7606:7673  require(msg.value >= fee + destTxFee[_dstChid], \"insufficient fee\") */\n      tag_488\n      jumpi\n      mload(0x40)\n      0x08c379a000000000000000000000000000000000000000000000000000000000\n      dup2\n      mstore\n      0x04\n      add\n      tag_489\n      swap1\n      tag_490\n      jump\t// in\n    tag_489:\n      mload(0x40)\n      dup1\n      swap2\n      sub\n      swap1\n      revert\n    tag_488:\n        /* \"contracts/NFTBridge.sol\":7695:7705  messageBus */\n      0x01\n      0x00\n      swap1\n      sload\n      swap1\n      0x0100\n      exp\n      swap1\n      div\n      0xffffffffffffffffffffffffffffffffffffffff\n      and\n        /* \"contracts/NFTBridge.sol\":7683:7718  IMessageBus(messageBus).sendMessage */\n      0xffffffffffffffffffffffffffffffffffffffff\n      and\n      0x9f3ce55a\n        /* \"contracts/NFTBridge.sol\":7726:7729  fee */\n      dup3\n        /* \"contracts/NFTBridge.sol\":7731:7741  _dstBridge */\n      dup7\n        /* \"contracts/NFTBridge.sol\":7743:7751  _dstChid */\n      dup7\n        /* \"contracts/NFTBridge.sol\":7753:7760  message */\n      dup7\n        /* \"contracts/NFTBridge.sol\":7683:7761  IMessageBus(messageBus).sendMessage{value: fee}(_dstBridge, _dstChid, message) */\n      mload(0x40)\n      dup6\n      0xffffffff\n      and\n      0xe0\n      shl\n      dup2\n      mstore\n      0x04\n      add\n      tag_491\n      swap4\n      swap3\n      swap2\n      swap1\n      tag_492\n      jump\t// in\n    tag_491:\n      0x00\n      mload(0x40)\n      dup1\n      dup4\n      sub\n      dup2\n      dup6\n      dup9\n      dup1\n      extcodesize\n      iszero\n      dup1\n      iszero\n      tag_493\n      jumpi\n      0x00\n      dup1\n      revert\n    tag_493:\n      pop\n      gas\n      call\n      iszero\n      dup1\n      iszero\n      tag_495\n      jumpi\n      returndatasize\n      0x00\n      dup1\n      returndatacopy\n      revert(0x00, returndatasize)\n    tag_495:\n      pop\n      pop\n      pop\n      pop\n      pop\n        /* \"contracts/NFTBridge.sol\":7532:7768  {... */\n      pop\n        /* \"contracts/NFTBridge.sol\":7418:7768  function msgBus(... */\n      pop\n      pop\n      pop\n      jump\t// out\n        /* \"contracts/safeguard/Ownable.sol\":2111:2280  function _setOwner(address newOwner) private {... */\n    tag_440:\n        /* \"contracts/safeguard/Ownable.sol\":2166:2182  address oldOwner */\n      0x00\n        /* \"contracts/safeguard/Ownable.sol\":2185:2191  _owner */\n      dup1\n      0x00\n      swap1\n      sload\n      swap1\n      0x0100\n      exp\n      swap1\n      div\n      0xffffffffffffffffffffffffffffffffffffffff\n      and\n        /* \"contracts/safeguard/Ownable.sol\":2166:2191  address oldOwner = _owner */\n      swap1\n      pop\n        /* \"contracts/safeguard/Ownable.sol\":2210:2218  newOwner */\n      dup2\n        /* \"contracts/safeguard/Ownable.sol\":2201:2207  _owner */\n      0x00\n      dup1\n        /* \"contracts/safeguard/Ownable.sol\":2201:2218  _owner = newOwner */\n      0x0100\n      exp\n      dup2\n      sload\n      dup2\n      0xffffffffffffffffffffffffffffffffffffffff\n      mul\n      not\n      and\n      swap1\n      dup4\n      0xffffffffffffffffffffffffffffffffffffffff\n      and\n      mul\n      or\n      swap1\n      sstore\n      pop\n        /* \"contracts/safeguard/Ownable.sol\":2264:2272  newOwner */\n      dup2\n        /* \"contracts/safeguard/Ownable.sol\":2233:2273  OwnershipTransferred(oldOwner, newOwner) */\n      0xffffffffffffffffffffffffffffffffffffffff\n      and\n        /* \"contracts/safeguard/Ownable.sol\":2254:2262  oldOwner */\n      dup2\n        /* \"contracts/safeguard/Ownable.sol\":2233:2273  OwnershipTransferred(oldOwner, newOwner) */\n      0xffffffffffffffffffffffffffffffffffffffff\n      and\n      0x8be0079c531659141344cd1fd0a4f28419497f9722a3daafe3b4186f6b6457e0\n      mload(0x40)\n      mload(0x40)\n      dup1\n      swap2\n      sub\n      swap1\n      log3\n        /* \"contracts/safeguard/Ownable.sol\":2156:2280  {... */\n      pop\n        /* \"contracts/safeguard/Ownable.sol\":2111:2280  function _setOwner(address newOwner) private {... */\n      pop\n      jump\t// out\n        /* \"@openzeppelin/contracts/utils/Context.sol\":640:736  function _msgSender() internal view virtual returns (address) {... */\n    tag_453:\n        /* \"@openzeppelin/contracts/utils/Context.sol\":693:700  address */\n      0x00\n        /* \"@openzeppelin/contracts/utils/Context.sol\":719:729  msg.sender */\n      caller\n        /* \"@openzeppelin/contracts/utils/Context.sol\":712:729  return msg.sender */\n      swap1\n      pop\n        /* \"@openzeppelin/contracts/utils/Context.sol\":640:736  function _msgSender() internal view virtual returns (address) {... */\n      swap1\n      jump\t// out\n        /* \"#utility.yul\":7:82   */\n    tag_498:\n        /* \"#utility.yul\":40:46   */\n      0x00\n        /* \"#utility.yul\":73:75   */\n      0x40\n        /* \"#utility.yul\":67:76   */\n      mload\n        /* \"#utility.yul\":57:76   */\n      swap1\n      pop\n        /* \"#utility.yul\":7:82   */\n      swap1\n      jump\t// out\n        /* \"#utility.yul\":88:205   */\n    tag_499:\n        /* \"#utility.yul\":197:198   */\n      0x00\n        /* \"#utility.yul\":194:195   */\n      dup1\n        /* \"#utility.yul\":187:199   */\n      revert\n        /* \"#utility.yul\":211:328   */\n    tag_500:\n        /* \"#utility.yul\":320:321   */\n      0x00\n        /* \"#utility.yul\":317:318   */\n      dup1\n        /* \"#utility.yul\":310:322   */\n      revert\n        /* \"#utility.yul\":334:460   */\n    tag_501:\n        /* \"#utility.yul\":371:378   */\n      0x00\n        /* \"#utility.yul\":411:453   */\n      0xffffffffffffffffffffffffffffffffffffffff\n        /* \"#utility.yul\":404:409   */\n      dup3\n        /* \"#utility.yul\":400:454   */\n      and\n        /* \"#utility.yul\":389:454   */\n      swap1\n      pop\n        /* \"#utility.yul\":334:460   */\n      swap2\n      swap1\n      pop\n      jump\t// out\n        /* \"#utility.yul\":466:562   */\n    tag_502:\n        /* \"#utility.yul\":503:510   */\n      0x00\n        /* \"#utility.yul\":532:556   */\n      tag_597\n        /* \"#utility.yul\":550:555   */\n      dup3\n        /* \"#utility.yul\":532:556   */\n      tag_501\n      jump\t// in\n    tag_597:\n        /* \"#utility.yul\":521:556   */\n      swap1\n      pop\n        /* \"#utility.yul\":466:562   */\n      swap2\n      swap1\n      pop\n      jump\t// out\n        /* \"#utility.yul\":568:690   */\n    tag_503:\n        /* \"#utility.yul\":641:665   */\n      tag_599\n        /* \"#utility.yul\":659:664   */\n      dup2\n        /* \"#utility.yul\":641:665   */\n      tag_502\n      jump\t// in\n    tag_599:\n        /* \"#utility.yul\":634:639   */\n      dup2\n        /* \"#utility.yul\":631:666   */\n      eq\n        /* \"#utility.yul\":621:684   */\n      tag_600\n      jumpi\n        /* \"#utility.yul\":680:681   */\n      0x00\n        /* \"#utility.yul\":677:678   */\n      dup1\n        /* \"#utility.yul\":670:682   */\n      revert\n        /* \"#utility.yul\":621:684   */\n    tag_600:\n        /* \"#utility.yul\":568:690   */\n      pop\n      jump\t// out\n        /* \"#utility.yul\":696:835   */\n    tag_504:\n        /* \"#utility.yul\":742:747   */\n      0x00\n        /* \"#utility.yul\":780:786   */\n      dup2\n        /* \"#utility.yul\":767:787   */\n      calldataload\n        /* \"#utility.yul\":758:787   */\n      swap1\n      pop\n        /* \"#utility.yul\":796:829   */\n      tag_602\n        /* \"#utility.yul\":823:828   */\n      dup2\n        /* \"#utility.yul\":796:829   */\n      tag_503\n      jump\t// in\n    tag_602:\n        /* \"#utility.yul\":696:835   */\n      swap3\n      swap2\n      pop\n      pop\n      jump\t// out\n        /* \"#utility.yul\":841:1170   */\n    tag_44:\n        /* \"#utility.yul\":900:906   */\n      0x00\n        /* \"#utility.yul\":949:951   */\n      0x20\n        /* \"#utility.yul\":937:946   */\n      dup3\n        /* \"#utility.yul\":928:935   */\n      dup5\n        /* \"#utility.yul\":924:947   */\n      sub\n        /* \"#utility.yul\":920:952   */\n      slt\n        /* \"#utility.yul\":917:1036   */\n      iszero\n      tag_604\n      jumpi\n        /* \"#utility.yul\":955:1034   */\n      tag_605\n      tag_499\n      jump\t// in\n    tag_605:\n        /* \"#utility.yul\":917:1036   */\n    tag_604:\n        /* \"#utility.yul\":1075:1076   */\n      0x00\n        /* \"#utility.yul\":1100:1153   */\n      tag_606\n        /* \"#utility.yul\":1145:1152   */\n      dup5\n        /* \"#utility.yul\":1136:1142   */\n      dup3\n        /* \"#utility.yul\":1125:1134   */\n      dup6\n        /* \"#utility.yul\":1121:1143   */\n      add\n        /* \"#utility.yul\":1100:1153   */\n      tag_504\n      jump\t// in\n    tag_606:\n        /* \"#utility.yul\":1090:1153   */\n      swap2\n      pop\n        /* \"#utility.yul\":1046:1163   */\n      pop\n        /* \"#utility.yul\":841:1170   */\n      swap3\n      swap2\n      pop\n      pop\n      jump\t// out\n        /* \"#utility.yul\":1176:1253   */\n    tag_505:\n        /* \"#utility.yul\":1213:1220   */\n      0x00\n        /* \"#utility.yul\":1242:1247   */\n      dup2\n        /* \"#utility.yul\":1231:1247   */\n      swap1\n      pop\n        /* \"#utility.yul\":1176:1253   */\n      swap2\n      swap1\n      pop\n      jump\t// out\n        /* \"#utility.yul\":1259:1381   */\n    tag_506:\n        /* \"#utility.yul\":1332:1356   */\n      tag_609\n        /* \"#utility.yul\":1350:1355   */\n      dup2\n        /* \"#utility.yul\":1332:1356   */\n      tag_505\n      jump\t// in\n    tag_609:\n        /* \"#utility.yul\":1325:1330   */\n      dup2\n        /* \"#utility.yul\":1322:1357   */\n      eq\n        /* \"#utility.yul\":1312:1375   */\n      tag_610\n      jumpi\n        /* \"#utility.yul\":1371:1372   */\n      0x00\n        /* \"#utility.yul\":1368:1369   */\n      dup1\n        /* \"#utility.yul\":1361:1373   */\n      revert\n        /* \"#utility.yul\":1312:1375   */\n    tag_610:\n        /* \"#utility.yul\":1259:1381   */\n      pop\n      jump\t// out\n        /* \"#utility.yul\":1387:1526   */\n    tag_507:\n        /* \"#utility.yul\":1433:1438   */\n      0x00\n        /* \"#utility.yul\":1471:1477   */\n      dup2\n        /* \"#utility.yul\":1458:1478   */\n      calldataload\n        /* \"#utility.yul\":1449:1478   */\n      swap1\n      pop\n        /* \"#utility.yul\":1487:1520   */\n      tag_612\n        /* \"#utility.yul\":1514:1519   */\n      dup2\n        /* \"#utility.yul\":1487:1520   */\n      tag_506\n      jump\t// in\n    tag_612:\n        /* \"#utility.yul\":1387:1526   */\n      swap3\n      swap2\n      pop\n      pop\n      jump\t// out\n        /* \"#utility.yul\":1532:1649   */\n    tag_508:\n        /* \"#utility.yul\":1641:1642   */\n      0x00\n        /* \"#utility.yul\":1638:1639   */\n      dup1\n        /* \"#utility.yul\":1631:1643   */\n      revert\n        /* \"#utility.yul\":1655:1772   */\n    tag_509:\n        /* \"#utility.yul\":1764:1765   */\n      0x00\n        /* \"#utility.yul\":1761:1762   */\n      dup1\n        /* \"#utility.yul\":1754:1766   */\n      revert\n        /* \"#utility.yul\":1778:1895   */\n    tag_510:\n        /* \"#utility.yul\":1887:1888   */\n      0x00\n        /* \"#utility.yul\":1884:1885   */\n      dup1\n        /* \"#utility.yul\":1877:1889   */\n      revert\n        /* \"#utility.yul\":1914:2466   */\n    tag_511:\n        /* \"#utility.yul\":1971:1979   */\n      0x00\n        /* \"#utility.yul\":1981:1987   */\n      dup1\n        /* \"#utility.yul\":2031:2034   */\n      dup4\n        /* \"#utility.yul\":2024:2028   */\n      0x1f\n        /* \"#utility.yul\":2016:2022   */\n      dup5\n        /* \"#utility.yul\":2012:2029   */\n      add\n        /* \"#utility.yul\":2008:2035   */\n      slt\n        /* \"#utility.yul\":1998:2120   */\n      tag_617\n      jumpi\n        /* \"#utility.yul\":2039:2118   */\n      tag_618\n      tag_508\n      jump\t// in\n    tag_618:\n        /* \"#utility.yul\":1998:2120   */\n    tag_617:\n        /* \"#utility.yul\":2152:2158   */\n      dup3\n        /* \"#utility.yul\":2139:2159   */\n      calldataload\n        /* \"#utility.yul\":2129:2159   */\n      swap1\n      pop\n        /* \"#utility.yul\":2182:2200   */\n      0xffffffffffffffff\n        /* \"#utility.yul\":2174:2180   */\n      dup2\n        /* \"#utility.yul\":2171:2201   */\n      gt\n        /* \"#utility.yul\":2168:2285   */\n      iszero\n      tag_619\n      jumpi\n        /* \"#utility.yul\":2204:2283   */\n      tag_620\n      tag_509\n      jump\t// in\n    tag_620:\n        /* \"#utility.yul\":2168:2285   */\n    tag_619:\n        /* \"#utility.yul\":2318:2322   */\n      0x20\n        /* \"#utility.yul\":2310:2316   */\n      dup4\n        /* \"#utility.yul\":2306:2323   */\n      add\n        /* \"#utility.yul\":2294:2323   */\n      swap2\n      pop\n        /* \"#utility.yul\":2372:2375   */\n      dup4\n        /* \"#utility.yul\":2364:2368   */\n      0x01\n        /* \"#utility.yul\":2356:2362   */\n      dup3\n        /* \"#utility.yul\":2352:2369   */\n      mul\n        /* \"#utility.yul\":2342:2350   */\n      dup4\n        /* \"#utility.yul\":2338:2370   */\n      add\n        /* \"#utility.yul\":2335:2376   */\n      gt\n        /* \"#utility.yul\":2332:2460   */\n      iszero\n      tag_621\n      jumpi\n        /* \"#utility.yul\":2379:2458   */\n      tag_622\n      tag_510\n      jump\t// in\n    tag_622:\n        /* \"#utility.yul\":2332:2460   */\n    tag_621:\n        /* \"#utility.yul\":1914:2466   */\n      swap3\n      pop\n      swap3\n      swap1\n      pop\n      jump\t// out\n        /* \"#utility.yul\":2472:3435   */\n    tag_48:\n        /* \"#utility.yul\":2569:2575   */\n      0x00\n        /* \"#utility.yul\":2577:2583   */\n      dup1\n        /* \"#utility.yul\":2585:2591   */\n      0x00\n        /* \"#utility.yul\":2593:2599   */\n      dup1\n        /* \"#utility.yul\":2601:2607   */\n      0x00\n        /* \"#utility.yul\":2650:2653   */\n      0x80\n        /* \"#utility.yul\":2638:2647   */\n      dup7\n        /* \"#utility.yul\":2629:2636   */\n      dup9\n        /* \"#utility.yul\":2625:2648   */\n      sub\n        /* \"#utility.yul\":2621:2654   */\n      slt\n        /* \"#utility.yul\":2618:2738   */\n      iszero\n      tag_624\n      jumpi\n        /* \"#utility.yul\":2657:2736   */\n      tag_625\n      tag_499\n      jump\t// in\n    tag_625:\n        /* \"#utility.yul\":2618:2738   */\n    tag_624:\n        /* \"#utility.yul\":2777:2778   */\n      0x00\n        /* \"#utility.yul\":2802:2855   */\n      tag_626\n        /* \"#utility.yul\":2847:2854   */\n      dup9\n        /* \"#utility.yul\":2838:2844   */\n      dup3\n        /* \"#utility.yul\":2827:2836   */\n      dup10\n        /* \"#utility.yul\":2823:2845   */\n      add\n        /* \"#utility.yul\":2802:2855   */\n      tag_504\n      jump\t// in\n    tag_626:\n        /* \"#utility.yul\":2792:2855   */\n      swap6\n      pop\n        /* \"#utility.yul\":2748:2865   */\n      pop\n        /* \"#utility.yul\":2904:2906   */\n      0x20\n        /* \"#utility.yul\":2930:2983   */\n      tag_627\n        /* \"#utility.yul\":2975:2982   */\n      dup9\n        /* \"#utility.yul\":2966:2972   */\n      dup3\n        /* \"#utility.yul\":2955:2964   */\n      dup10\n        /* \"#utility.yul\":2951:2973   */\n      add\n        /* \"#utility.yul\":2930:2983   */\n      tag_507\n      jump\t// in\n    tag_627:\n        /* \"#utility.yul\":2920:2983   */\n      swap5\n      pop\n        /* \"#utility.yul\":2875:2993   */\n      pop\n        /* \"#utility.yul\":3060:3062   */\n      0x40\n        /* \"#utility.yul\":3049:3058   */\n      dup7\n        /* \"#utility.yul\":3045:3063   */\n      add\n        /* \"#utility.yul\":3032:3064   */\n      calldataload\n        /* \"#utility.yul\":3091:3109   */\n      0xffffffffffffffff\n        /* \"#utility.yul\":3083:3089   */\n      dup2\n        /* \"#utility.yul\":3080:3110   */\n      gt\n        /* \"#utility.yul\":3077:3194   */\n      iszero\n      tag_628\n      jumpi\n        /* \"#utility.yul\":3113:3192   */\n      tag_629\n      tag_500\n      jump\t// in\n    tag_629:\n        /* \"#utility.yul\":3077:3194   */\n    tag_628:\n        /* \"#utility.yul\":3226:3290   */\n      tag_630\n        /* \"#utility.yul\":3282:3289   */\n      dup9\n        /* \"#utility.yul\":3273:3279   */\n      dup3\n        /* \"#utility.yul\":3262:3271   */\n      dup10\n        /* \"#utility.yul\":3258:3280   */\n      add\n        /* \"#utility.yul\":3226:3290   */\n      tag_511\n      jump\t// in\n    tag_630:\n        /* \"#utility.yul\":3208:3290   */\n      swap4\n      pop\n      swap4\n      pop\n        /* \"#utility.yul\":3003:3300   */\n      pop\n        /* \"#utility.yul\":3339:3341   */\n      0x60\n        /* \"#utility.yul\":3365:3418   */\n      tag_631\n        /* \"#utility.yul\":3410:3417   */\n      dup9\n        /* \"#utility.yul\":3401:3407   */\n      dup3\n        /* \"#utility.yul\":3390:3399   */\n      dup10\n        /* \"#utility.yul\":3386:3408   */\n      add\n        /* \"#utility.yul\":3365:3418   */\n      tag_504\n      jump\t// in\n    tag_631:\n        /* \"#utility.yul\":3355:3418   */\n      swap2\n      pop\n        /* \"#utility.yul\":3310:3428   */\n      pop\n        /* \"#utility.yul\":2472:3435   */\n      swap3\n      swap6\n      pop\n      swap3\n      swap6\n      swap1\n      swap4\n      pop\n      jump\t// out\n        /* \"#utility.yul\":3441:3621   */\n    tag_512:\n        /* \"#utility.yul\":3489:3566   */\n      0x4e487b7100000000000000000000000000000000000000000000000000000000\n        /* \"#utility.yul\":3486:3487   */\n      0x00\n        /* \"#utility.yul\":3479:3567   */\n      mstore\n        /* \"#utility.yul\":3586:3590   */\n      0x21\n        /* \"#utility.yul\":3583:3584   */\n      0x04\n        /* \"#utility.yul\":3576:3591   */\n      mstore\n        /* \"#utility.yul\":3610:3614   */\n      0x24\n        /* \"#utility.yul\":3607:3608   */\n      0x00\n        /* \"#utility.yul\":3600:3615   */\n      revert\n        /* \"#utility.yul\":3627:3752   */\n    tag_513:\n        /* \"#utility.yul\":3720:3721   */\n      0x03\n        /* \"#utility.yul\":3713:3718   */\n      dup2\n        /* \"#utility.yul\":3710:3722   */\n      lt\n        /* \"#utility.yul\":3700:3746   */\n      tag_634\n      jumpi\n        /* \"#utility.yul\":3726:3744   */\n      tag_635\n      tag_512\n      jump\t// in\n    tag_635:\n        /* \"#utility.yul\":3700:3746   */\n    tag_634:\n        /* \"#utility.yul\":3627:3752   */\n      pop\n      jump\t// out\n        /* \"#utility.yul\":3758:3909   */\n    tag_514:\n        /* \"#utility.yul\":3815:3822   */\n      0x00\n        /* \"#utility.yul\":3844:3849   */\n      dup2\n        /* \"#utility.yul\":3833:3849   */\n      swap1\n      pop\n        /* \"#utility.yul\":3850:3903   */\n      tag_637\n        /* \"#utility.yul\":3897:3902   */\n      dup3\n        /* \"#utility.yul\":3850:3903   */\n      tag_513\n      jump\t// in\n    tag_637:\n        /* \"#utility.yul\":3758:3909   */\n      swap2\n      swap1\n      pop\n      jump\t// out\n        /* \"#utility.yul\":3915:4066   */\n    tag_515:\n        /* \"#utility.yul\":3983:3992   */\n      0x00\n        /* \"#utility.yul\":4016:4060   */\n      tag_639\n        /* \"#utility.yul\":4054:4059   */\n      dup3\n        /* \"#utility.yul\":4016:4060   */\n      tag_514\n      jump\t// in\n    tag_639:\n        /* \"#utility.yul\":4003:4060   */\n      swap1\n      pop\n        /* \"#utility.yul\":3915:4066   */\n      swap2\n      swap1\n      pop\n      jump\t// out\n        /* \"#utility.yul\":4072:4239   */\n    tag_516:\n        /* \"#utility.yul\":4177:4232   */\n      tag_641\n        /* \"#utility.yul\":4226:4231   */\n      dup2\n        /* \"#utility.yul\":4177:4232   */\n      tag_515\n      jump\t// in\n    tag_641:\n        /* \"#utility.yul\":4172:4175   */\n      dup3\n        /* \"#utility.yul\":4165:4233   */\n      mstore\n        /* \"#utility.yul\":4072:4239   */\n      pop\n      pop\n      jump\t// out\n        /* \"#utility.yul\":4245:4503   */\n    tag_51:\n        /* \"#utility.yul\":4356:4360   */\n      0x00\n        /* \"#utility.yul\":4394:4396   */\n      0x20\n        /* \"#utility.yul\":4383:4392   */\n      dup3\n        /* \"#utility.yul\":4379:4397   */\n      add\n        /* \"#utility.yul\":4371:4397   */\n      swap1\n      pop\n        /* \"#utility.yul\":4407:4496   */\n      tag_643\n        /* \"#utility.yul\":4493:4494   */\n      0x00\n        /* \"#utility.yul\":4482:4491   */\n      dup4\n        /* \"#utility.yul\":4478:4495   */\n      add\n        /* \"#utility.yul\":4469:4475   */\n      dup5\n        /* \"#utility.yul\":4407:4496   */\n      tag_516\n      jump\t// in\n    tag_643:\n        /* \"#utility.yul\":4245:4503   */\n      swap3\n      swap2\n      pop\n      pop\n      jump\t// out\n        /* \"#utility.yul\":4509:4599   */\n    tag_517:\n        /* \"#utility.yul\":4543:4550   */\n      0x00\n        /* \"#utility.yul\":4586:4591   */\n      dup2\n        /* \"#utility.yul\":4579:4592   */\n      iszero\n        /* \"#utility.yul\":4572:4593   */\n      iszero\n        /* \"#utility.yul\":4561:4593   */\n      swap1\n      pop\n        /* \"#utility.yul\":4509:4599   */\n      swap2\n      swap1\n      pop\n      jump\t// out\n        /* \"#utility.yul\":4605:4714   */\n    tag_518:\n        /* \"#utility.yul\":4686:4707   */\n      tag_646\n        /* \"#utility.yul\":4701:4706   */\n      dup2\n        /* \"#utility.yul\":4686:4707   */\n      tag_517\n      jump\t// in\n    tag_646:\n        /* \"#utility.yul\":4681:4684   */\n      dup3\n        /* \"#utility.yul\":4674:4708   */\n      mstore\n        /* \"#utility.yul\":4605:4714   */\n      pop\n      pop\n      jump\t// out\n        /* \"#utility.yul\":4720:4930   */\n    tag_57:\n        /* \"#utility.yul\":4807:4811   */\n      0x00\n        /* \"#utility.yul\":4845:4847   */\n      0x20\n        /* \"#utility.yul\":4834:4843   */\n      dup3\n        /* \"#utility.yul\":4830:4848   */\n      add\n        /* \"#utility.yul\":4822:4848   */\n      swap1\n      pop\n        /* \"#utility.yul\":4858:4923   */\n      tag_648\n        /* \"#utility.yul\":4920:4921   */\n      0x00\n        /* \"#utility.yul\":4909:4918   */\n      dup4\n        /* \"#utility.yul\":4905:4922   */\n      add\n        /* \"#utility.yul\":4896:4902   */\n      dup5\n        /* \"#utility.yul\":4858:4923   */\n      tag_518\n      jump\t// in\n    tag_648:\n        /* \"#utility.yul\":4720:4930   */\n      swap3\n      swap2\n      pop\n      pop\n      jump\t// out\n        /* \"#utility.yul\":4936:5037   */\n    tag_519:\n        /* \"#utility.yul\":4972:4979   */\n      0x00\n        /* \"#utility.yul\":5012:5030   */\n      0xffffffffffffffff\n        /* \"#utility.yul\":5005:5010   */\n      dup3\n        /* \"#utility.yul\":5001:5031   */\n      and\n        /* \"#utility.yul\":4990:5031   */\n      swap1\n      pop\n        /* \"#utility.yul\":4936:5037   */\n      swap2\n      swap1\n      pop\n      jump\t// out\n        /* \"#utility.yul\":5043:5163   */\n    tag_520:\n        /* \"#utility.yul\":5115:5138   */\n      tag_651\n        /* \"#utility.yul\":5132:5137   */\n      dup2\n        /* \"#utility.yul\":5115:5138   */\n      tag_519\n      jump\t// in\n    tag_651:\n        /* \"#utility.yul\":5108:5113   */\n      dup2\n        /* \"#utility.yul\":5105:5139   */\n      eq\n        /* \"#utility.yul\":5095:5157   */\n      tag_652\n      jumpi\n        /* \"#utility.yul\":5153:5154   */\n      0x00\n        /* \"#utility.yul\":5150:5151   */\n      dup1\n        /* \"#utility.yul\":5143:5155   */\n      revert\n        /* \"#utility.yul\":5095:5157   */\n    tag_652:\n        /* \"#utility.yul\":5043:5163   */\n      pop\n      jump\t// out\n        /* \"#utility.yul\":5169:5306   */\n    tag_521:\n        /* \"#utility.yul\":5214:5219   */\n      0x00\n        /* \"#utility.yul\":5252:5258   */\n      dup2\n        /* \"#utility.yul\":5239:5259   */\n      calldataload\n        /* \"#utility.yul\":5230:5259   */\n      swap1\n      pop\n        /* \"#utility.yul\":5268:5300   */\n      tag_654\n        /* \"#utility.yul\":5294:5299   */\n      dup2\n        /* \"#utility.yul\":5268:5300   */\n      tag_520\n      jump\t// in\n    tag_654:\n        /* \"#utility.yul\":5169:5306   */\n      swap3\n      swap2\n      pop\n      pop\n      jump\t// out\n        /* \"#utility.yul\":5312:5639   */\n    tag_61:\n        /* \"#utility.yul\":5370:5376   */\n      0x00\n        /* \"#utility.yul\":5419:5421   */\n      0x20\n        /* \"#utility.yul\":5407:5416   */\n      dup3\n        /* \"#utility.yul\":5398:5405   */\n      dup5\n        /* \"#utility.yul\":5394:5417   */\n      sub\n        /* \"#utility.yul\":5390:5422   */\n      slt\n        /* \"#utility.yul\":5387:5506   */\n      iszero\n      tag_656\n      jumpi\n        /* \"#utility.yul\":5425:5504   */\n      tag_657\n      tag_499\n      jump\t// in\n    tag_657:\n        /* \"#utility.yul\":5387:5506   */\n    tag_656:\n        /* \"#utility.yul\":5545:5546   */\n      0x00\n        /* \"#utility.yul\":5570:5622   */\n      tag_658\n        /* \"#utility.yul\":5614:5621   */\n      dup5\n        /* \"#utility.yul\":5605:5611   */\n      dup3\n        /* \"#utility.yul\":5594:5603   */\n      dup6\n        /* \"#utility.yul\":5590:5612   */\n      add\n        /* \"#utility.yul\":5570:5622   */\n      tag_521\n      jump\t// in\n    tag_658:\n        /* \"#utility.yul\":5560:5622   */\n      swap2\n      pop\n        /* \"#utility.yul\":5516:5632   */\n      pop\n        /* \"#utility.yul\":5312:5639   */\n      swap3\n      swap2\n      pop\n      pop\n      jump\t// out\n        /* \"#utility.yul\":5645:5763   */\n    tag_522:\n        /* \"#utility.yul\":5732:5756   */\n      tag_660\n        /* \"#utility.yul\":5750:5755   */\n      dup2\n        /* \"#utility.yul\":5732:5756   */\n      tag_505\n      jump\t// in\n    tag_660:\n        /* \"#utility.yul\":5727:5730   */\n      dup3\n        /* \"#utility.yul\":5720:5757   */\n      mstore\n        /* \"#utility.yul\":5645:5763   */\n      pop\n      pop\n      jump\t// out\n        /* \"#utility.yul\":5769:5991   */\n    tag_64:\n        /* \"#utility.yul\":5862:5866   */\n      0x00\n        /* \"#utility.yul\":5900:5902   */\n      0x20\n        /* \"#utility.yul\":5889:5898   */\n      dup3\n        /* \"#utility.yul\":5885:5903   */\n      add\n        /* \"#utility.yul\":5877:5903   */\n      swap1\n      pop\n        /* \"#utility.yul\":5913:5984   */\n      tag_662\n        /* \"#utility.yul\":5981:5982   */\n      0x00\n        /* \"#utility.yul\":5970:5979   */\n      dup4\n        /* \"#utility.yul\":5966:5983   */\n      add\n        /* \"#utility.yul\":5957:5963   */\n      dup5\n        /* \"#utility.yul\":5913:5984   */\n      tag_522\n      jump\t// in\n    tag_662:\n        /* \"#utility.yul\":5769:5991   */\n      swap3\n      swap2\n      pop\n      pop\n      jump\t// out\n        /* \"#utility.yul\":5997:6115   */\n    tag_523:\n        /* \"#utility.yul\":6084:6108   */\n      tag_664\n        /* \"#utility.yul\":6102:6107   */\n      dup2\n        /* \"#utility.yul\":6084:6108   */\n      tag_502\n      jump\t// in\n    tag_664:\n        /* \"#utility.yul\":6079:6082   */\n      dup3\n        /* \"#utility.yul\":6072:6109   */\n      mstore\n        /* \"#utility.yul\":5997:6115   */\n      pop\n      pop\n      jump\t// out\n        /* \"#utility.yul\":6121:6343   */\n    tag_74:\n        /* \"#utility.yul\":6214:6218   */\n      0x00\n        /* \"#utility.yul\":6252:6254   */\n      0x20\n        /* \"#utility.yul\":6241:6250   */\n      dup3\n        /* \"#utility.yul\":6237:6255   */\n      add\n        /* \"#utility.yul\":6229:6255   */\n      swap1\n      pop\n        /* \"#utility.yul\":6265:6336   */\n      tag_666\n        /* \"#utility.yul\":6333:6334   */\n      0x00\n        /* \"#utility.yul\":6322:6331   */\n      dup4\n        /* \"#utility.yul\":6318:6335   */\n      add\n        /* \"#utility.yul\":6309:6315   */\n      dup5\n        /* \"#utility.yul\":6265:6336   */\n      tag_523\n      jump\t// in\n    tag_666:\n        /* \"#utility.yul\":6121:6343   */\n      swap3\n      swap2\n      pop\n      pop\n      jump\t// out\n        /* \"#utility.yul\":6365:6932   */\n    tag_524:\n        /* \"#utility.yul\":6437:6445   */\n      0x00\n        /* \"#utility.yul\":6447:6453   */\n      dup1\n        /* \"#utility.yul\":6497:6500   */\n      dup4\n        /* \"#utility.yul\":6490:6494   */\n      0x1f\n        /* \"#utility.yul\":6482:6488   */\n      dup5\n        /* \"#utility.yul\":6478:6495   */\n      add\n        /* \"#utility.yul\":6474:6501   */\n      slt\n        /* \"#utility.yul\":6464:6586   */\n      tag_668\n      jumpi\n        /* \"#utility.yul\":6505:6584   */\n      tag_669\n      tag_508\n      jump\t// in\n    tag_669:\n        /* \"#utility.yul\":6464:6586   */\n    tag_668:\n        /* \"#utility.yul\":6618:6624   */\n      dup3\n        /* \"#utility.yul\":6605:6625   */\n      calldataload\n        /* \"#utility.yul\":6595:6625   */\n      swap1\n      pop\n        /* \"#utility.yul\":6648:6666   */\n      0xffffffffffffffff\n        /* \"#utility.yul\":6640:6646   */\n      dup2\n        /* \"#utility.yul\":6637:6667   */\n      gt\n        /* \"#utility.yul\":6634:6751   */\n      iszero\n      tag_670\n      jumpi\n        /* \"#utility.yul\":6670:6749   */\n      tag_671\n      tag_509\n      jump\t// in\n    tag_671:\n        /* \"#utility.yul\":6634:6751   */\n    tag_670:\n        /* \"#utility.yul\":6784:6788   */\n      0x20\n        /* \"#utility.yul\":6776:6782   */\n      dup4\n        /* \"#utility.yul\":6772:6789   */\n      add\n        /* \"#utility.yul\":6760:6789   */\n      swap2\n      pop\n        /* \"#utility.yul\":6838:6841   */\n      dup4\n        /* \"#utility.yul\":6830:6834   */\n      0x20\n        /* \"#utility.yul\":6822:6828   */\n      dup3\n        /* \"#utility.yul\":6818:6835   */\n      mul\n        /* \"#utility.yul\":6808:6816   */\n      dup4\n        /* \"#utility.yul\":6804:6836   */\n      add\n        /* \"#utility.yul\":6801:6842   */\n      gt\n        /* \"#utility.yul\":6798:6926   */\n      iszero\n      tag_672\n      jumpi\n        /* \"#utility.yul\":6845:6924   */\n      tag_673\n      tag_510\n      jump\t// in\n    tag_673:\n        /* \"#utility.yul\":6798:6926   */\n    tag_672:\n        /* \"#utility.yul\":6365:6932   */\n      swap3\n      pop\n      swap3\n      swap1\n      pop\n      jump\t// out\n        /* \"#utility.yul\":6955:7523   */\n    tag_525:\n        /* \"#utility.yul\":7028:7036   */\n      0x00\n        /* \"#utility.yul\":7038:7044   */\n      dup1\n        /* \"#utility.yul\":7088:7091   */\n      dup4\n        /* \"#utility.yul\":7081:7085   */\n      0x1f\n        /* \"#utility.yul\":7073:7079   */\n      dup5\n        /* \"#utility.yul\":7069:7086   */\n      add\n        /* \"#utility.yul\":7065:7092   */\n      slt\n        /* \"#utility.yul\":7055:7177   */\n      tag_675\n      jumpi\n        /* \"#utility.yul\":7096:7175   */\n      tag_676\n      tag_508\n      jump\t// in\n    tag_676:\n        /* \"#utility.yul\":7055:7177   */\n    tag_675:\n        /* \"#utility.yul\":7209:7215   */\n      dup3\n        /* \"#utility.yul\":7196:7216   */\n      calldataload\n        /* \"#utility.yul\":7186:7216   */\n      swap1\n      pop\n        /* \"#utility.yul\":7239:7257   */\n      0xffffffffffffffff\n        /* \"#utility.yul\":7231:7237   */\n      dup2\n        /* \"#utility.yul\":7228:7258   */\n      gt\n        /* \"#utility.yul\":7225:7342   */\n      iszero\n      tag_677\n      jumpi\n        /* \"#utility.yul\":7261:7340   */\n      tag_678\n      tag_509\n      jump\t// in\n    tag_678:\n        /* \"#utility.yul\":7225:7342   */\n    tag_677:\n        /* \"#utility.yul\":7375:7379   */\n      0x20\n        /* \"#utility.yul\":7367:7373   */\n      dup4\n        /* \"#utility.yul\":7363:7380   */\n      add\n        /* \"#utility.yul\":7351:7380   */\n      swap2\n      pop\n        /* \"#utility.yul\":7429:7432   */\n      dup4\n        /* \"#utility.yul\":7421:7425   */\n      0x20\n        /* \"#utility.yul\":7413:7419   */\n      dup3\n        /* \"#utility.yul\":7409:7426   */\n      mul\n        /* \"#utility.yul\":7399:7407   */\n      dup4\n        /* \"#utility.yul\":7395:7427   */\n      add\n        /* \"#utility.yul\":7392:7433   */\n      gt\n        /* \"#utility.yul\":7389:7517   */\n      iszero\n      tag_679\n      jumpi\n        /* \"#utility.yul\":7436:7515   */\n      tag_680\n      tag_510\n      jump\t// in\n    tag_680:\n        /* \"#utility.yul\":7389:7517   */\n    tag_679:\n        /* \"#utility.yul\":6955:7523   */\n      swap3\n      pop\n      swap3\n      swap1\n      pop\n      jump\t// out\n        /* \"#utility.yul\":7529:8606   */\n    tag_78:\n        /* \"#utility.yul\":7659:7665   */\n      0x00\n        /* \"#utility.yul\":7667:7673   */\n      dup1\n        /* \"#utility.yul\":7675:7681   */\n      0x00\n        /* \"#utility.yul\":7683:7689   */\n      dup1\n        /* \"#utility.yul\":7691:7697   */\n      0x00\n        /* \"#utility.yul\":7740:7742   */\n      0x60\n        /* \"#utility.yul\":7728:7737   */\n      dup7\n        /* \"#utility.yul\":7719:7726   */\n      dup9\n        /* \"#utility.yul\":7715:7738   */\n      sub\n        /* \"#utility.yul\":7711:7743   */\n      slt\n        /* \"#utility.yul\":7708:7827   */\n      iszero\n      tag_682\n      jumpi\n        /* \"#utility.yul\":7746:7825   */\n      tag_683\n      tag_499\n      jump\t// in\n    tag_683:\n        /* \"#utility.yul\":7708:7827   */\n    tag_682:\n        /* \"#utility.yul\":7866:7867   */\n      0x00\n        /* \"#utility.yul\":7891:7944   */\n      tag_684\n        /* \"#utility.yul\":7936:7943   */\n      dup9\n        /* \"#utility.yul\":7927:7933   */\n      dup3\n        /* \"#utility.yul\":7916:7925   */\n      dup10\n        /* \"#utility.yul\":7912:7934   */\n      add\n        /* \"#utility.yul\":7891:7944   */\n      tag_504\n      jump\t// in\n    tag_684:\n        /* \"#utility.yul\":7881:7944   */\n      swap6\n      pop\n        /* \"#utility.yul\":7837:7954   */\n      pop\n        /* \"#utility.yul\":8021:8023   */\n      0x20\n        /* \"#utility.yul\":8010:8019   */\n      dup7\n        /* \"#utility.yul\":8006:8024   */\n      add\n        /* \"#utility.yul\":7993:8025   */\n      calldataload\n        /* \"#utility.yul\":8052:8070   */\n      0xffffffffffffffff\n        /* \"#utility.yul\":8044:8050   */\n      dup2\n        /* \"#utility.yul\":8041:8071   */\n      gt\n        /* \"#utility.yul\":8038:8155   */\n      iszero\n      tag_685\n      jumpi\n        /* \"#utility.yul\":8074:8153   */\n      tag_686\n      tag_500\n      jump\t// in\n    tag_686:\n        /* \"#utility.yul\":8038:8155   */\n    tag_685:\n        /* \"#utility.yul\":8187:8266   */\n      tag_687\n        /* \"#utility.yul\":8258:8265   */\n      dup9\n        /* \"#utility.yul\":8249:8255   */\n      dup3\n        /* \"#utility.yul\":8238:8247   */\n      dup10\n        /* \"#utility.yul\":8234:8256   */\n      add\n        /* \"#utility.yul\":8187:8266   */\n      tag_524\n      jump\t// in\n    tag_687:\n        /* \"#utility.yul\":8169:8266   */\n      swap5\n      pop\n      swap5\n      pop\n        /* \"#utility.yul\":7964:8276   */\n      pop\n        /* \"#utility.yul\":8343:8345   */\n      0x40\n        /* \"#utility.yul\":8332:8341   */\n      dup7\n        /* \"#utility.yul\":8328:8346   */\n      add\n        /* \"#utility.yul\":8315:8347   */\n      calldataload\n        /* \"#utility.yul\":8374:8392   */\n      0xffffffffffffffff\n        /* \"#utility.yul\":8366:8372   */\n      dup2\n        /* \"#utility.yul\":8363:8393   */\n      gt\n        /* \"#utility.yul\":8360:8477   */\n      iszero\n      tag_688\n      jumpi\n        /* \"#utility.yul\":8396:8475   */\n      tag_689\n      tag_500\n      jump\t// in\n    tag_689:\n        /* \"#utility.yul\":8360:8477   */\n    tag_688:\n        /* \"#utility.yul\":8509:8589   */\n      tag_690\n        /* \"#utility.yul\":8581:8588   */\n      dup9\n        /* \"#utility.yul\":8572:8578   */\n      dup3\n        /* \"#utility.yul\":8561:8570   */\n      dup10\n        /* \"#utility.yul\":8557:8579   */\n      add\n        /* \"#utility.yul\":8509:8589   */\n      tag_525\n      jump\t// in\n    tag_690:\n        /* \"#utility.yul\":8491:8589   */\n      swap3\n      pop\n      swap3\n      pop\n        /* \"#utility.yul\":8286:8599   */\n      pop\n        /* \"#utility.yul\":7529:8606   */\n      swap3\n      swap6\n      pop\n      swap3\n      swap6\n      swap1\n      swap4\n      pop\n      jump\t// out\n        /* \"#utility.yul\":8612:9544   */\n    tag_86:\n        /* \"#utility.yul\":8733:8739   */\n      0x00\n        /* \"#utility.yul\":8741:8747   */\n      dup1\n        /* \"#utility.yul\":8749:8755   */\n      0x00\n        /* \"#utility.yul\":8757:8763   */\n      dup1\n        /* \"#utility.yul\":8806:8808   */\n      0x40\n        /* \"#utility.yul\":8794:8803   */\n      dup6\n        /* \"#utility.yul\":8785:8792   */\n      dup8\n        /* \"#utility.yul\":8781:8804   */\n      sub\n        /* \"#utility.yul\":8777:8809   */\n      slt\n        /* \"#utility.yul\":8774:8893   */\n      iszero\n      tag_692\n      jumpi\n        /* \"#utility.yul\":8812:8891   */\n      tag_693\n      tag_499\n      jump\t// in\n    tag_693:\n        /* \"#utility.yul\":8774:8893   */\n    tag_692:\n        /* \"#utility.yul\":8960:8961   */\n      0x00\n        /* \"#utility.yul\":8949:8958   */\n      dup6\n        /* \"#utility.yul\":8945:8962   */\n      add\n        /* \"#utility.yul\":8932:8963   */\n      calldataload\n        /* \"#utility.yul\":8990:9008   */\n      0xffffffffffffffff\n        /* \"#utility.yul\":8982:8988   */\n      dup2\n        /* \"#utility.yul\":8979:9009   */\n      gt\n        /* \"#utility.yul\":8976:9093   */\n      iszero\n      tag_694\n      jumpi\n        /* \"#utility.yul\":9012:9091   */\n      tag_695\n      tag_500\n      jump\t// in\n    tag_695:\n        /* \"#utility.yul\":8976:9093   */\n    tag_694:\n        /* \"#utility.yul\":9125:9204   */\n      tag_696\n        /* \"#utility.yul\":9196:9203   */\n      dup8\n        /* \"#utility.yul\":9187:9193   */\n      dup3\n        /* \"#utility.yul\":9176:9185   */\n      dup9\n        /* \"#utility.yul\":9172:9194   */\n      add\n        /* \"#utility.yul\":9125:9204   */\n      tag_524\n      jump\t// in\n    tag_696:\n        /* \"#utility.yul\":9107:9204   */\n      swap5\n      pop\n      swap5\n      pop\n        /* \"#utility.yul\":8903:9214   */\n      pop\n        /* \"#utility.yul\":9281:9283   */\n      0x20\n        /* \"#utility.yul\":9270:9279   */\n      dup6\n        /* \"#utility.yul\":9266:9284   */\n      add\n        /* \"#utility.yul\":9253:9285   */\n      calldataload\n        /* \"#utility.yul\":9312:9330   */\n      0xffffffffffffffff\n        /* \"#utility.yul\":9304:9310   */\n      dup2\n        /* \"#utility.yul\":9301:9331   */\n      gt\n        /* \"#utility.yul\":9298:9415   */\n      iszero\n      tag_697\n      jumpi\n        /* \"#utility.yul\":9334:9413   */\n      tag_698\n      tag_500\n      jump\t// in\n    tag_698:\n        /* \"#utility.yul\":9298:9415   */\n    tag_697:\n        /* \"#utility.yul\":9447:9527   */\n      tag_699\n        /* \"#utility.yul\":9519:9526   */\n      dup8\n        /* \"#utility.yul\":9510:9516   */\n      dup3\n        /* \"#utility.yul\":9499:9508   */\n      dup9\n        /* \"#utility.yul\":9495:9517   */\n      add\n        /* \"#utility.yul\":9447:9527   */\n      tag_525\n      jump\t// in\n    tag_699:\n        /* \"#utility.yul\":9429:9527   */\n      swap3\n      pop\n      swap3\n      pop\n        /* \"#utility.yul\":9224:9537   */\n      pop\n        /* \"#utility.yul\":8612:9544   */\n      swap3\n      swap6\n      swap2\n      swap5\n      pop\n      swap3\n      pop\n      jump\t// out\n        /* \"#utility.yul\":9550:10803   */\n    tag_99:\n        /* \"#utility.yul\":9664:9670   */\n      0x00\n        /* \"#utility.yul\":9672:9678   */\n      dup1\n        /* \"#utility.yul\":9680:9686   */\n      0x00\n        /* \"#utility.yul\":9688:9694   */\n      dup1\n        /* \"#utility.yul\":9696:9702   */\n      0x00\n        /* \"#utility.yul\":9704:9710   */\n      dup1\n        /* \"#utility.yul\":9712:9718   */\n      0x00\n        /* \"#utility.yul\":9761:9764   */\n      0xc0\n        /* \"#utility.yul\":9749:9758   */\n      dup9\n        /* \"#utility.yul\":9740:9747   */\n      dup11\n        /* \"#utility.yul\":9736:9759   */\n      sub\n        /* \"#utility.yul\":9732:9765   */\n      slt\n        /* \"#utility.yul\":9729:9849   */\n      iszero\n      tag_701\n      jumpi\n        /* \"#utility.yul\":9768:9847   */\n      tag_702\n      tag_499\n      jump\t// in\n    tag_702:\n        /* \"#utility.yul\":9729:9849   */\n    tag_701:\n        /* \"#utility.yul\":9888:9889   */\n      0x00\n        /* \"#utility.yul\":9913:9966   */\n      tag_703\n        /* \"#utility.yul\":9958:9965   */\n      dup11\n        /* \"#utility.yul\":9949:9955   */\n      dup3\n        /* \"#utility.yul\":9938:9947   */\n      dup12\n        /* \"#utility.yul\":9934:9956   */\n      add\n        /* \"#utility.yul\":9913:9966   */\n      tag_504\n      jump\t// in\n    tag_703:\n        /* \"#utility.yul\":9903:9966   */\n      swap8\n      pop\n        /* \"#utility.yul\":9859:9976   */\n      pop\n        /* \"#utility.yul\":10015:10017   */\n      0x20\n        /* \"#utility.yul\":10041:10094   */\n      tag_704\n        /* \"#utility.yul\":10086:10093   */\n      dup11\n        /* \"#utility.yul\":10077:10083   */\n      dup3\n        /* \"#utility.yul\":10066:10075   */\n      dup12\n        /* \"#utility.yul\":10062:10084   */\n      add\n        /* \"#utility.yul\":10041:10094   */\n      tag_504\n      jump\t// in\n    tag_704:\n        /* \"#utility.yul\":10031:10094   */\n      swap7\n      pop\n        /* \"#utility.yul\":9986:10104   */\n      pop\n        /* \"#utility.yul\":10143:10145   */\n      0x40\n        /* \"#utility.yul\":10169:10222   */\n      tag_705\n        /* \"#utility.yul\":10214:10221   */\n      dup11\n        /* \"#utility.yul\":10205:10211   */\n      dup3\n        /* \"#utility.yul\":10194:10203   */\n      dup12\n        /* \"#utility.yul\":10190:10212   */\n      add\n        /* \"#utility.yul\":10169:10222   */\n      tag_507\n      jump\t// in\n    tag_705:\n        /* \"#utility.yul\":10159:10222   */\n      swap6\n      pop\n        /* \"#utility.yul\":10114:10232   */\n      pop\n        /* \"#utility.yul\":10271:10273   */\n      0x60\n        /* \"#utility.yul\":10297:10349   */\n      tag_706\n        /* \"#utility.yul\":10341:10348   */\n      dup11\n        /* \"#utility.yul\":10332:10338   */\n      dup3\n        /* \"#utility.yul\":10321:10330   */\n      dup12\n        /* \"#utility.yul\":10317:10339   */\n      add\n        /* \"#utility.yul\":10297:10349   */\n      tag_521\n      jump\t// in\n    tag_706:\n        /* \"#utility.yul\":10287:10349   */\n      swap5\n      pop\n        /* \"#utility.yul\":10242:10359   */\n      pop\n        /* \"#utility.yul\":10426:10429   */\n      0x80\n        /* \"#utility.yul\":10415:10424   */\n      dup9\n        /* \"#utility.yul\":10411:10430   */\n      add\n        /* \"#utility.yul\":10398:10431   */\n      calldataload\n        /* \"#utility.yul\":10458:10476   */\n      0xffffffffffffffff\n        /* \"#utility.yul\":10450:10456   */\n      dup2\n        /* \"#utility.yul\":10447:10477   */\n      gt\n        /* \"#utility.yul\":10444:10561   */\n      iszero\n      tag_707\n      jumpi\n        /* \"#utility.yul\":10480:10559   */\n      tag_708\n      tag_500\n      jump\t// in\n    tag_708:\n        /* \"#utility.yul\":10444:10561   */\n    tag_707:\n        /* \"#utility.yul\":10593:10657   */\n      tag_709\n        /* \"#utility.yul\":10649:10656   */\n      dup11\n        /* \"#utility.yul\":10640:10646   */\n      dup3\n        /* \"#utility.yul\":10629:10638   */\n      dup12\n        /* \"#utility.yul\":10625:10647   */\n      add\n        /* \"#utility.yul\":10593:10657   */\n      tag_511\n      jump\t// in\n    tag_709:\n        /* \"#utility.yul\":10575:10657   */\n      swap4\n      pop\n      swap4\n      pop\n        /* \"#utility.yul\":10369:10667   */\n      pop\n        /* \"#utility.yul\":10706:10709   */\n      0xa0\n        /* \"#utility.yul\":10733:10786   */\n      tag_710\n        /* \"#utility.yul\":10778:10785   */\n      dup11\n        /* \"#utility.yul\":10769:10775   */\n      dup3\n        /* \"#utility.yul\":10758:10767   */\n      dup12\n        /* \"#utility.yul\":10754:10776   */\n      add\n        /* \"#utility.yul\":10733:10786   */\n      tag_504\n      jump\t// in\n    tag_710:\n        /* \"#utility.yul\":10723:10786   */\n      swap2\n      pop\n        /* \"#utility.yul\":10677:10796   */\n      pop\n        /* \"#utility.yul\":9550:10803   */\n      swap3\n      swap6\n      swap9\n      swap2\n      swap5\n      swap8\n      pop\n      swap3\n      swap6\n      pop\n      jump\t// out\n        /* \"#utility.yul\":10809:11426   */\n    tag_136:\n        /* \"#utility.yul\":10885:10891   */\n      0x00\n        /* \"#utility.yul\":10893:10899   */\n      dup1\n        /* \"#utility.yul\":10901:10907   */\n      0x00\n        /* \"#utility.yul\":10950:10952   */\n      0x60\n        /* \"#utility.yul\":10938:10947   */\n      dup5\n        /* \"#utility.yul\":10929:10936   */\n      dup7\n        /* \"#utility.yul\":10925:10948   */\n      sub\n        /* \"#utility.yul\":10921:10953   */\n      slt\n        /* \"#utility.yul\":10918:11037   */\n      iszero\n      tag_712\n      jumpi\n        /* \"#utility.yul\":10956:11035   */\n      tag_713\n      tag_499\n      jump\t// in\n    tag_713:\n        /* \"#utility.yul\":10918:11037   */\n    tag_712:\n        /* \"#utility.yul\":11076:11077   */\n      0x00\n        /* \"#utility.yul\":11101:11154   */\n      tag_714\n        /* \"#utility.yul\":11146:11153   */\n      dup7\n        /* \"#utility.yul\":11137:11143   */\n      dup3\n        /* \"#utility.yul\":11126:11135   */\n      dup8\n        /* \"#utility.yul\":11122:11144   */\n      add\n        /* \"#utility.yul\":11101:11154   */\n      tag_504\n      jump\t// in\n    tag_714:\n        /* \"#utility.yul\":11091:11154   */\n      swap4\n      pop\n        /* \"#utility.yul\":11047:11164   */\n      pop\n        /* \"#utility.yul\":11203:11205   */\n      0x20\n        /* \"#utility.yul\":11229:11281   */\n      tag_715\n        /* \"#utility.yul\":11273:11280   */\n      dup7\n        /* \"#utility.yul\":11264:11270   */\n      dup3\n        /* \"#utility.yul\":11253:11262   */\n      dup8\n        /* \"#utility.yul\":11249:11271   */\n      add\n        /* \"#utility.yul\":11229:11281   */\n      tag_521\n      jump\t// in\n    tag_715:\n        /* \"#utility.yul\":11219:11281   */\n      swap3\n      pop\n        /* \"#utility.yul\":11174:11291   */\n      pop\n        /* \"#utility.yul\":11330:11332   */\n      0x40\n        /* \"#utility.yul\":11356:11409   */\n      tag_716\n        /* \"#utility.yul\":11401:11408   */\n      dup7\n        /* \"#utility.yul\":11392:11398   */\n      dup3\n        /* \"#utility.yul\":11381:11390   */\n      dup8\n        /* \"#utility.yul\":11377:11399   */\n      add\n        /* \"#utility.yul\":11356:11409   */\n      tag_504\n      jump\t// in\n    tag_716:\n        /* \"#utility.yul\":11346:11409   */\n      swap2\n      pop\n        /* \"#utility.yul\":11301:11419   */\n      pop\n        /* \"#utility.yul\":10809:11426   */\n      swap3\n      pop\n      swap3\n      pop\n      swap3\n      jump\t// out\n        /* \"#utility.yul\":11432:12049   */\n    tag_144:\n        /* \"#utility.yul\":11508:11514   */\n      0x00\n        /* \"#utility.yul\":11516:11522   */\n      dup1\n        /* \"#utility.yul\":11524:11530   */\n      0x00\n        /* \"#utility.yul\":11573:11575   */\n      0x60\n        /* \"#utility.yul\":11561:11570   */\n      dup5\n        /* \"#utility.yul\":11552:11559   */\n      dup7\n        /* \"#utility.yul\":11548:11571   */\n      sub\n        /* \"#utility.yul\":11544:11576   */\n      slt\n        /* \"#utility.yul\":11541:11660   */\n      iszero\n      tag_718\n      jumpi\n        /* \"#utility.yul\":11579:11658   */\n      tag_719\n      tag_499\n      jump\t// in\n    tag_719:\n        /* \"#utility.yul\":11541:11660   */\n    tag_718:\n        /* \"#utility.yul\":11699:11700   */\n      0x00\n        /* \"#utility.yul\":11724:11776   */\n      tag_720\n        /* \"#utility.yul\":11768:11775   */\n      dup7\n        /* \"#utility.yul\":11759:11765   */\n      dup3\n        /* \"#utility.yul\":11748:11757   */\n      dup8\n        /* \"#utility.yul\":11744:11766   */\n      add\n        /* \"#utility.yul\":11724:11776   */\n      tag_521\n      jump\t// in\n    tag_720:\n        /* \"#utility.yul\":11714:11776   */\n      swap4\n      pop\n        /* \"#utility.yul\":11670:11786   */\n      pop\n        /* \"#utility.yul\":11825:11827   */\n      0x20\n        /* \"#utility.yul\":11851:11904   */\n      tag_721\n        /* \"#utility.yul\":11896:11903   */\n      dup7\n        /* \"#utility.yul\":11887:11893   */\n      dup3\n        /* \"#utility.yul\":11876:11885   */\n      dup8\n        /* \"#utility.yul\":11872:11894   */\n      add\n        /* \"#utility.yul\":11851:11904   */\n      tag_504\n      jump\t// in\n    tag_721:\n        /* \"#utility.yul\":11841:11904   */\n      swap3\n      pop\n        /* \"#utility.yul\":11796:11914   */\n      pop\n        /* \"#utility.yul\":11953:11955   */\n      0x40\n        /* \"#utility.yul\":11979:12032   */\n      tag_722\n        /* \"#utility.yul\":12024:12031   */\n      dup7\n        /* \"#utility.yul\":12015:12021   */\n      dup3\n        /* \"#utility.yul\":12004:12013   */\n      dup8\n        /* \"#utility.yul\":12000:12022   */\n      add\n        /* \"#utility.yul\":11979:12032   */\n      tag_507\n      jump\t// in\n    tag_722:\n        /* \"#utility.yul\":11969:12032   */\n      swap2\n      pop\n        /* \"#utility.yul\":11924:12042   */\n      pop\n        /* \"#utility.yul\":11432:12049   */\n      swap3\n      pop\n      swap3\n      pop\n      swap3\n      jump\t// out\n        /* \"#utility.yul\":12055:12172   */\n    tag_526:\n        /* \"#utility.yul\":12164:12165   */\n      0x00\n        /* \"#utility.yul\":12161:12162   */\n      dup1\n        /* \"#utility.yul\":12154:12166   */\n      revert\n        /* \"#utility.yul\":12178:12280   */\n    tag_527:\n        /* \"#utility.yul\":12219:12225   */\n      0x00\n        /* \"#utility.yul\":12270:12272   */\n      0x1f\n        /* \"#utility.yul\":12266:12273   */\n      not\n        /* \"#utility.yul\":12261:12263   */\n      0x1f\n        /* \"#utility.yul\":12254:12259   */\n      dup4\n        /* \"#utility.yul\":12250:12264   */\n      add\n        /* \"#utility.yul\":12246:12274   */\n      and\n        /* \"#utility.yul\":12236:12274   */\n      swap1\n      pop\n        /* \"#utility.yul\":12178:12280   */\n      swap2\n      swap1\n      pop\n      jump\t// out\n        /* \"#utility.yul\":12286:12466   */\n    tag_528:\n        /* \"#utility.yul\":12334:12411   */\n      0x4e487b7100000000000000000000000000000000000000000000000000000000\n        /* \"#utility.yul\":12331:12332   */\n      0x00\n        /* \"#utility.yul\":12324:12412   */\n      mstore\n        /* \"#utility.yul\":12431:12435   */\n      0x41\n        /* \"#utility.yul\":12428:12429   */\n      0x04\n        /* \"#utility.yul\":12421:12436   */\n      mstore\n        /* \"#utility.yul\":12455:12459   */\n      0x24\n        /* \"#utility.yul\":12452:12453   */\n      0x00\n        /* \"#utility.yul\":12445:12460   */\n      revert\n        /* \"#utility.yul\":12472:12753   */\n    tag_529:\n        /* \"#utility.yul\":12555:12582   */\n      tag_727\n        /* \"#utility.yul\":12577:12581   */\n      dup3\n        /* \"#utility.yul\":12555:12582   */\n      tag_527\n      jump\t// in\n    tag_727:\n        /* \"#utility.yul\":12547:12553   */\n      dup2\n        /* \"#utility.yul\":12543:12583   */\n      add\n        /* \"#utility.yul\":12685:12691   */\n      dup2\n        /* \"#utility.yul\":12673:12683   */\n      dup2\n        /* \"#utility.yul\":12670:12692   */\n      lt\n        /* \"#utility.yul\":12649:12667   */\n      0xffffffffffffffff\n        /* \"#utility.yul\":12637:12647   */\n      dup3\n        /* \"#utility.yul\":12634:12668   */\n      gt\n        /* \"#utility.yul\":12631:12693   */\n      or\n        /* \"#utility.yul\":12628:12716   */\n      iszero\n      tag_728\n      jumpi\n        /* \"#utility.yul\":12696:12714   */\n      tag_729\n      tag_528\n      jump\t// in\n    tag_729:\n        /* \"#utility.yul\":12628:12716   */\n    tag_728:\n        /* \"#utility.yul\":12736:12746   */\n      dup1\n        /* \"#utility.yul\":12732:12734   */\n      0x40\n        /* \"#utility.yul\":12725:12747   */\n      mstore\n        /* \"#utility.yul\":12515:12753   */\n      pop\n        /* \"#utility.yul\":12472:12753   */\n      pop\n      pop\n      jump\t// out\n        /* \"#utility.yul\":12759:12888   */\n    tag_530:\n        /* \"#utility.yul\":12793:12799   */\n      0x00\n        /* \"#utility.yul\":12820:12840   */\n      tag_731\n      tag_498\n      jump\t// in\n    tag_731:\n        /* \"#utility.yul\":12810:12840   */\n      swap1\n      pop\n        /* \"#utility.yul\":12849:12882   */\n      tag_732\n        /* \"#utility.yul\":12877:12881   */\n      dup3\n        /* \"#utility.yul\":12869:12875   */\n      dup3\n        /* \"#utility.yul\":12849:12882   */\n      tag_529\n      jump\t// in\n    tag_732:\n        /* \"#utility.yul\":12759:12888   */\n      swap2\n      swap1\n      pop\n      jump\t// out\n        /* \"#utility.yul\":12894:13201   */\n    tag_531:\n        /* \"#utility.yul\":12955:12959   */\n      0x00\n        /* \"#utility.yul\":13045:13063   */\n      0xffffffffffffffff\n        /* \"#utility.yul\":13037:13043   */\n      dup3\n        /* \"#utility.yul\":13034:13064   */\n      gt\n        /* \"#utility.yul\":13031:13087   */\n      iszero\n      tag_734\n      jumpi\n        /* \"#utility.yul\":13067:13085   */\n      tag_735\n      tag_528\n      jump\t// in\n    tag_735:\n        /* \"#utility.yul\":13031:13087   */\n    tag_734:\n        /* \"#utility.yul\":13105:13134   */\n      tag_736\n        /* \"#utility.yul\":13127:13133   */\n      dup3\n        /* \"#utility.yul\":13105:13134   */\n      tag_527\n      jump\t// in\n    tag_736:\n        /* \"#utility.yul\":13097:13134   */\n      swap1\n      pop\n        /* \"#utility.yul\":13189:13193   */\n      0x20\n        /* \"#utility.yul\":13183:13187   */\n      dup2\n        /* \"#utility.yul\":13179:13194   */\n      add\n        /* \"#utility.yul\":13171:13194   */\n      swap1\n      pop\n        /* \"#utility.yul\":12894:13201   */\n      swap2\n      swap1\n      pop\n      jump\t// out\n        /* \"#utility.yul\":13207:13361   */\n    tag_532:\n        /* \"#utility.yul\":13291:13297   */\n      dup3\n        /* \"#utility.yul\":13286:13289   */\n      dup2\n        /* \"#utility.yul\":13281:13284   */\n      dup4\n        /* \"#utility.yul\":13268:13298   */\n      calldatacopy\n        /* \"#utility.yul\":13353:13354   */\n      0x00\n        /* \"#utility.yul\":13344:13350   */\n      dup4\n        /* \"#utility.yul\":13339:13342   */\n      dup4\n        /* \"#utility.yul\":13335:13351   */\n      add\n        /* \"#utility.yul\":13328:13355   */\n      mstore\n        /* \"#utility.yul\":13207:13361   */\n      pop\n      pop\n      pop\n      jump\t// out\n        /* \"#utility.yul\":13367:13777   */\n    tag_533:\n        /* \"#utility.yul\":13444:13449   */\n      0x00\n        /* \"#utility.yul\":13469:13534   */\n      tag_739\n        /* \"#utility.yul\":13485:13533   */\n      tag_740\n        /* \"#utility.yul\":13526:13532   */\n      dup5\n        /* \"#utility.yul\":13485:13533   */\n      tag_531\n      jump\t// in\n    tag_740:\n        /* \"#utility.yul\":13469:13534   */\n      tag_530\n      jump\t// in\n    tag_739:\n        /* \"#utility.yul\":13460:13534   */\n      swap1\n      pop\n        /* \"#utility.yul\":13557:13563   */\n      dup3\n        /* \"#utility.yul\":13550:13555   */\n      dup2\n        /* \"#utility.yul\":13543:13564   */\n      mstore\n        /* \"#utility.yul\":13595:13599   */\n      0x20\n        /* \"#utility.yul\":13588:13593   */\n      dup2\n        /* \"#utility.yul\":13584:13600   */\n      add\n        /* \"#utility.yul\":13633:13636   */\n      dup5\n        /* \"#utility.yul\":13624:13630   */\n      dup5\n        /* \"#utility.yul\":13619:13622   */\n      dup5\n        /* \"#utility.yul\":13615:13631   */\n      add\n        /* \"#utility.yul\":13612:13637   */\n      gt\n        /* \"#utility.yul\":13609:13721   */\n      iszero\n      tag_741\n      jumpi\n        /* \"#utility.yul\":13640:13719   */\n      tag_742\n      tag_526\n      jump\t// in\n    tag_742:\n        /* \"#utility.yul\":13609:13721   */\n    tag_741:\n        /* \"#utility.yul\":13730:13771   */\n      tag_743\n        /* \"#utility.yul\":13764:13770   */\n      dup5\n        /* \"#utility.yul\":13759:13762   */\n      dup3\n        /* \"#utility.yul\":13754:13757   */\n      dup6\n        /* \"#utility.yul\":13730:13771   */\n      tag_532\n      jump\t// in\n    tag_743:\n        /* \"#utility.yul\":13450:13777   */\n      pop\n        /* \"#utility.yul\":13367:13777   */\n      swap4\n      swap3\n      pop\n      pop\n      pop\n      jump\t// out\n        /* \"#utility.yul\":13796:14134   */\n    tag_534:\n        /* \"#utility.yul\":13851:13856   */\n      0x00\n        /* \"#utility.yul\":13900:13903   */\n      dup3\n        /* \"#utility.yul\":13893:13897   */\n      0x1f\n        /* \"#utility.yul\":13885:13891   */\n      dup4\n        /* \"#utility.yul\":13881:13898   */\n      add\n        /* \"#utility.yul\":13877:13904   */\n      slt\n        /* \"#utility.yul\":13867:13989   */\n      tag_745\n      jumpi\n        /* \"#utility.yul\":13908:13987   */\n      tag_746\n      tag_508\n      jump\t// in\n    tag_746:\n        /* \"#utility.yul\":13867:13989   */\n    tag_745:\n        /* \"#utility.yul\":14025:14031   */\n      dup2\n        /* \"#utility.yul\":14012:14032   */\n      calldataload\n        /* \"#utility.yul\":14050:14128   */\n      tag_747\n        /* \"#utility.yul\":14124:14127   */\n      dup5\n        /* \"#utility.yul\":14116:14122   */\n      dup3\n        /* \"#utility.yul\":14109:14113   */\n      0x20\n        /* \"#utility.yul\":14101:14107   */\n      dup7\n        /* \"#utility.yul\":14097:14114   */\n      add\n        /* \"#utility.yul\":14050:14128   */\n      tag_533\n      jump\t// in\n    tag_747:\n        /* \"#utility.yul\":14041:14128   */\n      swap2\n      pop\n        /* \"#utility.yul\":13857:14134   */\n      pop\n        /* \"#utility.yul\":13796:14134   */\n      swap3\n      swap2\n      pop\n      pop\n      jump\t// out\n        /* \"#utility.yul\":14140:15081   */\n    tag_149:\n        /* \"#utility.yul\":14234:14240   */\n      0x00\n        /* \"#utility.yul\":14242:14248   */\n      dup1\n        /* \"#utility.yul\":14250:14256   */\n      0x00\n        /* \"#utility.yul\":14258:14264   */\n      dup1\n        /* \"#utility.yul\":14307:14310   */\n      0x80\n        /* \"#utility.yul\":14295:14304   */\n      dup6\n        /* \"#utility.yul\":14286:14293   */\n      dup8\n        /* \"#utility.yul\":14282:14305   */\n      sub\n        /* \"#utility.yul\":14278:14311   */\n      slt\n        /* \"#utility.yul\":14275:14395   */\n      iszero\n      tag_749\n      jumpi\n        /* \"#utility.yul\":14314:14393   */\n      tag_750\n      tag_499\n      jump\t// in\n    tag_750:\n        /* \"#utility.yul\":14275:14395   */\n    tag_749:\n        /* \"#utility.yul\":14434:14435   */\n      0x00\n        /* \"#utility.yul\":14459:14512   */\n      tag_751\n        /* \"#utility.yul\":14504:14511   */\n      dup8\n        /* \"#utility.yul\":14495:14501   */\n      dup3\n        /* \"#utility.yul\":14484:14493   */\n      dup9\n        /* \"#utility.yul\":14480:14502   */\n      add\n        /* \"#utility.yul\":14459:14512   */\n      tag_504\n      jump\t// in\n    tag_751:\n        /* \"#utility.yul\":14449:14512   */\n      swap5\n      pop\n        /* \"#utility.yul\":14405:14522   */\n      pop\n        /* \"#utility.yul\":14561:14563   */\n      0x20\n        /* \"#utility.yul\":14587:14639   */\n      tag_752\n        /* \"#utility.yul\":14631:14638   */\n      dup8\n        /* \"#utility.yul\":14622:14628   */\n      dup3\n        /* \"#utility.yul\":14611:14620   */\n      dup9\n        /* \"#utility.yul\":14607:14629   */\n      add\n        /* \"#utility.yul\":14587:14639   */\n      tag_521\n      jump\t// in\n    tag_752:\n        /* \"#utility.yul\":14577:14639   */\n      swap4\n      pop\n        /* \"#utility.yul\":14532:14649   */\n      pop\n        /* \"#utility.yul\":14716:14718   */\n      0x40\n        /* \"#utility.yul\":14705:14714   */\n      dup6\n        /* \"#utility.yul\":14701:14719   */\n      add\n        /* \"#utility.yul\":14688:14720   */\n      calldataload\n        /* \"#utility.yul\":14747:14765   */\n      0xffffffffffffffff\n        /* \"#utility.yul\":14739:14745   */\n      dup2\n        /* \"#utility.yul\":14736:14766   */\n      gt\n        /* \"#utility.yul\":14733:14850   */\n      iszero\n      tag_753\n      jumpi\n        /* \"#utility.yul\":14769:14848   */\n      tag_754\n      tag_500\n      jump\t// in\n    tag_754:\n        /* \"#utility.yul\":14733:14850   */\n    tag_753:\n        /* \"#utility.yul\":14874:14936   */\n      tag_755\n        /* \"#utility.yul\":14928:14935   */\n      dup8\n        /* \"#utility.yul\":14919:14925   */\n      dup3\n        /* \"#utility.yul\":14908:14917   */\n      dup9\n        /* \"#utility.yul\":14904:14926   */\n      add\n        /* \"#utility.yul\":14874:14936   */\n      tag_534\n      jump\t// in\n    tag_755:\n        /* \"#utility.yul\":14864:14936   */\n      swap3\n      pop\n        /* \"#utility.yul\":14659:14946   */\n      pop\n        /* \"#utility.yul\":14985:14987   */\n      0x60\n        /* \"#utility.yul\":15011:15064   */\n      tag_756\n        /* \"#utility.yul\":15056:15063   */\n      dup8\n        /* \"#utility.yul\":15047:15053   */\n      dup3\n        /* \"#utility.yul\":15036:15045   */\n      dup9\n        /* \"#utility.yul\":15032:15054   */\n      add\n        /* \"#utility.yul\":15011:15064   */\n      tag_504\n      jump\t// in\n    tag_756:\n        /* \"#utility.yul\":15001:15064   */\n      swap2\n      pop\n        /* \"#utility.yul\":14956:15074   */\n      pop\n        /* \"#utility.yul\":14140:15081   */\n      swap3\n      swap6\n      swap2\n      swap5\n      pop\n      swap3\n      pop\n      jump\t// out\n        /* \"#utility.yul\":15087:15559   */\n    tag_155:\n        /* \"#utility.yul\":15154:15160   */\n      0x00\n        /* \"#utility.yul\":15162:15168   */\n      dup1\n        /* \"#utility.yul\":15211:15213   */\n      0x40\n        /* \"#utility.yul\":15199:15208   */\n      dup4\n        /* \"#utility.yul\":15190:15197   */\n      dup6\n        /* \"#utility.yul\":15186:15209   */\n      sub\n        /* \"#utility.yul\":15182:15214   */\n      slt\n        /* \"#utility.yul\":15179:15298   */\n      iszero\n      tag_758\n      jumpi\n        /* \"#utility.yul\":15217:15296   */\n      tag_759\n      tag_499\n      jump\t// in\n    tag_759:\n        /* \"#utility.yul\":15179:15298   */\n    tag_758:\n        /* \"#utility.yul\":15337:15338   */\n      0x00\n        /* \"#utility.yul\":15362:15415   */\n      tag_760\n        /* \"#utility.yul\":15407:15414   */\n      dup6\n        /* \"#utility.yul\":15398:15404   */\n      dup3\n        /* \"#utility.yul\":15387:15396   */\n      dup7\n        /* \"#utility.yul\":15383:15405   */\n      add\n        /* \"#utility.yul\":15362:15415   */\n      tag_504\n      jump\t// in\n    tag_760:\n        /* \"#utility.yul\":15352:15415   */\n      swap3\n      pop\n        /* \"#utility.yul\":15308:15425   */\n      pop\n        /* \"#utility.yul\":15464:15466   */\n      0x20\n        /* \"#utility.yul\":15490:15542   */\n      tag_761\n        /* \"#utility.yul\":15534:15541   */\n      dup6\n        /* \"#utility.yul\":15525:15531   */\n      dup3\n        /* \"#utility.yul\":15514:15523   */\n      dup7\n        /* \"#utility.yul\":15510:15532   */\n      add\n        /* \"#utility.yul\":15490:15542   */\n      tag_521\n      jump\t// in\n    tag_761:\n        /* \"#utility.yul\":15480:15542   */\n      swap2\n      pop\n        /* \"#utility.yul\":15435:15552   */\n      pop\n        /* \"#utility.yul\":15087:15559   */\n      swap3\n      pop\n      swap3\n      swap1\n      pop\n      jump\t// out\n        /* \"#utility.yul\":15565:16037   */\n    tag_161:\n        /* \"#utility.yul\":15632:15638   */\n      0x00\n        /* \"#utility.yul\":15640:15646   */\n      dup1\n        /* \"#utility.yul\":15689:15691   */\n      0x40\n        /* \"#utility.yul\":15677:15686   */\n      dup4\n        /* \"#utility.yul\":15668:15675   */\n      dup6\n        /* \"#utility.yul\":15664:15687   */\n      sub\n        /* \"#utility.yul\":15660:15692   */\n      slt\n        /* \"#utility.yul\":15657:15776   */\n      iszero\n      tag_763\n      jumpi\n        /* \"#utility.yul\":15695:15774   */\n      tag_764\n      tag_499\n      jump\t// in\n    tag_764:\n        /* \"#utility.yul\":15657:15776   */\n    tag_763:\n        /* \"#utility.yul\":15815:15816   */\n      0x00\n        /* \"#utility.yul\":15840:15892   */\n      tag_765\n        /* \"#utility.yul\":15884:15891   */\n      dup6\n        /* \"#utility.yul\":15875:15881   */\n      dup3\n        /* \"#utility.yul\":15864:15873   */\n      dup7\n        /* \"#utility.yul\":15860:15882   */\n      add\n        /* \"#utility.yul\":15840:15892   */\n      tag_521\n      jump\t// in\n    tag_765:\n        /* \"#utility.yul\":15830:15892   */\n      swap3\n      pop\n        /* \"#utility.yul\":15786:15902   */\n      pop\n        /* \"#utility.yul\":15941:15943   */\n      0x20\n        /* \"#utility.yul\":15967:16020   */\n      tag_766\n        /* \"#utility.yul\":16012:16019   */\n      dup6\n        /* \"#utility.yul\":16003:16009   */\n      dup3\n        /* \"#utility.yul\":15992:16001   */\n      dup7\n        /* \"#utility.yul\":15988:16010   */\n      add\n        /* \"#utility.yul\":15967:16020   */\n      tag_507\n      jump\t// in\n    tag_766:\n        /* \"#utility.yul\":15957:16020   */\n      swap2\n      pop\n        /* \"#utility.yul\":15912:16030   */\n      pop\n        /* \"#utility.yul\":15565:16037   */\n      swap3\n      pop\n      swap3\n      swap1\n      pop\n      jump\t// out\n        /* \"#utility.yul\":16043:16806   */\n    tag_169:\n        /* \"#utility.yul\":16128:16134   */\n      0x00\n        /* \"#utility.yul\":16136:16142   */\n      dup1\n        /* \"#utility.yul\":16144:16150   */\n      0x00\n        /* \"#utility.yul\":16152:16158   */\n      dup1\n        /* \"#utility.yul\":16201:16204   */\n      0x80\n        /* \"#utility.yul\":16189:16198   */\n      dup6\n        /* \"#utility.yul\":16180:16187   */\n      dup8\n        /* \"#utility.yul\":16176:16199   */\n      sub\n        /* \"#utility.yul\":16172:16205   */\n      slt\n        /* \"#utility.yul\":16169:16289   */\n      iszero\n      tag_768\n      jumpi\n        /* \"#utility.yul\":16208:16287   */\n      tag_769\n      tag_499\n      jump\t// in\n    tag_769:\n        /* \"#utility.yul\":16169:16289   */\n    tag_768:\n        /* \"#utility.yul\":16328:16329   */\n      0x00\n        /* \"#utility.yul\":16353:16406   */\n      tag_770\n        /* \"#utility.yul\":16398:16405   */\n      dup8\n        /* \"#utility.yul\":16389:16395   */\n      dup3\n        /* \"#utility.yul\":16378:16387   */\n      dup9\n        /* \"#utility.yul\":16374:16396   */\n      add\n        /* \"#utility.yul\":16353:16406   */\n      tag_504\n      jump\t// in\n    tag_770:\n        /* \"#utility.yul\":16343:16406   */\n      swap5\n      pop\n        /* \"#utility.yul\":16299:16416   */\n      pop\n        /* \"#utility.yul\":16455:16457   */\n      0x20\n        /* \"#utility.yul\":16481:16534   */\n      tag_771\n        /* \"#utility.yul\":16526:16533   */\n      dup8\n        /* \"#utility.yul\":16517:16523   */\n      dup3\n        /* \"#utility.yul\":16506:16515   */\n      dup9\n        /* \"#utility.yul\":16502:16524   */\n      add\n        /* \"#utility.yul\":16481:16534   */\n      tag_507\n      jump\t// in\n    tag_771:\n        /* \"#utility.yul\":16471:16534   */\n      swap4\n      pop\n        /* \"#utility.yul\":16426:16544   */\n      pop\n        /* \"#utility.yul\":16583:16585   */\n      0x40\n        /* \"#utility.yul\":16609:16661   */\n      tag_772\n        /* \"#utility.yul\":16653:16660   */\n      dup8\n        /* \"#utility.yul\":16644:16650   */\n      dup3\n        /* \"#utility.yul\":16633:16642   */\n      dup9\n        /* \"#utility.yul\":16629:16651   */\n      add\n        /* \"#utility.yul\":16609:16661   */\n      tag_521\n      jump\t// in\n    tag_772:\n        /* \"#utility.yul\":16599:16661   */\n      swap3\n      pop\n        /* \"#utility.yul\":16554:16671   */\n      pop\n        /* \"#utility.yul\":16710:16712   */\n      0x60\n        /* \"#utility.yul\":16736:16789   */\n      tag_773\n        /* \"#utility.yul\":16781:16788   */\n      dup8\n        /* \"#utility.yul\":16772:16778   */\n      dup3\n        /* \"#utility.yul\":16761:16770   */\n      dup9\n        /* \"#utility.yul\":16757:16779   */\n      add\n        /* \"#utility.yul\":16736:16789   */\n      tag_504\n      jump\t// in\n    tag_773:\n        /* \"#utility.yul\":16726:16789   */\n      swap2\n      pop\n        /* \"#utility.yul\":16681:16799   */\n      pop\n        /* \"#utility.yul\":16043:16806   */\n      swap3\n      swap6\n      swap2\n      swap5\n      pop\n      swap3\n      pop\n      jump\t// out\n        /* \"#utility.yul\":16812:17284   */\n    tag_174:\n        /* \"#utility.yul\":16879:16885   */\n      0x00\n        /* \"#utility.yul\":16887:16893   */\n      dup1\n        /* \"#utility.yul\":16936:16938   */\n      0x40\n        /* \"#utility.yul\":16924:16933   */\n      dup4\n        /* \"#utility.yul\":16915:16922   */\n      dup6\n        /* \"#utility.yul\":16911:16934   */\n      sub\n        /* \"#utility.yul\":16907:16939   */\n      slt\n        /* \"#utility.yul\":16904:17023   */\n      iszero\n      tag_775\n      jumpi\n        /* \"#utility.yul\":16942:17021   */\n      tag_776\n      tag_499\n      jump\t// in\n    tag_776:\n        /* \"#utility.yul\":16904:17023   */\n    tag_775:\n        /* \"#utility.yul\":17062:17063   */\n      0x00\n        /* \"#utility.yul\":17087:17139   */\n      tag_777\n        /* \"#utility.yul\":17131:17138   */\n      dup6\n        /* \"#utility.yul\":17122:17128   */\n      dup3\n        /* \"#utility.yul\":17111:17120   */\n      dup7\n        /* \"#utility.yul\":17107:17129   */\n      add\n        /* \"#utility.yul\":17087:17139   */\n      tag_521\n      jump\t// in\n    tag_777:\n        /* \"#utility.yul\":17077:17139   */\n      swap3\n      pop\n        /* \"#utility.yul\":17033:17149   */\n      pop\n        /* \"#utility.yul\":17188:17190   */\n      0x20\n        /* \"#utility.yul\":17214:17267   */\n      tag_778\n        /* \"#utility.yul\":17259:17266   */\n      dup6\n        /* \"#utility.yul\":17250:17256   */\n      dup3\n        /* \"#utility.yul\":17239:17248   */\n      dup7\n        /* \"#utility.yul\":17235:17257   */\n      add\n        /* \"#utility.yul\":17214:17267   */\n      tag_504\n      jump\t// in\n    tag_778:\n        /* \"#utility.yul\":17204:17267   */\n      swap2\n      pop\n        /* \"#utility.yul\":17159:17277   */\n      pop\n        /* \"#utility.yul\":16812:17284   */\n      swap3\n      pop\n      swap3\n      swap1\n      pop\n      jump\t// out\n        /* \"#utility.yul\":17304:17857   */\n    tag_535:\n        /* \"#utility.yul\":17362:17370   */\n      0x00\n        /* \"#utility.yul\":17372:17378   */\n      dup1\n        /* \"#utility.yul\":17422:17425   */\n      dup4\n        /* \"#utility.yul\":17415:17419   */\n      0x1f\n        /* \"#utility.yul\":17407:17413   */\n      dup5\n        /* \"#utility.yul\":17403:17420   */\n      add\n        /* \"#utility.yul\":17399:17426   */\n      slt\n        /* \"#utility.yul\":17389:17511   */\n      tag_780\n      jumpi\n        /* \"#utility.yul\":17430:17509   */\n      tag_781\n      tag_508\n      jump\t// in\n    tag_781:\n        /* \"#utility.yul\":17389:17511   */\n    tag_780:\n        /* \"#utility.yul\":17543:17549   */\n      dup3\n        /* \"#utility.yul\":17530:17550   */\n      calldataload\n        /* \"#utility.yul\":17520:17550   */\n      swap1\n      pop\n        /* \"#utility.yul\":17573:17591   */\n      0xffffffffffffffff\n        /* \"#utility.yul\":17565:17571   */\n      dup2\n        /* \"#utility.yul\":17562:17592   */\n      gt\n        /* \"#utility.yul\":17559:17676   */\n      iszero\n      tag_782\n      jumpi\n        /* \"#utility.yul\":17595:17674   */\n      tag_783\n      tag_509\n      jump\t// in\n    tag_783:\n        /* \"#utility.yul\":17559:17676   */\n    tag_782:\n        /* \"#utility.yul\":17709:17713   */\n      0x20\n        /* \"#utility.yul\":17701:17707   */\n      dup4\n        /* \"#utility.yul\":17697:17714   */\n      add\n        /* \"#utility.yul\":17685:17714   */\n      swap2\n      pop\n        /* \"#utility.yul\":17763:17766   */\n      dup4\n        /* \"#utility.yul\":17755:17759   */\n      0x01\n        /* \"#utility.yul\":17747:17753   */\n      dup3\n        /* \"#utility.yul\":17743:17760   */\n      mul\n        /* \"#utility.yul\":17733:17741   */\n      dup4\n        /* \"#utility.yul\":17729:17761   */\n      add\n        /* \"#utility.yul\":17726:17767   */\n      gt\n        /* \"#utility.yul\":17723:17851   */\n      iszero\n      tag_784\n      jumpi\n        /* \"#utility.yul\":17770:17849   */\n      tag_785\n      tag_510\n      jump\t// in\n    tag_785:\n        /* \"#utility.yul\":17723:17851   */\n    tag_784:\n        /* \"#utility.yul\":17304:17857   */\n      swap3\n      pop\n      swap3\n      swap1\n      pop\n      jump\t// out\n        /* \"#utility.yul\":17863:18972   */\n    tag_182:\n        /* \"#utility.yul\":17969:17975   */\n      0x00\n        /* \"#utility.yul\":17977:17983   */\n      dup1\n        /* \"#utility.yul\":17985:17991   */\n      0x00\n        /* \"#utility.yul\":17993:17999   */\n      dup1\n        /* \"#utility.yul\":18001:18007   */\n      0x00\n        /* \"#utility.yul\":18009:18015   */\n      dup1\n        /* \"#utility.yul\":18058:18061   */\n      0xa0\n        /* \"#utility.yul\":18046:18055   */\n      dup8\n        /* \"#utility.yul\":18037:18044   */\n      dup10\n        /* \"#utility.yul\":18033:18056   */\n      sub\n        /* \"#utility.yul\":18029:18062   */\n      slt\n        /* \"#utility.yul\":18026:18146   */\n      iszero\n      tag_787\n      jumpi\n        /* \"#utility.yul\":18065:18144   */\n      tag_788\n      tag_499\n      jump\t// in\n    tag_788:\n        /* \"#utility.yul\":18026:18146   */\n    tag_787:\n        /* \"#utility.yul\":18185:18186   */\n      0x00\n        /* \"#utility.yul\":18210:18262   */\n      tag_789\n        /* \"#utility.yul\":18254:18261   */\n      dup10\n        /* \"#utility.yul\":18245:18251   */\n      dup3\n        /* \"#utility.yul\":18234:18243   */\n      dup11\n        /* \"#utility.yul\":18230:18252   */\n      add\n        /* \"#utility.yul\":18210:18262   */\n      tag_521\n      jump\t// in\n    tag_789:\n        /* \"#utility.yul\":18200:18262   */\n      swap7\n      pop\n        /* \"#utility.yul\":18156:18272   */\n      pop\n        /* \"#utility.yul\":18311:18313   */\n      0x20\n        /* \"#utility.yul\":18337:18390   */\n      tag_790\n        /* \"#utility.yul\":18382:18389   */\n      dup10\n        /* \"#utility.yul\":18373:18379   */\n      dup3\n        /* \"#utility.yul\":18362:18371   */\n      dup11\n        /* \"#utility.yul\":18358:18380   */\n      add\n        /* \"#utility.yul\":18337:18390   */\n      tag_504\n      jump\t// in\n    tag_790:\n        /* \"#utility.yul\":18327:18390   */\n      swap6\n      pop\n        /* \"#utility.yul\":18282:18400   */\n      pop\n        /* \"#utility.yul\":18439:18441   */\n      0x40\n        /* \"#utility.yul\":18465:18518   */\n      tag_791\n        /* \"#utility.yul\":18510:18517   */\n      dup10\n        /* \"#utility.yul\":18501:18507   */\n      dup3\n        /* \"#utility.yul\":18490:18499   */\n      dup11\n        /* \"#utility.yul\":18486:18508   */\n      add\n        /* \"#utility.yul\":18465:18518   */\n      tag_504\n      jump\t// in\n    tag_791:\n        /* \"#utility.yul\":18455:18518   */\n      swap5\n      pop\n        /* \"#utility.yul\":18410:18528   */\n      pop\n        /* \"#utility.yul\":18567:18569   */\n      0x60\n        /* \"#utility.yul\":18593:18646   */\n      tag_792\n        /* \"#utility.yul\":18638:18645   */\n      dup10\n        /* \"#utility.yul\":18629:18635   */\n      dup3\n        /* \"#utility.yul\":18618:18627   */\n      dup11\n        /* \"#utility.yul\":18614:18636   */\n      add\n        /* \"#utility.yul\":18593:18646   */\n      tag_507\n      jump\t// in\n    tag_792:\n        /* \"#utility.yul\":18583:18646   */\n      swap4\n      pop\n        /* \"#utility.yul\":18538:18656   */\n      pop\n        /* \"#utility.yul\":18723:18726   */\n      0x80\n        /* \"#utility.yul\":18712:18721   */\n      dup8\n        /* \"#utility.yul\":18708:18727   */\n      add\n        /* \"#utility.yul\":18695:18728   */\n      calldataload\n        /* \"#utility.yul\":18755:18773   */\n      0xffffffffffffffff\n        /* \"#utility.yul\":18747:18753   */\n      dup2\n        /* \"#utility.yul\":18744:18774   */\n      gt\n        /* \"#utility.yul\":18741:18858   */\n      iszero\n      tag_793\n      jumpi\n        /* \"#utility.yul\":18777:18856   */\n      tag_794\n      tag_500\n      jump\t// in\n    tag_794:\n        /* \"#utility.yul\":18741:18858   */\n    tag_793:\n        /* \"#utility.yul\":18890:18955   */\n      tag_795\n        /* \"#utility.yul\":18947:18954   */\n      dup10\n        /* \"#utility.yul\":18938:18944   */\n      dup3\n        /* \"#utility.yul\":18927:18936   */\n      dup11\n        /* \"#utility.yul\":18923:18945   */\n      add\n        /* \"#utility.yul\":18890:18955   */\n      tag_535\n      jump\t// in\n    tag_795:\n        /* \"#utility.yul\":18872:18955   */\n      swap3\n      pop\n      swap3\n      pop\n        /* \"#utility.yul\":18666:18965   */\n      pop\n        /* \"#utility.yul\":17863:18972   */\n      swap3\n      swap6\n      pop\n      swap3\n      swap6\n      pop\n      swap3\n      swap6\n      jump\t// out\n        /* \"#utility.yul\":18978:19147   */\n    tag_536:\n        /* \"#utility.yul\":19062:19073   */\n      0x00\n        /* \"#utility.yul\":19096:19102   */\n      dup3\n        /* \"#utility.yul\":19091:19094   */\n      dup3\n        /* \"#utility.yul\":19084:19103   */\n      mstore\n        /* \"#utility.yul\":19136:19140   */\n      0x20\n        /* \"#utility.yul\":19131:19134   */\n      dup3\n        /* \"#utility.yul\":19127:19141   */\n      add\n        /* \"#utility.yul\":19112:19141   */\n      swap1\n      pop\n        /* \"#utility.yul\":18978:19147   */\n      swap3\n      swap2\n      pop\n      pop\n      jump\t// out\n        /* \"#utility.yul\":19153:19335   */\n    tag_537:\n        /* \"#utility.yul\":19293:19327   */\n      0x4f776e61626c653a2063616c6c6572206973206e6f7420746865206f776e6572\n        /* \"#utility.yul\":19289:19290   */\n      0x00\n        /* \"#utility.yul\":19281:19287   */\n      dup3\n        /* \"#utility.yul\":19277:19291   */\n      add\n        /* \"#utility.yul\":19270:19328   */\n      mstore\n        /* \"#utility.yul\":19153:19335   */\n      pop\n      jump\t// out\n        /* \"#utility.yul\":19341:19707   */\n    tag_538:\n        /* \"#utility.yul\":19483:19486   */\n      0x00\n        /* \"#utility.yul\":19504:19571   */\n      tag_799\n        /* \"#utility.yul\":19568:19570   */\n      0x20\n        /* \"#utility.yul\":19563:19566   */\n      dup4\n        /* \"#utility.yul\":19504:19571   */\n      tag_536\n      jump\t// in\n    tag_799:\n        /* \"#utility.yul\":19497:19571   */\n      swap2\n      pop\n        /* \"#utility.yul\":19580:19673   */\n      tag_800\n        /* \"#utility.yul\":19669:19672   */\n      dup3\n        /* \"#utility.yul\":19580:19673   */\n      tag_537\n      jump\t// in\n    tag_800:\n        /* \"#utility.yul\":19698:19700   */\n      0x20\n        /* \"#utility.yul\":19693:19696   */\n      dup3\n        /* \"#utility.yul\":19689:19701   */\n      add\n        /* \"#utility.yul\":19682:19701   */\n      swap1\n      pop\n        /* \"#utility.yul\":19341:19707   */\n      swap2\n      swap1\n      pop\n      jump\t// out\n        /* \"#utility.yul\":19713:20132   */\n    tag_192:\n        /* \"#utility.yul\":19879:19883   */\n      0x00\n        /* \"#utility.yul\":19917:19919   */\n      0x20\n        /* \"#utility.yul\":19906:19915   */\n      dup3\n        /* \"#utility.yul\":19902:19920   */\n      add\n        /* \"#utility.yul\":19894:19920   */\n      swap1\n      pop\n        /* \"#utility.yul\":19966:19975   */\n      dup2\n        /* \"#utility.yul\":19960:19964   */\n      dup2\n        /* \"#utility.yul\":19956:19976   */\n      sub\n        /* \"#utility.yul\":19952:19953   */\n      0x00\n        /* \"#utility.yul\":19941:19950   */\n      dup4\n        /* \"#utility.yul\":19937:19954   */\n      add\n        /* \"#utility.yul\":19930:19977   */\n      mstore\n        /* \"#utility.yul\":19994:20125   */\n      tag_802\n        /* \"#utility.yul\":20120:20124   */\n      dup2\n        /* \"#utility.yul\":19994:20125   */\n      tag_538\n      jump\t// in\n    tag_802:\n        /* \"#utility.yul\":19986:20125   */\n      swap1\n      pop\n        /* \"#utility.yul\":19713:20132   */\n      swap2\n      swap1\n      pop\n      jump\t// out\n        /* \"#utility.yul\":20138:20458   */\n    tag_195:\n        /* \"#utility.yul\":20253:20257   */\n      0x00\n        /* \"#utility.yul\":20291:20293   */\n      0x40\n        /* \"#utility.yul\":20280:20289   */\n      dup3\n        /* \"#utility.yul\":20276:20294   */\n      add\n        /* \"#utility.yul\":20268:20294   */\n      swap1\n      pop\n        /* \"#utility.yul\":20304:20375   */\n      tag_804\n        /* \"#utility.yul\":20372:20373   */\n      0x00\n        /* \"#utility.yul\":20361:20370   */\n      dup4\n        /* \"#utility.yul\":20357:20374   */\n      add\n        /* \"#utility.yul\":20348:20354   */\n      dup6\n        /* \"#utility.yul\":20304:20375   */\n      tag_523\n      jump\t// in\n    tag_804:\n        /* \"#utility.yul\":20385:20451   */\n      tag_805\n        /* \"#utility.yul\":20447:20449   */\n      0x20\n        /* \"#utility.yul\":20436:20445   */\n      dup4\n        /* \"#utility.yul\":20432:20450   */\n      add\n        /* \"#utility.yul\":20423:20429   */\n      dup5\n        /* \"#utility.yul\":20385:20451   */\n      tag_518\n      jump\t// in\n    tag_805:\n        /* \"#utility.yul\":20138:20458   */\n      swap4\n      swap3\n      pop\n      pop\n      pop\n      jump\t// out\n        /* \"#utility.yul\":20464:20639   */\n    tag_539:\n        /* \"#utility.yul\":20604:20631   */\n      0x63616c6c6572206973206e6f74206d6573736167652062757300000000000000\n        /* \"#utility.yul\":20600:20601   */\n      0x00\n        /* \"#utility.yul\":20592:20598   */\n      dup3\n        /* \"#utility.yul\":20588:20602   */\n      add\n        /* \"#utility.yul\":20581:20632   */\n      mstore\n        /* \"#utility.yul\":20464:20639   */\n      pop\n      jump\t// out\n        /* \"#utility.yul\":20645:21011   */\n    tag_540:\n        /* \"#utility.yul\":20787:20790   */\n      0x00\n        /* \"#utility.yul\":20808:20875   */\n      tag_808\n        /* \"#utility.yul\":20872:20874   */\n      0x19\n        /* \"#utility.yul\":20867:20870   */\n      dup4\n        /* \"#utility.yul\":20808:20875   */\n      tag_536\n      jump\t// in\n    tag_808:\n        /* \"#utility.yul\":20801:20875   */\n      swap2\n      pop\n        /* \"#utility.yul\":20884:20977   */\n      tag_809\n        /* \"#utility.yul\":20973:20976   */\n      dup3\n        /* \"#utility.yul\":20884:20977   */\n      tag_539\n      jump\t// in\n    tag_809:\n        /* \"#utility.yul\":21002:21004   */\n      0x20\n        /* \"#utility.yul\":20997:21000   */\n      dup3\n        /* \"#utility.yul\":20993:21005   */\n      add\n        /* \"#utility.yul\":20986:21005   */\n      swap1\n      pop\n        /* \"#utility.yul\":20645:21011   */\n      swap2\n      swap1\n      pop\n      jump\t// out\n        /* \"#utility.yul\":21017:21436   */\n    tag_199:\n        /* \"#utility.yul\":21183:21187   */\n      0x00\n        /* \"#utility.yul\":21221:21223   */\n      0x20\n        /* \"#utility.yul\":21210:21219   */\n      dup3\n        /* \"#utility.yul\":21206:21224   */\n      add\n        /* \"#utility.yul\":21198:21224   */\n      swap1\n      pop\n        /* \"#utility.yul\":21270:21279   */\n      dup2\n        /* \"#utility.yul\":21264:21268   */\n      dup2\n        /* \"#utility.yul\":21260:21280   */\n      sub\n        /* \"#utility.yul\":21256:21257   */\n      0x00\n        /* \"#utility.yul\":21245:21254   */\n      dup4\n        /* \"#utility.yul\":21241:21258   */\n      add\n        /* \"#utility.yul\":21234:21281   */\n      mstore\n        /* \"#utility.yul\":21298:21429   */\n      tag_811\n        /* \"#utility.yul\":21424:21428   */\n      dup2\n        /* \"#utility.yul\":21298:21429   */\n      tag_540\n      jump\t// in\n    tag_811:\n        /* \"#utility.yul\":21290:21429   */\n      swap1\n      pop\n        /* \"#utility.yul\":21017:21436   */\n      swap2\n      swap1\n      pop\n      jump\t// out\n        /* \"#utility.yul\":21442:21607   */\n    tag_541:\n        /* \"#utility.yul\":21582:21599   */\n      0x6c656e677468206d69736d617463680000000000000000000000000000000000\n        /* \"#utility.yul\":21578:21579   */\n      0x00\n        /* \"#utility.yul\":21570:21576   */\n      dup3\n        /* \"#utility.yul\":21566:21580   */\n      add\n        /* \"#utility.yul\":21559:21600   */\n      mstore\n        /* \"#utility.yul\":21442:21607   */\n      pop\n      jump\t// out\n        /* \"#utility.yul\":21613:21979   */\n    tag_542:\n        /* \"#utility.yul\":21755:21758   */\n      0x00\n        /* \"#utility.yul\":21776:21843   */\n      tag_814\n        /* \"#utility.yul\":21840:21842   */\n      0x0f\n        /* \"#utility.yul\":21835:21838   */\n      dup4\n        /* \"#utility.yul\":21776:21843   */\n      tag_536\n      jump\t// in\n    tag_814:\n        /* \"#utility.yul\":21769:21843   */\n      swap2\n      pop\n        /* \"#utility.yul\":21852:21945   */\n      tag_815\n        /* \"#utility.yul\":21941:21944   */\n      dup3\n        /* \"#utility.yul\":21852:21945   */\n      tag_541\n      jump\t// in\n    tag_815:\n        /* \"#utility.yul\":21970:21972   */\n      0x20\n        /* \"#utility.yul\":21965:21968   */\n      dup3\n        /* \"#utility.yul\":21961:21973   */\n      add\n        /* \"#utility.yul\":21954:21973   */\n      swap1\n      pop\n        /* \"#utility.yul\":21613:21979   */\n      swap2\n      swap1\n      pop\n      jump\t// out\n        /* \"#utility.yul\":21985:22404   */\n    tag_211:\n        /* \"#utility.yul\":22151:22155   */\n      0x00\n        /* \"#utility.yul\":22189:22191   */\n      0x20\n        /* \"#utility.yul\":22178:22187   */\n      dup3\n        /* \"#utility.yul\":22174:22192   */\n      add\n        /* \"#utility.yul\":22166:22192   */\n      swap1\n      pop\n        /* \"#utility.yul\":22238:22247   */\n      dup2\n        /* \"#utility.yul\":22232:22236   */\n      dup2\n        /* \"#utility.yul\":22228:22248   */\n      sub\n        /* \"#utility.yul\":22224:22225   */\n      0x00\n        /* \"#utility.yul\":22213:22222   */\n      dup4\n        /* \"#utility.yul\":22209:22226   */\n      add\n        /* \"#utility.yul\":22202:22249   */\n      mstore\n        /* \"#utility.yul\":22266:22397   */\n      tag_817\n        /* \"#utility.yul\":22392:22396   */\n      dup2\n        /* \"#utility.yul\":22266:22397   */\n      tag_542\n      jump\t// in\n    tag_817:\n        /* \"#utility.yul\":22258:22397   */\n      swap1\n      pop\n        /* \"#utility.yul\":21985:22404   */\n      swap2\n      swap1\n      pop\n      jump\t// out\n        /* \"#utility.yul\":22410:22590   */\n    tag_217:\n        /* \"#utility.yul\":22458:22535   */\n      0x4e487b7100000000000000000000000000000000000000000000000000000000\n        /* \"#utility.yul\":22455:22456   */\n      0x00\n        /* \"#utility.yul\":22448:22536   */\n      mstore\n        /* \"#utility.yul\":22555:22559   */\n      0x32\n        /* \"#utility.yul\":22552:22553   */\n      0x04\n        /* \"#utility.yul\":22545:22560   */\n      mstore\n        /* \"#utility.yul\":22579:22583   */\n      0x24\n        /* \"#utility.yul\":22576:22577   */\n      0x00\n        /* \"#utility.yul\":22569:22584   */\n      revert\n        /* \"#utility.yul\":22596:22776   */\n    tag_543:\n        /* \"#utility.yul\":22644:22721   */\n      0x4e487b7100000000000000000000000000000000000000000000000000000000\n        /* \"#utility.yul\":22641:22642   */\n      0x00\n        /* \"#utility.yul\":22634:22722   */\n      mstore\n        /* \"#utility.yul\":22741:22745   */\n      0x11\n        /* \"#utility.yul\":22738:22739   */\n      0x04\n        /* \"#utility.yul\":22731:22746   */\n      mstore\n        /* \"#utility.yul\":22765:22769   */\n      0x24\n        /* \"#utility.yul\":22762:22763   */\n      0x00\n        /* \"#utility.yul\":22755:22770   */\n      revert\n        /* \"#utility.yul\":22782:23015   */\n    tag_223:\n        /* \"#utility.yul\":22821:22824   */\n      0x00\n        /* \"#utility.yul\":22844:22868   */\n      tag_821\n        /* \"#utility.yul\":22862:22867   */\n      dup3\n        /* \"#utility.yul\":22844:22868   */\n      tag_505\n      jump\t// in\n    tag_821:\n        /* \"#utility.yul\":22835:22868   */\n      swap2\n      pop\n        /* \"#utility.yul\":22890:22956   */\n      0xffffffffffffffffffffffffffffffffffffffffffffffffffffffffffffffff\n        /* \"#utility.yul\":22883:22888   */\n      dup3\n        /* \"#utility.yul\":22880:22957   */\n      eq\n        /* \"#utility.yul\":22877:22980   */\n      iszero\n      tag_822\n      jumpi\n        /* \"#utility.yul\":22960:22978   */\n      tag_823\n      tag_543\n      jump\t// in\n    tag_823:\n        /* \"#utility.yul\":22877:22980   */\n    tag_822:\n        /* \"#utility.yul\":23007:23008   */\n      0x01\n        /* \"#utility.yul\":23000:23005   */\n      dup3\n        /* \"#utility.yul\":22996:23009   */\n      add\n        /* \"#utility.yul\":22989:23009   */\n      swap1\n      pop\n        /* \"#utility.yul\":22782:23015   */\n      swap2\n      swap1\n      pop\n      jump\t// out\n        /* \"#utility.yul\":23021:23191   */\n    tag_544:\n        /* \"#utility.yul\":23161:23183   */\n      0x43616c6c6572206973206e6f7420706175736572000000000000000000000000\n        /* \"#utility.yul\":23157:23158   */\n      0x00\n        /* \"#utility.yul\":23149:23155   */\n      dup3\n        /* \"#utility.yul\":23145:23159   */\n      add\n        /* \"#utility.yul\":23138:23184   */\n      mstore\n        /* \"#utility.yul\":23021:23191   */\n      pop\n      jump\t// out\n        /* \"#utility.yul\":23197:23563   */\n    tag_545:\n        /* \"#utility.yul\":23339:23342   */\n      0x00\n        /* \"#utility.yul\":23360:23427   */\n      tag_826\n        /* \"#utility.yul\":23424:23426   */\n      0x14\n        /* \"#utility.yul\":23419:23422   */\n      dup4\n        /* \"#utility.yul\":23360:23427   */\n      tag_536\n      jump\t// in\n    tag_826:\n        /* \"#utility.yul\":23353:23427   */\n      swap2\n      pop\n        /* \"#utility.yul\":23436:23529   */\n      tag_827\n        /* \"#utility.yul\":23525:23528   */\n      dup3\n        /* \"#utility.yul\":23436:23529   */\n      tag_544\n      jump\t// in\n    tag_827:\n        /* \"#utility.yul\":23554:23556   */\n      0x20\n        /* \"#utility.yul\":23549:23552   */\n      dup3\n        /* \"#utility.yul\":23545:23557   */\n      add\n        /* \"#utility.yul\":23538:23557   */\n      swap1\n      pop\n        /* \"#utility.yul\":23197:23563   */\n      swap2\n      swap1\n      pop\n      jump\t// out\n        /* \"#utility.yul\":23569:23988   */\n    tag_228:\n        /* \"#utility.yul\":23735:23739   */\n      0x00\n        /* \"#utility.yul\":23773:23775   */\n      0x20\n        /* \"#utility.yul\":23762:23771   */\n      dup3\n        /* \"#utility.yul\":23758:23776   */\n      add\n        /* \"#utility.yul\":23750:23776   */\n      swap1\n      pop\n        /* \"#utility.yul\":23822:23831   */\n      dup2\n        /* \"#utility.yul\":23816:23820   */\n      dup2\n        /* \"#utility.yul\":23812:23832   */\n      sub\n        /* \"#utility.yul\":23808:23809   */\n      0x00\n        /* \"#utility.yul\":23797:23806   */\n      dup4\n        /* \"#utility.yul\":23793:23810   */\n      add\n        /* \"#utility.yul\":23786:23833   */\n      mstore\n        /* \"#utility.yul\":23850:23981   */\n      tag_829\n        /* \"#utility.yul\":23976:23980   */\n      dup2\n        /* \"#utility.yul\":23850:23981   */\n      tag_545\n      jump\t// in\n    tag_829:\n        /* \"#utility.yul\":23842:23981   */\n      swap1\n      pop\n        /* \"#utility.yul\":23569:23988   */\n      swap2\n      swap1\n      pop\n      jump\t// out\n        /* \"#utility.yul\":23994:24109   */\n    tag_546:\n        /* \"#utility.yul\":24079:24102   */\n      tag_831\n        /* \"#utility.yul\":24096:24101   */\n      dup2\n        /* \"#utility.yul\":24079:24102   */\n      tag_519\n      jump\t// in\n    tag_831:\n        /* \"#utility.yul\":24074:24077   */\n      dup3\n        /* \"#utility.yul\":24067:24103   */\n      mstore\n        /* \"#utility.yul\":23994:24109   */\n      pop\n      pop\n      jump\t// out\n        /* \"#utility.yul\":24115:24553   */\n    tag_293:\n        /* \"#utility.yul\":24262:24266   */\n      0x00\n        /* \"#utility.yul\":24300:24302   */\n      0x60\n        /* \"#utility.yul\":24289:24298   */\n      dup3\n        /* \"#utility.yul\":24285:24303   */\n      add\n        /* \"#utility.yul\":24277:24303   */\n      swap1\n      pop\n        /* \"#utility.yul\":24313:24384   */\n      tag_833\n        /* \"#utility.yul\":24381:24382   */\n      0x00\n        /* \"#utility.yul\":24370:24379   */\n      dup4\n        /* \"#utility.yul\":24366:24383   */\n      add\n        /* \"#utility.yul\":24357:24363   */\n      dup7\n        /* \"#utility.yul\":24313:24384   */\n      tag_523\n      jump\t// in\n    tag_833:\n        /* \"#utility.yul\":24394:24464   */\n      tag_834\n        /* \"#utility.yul\":24460:24462   */\n      0x20\n        /* \"#utility.yul\":24449:24458   */\n      dup4\n        /* \"#utility.yul\":24445:24463   */\n      add\n        /* \"#utility.yul\":24436:24442   */\n      dup6\n        /* \"#utility.yul\":24394:24464   */\n      tag_546\n      jump\t// in\n    tag_834:\n        /* \"#utility.yul\":24474:24546   */\n      tag_835\n        /* \"#utility.yul\":24542:24544   */\n      0x40\n        /* \"#utility.yul\":24531:24540   */\n      dup4\n        /* \"#utility.yul\":24527:24545   */\n      add\n        /* \"#utility.yul\":24518:24524   */\n      dup5\n        /* \"#utility.yul\":24474:24546   */\n      tag_523\n      jump\t// in\n    tag_835:\n        /* \"#utility.yul\":24115:24553   */\n      swap5\n      swap4\n      pop\n      pop\n      pop\n      pop\n      jump\t// out\n        /* \"#utility.yul\":24559:24867   */\n    tag_547:\n        /* \"#utility.yul\":24621:24625   */\n      0x00\n        /* \"#utility.yul\":24711:24729   */\n      0xffffffffffffffff\n        /* \"#utility.yul\":24703:24709   */\n      dup3\n        /* \"#utility.yul\":24700:24730   */\n      gt\n        /* \"#utility.yul\":24697:24753   */\n      iszero\n      tag_837\n      jumpi\n        /* \"#utility.yul\":24733:24751   */\n      tag_838\n      tag_528\n      jump\t// in\n    tag_838:\n        /* \"#utility.yul\":24697:24753   */\n    tag_837:\n        /* \"#utility.yul\":24771:24800   */\n      tag_839\n        /* \"#utility.yul\":24793:24799   */\n      dup3\n        /* \"#utility.yul\":24771:24800   */\n      tag_527\n      jump\t// in\n    tag_839:\n        /* \"#utility.yul\":24763:24800   */\n      swap1\n      pop\n        /* \"#utility.yul\":24855:24859   */\n      0x20\n        /* \"#utility.yul\":24849:24853   */\n      dup2\n        /* \"#utility.yul\":24845:24860   */\n      add\n        /* \"#utility.yul\":24837:24860   */\n      swap1\n      pop\n        /* \"#utility.yul\":24559:24867   */\n      swap2\n      swap1\n      pop\n      jump\t// out\n        /* \"#utility.yul\":24873:25180   */\n    tag_548:\n        /* \"#utility.yul\":24941:24942   */\n      0x00\n        /* \"#utility.yul\":24951:25064   */\n    tag_841:\n        /* \"#utility.yul\":24965:24971   */\n      dup4\n        /* \"#utility.yul\":24962:24963   */\n      dup2\n        /* \"#utility.yul\":24959:24972   */\n      lt\n        /* \"#utility.yul\":24951:25064   */\n      iszero\n      tag_843\n      jumpi\n        /* \"#utility.yul\":25050:25051   */\n      dup1\n        /* \"#utility.yul\":25045:25048   */\n      dup3\n        /* \"#utility.yul\":25041:25052   */\n      add\n        /* \"#utility.yul\":25035:25053   */\n      mload\n        /* \"#utility.yul\":25031:25032   */\n      dup2\n        /* \"#utility.yul\":25026:25029   */\n      dup5\n        /* \"#utility.yul\":25022:25033   */\n      add\n        /* \"#utility.yul\":25015:25054   */\n      mstore\n        /* \"#utility.yul\":24987:24989   */\n      0x20\n        /* \"#utility.yul\":24984:24985   */\n      dup2\n        /* \"#utility.yul\":24980:24990   */\n      add\n        /* \"#utility.yul\":24975:24990   */\n      swap1\n      pop\n        /* \"#utility.yul\":24951:25064   */\n      jump(tag_841)\n    tag_843:\n        /* \"#utility.yul\":25082:25088   */\n      dup4\n        /* \"#utility.yul\":25079:25080   */\n      dup2\n        /* \"#utility.yul\":25076:25089   */\n      gt\n        /* \"#utility.yul\":25073:25174   */\n      iszero\n      tag_844\n      jumpi\n        /* \"#utility.yul\":25162:25163   */\n      0x00\n        /* \"#utility.yul\":25153:25159   */\n      dup5\n        /* \"#utility.yul\":25148:25151   */\n      dup5\n        /* \"#utility.yul\":25144:25160   */\n      add\n        /* \"#utility.yul\":25137:25164   */\n      mstore\n        /* \"#utility.yul\":25073:25174   */\n    tag_844:\n        /* \"#utility.yul\":24922:25180   */\n      pop\n        /* \"#utility.yul\":24873:25180   */\n      pop\n      pop\n      pop\n      jump\t// out\n        /* \"#utility.yul\":25186:25607   */\n    tag_549:\n        /* \"#utility.yul\":25275:25280   */\n      0x00\n        /* \"#utility.yul\":25300:25366   */\n      tag_846\n        /* \"#utility.yul\":25316:25365   */\n      tag_847\n        /* \"#utility.yul\":25358:25364   */\n      dup5\n        /* \"#utility.yul\":25316:25365   */\n      tag_547\n      jump\t// in\n    tag_847:\n        /* \"#utility.yul\":25300:25366   */\n      tag_530\n      jump\t// in\n    tag_846:\n        /* \"#utility.yul\":25291:25366   */\n      swap1\n      pop\n        /* \"#utility.yul\":25389:25395   */\n      dup3\n        /* \"#utility.yul\":25382:25387   */\n      dup2\n        /* \"#utility.yul\":25375:25396   */\n      mstore\n        /* \"#utility.yul\":25427:25431   */\n      0x20\n        /* \"#utility.yul\":25420:25425   */\n      dup2\n        /* \"#utility.yul\":25416:25432   */\n      add\n        /* \"#utility.yul\":25465:25468   */\n      dup5\n        /* \"#utility.yul\":25456:25462   */\n      dup5\n        /* \"#utility.yul\":25451:25454   */\n      dup5\n        /* \"#utility.yul\":25447:25463   */\n      add\n        /* \"#utility.yul\":25444:25469   */\n      gt\n        /* \"#utility.yul\":25441:25553   */\n      iszero\n      tag_848\n      jumpi\n        /* \"#utility.yul\":25472:25551   */\n      tag_849\n      tag_526\n      jump\t// in\n    tag_849:\n        /* \"#utility.yul\":25441:25553   */\n    tag_848:\n        /* \"#utility.yul\":25562:25601   */\n      tag_850\n        /* \"#utility.yul\":25594:25600   */\n      dup5\n        /* \"#utility.yul\":25589:25592   */\n      dup3\n        /* \"#utility.yul\":25584:25587   */\n      dup6\n        /* \"#utility.yul\":25562:25601   */\n      tag_548\n      jump\t// in\n    tag_850:\n        /* \"#utility.yul\":25281:25607   */\n      pop\n        /* \"#utility.yul\":25186:25607   */\n      swap4\n      swap3\n      pop\n      pop\n      pop\n      jump\t// out\n        /* \"#utility.yul\":25627:25982   */\n    tag_550:\n        /* \"#utility.yul\":25694:25699   */\n      0x00\n        /* \"#utility.yul\":25743:25746   */\n      dup3\n        /* \"#utility.yul\":25736:25740   */\n      0x1f\n        /* \"#utility.yul\":25728:25734   */\n      dup4\n        /* \"#utility.yul\":25724:25741   */\n      add\n        /* \"#utility.yul\":25720:25747   */\n      slt\n        /* \"#utility.yul\":25710:25832   */\n      tag_852\n      jumpi\n        /* \"#utility.yul\":25751:25830   */\n      tag_853\n      tag_508\n      jump\t// in\n    tag_853:\n        /* \"#utility.yul\":25710:25832   */\n    tag_852:\n        /* \"#utility.yul\":25861:25867   */\n      dup2\n        /* \"#utility.yul\":25855:25868   */\n      mload\n        /* \"#utility.yul\":25886:25976   */\n      tag_854\n        /* \"#utility.yul\":25972:25975   */\n      dup5\n        /* \"#utility.yul\":25964:25970   */\n      dup3\n        /* \"#utility.yul\":25957:25961   */\n      0x20\n        /* \"#utility.yul\":25949:25955   */\n      dup7\n        /* \"#utility.yul\":25945:25962   */\n      add\n        /* \"#utility.yul\":25886:25976   */\n      tag_549\n      jump\t// in\n    tag_854:\n        /* \"#utility.yul\":25877:25976   */\n      swap2\n      pop\n        /* \"#utility.yul\":25700:25982   */\n      pop\n        /* \"#utility.yul\":25627:25982   */\n      swap3\n      swap2\n      pop\n      pop\n      jump\t// out\n        /* \"#utility.yul\":25988:26512   */\n    tag_308:\n        /* \"#utility.yul\":26068:26074   */\n      0x00\n        /* \"#utility.yul\":26117:26119   */\n      0x20\n        /* \"#utility.yul\":26105:26114   */\n      dup3\n        /* \"#utility.yul\":26096:26103   */\n      dup5\n        /* \"#utility.yul\":26092:26115   */\n      sub\n        /* \"#utility.yul\":26088:26120   */\n      slt\n        /* \"#utility.yul\":26085:26204   */\n      iszero\n      tag_856\n      jumpi\n        /* \"#utility.yul\":26123:26202   */\n      tag_857\n      tag_499\n      jump\t// in\n    tag_857:\n        /* \"#utility.yul\":26085:26204   */\n    tag_856:\n        /* \"#utility.yul\":26264:26265   */\n      0x00\n        /* \"#utility.yul\":26253:26262   */\n      dup3\n        /* \"#utility.yul\":26249:26266   */\n      add\n        /* \"#utility.yul\":26243:26267   */\n      mload\n        /* \"#utility.yul\":26294:26312   */\n      0xffffffffffffffff\n        /* \"#utility.yul\":26286:26292   */\n      dup2\n        /* \"#utility.yul\":26283:26313   */\n      gt\n        /* \"#utility.yul\":26280:26397   */\n      iszero\n      tag_858\n      jumpi\n        /* \"#utility.yul\":26316:26395   */\n      tag_859\n      tag_500\n      jump\t// in\n    tag_859:\n        /* \"#utility.yul\":26280:26397   */\n    tag_858:\n        /* \"#utility.yul\":26421:26495   */\n      tag_860\n        /* \"#utility.yul\":26487:26494   */\n      dup5\n        /* \"#utility.yul\":26478:26484   */\n      dup3\n        /* \"#utility.yul\":26467:26476   */\n      dup6\n        /* \"#utility.yul\":26463:26485   */\n      add\n        /* \"#utility.yul\":26421:26495   */\n      tag_550\n      jump\t// in\n    tag_860:\n        /* \"#utility.yul\":26411:26495   */\n      swap2\n      pop\n        /* \"#utility.yul\":26214:26505   */\n      pop\n        /* \"#utility.yul\":25988:26512   */\n      swap3\n      swap2\n      pop\n      pop\n      jump\t// out\n        /* \"#utility.yul\":26518:26626   */\n    tag_551:\n        /* \"#utility.yul\":26595:26619   */\n      tag_862\n        /* \"#utility.yul\":26613:26618   */\n      dup2\n        /* \"#utility.yul\":26595:26619   */\n      tag_502\n      jump\t// in\n    tag_862:\n        /* \"#utility.yul\":26590:26593   */\n      dup3\n        /* \"#utility.yul\":26583:26620   */\n      mstore\n        /* \"#utility.yul\":26518:26626   */\n      pop\n      pop\n      jump\t// out\n        /* \"#utility.yul\":26632:26740   */\n    tag_552:\n        /* \"#utility.yul\":26709:26733   */\n      tag_864\n        /* \"#utility.yul\":26727:26732   */\n      dup2\n        /* \"#utility.yul\":26709:26733   */\n      tag_505\n      jump\t// in\n    tag_864:\n        /* \"#utility.yul\":26704:26707   */\n      dup3\n        /* \"#utility.yul\":26697:26734   */\n      mstore\n        /* \"#utility.yul\":26632:26740   */\n      pop\n      pop\n      jump\t// out\n        /* \"#utility.yul\":26746:26845   */\n    tag_553:\n        /* \"#utility.yul\":26798:26804   */\n      0x00\n        /* \"#utility.yul\":26832:26837   */\n      dup2\n        /* \"#utility.yul\":26826:26838   */\n      mload\n        /* \"#utility.yul\":26816:26838   */\n      swap1\n      pop\n        /* \"#utility.yul\":26746:26845   */\n      swap2\n      swap1\n      pop\n      jump\t// out\n        /* \"#utility.yul\":26851:27010   */\n    tag_554:\n        /* \"#utility.yul\":26925:26936   */\n      0x00\n        /* \"#utility.yul\":26959:26965   */\n      dup3\n        /* \"#utility.yul\":26954:26957   */\n      dup3\n        /* \"#utility.yul\":26947:26966   */\n      mstore\n        /* \"#utility.yul\":26999:27003   */\n      0x20\n        /* \"#utility.yul\":26994:26997   */\n      dup3\n        /* \"#utility.yul\":26990:27004   */\n      add\n        /* \"#utility.yul\":26975:27004   */\n      swap1\n      pop\n        /* \"#utility.yul\":26851:27010   */\n      swap3\n      swap2\n      pop\n      pop\n      jump\t// out\n        /* \"#utility.yul\":27016:27360   */\n    tag_555:\n        /* \"#utility.yul\":27094:27097   */\n      0x00\n        /* \"#utility.yul\":27122:27161   */\n      tag_868\n        /* \"#utility.yul\":27155:27160   */\n      dup3\n        /* \"#utility.yul\":27122:27161   */\n      tag_553\n      jump\t// in\n    tag_868:\n        /* \"#utility.yul\":27177:27238   */\n      tag_869\n        /* \"#utility.yul\":27231:27237   */\n      dup2\n        /* \"#utility.yul\":27226:27229   */\n      dup6\n        /* \"#utility.yul\":27177:27238   */\n      tag_554\n      jump\t// in\n    tag_869:\n        /* \"#utility.yul\":27170:27238   */\n      swap4\n      pop\n        /* \"#utility.yul\":27247:27299   */\n      tag_870\n        /* \"#utility.yul\":27292:27298   */\n      dup2\n        /* \"#utility.yul\":27287:27290   */\n      dup6\n        /* \"#utility.yul\":27280:27284   */\n      0x20\n        /* \"#utility.yul\":27273:27278   */\n      dup7\n        /* \"#utility.yul\":27269:27285   */\n      add\n        /* \"#utility.yul\":27247:27299   */\n      tag_548\n      jump\t// in\n    tag_870:\n        /* \"#utility.yul\":27324:27353   */\n      tag_871\n        /* \"#utility.yul\":27346:27352   */\n      dup2\n        /* \"#utility.yul\":27324:27353   */\n      tag_527\n      jump\t// in\n    tag_871:\n        /* \"#utility.yul\":27319:27322   */\n      dup5\n        /* \"#utility.yul\":27315:27354   */\n      add\n        /* \"#utility.yul\":27308:27354   */\n      swap2\n      pop\n        /* \"#utility.yul\":27098:27360   */\n      pop\n        /* \"#utility.yul\":27016:27360   */\n      swap3\n      swap2\n      pop\n      pop\n      jump\t// out\n        /* \"#utility.yul\":27424:28370   */\n    tag_556:\n        /* \"#utility.yul\":27539:27542   */\n      0x00\n        /* \"#utility.yul\":27575:27579   */\n      0x80\n        /* \"#utility.yul\":27570:27573   */\n      dup4\n        /* \"#utility.yul\":27566:27580   */\n      add\n        /* \"#utility.yul\":27662:27666   */\n      0x00\n        /* \"#utility.yul\":27655:27660   */\n      dup4\n        /* \"#utility.yul\":27651:27667   */\n      add\n        /* \"#utility.yul\":27645:27668   */\n      mload\n        /* \"#utility.yul\":27681:27744   */\n      tag_873\n        /* \"#utility.yul\":27738:27742   */\n      0x00\n        /* \"#utility.yul\":27733:27736   */\n      dup7\n        /* \"#utility.yul\":27729:27743   */\n      add\n        /* \"#utility.yul\":27715:27727   */\n      dup3\n        /* \"#utility.yul\":27681:27744   */\n      tag_551\n      jump\t// in\n    tag_873:\n        /* \"#utility.yul\":27590:27754   */\n      pop\n        /* \"#utility.yul\":27835:27839   */\n      0x20\n        /* \"#utility.yul\":27828:27833   */\n      dup4\n        /* \"#utility.yul\":27824:27840   */\n      add\n        /* \"#utility.yul\":27818:27841   */\n      mload\n        /* \"#utility.yul\":27854:27917   */\n      tag_874\n        /* \"#utility.yul\":27911:27915   */\n      0x20\n        /* \"#utility.yul\":27906:27909   */\n      dup7\n        /* \"#utility.yul\":27902:27916   */\n      add\n        /* \"#utility.yul\":27888:27900   */\n      dup3\n        /* \"#utility.yul\":27854:27917   */\n      tag_551\n      jump\t// in\n    tag_874:\n        /* \"#utility.yul\":27764:27927   */\n      pop\n        /* \"#utility.yul\":28007:28011   */\n      0x40\n        /* \"#utility.yul\":28000:28005   */\n      dup4\n        /* \"#utility.yul\":27996:28012   */\n      add\n        /* \"#utility.yul\":27990:28013   */\n      mload\n        /* \"#utility.yul\":28026:28089   */\n      tag_875\n        /* \"#utility.yul\":28083:28087   */\n      0x40\n        /* \"#utility.yul\":28078:28081   */\n      dup7\n        /* \"#utility.yul\":28074:28088   */\n      add\n        /* \"#utility.yul\":28060:28072   */\n      dup3\n        /* \"#utility.yul\":28026:28089   */\n      tag_552\n      jump\t// in\n    tag_875:\n        /* \"#utility.yul\":27937:28099   */\n      pop\n        /* \"#utility.yul\":28180:28184   */\n      0x60\n        /* \"#utility.yul\":28173:28178   */\n      dup4\n        /* \"#utility.yul\":28169:28185   */\n      add\n        /* \"#utility.yul\":28163:28186   */\n      mload\n        /* \"#utility.yul\":28233:28236   */\n      dup5\n        /* \"#utility.yul\":28227:28231   */\n      dup3\n        /* \"#utility.yul\":28223:28237   */\n      sub\n        /* \"#utility.yul\":28216:28220   */\n      0x60\n        /* \"#utility.yul\":28211:28214   */\n      dup7\n        /* \"#utility.yul\":28207:28221   */\n      add\n        /* \"#utility.yul\":28200:28238   */\n      mstore\n        /* \"#utility.yul\":28259:28332   */\n      tag_876\n        /* \"#utility.yul\":28327:28331   */\n      dup3\n        /* \"#utility.yul\":28313:28325   */\n      dup3\n        /* \"#utility.yul\":28259:28332   */\n      tag_555\n      jump\t// in\n    tag_876:\n        /* \"#utility.yul\":28251:28332   */\n      swap2\n      pop\n        /* \"#utility.yul\":28109:28343   */\n      pop\n        /* \"#utility.yul\":28360:28364   */\n      dup1\n        /* \"#utility.yul\":28353:28364   */\n      swap2\n      pop\n        /* \"#utility.yul\":27544:28370   */\n      pop\n        /* \"#utility.yul\":27424:28370   */\n      swap3\n      swap2\n      pop\n      pop\n      jump\t// out\n        /* \"#utility.yul\":28376:28741   */\n    tag_310:\n        /* \"#utility.yul\":28515:28519   */\n      0x00\n        /* \"#utility.yul\":28553:28555   */\n      0x20\n        /* \"#utility.yul\":28542:28551   */\n      dup3\n        /* \"#utility.yul\":28538:28556   */\n      add\n        /* \"#utility.yul\":28530:28556   */\n      swap1\n      pop\n        /* \"#utility.yul\":28602:28611   */\n      dup2\n        /* \"#utility.yul\":28596:28600   */\n      dup2\n        /* \"#utility.yul\":28592:28612   */\n      sub\n        /* \"#utility.yul\":28588:28589   */\n      0x00\n        /* \"#utility.yul\":28577:28586   */\n      dup4\n        /* \"#utility.yul\":28573:28590   */\n      add\n        /* \"#utility.yul\":28566:28613   */\n      mstore\n        /* \"#utility.yul\":28630:28734   */\n      tag_878\n        /* \"#utility.yul\":28729:28733   */\n      dup2\n        /* \"#utility.yul\":28720:28726   */\n      dup5\n        /* \"#utility.yul\":28630:28734   */\n      tag_556\n      jump\t// in\n    tag_878:\n        /* \"#utility.yul\":28622:28734   */\n      swap1\n      pop\n        /* \"#utility.yul\":28376:28741   */\n      swap3\n      swap2\n      pop\n      pop\n      jump\t// out\n        /* \"#utility.yul\":28747:28845   */\n    tag_557:\n        /* \"#utility.yul\":28798:28804   */\n      0x00\n        /* \"#utility.yul\":28832:28837   */\n      dup2\n        /* \"#utility.yul\":28826:28838   */\n      mload\n        /* \"#utility.yul\":28816:28838   */\n      swap1\n      pop\n        /* \"#utility.yul\":28747:28845   */\n      swap2\n      swap1\n      pop\n      jump\t// out\n        /* \"#utility.yul\":28851:29019   */\n    tag_558:\n        /* \"#utility.yul\":28934:28945   */\n      0x00\n        /* \"#utility.yul\":28968:28974   */\n      dup3\n        /* \"#utility.yul\":28963:28966   */\n      dup3\n        /* \"#utility.yul\":28956:28975   */\n      mstore\n        /* \"#utility.yul\":29008:29012   */\n      0x20\n        /* \"#utility.yul\":29003:29006   */\n      dup3\n        /* \"#utility.yul\":28999:29013   */\n      add\n        /* \"#utility.yul\":28984:29013   */\n      swap1\n      pop\n        /* \"#utility.yul\":28851:29019   */\n      swap3\n      swap2\n      pop\n      pop\n      jump\t// out\n        /* \"#utility.yul\":29025:29385   */\n    tag_559:\n        /* \"#utility.yul\":29111:29114   */\n      0x00\n        /* \"#utility.yul\":29139:29177   */\n      tag_882\n        /* \"#utility.yul\":29171:29176   */\n      dup3\n        /* \"#utility.yul\":29139:29177   */\n      tag_557\n      jump\t// in\n    tag_882:\n        /* \"#utility.yul\":29193:29263   */\n      tag_883\n        /* \"#utility.yul\":29256:29262   */\n      dup2\n        /* \"#utility.yul\":29251:29254   */\n      dup6\n        /* \"#utility.yul\":29193:29263   */\n      tag_558\n      jump\t// in\n    tag_883:\n        /* \"#utility.yul\":29186:29263   */\n      swap4\n      pop\n        /* \"#utility.yul\":29272:29324   */\n      tag_884\n        /* \"#utility.yul\":29317:29323   */\n      dup2\n        /* \"#utility.yul\":29312:29315   */\n      dup6\n        /* \"#utility.yul\":29305:29309   */\n      0x20\n        /* \"#utility.yul\":29298:29303   */\n      dup7\n        /* \"#utility.yul\":29294:29310   */\n      add\n        /* \"#utility.yul\":29272:29324   */\n      tag_548\n      jump\t// in\n    tag_884:\n        /* \"#utility.yul\":29349:29378   */\n      tag_885\n        /* \"#utility.yul\":29371:29377   */\n      dup2\n        /* \"#utility.yul\":29349:29378   */\n      tag_527\n      jump\t// in\n    tag_885:\n        /* \"#utility.yul\":29344:29347   */\n      dup5\n        /* \"#utility.yul\":29340:29379   */\n      add\n        /* \"#utility.yul\":29333:29379   */\n      swap2\n      pop\n        /* \"#utility.yul\":29115:29385   */\n      pop\n        /* \"#utility.yul\":29025:29385   */\n      swap3\n      swap2\n      pop\n      pop\n      jump\t// out\n        /* \"#utility.yul\":29391:29700   */\n    tag_312:\n        /* \"#utility.yul\":29502:29506   */\n      0x00\n        /* \"#utility.yul\":29540:29542   */\n      0x20\n        /* \"#utility.yul\":29529:29538   */\n      dup3\n        /* \"#utility.yul\":29525:29543   */\n      add\n        /* \"#utility.yul\":29517:29543   */\n      swap1\n      pop\n        /* \"#utility.yul\":29589:29598   */\n      dup2\n        /* \"#utility.yul\":29583:29587   */\n      dup2\n        /* \"#utility.yul\":29579:29599   */\n      sub\n        /* \"#utility.yul\":29575:29576   */\n      0x00\n        /* \"#utility.yul\":29564:29573   */\n      dup4\n        /* \"#utility.yul\":29560:29577   */\n      add\n        /* \"#utility.yul\":29553:29600   */\n      mstore\n        /* \"#utility.yul\":29617:29693   */\n      tag_887\n        /* \"#utility.yul\":29688:29692   */\n      dup2\n        /* \"#utility.yul\":29679:29685   */\n      dup5\n        /* \"#utility.yul\":29617:29693   */\n      tag_559\n      jump\t// in\n    tag_887:\n        /* \"#utility.yul\":29609:29693   */\n      swap1\n      pop\n        /* \"#utility.yul\":29391:29700   */\n      swap3\n      swap2\n      pop\n      pop\n      jump\t// out\n        /* \"#utility.yul\":29706:29849   */\n    tag_560:\n        /* \"#utility.yul\":29763:29768   */\n      0x00\n        /* \"#utility.yul\":29794:29800   */\n      dup2\n        /* \"#utility.yul\":29788:29801   */\n      mload\n        /* \"#utility.yul\":29779:29801   */\n      swap1\n      pop\n        /* \"#utility.yul\":29810:29843   */\n      tag_889\n        /* \"#utility.yul\":29837:29842   */\n      dup2\n        /* \"#utility.yul\":29810:29843   */\n      tag_506\n      jump\t// in\n    tag_889:\n        /* \"#utility.yul\":29706:29849   */\n      swap3\n      swap2\n      pop\n      pop\n      jump\t// out\n        /* \"#utility.yul\":29855:30206   */\n    tag_317:\n        /* \"#utility.yul\":29925:29931   */\n      0x00\n        /* \"#utility.yul\":29974:29976   */\n      0x20\n        /* \"#utility.yul\":29962:29971   */\n      dup3\n        /* \"#utility.yul\":29953:29960   */\n      dup5\n        /* \"#utility.yul\":29949:29972   */\n      sub\n        /* \"#utility.yul\":29945:29977   */\n      slt\n        /* \"#utility.yul\":29942:30061   */\n      iszero\n      tag_891\n      jumpi\n        /* \"#utility.yul\":29980:30059   */\n      tag_892\n      tag_499\n      jump\t// in\n    tag_892:\n        /* \"#utility.yul\":29942:30061   */\n    tag_891:\n        /* \"#utility.yul\":30100:30101   */\n      0x00\n        /* \"#utility.yul\":30125:30189   */\n      tag_893\n        /* \"#utility.yul\":30181:30188   */\n      dup5\n        /* \"#utility.yul\":30172:30178   */\n      dup3\n        /* \"#utility.yul\":30161:30170   */\n      dup6\n        /* \"#utility.yul\":30157:30179   */\n      add\n        /* \"#utility.yul\":30125:30189   */\n      tag_560\n      jump\t// in\n    tag_893:\n        /* \"#utility.yul\":30115:30189   */\n      swap2\n      pop\n        /* \"#utility.yul\":30071:30199   */\n      pop\n        /* \"#utility.yul\":29855:30206   */\n      swap3\n      swap2\n      pop\n      pop\n      jump\t// out\n        /* \"#utility.yul\":30212:30517   */\n    tag_319:\n        /* \"#utility.yul\":30252:30255   */\n      0x00\n        /* \"#utility.yul\":30271:30291   */\n      tag_895\n        /* \"#utility.yul\":30289:30290   */\n      dup3\n        /* \"#utility.yul\":30271:30291   */\n      tag_505\n      jump\t// in\n    tag_895:\n        /* \"#utility.yul\":30266:30291   */\n      swap2\n      pop\n        /* \"#utility.yul\":30305:30325   */\n      tag_896\n        /* \"#utility.yul\":30323:30324   */\n      dup4\n        /* \"#utility.yul\":30305:30325   */\n      tag_505\n      jump\t// in\n    tag_896:\n        /* \"#utility.yul\":30300:30325   */\n      swap3\n      pop\n        /* \"#utility.yul\":30459:30460   */\n      dup3\n        /* \"#utility.yul\":30391:30457   */\n      0xffffffffffffffffffffffffffffffffffffffffffffffffffffffffffffffff\n        /* \"#utility.yul\":30387:30461   */\n      sub\n        /* \"#utility.yul\":30384:30385   */\n      dup3\n        /* \"#utility.yul\":30381:30462   */\n      gt\n        /* \"#utility.yul\":30378:30485   */\n      iszero\n      tag_897\n      jumpi\n        /* \"#utility.yul\":30465:30483   */\n      tag_898\n      tag_543\n      jump\t// in\n    tag_898:\n        /* \"#utility.yul\":30378:30485   */\n    tag_897:\n        /* \"#utility.yul\":30509:30510   */\n      dup3\n        /* \"#utility.yul\":30506:30507   */\n      dup3\n        /* \"#utility.yul\":30502:30511   */\n      add\n        /* \"#utility.yul\":30495:30511   */\n      swap1\n      pop\n        /* \"#utility.yul\":30212:30517   */\n      swap3\n      swap2\n      pop\n      pop\n      jump\t// out\n        /* \"#utility.yul\":30523:30640   */\n    tag_561:\n        /* \"#utility.yul\":30632:30633   */\n      0x00\n        /* \"#utility.yul\":30629:30630   */\n      dup1\n        /* \"#utility.yul\":30622:30634   */\n      revert\n        /* \"#utility.yul\":30646:30763   */\n    tag_562:\n        /* \"#utility.yul\":30755:30756   */\n      0x00\n        /* \"#utility.yul\":30752:30753   */\n      dup1\n        /* \"#utility.yul\":30745:30757   */\n      revert\n        /* \"#utility.yul\":30769:30912   */\n    tag_563:\n        /* \"#utility.yul\":30826:30831   */\n      0x00\n        /* \"#utility.yul\":30857:30863   */\n      dup2\n        /* \"#utility.yul\":30851:30864   */\n      mload\n        /* \"#utility.yul\":30842:30864   */\n      swap1\n      pop\n        /* \"#utility.yul\":30873:30906   */\n      tag_902\n        /* \"#utility.yul\":30900:30905   */\n      dup2\n        /* \"#utility.yul\":30873:30906   */\n      tag_503\n      jump\t// in\n    tag_902:\n        /* \"#utility.yul\":30769:30912   */\n      swap3\n      swap2\n      pop\n      pop\n      jump\t// out\n        /* \"#utility.yul\":30949:32057   */\n    tag_564:\n        /* \"#utility.yul\":31032:31037   */\n      0x00\n        /* \"#utility.yul\":31076:31080   */\n      0x80\n        /* \"#utility.yul\":31064:31073   */\n      dup3\n        /* \"#utility.yul\":31059:31062   */\n      dup5\n        /* \"#utility.yul\":31055:31074   */\n      sub\n        /* \"#utility.yul\":31051:31081   */\n      slt\n        /* \"#utility.yul\":31048:31165   */\n      iszero\n      tag_904\n      jumpi\n        /* \"#utility.yul\":31084:31163   */\n      tag_905\n      tag_561\n      jump\t// in\n    tag_905:\n        /* \"#utility.yul\":31048:31165   */\n    tag_904:\n        /* \"#utility.yul\":31183:31204   */\n      tag_906\n        /* \"#utility.yul\":31199:31203   */\n      0x80\n        /* \"#utility.yul\":31183:31204   */\n      tag_530\n      jump\t// in\n    tag_906:\n        /* \"#utility.yul\":31174:31204   */\n      swap1\n      pop\n        /* \"#utility.yul\":31263:31264   */\n      0x00\n        /* \"#utility.yul\":31303:31363   */\n      tag_907\n        /* \"#utility.yul\":31359:31362   */\n      dup5\n        /* \"#utility.yul\":31350:31356   */\n      dup3\n        /* \"#utility.yul\":31339:31348   */\n      dup6\n        /* \"#utility.yul\":31335:31357   */\n      add\n        /* \"#utility.yul\":31303:31363   */\n      tag_563\n      jump\t// in\n    tag_907:\n        /* \"#utility.yul\":31296:31300   */\n      0x00\n        /* \"#utility.yul\":31289:31294   */\n      dup4\n        /* \"#utility.yul\":31285:31301   */\n      add\n        /* \"#utility.yul\":31278:31364   */\n      mstore\n        /* \"#utility.yul\":31214:31375   */\n      pop\n        /* \"#utility.yul\":31433:31435   */\n      0x20\n        /* \"#utility.yul\":31474:31534   */\n      tag_908\n        /* \"#utility.yul\":31530:31533   */\n      dup5\n        /* \"#utility.yul\":31521:31527   */\n      dup3\n        /* \"#utility.yul\":31510:31519   */\n      dup6\n        /* \"#utility.yul\":31506:31528   */\n      add\n        /* \"#utility.yul\":31474:31534   */\n      tag_563\n      jump\t// in\n    tag_908:\n        /* \"#utility.yul\":31467:31471   */\n      0x20\n        /* \"#utility.yul\":31460:31465   */\n      dup4\n        /* \"#utility.yul\":31456:31472   */\n      add\n        /* \"#utility.yul\":31449:31535   */\n      mstore\n        /* \"#utility.yul\":31385:31546   */\n      pop\n        /* \"#utility.yul\":31603:31605   */\n      0x40\n        /* \"#utility.yul\":31644:31704   */\n      tag_909\n        /* \"#utility.yul\":31700:31703   */\n      dup5\n        /* \"#utility.yul\":31691:31697   */\n      dup3\n        /* \"#utility.yul\":31680:31689   */\n      dup6\n        /* \"#utility.yul\":31676:31698   */\n      add\n        /* \"#utility.yul\":31644:31704   */\n      tag_560\n      jump\t// in\n    tag_909:\n        /* \"#utility.yul\":31637:31641   */\n      0x40\n        /* \"#utility.yul\":31630:31635   */\n      dup4\n        /* \"#utility.yul\":31626:31642   */\n      add\n        /* \"#utility.yul\":31619:31705   */\n      mstore\n        /* \"#utility.yul\":31556:31716   */\n      pop\n        /* \"#utility.yul\":31795:31797   */\n      0x60\n        /* \"#utility.yul\":31784:31793   */\n      dup3\n        /* \"#utility.yul\":31780:31798   */\n      add\n        /* \"#utility.yul\":31774:31799   */\n      mload\n        /* \"#utility.yul\":31826:31844   */\n      0xffffffffffffffff\n        /* \"#utility.yul\":31818:31824   */\n      dup2\n        /* \"#utility.yul\":31815:31845   */\n      gt\n        /* \"#utility.yul\":31812:31929   */\n      iszero\n      tag_910\n      jumpi\n        /* \"#utility.yul\":31848:31927   */\n      tag_911\n      tag_562\n      jump\t// in\n    tag_911:\n        /* \"#utility.yul\":31812:31929   */\n    tag_910:\n        /* \"#utility.yul\":31968:32038   */\n      tag_912\n        /* \"#utility.yul\":32034:32037   */\n      dup5\n        /* \"#utility.yul\":32025:32031   */\n      dup3\n        /* \"#utility.yul\":32014:32023   */\n      dup6\n        /* \"#utility.yul\":32010:32032   */\n      add\n        /* \"#utility.yul\":31968:32038   */\n      tag_550\n      jump\t// in\n    tag_912:\n        /* \"#utility.yul\":31961:31965   */\n      0x60\n        /* \"#utility.yul\":31954:31959   */\n      dup4\n        /* \"#utility.yul\":31950:31966   */\n      add\n        /* \"#utility.yul\":31943:32039   */\n      mstore\n        /* \"#utility.yul\":31726:32050   */\n      pop\n        /* \"#utility.yul\":30949:32057   */\n      swap3\n      swap2\n      pop\n      pop\n      jump\t// out\n        /* \"#utility.yul\":32063:32613   */\n    tag_328:\n        /* \"#utility.yul\":32156:32162   */\n      0x00\n        /* \"#utility.yul\":32205:32207   */\n      0x20\n        /* \"#utility.yul\":32193:32202   */\n      dup3\n        /* \"#utility.yul\":32184:32191   */\n      dup5\n        /* \"#utility.yul\":32180:32203   */\n      sub\n        /* \"#utility.yul\":32176:32208   */\n      slt\n        /* \"#utility.yul\":32173:32292   */\n      iszero\n      tag_914\n      jumpi\n        /* \"#utility.yul\":32211:32290   */\n      tag_915\n      tag_499\n      jump\t// in\n    tag_915:\n        /* \"#utility.yul\":32173:32292   */\n    tag_914:\n        /* \"#utility.yul\":32352:32353   */\n      0x00\n        /* \"#utility.yul\":32341:32350   */\n      dup3\n        /* \"#utility.yul\":32337:32354   */\n      add\n        /* \"#utility.yul\":32331:32355   */\n      mload\n        /* \"#utility.yul\":32382:32400   */\n      0xffffffffffffffff\n        /* \"#utility.yul\":32374:32380   */\n      dup2\n        /* \"#utility.yul\":32371:32401   */\n      gt\n        /* \"#utility.yul\":32368:32485   */\n      iszero\n      tag_916\n      jumpi\n        /* \"#utility.yul\":32404:32483   */\n      tag_917\n      tag_500\n      jump\t// in\n    tag_917:\n        /* \"#utility.yul\":32368:32485   */\n    tag_916:\n        /* \"#utility.yul\":32509:32596   */\n      tag_918\n        /* \"#utility.yul\":32588:32595   */\n      dup5\n        /* \"#utility.yul\":32579:32585   */\n      dup3\n        /* \"#utility.yul\":32568:32577   */\n      dup6\n        /* \"#utility.yul\":32564:32586   */\n      add\n        /* \"#utility.yul\":32509:32596   */\n      tag_564\n      jump\t// in\n    tag_918:\n        /* \"#utility.yul\":32499:32596   */\n      swap2\n      pop\n        /* \"#utility.yul\":32302:32606   */\n      pop\n        /* \"#utility.yul\":32063:32613   */\n      swap3\n      swap2\n      pop\n      pop\n      jump\t// out\n        /* \"#utility.yul\":32619:33061   */\n    tag_331:\n        /* \"#utility.yul\":32768:32772   */\n      0x00\n        /* \"#utility.yul\":32806:32808   */\n      0x60\n        /* \"#utility.yul\":32795:32804   */\n      dup3\n        /* \"#utility.yul\":32791:32809   */\n      add\n        /* \"#utility.yul\":32783:32809   */\n      swap1\n      pop\n        /* \"#utility.yul\":32819:32890   */\n      tag_920\n        /* \"#utility.yul\":32887:32888   */\n      0x00\n        /* \"#utility.yul\":32876:32885   */\n      dup4\n        /* \"#utility.yul\":32872:32889   */\n      add\n        /* \"#utility.yul\":32863:32869   */\n      dup7\n        /* \"#utility.yul\":32819:32890   */\n      tag_523\n      jump\t// in\n    tag_920:\n        /* \"#utility.yul\":32900:32972   */\n      tag_921\n        /* \"#utility.yul\":32968:32970   */\n      0x20\n        /* \"#utility.yul\":32957:32966   */\n      dup4\n        /* \"#utility.yul\":32953:32971   */\n      add\n        /* \"#utility.yul\":32944:32950   */\n      dup6\n        /* \"#utility.yul\":32900:32972   */\n      tag_523\n      jump\t// in\n    tag_921:\n        /* \"#utility.yul\":32982:33054   */\n      tag_922\n        /* \"#utility.yul\":33050:33052   */\n      0x40\n        /* \"#utility.yul\":33039:33048   */\n      dup4\n        /* \"#utility.yul\":33035:33053   */\n      add\n        /* \"#utility.yul\":33026:33032   */\n      dup5\n        /* \"#utility.yul\":32982:33054   */\n      tag_522\n      jump\t// in\n    tag_922:\n        /* \"#utility.yul\":32619:33061   */\n      swap5\n      swap4\n      pop\n      pop\n      pop\n      pop\n      jump\t// out\n        /* \"#utility.yul\":33067:33431   */\n    tag_565:\n        /* \"#utility.yul\":33155:33158   */\n      0x00\n        /* \"#utility.yul\":33183:33222   */\n      tag_924\n        /* \"#utility.yul\":33216:33221   */\n      dup3\n        /* \"#utility.yul\":33183:33222   */\n      tag_553\n      jump\t// in\n    tag_924:\n        /* \"#utility.yul\":33238:33309   */\n      tag_925\n        /* \"#utility.yul\":33302:33308   */\n      dup2\n        /* \"#utility.yul\":33297:33300   */\n      dup6\n        /* \"#utility.yul\":33238:33309   */\n      tag_536\n      jump\t// in\n    tag_925:\n        /* \"#utility.yul\":33231:33309   */\n      swap4\n      pop\n        /* \"#utility.yul\":33318:33370   */\n      tag_926\n        /* \"#utility.yul\":33363:33369   */\n      dup2\n        /* \"#utility.yul\":33358:33361   */\n      dup6\n        /* \"#utility.yul\":33351:33355   */\n      0x20\n        /* \"#utility.yul\":33344:33349   */\n      dup7\n        /* \"#utility.yul\":33340:33356   */\n      add\n        /* \"#utility.yul\":33318:33370   */\n      tag_548\n      jump\t// in\n    tag_926:\n        /* \"#utility.yul\":33395:33424   */\n      tag_927\n        /* \"#utility.yul\":33417:33423   */\n      dup2\n        /* \"#utility.yul\":33395:33424   */\n      tag_527\n      jump\t// in\n    tag_927:\n        /* \"#utility.yul\":33390:33393   */\n      dup5\n        /* \"#utility.yul\":33386:33425   */\n      add\n        /* \"#utility.yul\":33379:33425   */\n      swap2\n      pop\n        /* \"#utility.yul\":33159:33431   */\n      pop\n        /* \"#utility.yul\":33067:33431   */\n      swap3\n      swap2\n      pop\n      pop\n      jump\t// out\n        /* \"#utility.yul\":33437:33970   */\n    tag_344:\n        /* \"#utility.yul\":33606:33610   */\n      0x00\n        /* \"#utility.yul\":33644:33646   */\n      0x60\n        /* \"#utility.yul\":33633:33642   */\n      dup3\n        /* \"#utility.yul\":33629:33647   */\n      add\n        /* \"#utility.yul\":33621:33647   */\n      swap1\n      pop\n        /* \"#utility.yul\":33657:33728   */\n      tag_929\n        /* \"#utility.yul\":33725:33726   */\n      0x00\n        /* \"#utility.yul\":33714:33723   */\n      dup4\n        /* \"#utility.yul\":33710:33727   */\n      add\n        /* \"#utility.yul\":33701:33707   */\n      dup7\n        /* \"#utility.yul\":33657:33728   */\n      tag_523\n      jump\t// in\n    tag_929:\n        /* \"#utility.yul\":33738:33810   */\n      tag_930\n        /* \"#utility.yul\":33806:33808   */\n      0x20\n        /* \"#utility.yul\":33795:33804   */\n      dup4\n        /* \"#utility.yul\":33791:33809   */\n      add\n        /* \"#utility.yul\":33782:33788   */\n      dup6\n        /* \"#utility.yul\":33738:33810   */\n      tag_522\n      jump\t// in\n    tag_930:\n        /* \"#utility.yul\":33857:33866   */\n      dup2\n        /* \"#utility.yul\":33851:33855   */\n      dup2\n        /* \"#utility.yul\":33847:33867   */\n      sub\n        /* \"#utility.yul\":33842:33844   */\n      0x40\n        /* \"#utility.yul\":33831:33840   */\n      dup4\n        /* \"#utility.yul\":33827:33845   */\n      add\n        /* \"#utility.yul\":33820:33868   */\n      mstore\n        /* \"#utility.yul\":33885:33963   */\n      tag_931\n        /* \"#utility.yul\":33958:33962   */\n      dup2\n        /* \"#utility.yul\":33949:33955   */\n      dup5\n        /* \"#utility.yul\":33885:33963   */\n      tag_565\n      jump\t// in\n    tag_931:\n        /* \"#utility.yul\":33877:33963   */\n      swap1\n      pop\n        /* \"#utility.yul\":33437:33970   */\n      swap5\n      swap4\n      pop\n      pop\n      pop\n      pop\n      jump\t// out\n        /* \"#utility.yul\":33976:34525   */\n    tag_356:\n        /* \"#utility.yul\":34151:34155   */\n      0x00\n        /* \"#utility.yul\":34189:34192   */\n      0x80\n        /* \"#utility.yul\":34178:34187   */\n      dup3\n        /* \"#utility.yul\":34174:34193   */\n      add\n        /* \"#utility.yul\":34166:34193   */\n      swap1\n      pop\n        /* \"#utility.yul\":34203:34274   */\n      tag_933\n        /* \"#utility.yul\":34271:34272   */\n      0x00\n        /* \"#utility.yul\":34260:34269   */\n      dup4\n        /* \"#utility.yul\":34256:34273   */\n      add\n        /* \"#utility.yul\":34247:34253   */\n      dup8\n        /* \"#utility.yul\":34203:34274   */\n      tag_523\n      jump\t// in\n    tag_933:\n        /* \"#utility.yul\":34284:34356   */\n      tag_934\n        /* \"#utility.yul\":34352:34354   */\n      0x20\n        /* \"#utility.yul\":34341:34350   */\n      dup4\n        /* \"#utility.yul\":34337:34355   */\n      add\n        /* \"#utility.yul\":34328:34334   */\n      dup7\n        /* \"#utility.yul\":34284:34356   */\n      tag_523\n      jump\t// in\n    tag_934:\n        /* \"#utility.yul\":34366:34438   */\n      tag_935\n        /* \"#utility.yul\":34434:34436   */\n      0x40\n        /* \"#utility.yul\":34423:34432   */\n      dup4\n        /* \"#utility.yul\":34419:34437   */\n      add\n        /* \"#utility.yul\":34410:34416   */\n      dup6\n        /* \"#utility.yul\":34366:34438   */\n      tag_522\n      jump\t// in\n    tag_935:\n        /* \"#utility.yul\":34448:34518   */\n      tag_936\n        /* \"#utility.yul\":34514:34516   */\n      0x60\n        /* \"#utility.yul\":34503:34512   */\n      dup4\n        /* \"#utility.yul\":34499:34517   */\n      add\n        /* \"#utility.yul\":34490:34496   */\n      dup5\n        /* \"#utility.yul\":34448:34518   */\n      tag_546\n      jump\t// in\n    tag_936:\n        /* \"#utility.yul\":33976:34525   */\n      swap6\n      swap5\n      pop\n      pop\n      pop\n      pop\n      pop\n      jump\t// out\n        /* \"#utility.yul\":34531:34859   */\n    tag_363:\n        /* \"#utility.yul\":34650:34654   */\n      0x00\n        /* \"#utility.yul\":34688:34690   */\n      0x40\n        /* \"#utility.yul\":34677:34686   */\n      dup3\n        /* \"#utility.yul\":34673:34691   */\n      add\n        /* \"#utility.yul\":34665:34691   */\n      swap1\n      pop\n        /* \"#utility.yul\":34701:34770   */\n      tag_938\n        /* \"#utility.yul\":34767:34768   */\n      0x00\n        /* \"#utility.yul\":34756:34765   */\n      dup4\n        /* \"#utility.yul\":34752:34769   */\n      add\n        /* \"#utility.yul\":34743:34749   */\n      dup6\n        /* \"#utility.yul\":34701:34770   */\n      tag_546\n      jump\t// in\n    tag_938:\n        /* \"#utility.yul\":34780:34852   */\n      tag_939\n        /* \"#utility.yul\":34848:34850   */\n      0x20\n        /* \"#utility.yul\":34837:34846   */\n      dup4\n        /* \"#utility.yul\":34833:34851   */\n      add\n        /* \"#utility.yul\":34824:34830   */\n      dup5\n        /* \"#utility.yul\":34780:34852   */\n      tag_522\n      jump\t// in\n    tag_939:\n        /* \"#utility.yul\":34531:34859   */\n      swap4\n      swap3\n      pop\n      pop\n      pop\n      jump\t// out\n        /* \"#utility.yul\":34865:35031   */\n    tag_566:\n        /* \"#utility.yul\":35005:35023   */\n      0x5061757361626c653a2070617573656400000000000000000000000000000000\n        /* \"#utility.yul\":35001:35002   */\n      0x00\n        /* \"#utility.yul\":34993:34999   */\n      dup3\n        /* \"#utility.yul\":34989:35003   */\n      add\n        /* \"#utility.yul\":34982:35024   */\n      mstore\n        /* \"#utility.yul\":34865:35031   */\n      pop\n      jump\t// out\n        /* \"#utility.yul\":35037:35403   */\n    tag_567:\n        /* \"#utility.yul\":35179:35182   */\n      0x00\n        /* \"#utility.yul\":35200:35267   */\n      tag_942\n        /* \"#utility.yul\":35264:35266   */\n      0x10\n        /* \"#utility.yul\":35259:35262   */\n      dup4\n        /* \"#utility.yul\":35200:35267   */\n      tag_536\n      jump\t// in\n    tag_942:\n        /* \"#utility.yul\":35193:35267   */\n      swap2\n      pop\n        /* \"#utility.yul\":35276:35369   */\n      tag_943\n        /* \"#utility.yul\":35365:35368   */\n      dup3\n        /* \"#utility.yul\":35276:35369   */\n      tag_566\n      jump\t// in\n    tag_943:\n        /* \"#utility.yul\":35394:35396   */\n      0x20\n        /* \"#utility.yul\":35389:35392   */\n      dup3\n        /* \"#utility.yul\":35385:35397   */\n      add\n        /* \"#utility.yul\":35378:35397   */\n      swap1\n      pop\n        /* \"#utility.yul\":35037:35403   */\n      swap2\n      swap1\n      pop\n      jump\t// out\n        /* \"#utility.yul\":35409:35828   */\n    tag_368:\n        /* \"#utility.yul\":35575:35579   */\n      0x00\n        /* \"#utility.yul\":35613:35615   */\n      0x20\n        /* \"#utility.yul\":35602:35611   */\n      dup3\n        /* \"#utility.yul\":35598:35616   */\n      add\n        /* \"#utility.yul\":35590:35616   */\n      swap1\n      pop\n        /* \"#utility.yul\":35662:35671   */\n      dup2\n        /* \"#utility.yul\":35656:35660   */\n      dup2\n        /* \"#utility.yul\":35652:35672   */\n      sub\n        /* \"#utility.yul\":35648:35649   */\n      0x00\n        /* \"#utility.yul\":35637:35646   */\n      dup4\n        /* \"#utility.yul\":35633:35650   */\n      add\n        /* \"#utility.yul\":35626:35673   */\n      mstore\n        /* \"#utility.yul\":35690:35821   */\n      tag_945\n        /* \"#utility.yul\":35816:35820   */\n      dup2\n        /* \"#utility.yul\":35690:35821   */\n      tag_567\n      jump\t// in\n    tag_945:\n        /* \"#utility.yul\":35682:35821   */\n      swap1\n      pop\n        /* \"#utility.yul\":35409:35828   */\n      swap2\n      swap1\n      pop\n      jump\t// out\n        /* \"#utility.yul\":35834:36185   */\n    tag_375:\n        /* \"#utility.yul\":35904:35910   */\n      0x00\n        /* \"#utility.yul\":35953:35955   */\n      0x20\n        /* \"#utility.yul\":35941:35950   */\n      dup3\n        /* \"#utility.yul\":35932:35939   */\n      dup5\n        /* \"#utility.yul\":35928:35951   */\n      sub\n        /* \"#utility.yul\":35924:35956   */\n      slt\n        /* \"#utility.yul\":35921:36040   */\n      iszero\n      tag_947\n      jumpi\n        /* \"#utility.yul\":35959:36038   */\n      tag_948\n      tag_499\n      jump\t// in\n    tag_948:\n        /* \"#utility.yul\":35921:36040   */\n    tag_947:\n        /* \"#utility.yul\":36079:36080   */\n      0x00\n        /* \"#utility.yul\":36104:36168   */\n      tag_949\n        /* \"#utility.yul\":36160:36167   */\n      dup5\n        /* \"#utility.yul\":36151:36157   */\n      dup3\n        /* \"#utility.yul\":36140:36149   */\n      dup6\n        /* \"#utility.yul\":36136:36158   */\n      add\n        /* \"#utility.yul\":36104:36168   */\n      tag_563\n      jump\t// in\n    tag_949:\n        /* \"#utility.yul\":36094:36168   */\n      swap2\n      pop\n        /* \"#utility.yul\":36050:36178   */\n      pop\n        /* \"#utility.yul\":35834:36185   */\n      swap3\n      swap2\n      pop\n      pop\n      jump\t// out\n        /* \"#utility.yul\":36191:36356   */\n    tag_568:\n        /* \"#utility.yul\":36331:36348   */\n      0x6e6f7420746f6b656e206f776e65720000000000000000000000000000000000\n        /* \"#utility.yul\":36327:36328   */\n      0x00\n        /* \"#utility.yul\":36319:36325   */\n      dup3\n        /* \"#utility.yul\":36315:36329   */\n      add\n        /* \"#utility.yul\":36308:36349   */\n      mstore\n        /* \"#utility.yul\":36191:36356   */\n      pop\n      jump\t// out\n        /* \"#utility.yul\":36362:36728   */\n    tag_569:\n        /* \"#utility.yul\":36504:36507   */\n      0x00\n        /* \"#utility.yul\":36525:36592   */\n      tag_952\n        /* \"#utility.yul\":36589:36591   */\n      0x0f\n        /* \"#utility.yul\":36584:36587   */\n      dup4\n        /* \"#utility.yul\":36525:36592   */\n      tag_536\n      jump\t// in\n    tag_952:\n        /* \"#utility.yul\":36518:36592   */\n      swap2\n      pop\n        /* \"#utility.yul\":36601:36694   */\n      tag_953\n        /* \"#utility.yul\":36690:36693   */\n      dup3\n        /* \"#utility.yul\":36601:36694   */\n      tag_568\n      jump\t// in\n    tag_953:\n        /* \"#utility.yul\":36719:36721   */\n      0x20\n        /* \"#utility.yul\":36714:36717   */\n      dup3\n        /* \"#utility.yul\":36710:36722   */\n      add\n        /* \"#utility.yul\":36703:36722   */\n      swap1\n      pop\n        /* \"#utility.yul\":36362:36728   */\n      swap2\n      swap1\n      pop\n      jump\t// out\n        /* \"#utility.yul\":36734:37153   */\n    tag_378:\n        /* \"#utility.yul\":36900:36904   */\n      0x00\n        /* \"#utility.yul\":36938:36940   */\n      0x20\n        /* \"#utility.yul\":36927:36936   */\n      dup3\n        /* \"#utility.yul\":36923:36941   */\n      add\n        /* \"#utility.yul\":36915:36941   */\n      swap1\n      pop\n        /* \"#utility.yul\":36987:36996   */\n      dup2\n        /* \"#utility.yul\":36981:36985   */\n      dup2\n        /* \"#utility.yul\":36977:36997   */\n      sub\n        /* \"#utility.yul\":36973:36974   */\n      0x00\n        /* \"#utility.yul\":36962:36971   */\n      dup4\n        /* \"#utility.yul\":36958:36975   */\n      add\n        /* \"#utility.yul\":36951:36998   */\n      mstore\n        /* \"#utility.yul\":37015:37146   */\n      tag_955\n        /* \"#utility.yul\":37141:37145   */\n      dup2\n        /* \"#utility.yul\":37015:37146   */\n      tag_569\n      jump\t// in\n    tag_955:\n        /* \"#utility.yul\":37007:37146   */\n      swap1\n      pop\n        /* \"#utility.yul\":36734:37153   */\n      swap2\n      swap1\n      pop\n      jump\t// out\n        /* \"#utility.yul\":37159:37328   */\n    tag_570:\n        /* \"#utility.yul\":37299:37320   */\n      0x7472616e73666572204e4654206661696c656400000000000000000000000000\n        /* \"#utility.yul\":37295:37296   */\n      0x00\n        /* \"#utility.yul\":37287:37293   */\n      dup3\n        /* \"#utility.yul\":37283:37297   */\n      add\n        /* \"#utility.yul\":37276:37321   */\n      mstore\n        /* \"#utility.yul\":37159:37328   */\n      pop\n      jump\t// out\n        /* \"#utility.yul\":37334:37700   */\n    tag_571:\n        /* \"#utility.yul\":37476:37479   */\n      0x00\n        /* \"#utility.yul\":37497:37564   */\n      tag_958\n        /* \"#utility.yul\":37561:37563   */\n      0x13\n        /* \"#utility.yul\":37556:37559   */\n      dup4\n        /* \"#utility.yul\":37497:37564   */\n      tag_536\n      jump\t// in\n    tag_958:\n        /* \"#utility.yul\":37490:37564   */\n      swap2\n      pop\n        /* \"#utility.yul\":37573:37666   */\n      tag_959\n        /* \"#utility.yul\":37662:37665   */\n      dup3\n        /* \"#utility.yul\":37573:37666   */\n      tag_570\n      jump\t// in\n    tag_959:\n        /* \"#utility.yul\":37691:37693   */\n      0x20\n        /* \"#utility.yul\":37686:37689   */\n      dup3\n        /* \"#utility.yul\":37682:37694   */\n      add\n        /* \"#utility.yul\":37675:37694   */\n      swap1\n      pop\n        /* \"#utility.yul\":37334:37700   */\n      swap2\n      swap1\n      pop\n      jump\t// out\n        /* \"#utility.yul\":37706:38125   */\n    tag_396:\n        /* \"#utility.yul\":37872:37876   */\n      0x00\n        /* \"#utility.yul\":37910:37912   */\n      0x20\n        /* \"#utility.yul\":37899:37908   */\n      dup3\n        /* \"#utility.yul\":37895:37913   */\n      add\n        /* \"#utility.yul\":37887:37913   */\n      swap1\n      pop\n        /* \"#utility.yul\":37959:37968   */\n      dup2\n        /* \"#utility.yul\":37953:37957   */\n      dup2\n        /* \"#utility.yul\":37949:37969   */\n      sub\n        /* \"#utility.yul\":37945:37946   */\n      0x00\n        /* \"#utility.yul\":37934:37943   */\n      dup4\n        /* \"#utility.yul\":37930:37947   */\n      add\n        /* \"#utility.yul\":37923:37970   */\n      mstore\n        /* \"#utility.yul\":37987:38118   */\n      tag_961\n        /* \"#utility.yul\":38113:38117   */\n      dup2\n        /* \"#utility.yul\":37987:38118   */\n      tag_571\n      jump\t// in\n    tag_961:\n        /* \"#utility.yul\":37979:38118   */\n      swap1\n      pop\n        /* \"#utility.yul\":37706:38125   */\n      swap2\n      swap1\n      pop\n      jump\t// out\n        /* \"#utility.yul\":38131:38902   */\n    tag_408:\n        /* \"#utility.yul\":38362:38366   */\n      0x00\n        /* \"#utility.yul\":38400:38403   */\n      0xc0\n        /* \"#utility.yul\":38389:38398   */\n      dup3\n        /* \"#utility.yul\":38385:38404   */\n      add\n        /* \"#utility.yul\":38377:38404   */\n      swap1\n      pop\n        /* \"#utility.yul\":38414:38485   */\n      tag_963\n        /* \"#utility.yul\":38482:38483   */\n      0x00\n        /* \"#utility.yul\":38471:38480   */\n      dup4\n        /* \"#utility.yul\":38467:38484   */\n      add\n        /* \"#utility.yul\":38458:38464   */\n      dup10\n        /* \"#utility.yul\":38414:38485   */\n      tag_523\n      jump\t// in\n    tag_963:\n        /* \"#utility.yul\":38495:38567   */\n      tag_964\n        /* \"#utility.yul\":38563:38565   */\n      0x20\n        /* \"#utility.yul\":38552:38561   */\n      dup4\n        /* \"#utility.yul\":38548:38566   */\n      add\n        /* \"#utility.yul\":38539:38545   */\n      dup9\n        /* \"#utility.yul\":38495:38567   */\n      tag_523\n      jump\t// in\n    tag_964:\n        /* \"#utility.yul\":38577:38649   */\n      tag_965\n        /* \"#utility.yul\":38645:38647   */\n      0x40\n        /* \"#utility.yul\":38634:38643   */\n      dup4\n        /* \"#utility.yul\":38630:38648   */\n      add\n        /* \"#utility.yul\":38621:38627   */\n      dup8\n        /* \"#utility.yul\":38577:38649   */\n      tag_522\n      jump\t// in\n    tag_965:\n        /* \"#utility.yul\":38659:38729   */\n      tag_966\n        /* \"#utility.yul\":38725:38727   */\n      0x60\n        /* \"#utility.yul\":38714:38723   */\n      dup4\n        /* \"#utility.yul\":38710:38728   */\n      add\n        /* \"#utility.yul\":38701:38707   */\n      dup7\n        /* \"#utility.yul\":38659:38729   */\n      tag_546\n      jump\t// in\n    tag_966:\n        /* \"#utility.yul\":38739:38812   */\n      tag_967\n        /* \"#utility.yul\":38807:38810   */\n      0x80\n        /* \"#utility.yul\":38796:38805   */\n      dup4\n        /* \"#utility.yul\":38792:38811   */\n      add\n        /* \"#utility.yul\":38783:38789   */\n      dup6\n        /* \"#utility.yul\":38739:38812   */\n      tag_523\n      jump\t// in\n    tag_967:\n        /* \"#utility.yul\":38822:38895   */\n      tag_968\n        /* \"#utility.yul\":38890:38893   */\n      0xa0\n        /* \"#utility.yul\":38879:38888   */\n      dup4\n        /* \"#utility.yul\":38875:38894   */\n      add\n        /* \"#utility.yul\":38866:38872   */\n      dup5\n        /* \"#utility.yul\":38822:38895   */\n      tag_523\n      jump\t// in\n    tag_968:\n        /* \"#utility.yul\":38131:38902   */\n      swap8\n      swap7\n      pop\n      pop\n      pop\n      pop\n      pop\n      pop\n      pop\n      jump\t// out\n        /* \"#utility.yul\":38908:39236   */\n    tag_415:\n        /* \"#utility.yul\":39027:39031   */\n      0x00\n        /* \"#utility.yul\":39065:39067   */\n      0x40\n        /* \"#utility.yul\":39054:39063   */\n      dup3\n        /* \"#utility.yul\":39050:39068   */\n      add\n        /* \"#utility.yul\":39042:39068   */\n      swap1\n      pop\n        /* \"#utility.yul\":39078:39147   */\n      tag_970\n        /* \"#utility.yul\":39144:39145   */\n      0x00\n        /* \"#utility.yul\":39133:39142   */\n      dup4\n        /* \"#utility.yul\":39129:39146   */\n      add\n        /* \"#utility.yul\":39120:39126   */\n      dup6\n        /* \"#utility.yul\":39078:39147   */\n      tag_546\n      jump\t// in\n    tag_970:\n        /* \"#utility.yul\":39157:39229   */\n      tag_971\n        /* \"#utility.yul\":39225:39227   */\n      0x20\n        /* \"#utility.yul\":39214:39223   */\n      dup4\n        /* \"#utility.yul\":39210:39228   */\n      add\n        /* \"#utility.yul\":39201:39207   */\n      dup5\n        /* \"#utility.yul\":39157:39229   */\n      tag_523\n      jump\t// in\n    tag_971:\n        /* \"#utility.yul\":38908:39236   */\n      swap4\n      swap3\n      pop\n      pop\n      pop\n      jump\t// out\n        /* \"#utility.yul\":39242:39467   */\n    tag_572:\n        /* \"#utility.yul\":39382:39416   */\n      0x4f776e61626c653a206e6577206f776e657220697320746865207a65726f2061\n        /* \"#utility.yul\":39378:39379   */\n      0x00\n        /* \"#utility.yul\":39370:39376   */\n      dup3\n        /* \"#utility.yul\":39366:39380   */\n      add\n        /* \"#utility.yul\":39359:39417   */\n      mstore\n        /* \"#utility.yul\":39451:39459   */\n      0x6464726573730000000000000000000000000000000000000000000000000000\n        /* \"#utility.yul\":39446:39448   */\n      0x20\n        /* \"#utility.yul\":39438:39444   */\n      dup3\n        /* \"#utility.yul\":39434:39449   */\n      add\n        /* \"#utility.yul\":39427:39460   */\n      mstore\n        /* \"#utility.yul\":39242:39467   */\n      pop\n      jump\t// out\n        /* \"#utility.yul\":39473:39839   */\n    tag_573:\n        /* \"#utility.yul\":39615:39618   */\n      0x00\n        /* \"#utility.yul\":39636:39703   */\n      tag_974\n        /* \"#utility.yul\":39700:39702   */\n      0x26\n        /* \"#utility.yul\":39695:39698   */\n      dup4\n        /* \"#utility.yul\":39636:39703   */\n      tag_536\n      jump\t// in\n    tag_974:\n        /* \"#utility.yul\":39629:39703   */\n      swap2\n      pop\n        /* \"#utility.yul\":39712:39805   */\n      tag_975\n        /* \"#utility.yul\":39801:39804   */\n      dup3\n        /* \"#utility.yul\":39712:39805   */\n      tag_572\n      jump\t// in\n    tag_975:\n        /* \"#utility.yul\":39830:39832   */\n      0x40\n        /* \"#utility.yul\":39825:39828   */\n      dup3\n        /* \"#utility.yul\":39821:39833   */\n      add\n        /* \"#utility.yul\":39814:39833   */\n      swap1\n      pop\n        /* \"#utility.yul\":39473:39839   */\n      swap2\n      swap1\n      pop\n      jump\t// out\n        /* \"#utility.yul\":39845:40264   */\n    tag_438:\n        /* \"#utility.yul\":40011:40015   */\n      0x00\n        /* \"#utility.yul\":40049:40051   */\n      0x20\n        /* \"#utility.yul\":40038:40047   */\n      dup3\n        /* \"#utility.yul\":40034:40052   */\n      add\n        /* \"#utility.yul\":40026:40052   */\n      swap1\n      pop\n        /* \"#utility.yul\":40098:40107   */\n      dup2\n        /* \"#utility.yul\":40092:40096   */\n      dup2\n        /* \"#utility.yul\":40088:40108   */\n      sub\n        /* \"#utility.yul\":40084:40085   */\n      0x00\n        /* \"#utility.yul\":40073:40082   */\n      dup4\n        /* \"#utility.yul\":40069:40086   */\n      add\n        /* \"#utility.yul\":40062:40109   */\n      mstore\n        /* \"#utility.yul\":40126:40257   */\n      tag_977\n        /* \"#utility.yul\":40252:40256   */\n      dup2\n        /* \"#utility.yul\":40126:40257   */\n      tag_573\n      jump\t// in\n    tag_977:\n        /* \"#utility.yul\":40118:40257   */\n      swap1\n      pop\n        /* \"#utility.yul\":39845:40264   */\n      swap2\n      swap1\n      pop\n      jump\t// out\n        /* \"#utility.yul\":40270:40437   */\n    tag_574:\n        /* \"#utility.yul\":40410:40429   */\n      0x6f776e657220616c726561647920736574000000000000000000000000000000\n        /* \"#utility.yul\":40406:40407   */\n      0x00\n        /* \"#utility.yul\":40398:40404   */\n      dup3\n        /* \"#utility.yul\":40394:40408   */\n      add\n        /* \"#utility.yul\":40387:40430   */\n      mstore\n        /* \"#utility.yul\":40270:40437   */\n      pop\n      jump\t// out\n        /* \"#utility.yul\":40443:40809   */\n    tag_575:\n        /* \"#utility.yul\":40585:40588   */\n      0x00\n        /* \"#utility.yul\":40606:40673   */\n      tag_980\n        /* \"#utility.yul\":40670:40672   */\n      0x11\n        /* \"#utility.yul\":40665:40668   */\n      dup4\n        /* \"#utility.yul\":40606:40673   */\n      tag_536\n      jump\t// in\n    tag_980:\n        /* \"#utility.yul\":40599:40673   */\n      swap2\n      pop\n        /* \"#utility.yul\":40682:40775   */\n      tag_981\n        /* \"#utility.yul\":40771:40774   */\n      dup3\n        /* \"#utility.yul\":40682:40775   */\n      tag_574\n      jump\t// in\n    tag_981:\n        /* \"#utility.yul\":40800:40802   */\n      0x20\n        /* \"#utility.yul\":40795:40798   */\n      dup3\n        /* \"#utility.yul\":40791:40803   */\n      add\n        /* \"#utility.yul\":40784:40803   */\n      swap1\n      pop\n        /* \"#utility.yul\":40443:40809   */\n      swap2\n      swap1\n      pop\n      jump\t// out\n        /* \"#utility.yul\":40815:41234   */\n    tag_444:\n        /* \"#utility.yul\":40981:40985   */\n      0x00\n        /* \"#utility.yul\":41019:41021   */\n      0x20\n        /* \"#utility.yul\":41008:41017   */\n      dup3\n        /* \"#utility.yul\":41004:41022   */\n      add\n        /* \"#utility.yul\":40996:41022   */\n      swap1\n      pop\n        /* \"#utility.yul\":41068:41077   */\n      dup2\n        /* \"#utility.yul\":41062:41066   */\n      dup2\n        /* \"#utility.yul\":41058:41078   */\n      sub\n        /* \"#utility.yul\":41054:41055   */\n      0x00\n        /* \"#utility.yul\":41043:41052   */\n      dup4\n        /* \"#utility.yul\":41039:41056   */\n      add\n        /* \"#utility.yul\":41032:41079   */\n      mstore\n        /* \"#utility.yul\":41096:41227   */\n      tag_983\n        /* \"#utility.yul\":41222:41226   */\n      dup2\n        /* \"#utility.yul\":41096:41227   */\n      tag_575\n      jump\t// in\n    tag_983:\n        /* \"#utility.yul\":41088:41227   */\n      swap1\n      pop\n        /* \"#utility.yul\":40815:41234   */\n      swap2\n      swap1\n      pop\n      jump\t// out\n        /* \"#utility.yul\":41240:41410   */\n    tag_576:\n        /* \"#utility.yul\":41380:41402   */\n      0x5061757361626c653a206e6f7420706175736564000000000000000000000000\n        /* \"#utility.yul\":41376:41377   */\n      0x00\n        /* \"#utility.yul\":41368:41374   */\n      dup3\n        /* \"#utility.yul\":41364:41378   */\n      add\n        /* \"#utility.yul\":41357:41403   */\n      mstore\n        /* \"#utility.yul\":41240:41410   */\n      pop\n      jump\t// out\n        /* \"#utility.yul\":41416:41782   */\n    tag_577:\n        /* \"#utility.yul\":41558:41561   */\n      0x00\n        /* \"#utility.yul\":41579:41646   */\n      tag_986\n        /* \"#utility.yul\":41643:41645   */\n      0x14\n        /* \"#utility.yul\":41638:41641   */\n      dup4\n        /* \"#utility.yul\":41579:41646   */\n      tag_536\n      jump\t// in\n    tag_986:\n        /* \"#utility.yul\":41572:41646   */\n      swap2\n      pop\n        /* \"#utility.yul\":41655:41748   */\n      tag_987\n        /* \"#utility.yul\":41744:41747   */\n      dup3\n        /* \"#utility.yul\":41655:41748   */\n      tag_576\n      jump\t// in\n    tag_987:\n        /* \"#utility.yul\":41773:41775   */\n      0x20\n        /* \"#utility.yul\":41768:41771   */\n      dup3\n        /* \"#utility.yul\":41764:41776   */\n      add\n        /* \"#utility.yul\":41757:41776   */\n      swap1\n      pop\n        /* \"#utility.yul\":41416:41782   */\n      swap2\n      swap1\n      pop\n      jump\t// out\n        /* \"#utility.yul\":41788:42207   */\n    tag_450:\n        /* \"#utility.yul\":41954:41958   */\n      0x00\n        /* \"#utility.yul\":41992:41994   */\n      0x20\n        /* \"#utility.yul\":41981:41990   */\n      dup3\n        /* \"#utility.yul\":41977:41995   */\n      add\n        /* \"#utility.yul\":41969:41995   */\n      swap1\n      pop\n        /* \"#utility.yul\":42041:42050   */\n      dup2\n        /* \"#utility.yul\":42035:42039   */\n      dup2\n        /* \"#utility.yul\":42031:42051   */\n      sub\n        /* \"#utility.yul\":42027:42028   */\n      0x00\n        /* \"#utility.yul\":42016:42025   */\n      dup4\n        /* \"#utility.yul\":42012:42029   */\n      add\n        /* \"#utility.yul\":42005:42052   */\n      mstore\n        /* \"#utility.yul\":42069:42200   */\n      tag_989\n        /* \"#utility.yul\":42195:42199   */\n      dup2\n        /* \"#utility.yul\":42069:42200   */\n      tag_577\n      jump\t// in\n    tag_989:\n        /* \"#utility.yul\":42061:42200   */\n      swap1\n      pop\n        /* \"#utility.yul\":41788:42207   */\n      swap2\n      swap1\n      pop\n      jump\t// out\n        /* \"#utility.yul\":42213:42384   */\n    tag_578:\n        /* \"#utility.yul\":42353:42376   */\n      0x4163636f756e74206973206e6f74207061757365720000000000000000000000\n        /* \"#utility.yul\":42349:42350   */\n      0x00\n        /* \"#utility.yul\":42341:42347   */\n      dup3\n        /* \"#utility.yul\":42337:42351   */\n      add\n        /* \"#utility.yul\":42330:42377   */\n      mstore\n        /* \"#utility.yul\":42213:42384   */\n      pop\n      jump\t// out\n        /* \"#utility.yul\":42390:42756   */\n    tag_579:\n        /* \"#utility.yul\":42532:42535   */\n      0x00\n        /* \"#utility.yul\":42553:42620   */\n      tag_992\n        /* \"#utility.yul\":42617:42619   */\n      0x15\n        /* \"#utility.yul\":42612:42615   */\n      dup4\n        /* \"#utility.yul\":42553:42620   */\n      tag_536\n      jump\t// in\n    tag_992:\n        /* \"#utility.yul\":42546:42620   */\n      swap2\n      pop\n        /* \"#utility.yul\":42629:42722   */\n      tag_993\n        /* \"#utility.yul\":42718:42721   */\n      dup3\n        /* \"#utility.yul\":42629:42722   */\n      tag_578\n      jump\t// in\n    tag_993:\n        /* \"#utility.yul\":42747:42749   */\n      0x20\n        /* \"#utility.yul\":42742:42745   */\n      dup3\n        /* \"#utility.yul\":42738:42750   */\n      add\n        /* \"#utility.yul\":42731:42750   */\n      swap1\n      pop\n        /* \"#utility.yul\":42390:42756   */\n      swap2\n      swap1\n      pop\n      jump\t// out\n        /* \"#utility.yul\":42762:43181   */\n    tag_459:\n        /* \"#utility.yul\":42928:42932   */\n      0x00\n        /* \"#utility.yul\":42966:42968   */\n      0x20\n        /* \"#utility.yul\":42955:42964   */\n      dup3\n        /* \"#utility.yul\":42951:42969   */\n      add\n        /* \"#utility.yul\":42943:42969   */\n      swap1\n      pop\n        /* \"#utility.yul\":43015:43024   */\n      dup2\n        /* \"#utility.yul\":43009:43013   */\n      dup2\n        /* \"#utility.yul\":43005:43025   */\n      sub\n        /* \"#utility.yul\":43001:43002   */\n      0x00\n        /* \"#utility.yul\":42990:42999   */\n      dup4\n        /* \"#utility.yul\":42986:43003   */\n      add\n        /* \"#utility.yul\":42979:43026   */\n      mstore\n        /* \"#utility.yul\":43043:43174   */\n      tag_995\n        /* \"#utility.yul\":43169:43173   */\n      dup2\n        /* \"#utility.yul\":43043:43174   */\n      tag_579\n      jump\t// in\n    tag_995:\n        /* \"#utility.yul\":43035:43174   */\n      swap1\n      pop\n        /* \"#utility.yul\":42762:43181   */\n      swap2\n      swap1\n      pop\n      jump\t// out\n        /* \"#utility.yul\":43187:43362   */\n    tag_580:\n        /* \"#utility.yul\":43327:43354   */\n      0x4163636f756e7420697320616c72656164792070617573657200000000000000\n        /* \"#utility.yul\":43323:43324   */\n      0x00\n        /* \"#utility.yul\":43315:43321   */\n      dup3\n        /* \"#utility.yul\":43311:43325   */\n      add\n        /* \"#utility.yul\":43304:43355   */\n      mstore\n        /* \"#utility.yul\":43187:43362   */\n      pop\n      jump\t// out\n        /* \"#utility.yul\":43368:43734   */\n    tag_581:\n        /* \"#utility.yul\":43510:43513   */\n      0x00\n        /* \"#utility.yul\":43531:43598   */\n      tag_998\n        /* \"#utility.yul\":43595:43597   */\n      0x19\n        /* \"#utility.yul\":43590:43593   */\n      dup4\n        /* \"#utility.yul\":43531:43598   */\n      tag_536\n      jump\t// in\n    tag_998:\n        /* \"#utility.yul\":43524:43598   */\n      swap2\n      pop\n        /* \"#utility.yul\":43607:43700   */\n      tag_999\n        /* \"#utility.yul\":43696:43699   */\n      dup3\n        /* \"#utility.yul\":43607:43700   */\n      tag_580\n      jump\t// in\n    tag_999:\n        /* \"#utility.yul\":43725:43727   */\n      0x20\n        /* \"#utility.yul\":43720:43723   */\n      dup3\n        /* \"#utility.yul\":43716:43728   */\n      add\n        /* \"#utility.yul\":43709:43728   */\n      swap1\n      pop\n        /* \"#utility.yul\":43368:43734   */\n      swap2\n      swap1\n      pop\n      jump\t// out\n        /* \"#utility.yul\":43740:44159   */\n    tag_465:\n        /* \"#utility.yul\":43906:43910   */\n      0x00\n        /* \"#utility.yul\":43944:43946   */\n      0x20\n        /* \"#utility.yul\":43933:43942   */\n      dup3\n        /* \"#utility.yul\":43929:43947   */\n      add\n        /* \"#utility.yul\":43921:43947   */\n      swap1\n      pop\n        /* \"#utility.yul\":43993:44002   */\n      dup2\n        /* \"#utility.yul\":43987:43991   */\n      dup2\n        /* \"#utility.yul\":43983:44003   */\n      sub\n        /* \"#utility.yul\":43979:43980   */\n      0x00\n        /* \"#utility.yul\":43968:43977   */\n      dup4\n        /* \"#utility.yul\":43964:43981   */\n      add\n        /* \"#utility.yul\":43957:44004   */\n      mstore\n        /* \"#utility.yul\":44021:44152   */\n      tag_1001\n        /* \"#utility.yul\":44147:44151   */\n      dup2\n        /* \"#utility.yul\":44021:44152   */\n      tag_581\n      jump\t// in\n    tag_1001:\n        /* \"#utility.yul\":44013:44152   */\n      swap1\n      pop\n        /* \"#utility.yul\":43740:44159   */\n      swap2\n      swap1\n      pop\n      jump\t// out\n        /* \"#utility.yul\":44165:44340   */\n    tag_582:\n        /* \"#utility.yul\":44305:44332   */\n      0x64657374204e465420427269646765206e6f7420666f756e6400000000000000\n        /* \"#utility.yul\":44301:44302   */\n      0x00\n        /* \"#utility.yul\":44293:44299   */\n      dup3\n        /* \"#utility.yul\":44289:44303   */\n      add\n        /* \"#utility.yul\":44282:44333   */\n      mstore\n        /* \"#utility.yul\":44165:44340   */\n      pop\n      jump\t// out\n        /* \"#utility.yul\":44346:44712   */\n    tag_583:\n        /* \"#utility.yul\":44488:44491   */\n      0x00\n        /* \"#utility.yul\":44509:44576   */\n      tag_1004\n        /* \"#utility.yul\":44573:44575   */\n      0x19\n        /* \"#utility.yul\":44568:44571   */\n      dup4\n        /* \"#utility.yul\":44509:44576   */\n      tag_536\n      jump\t// in\n    tag_1004:\n        /* \"#utility.yul\":44502:44576   */\n      swap2\n      pop\n        /* \"#utility.yul\":44585:44678   */\n      tag_1005\n        /* \"#utility.yul\":44674:44677   */\n      dup3\n        /* \"#utility.yul\":44585:44678   */\n      tag_582\n      jump\t// in\n    tag_1005:\n        /* \"#utility.yul\":44703:44705   */\n      0x20\n        /* \"#utility.yul\":44698:44701   */\n      dup3\n        /* \"#utility.yul\":44694:44706   */\n      add\n        /* \"#utility.yul\":44687:44706   */\n      swap1\n      pop\n        /* \"#utility.yul\":44346:44712   */\n      swap2\n      swap1\n      pop\n      jump\t// out\n        /* \"#utility.yul\":44718:45137   */\n    tag_477:\n        /* \"#utility.yul\":44884:44888   */\n      0x00\n        /* \"#utility.yul\":44922:44924   */\n      0x20\n        /* \"#utility.yul\":44911:44920   */\n      dup3\n        /* \"#utility.yul\":44907:44925   */\n      add\n        /* \"#utility.yul\":44899:44925   */\n      swap1\n      pop\n        /* \"#utility.yul\":44971:44980   */\n      dup2\n        /* \"#utility.yul\":44965:44969   */\n      dup2\n        /* \"#utility.yul\":44961:44981   */\n      sub\n        /* \"#utility.yul\":44957:44958   */\n      0x00\n        /* \"#utility.yul\":44946:44955   */\n      dup4\n        /* \"#utility.yul\":44942:44959   */\n      add\n        /* \"#utility.yul\":44935:44982   */\n      mstore\n        /* \"#utility.yul\":44999:45130   */\n      tag_1007\n        /* \"#utility.yul\":45125:45129   */\n      dup2\n        /* \"#utility.yul\":44999:45130   */\n      tag_583\n      jump\t// in\n    tag_1007:\n        /* \"#utility.yul\":44991:45130   */\n      swap1\n      pop\n        /* \"#utility.yul\":44718:45137   */\n      swap2\n      swap1\n      pop\n      jump\t// out\n        /* \"#utility.yul\":45143:45311   */\n    tag_584:\n        /* \"#utility.yul\":45283:45303   */\n      0x64657374204e4654206e6f7420666f756e640000000000000000000000000000\n        /* \"#utility.yul\":45279:45280   */\n      0x00\n        /* \"#utility.yul\":45271:45277   */\n      dup3\n        /* \"#utility.yul\":45267:45281   */\n      add\n        /* \"#utility.yul\":45260:45304   */\n      mstore\n        /* \"#utility.yul\":45143:45311   */\n      pop\n      jump\t// out\n        /* \"#utility.yul\":45317:45683   */\n    tag_585:\n        /* \"#utility.yul\":45459:45462   */\n      0x00\n        /* \"#utility.yul\":45480:45547   */\n      tag_1010\n        /* \"#utility.yul\":45544:45546   */\n      0x12\n        /* \"#utility.yul\":45539:45542   */\n      dup4\n        /* \"#utility.yul\":45480:45547   */\n      tag_536\n      jump\t// in\n    tag_1010:\n        /* \"#utility.yul\":45473:45547   */\n      swap2\n      pop\n        /* \"#utility.yul\":45556:45649   */\n      tag_1011\n        /* \"#utility.yul\":45645:45648   */\n      dup3\n        /* \"#utility.yul\":45556:45649   */\n      tag_584\n      jump\t// in\n    tag_1011:\n        /* \"#utility.yul\":45674:45676   */\n      0x20\n        /* \"#utility.yul\":45669:45672   */\n      dup3\n        /* \"#utility.yul\":45665:45677   */\n      add\n        /* \"#utility.yul\":45658:45677   */\n      swap1\n      pop\n        /* \"#utility.yul\":45317:45683   */\n      swap2\n      swap1\n      pop\n      jump\t// out\n        /* \"#utility.yul\":45689:46108   */\n    tag_480:\n        /* \"#utility.yul\":45855:45859   */\n      0x00\n        /* \"#utility.yul\":45893:45895   */\n      0x20\n        /* \"#utility.yul\":45882:45891   */\n      dup3\n        /* \"#utility.yul\":45878:45896   */\n      add\n        /* \"#utility.yul\":45870:45896   */\n      swap1\n      pop\n        /* \"#utility.yul\":45942:45951   */\n      dup2\n        /* \"#utility.yul\":45936:45940   */\n      dup2\n        /* \"#utility.yul\":45932:45952   */\n      sub\n        /* \"#utility.yul\":45928:45929   */\n      0x00\n        /* \"#utility.yul\":45917:45926   */\n      dup4\n        /* \"#utility.yul\":45913:45930   */\n      add\n        /* \"#utility.yul\":45906:45953   */\n      mstore\n        /* \"#utility.yul\":45970:46101   */\n      tag_1013\n        /* \"#utility.yul\":46096:46100   */\n      dup2\n        /* \"#utility.yul\":45970:46101   */\n      tag_585\n      jump\t// in\n    tag_1013:\n        /* \"#utility.yul\":45962:46101   */\n      swap1\n      pop\n        /* \"#utility.yul\":45689:46108   */\n      swap2\n      swap1\n      pop\n      jump\t// out\n        /* \"#utility.yul\":46114:46280   */\n    tag_586:\n        /* \"#utility.yul\":46254:46272   */\n      0x696e73756666696369656e742066656500000000000000000000000000000000\n        /* \"#utility.yul\":46250:46251   */\n      0x00\n        /* \"#utility.yul\":46242:46248   */\n      dup3\n        /* \"#utility.yul\":46238:46252   */\n      add\n        /* \"#utility.yul\":46231:46273   */\n      mstore\n        /* \"#utility.yul\":46114:46280   */\n      pop\n      jump\t// out\n        /* \"#utility.yul\":46286:46652   */\n    tag_587:\n        /* \"#utility.yul\":46428:46431   */\n      0x00\n        /* \"#utility.yul\":46449:46516   */\n      tag_1016\n        /* \"#utility.yul\":46513:46515   */\n      0x10\n        /* \"#utility.yul\":46508:46511   */\n      dup4\n        /* \"#utility.yul\":46449:46516   */\n      tag_536\n      jump\t// in\n    tag_1016:\n        /* \"#utility.yul\":46442:46516   */\n      swap2\n      pop\n        /* \"#utility.yul\":46525:46618   */\n      tag_1017\n        /* \"#utility.yul\":46614:46617   */\n      dup3\n        /* \"#utility.yul\":46525:46618   */\n      tag_586\n      jump\t// in\n    tag_1017:\n        /* \"#utility.yul\":46643:46645   */\n      0x20\n        /* \"#utility.yul\":46638:46641   */\n      dup3\n        /* \"#utility.yul\":46634:46646   */\n      add\n        /* \"#utility.yul\":46627:46646   */\n      swap1\n      pop\n        /* \"#utility.yul\":46286:46652   */\n      swap2\n      swap1\n      pop\n      jump\t// out\n        /* \"#utility.yul\":46658:47077   */\n    tag_490:\n        /* \"#utility.yul\":46824:46828   */\n      0x00\n        /* \"#utility.yul\":46862:46864   */\n      0x20\n        /* \"#utility.yul\":46851:46860   */\n      dup3\n        /* \"#utility.yul\":46847:46865   */\n      add\n        /* \"#utility.yul\":46839:46865   */\n      swap1\n      pop\n        /* \"#utility.yul\":46911:46920   */\n      dup2\n        /* \"#utility.yul\":46905:46909   */\n      dup2\n        /* \"#utility.yul\":46901:46921   */\n      sub\n        /* \"#utility.yul\":46897:46898   */\n      0x00\n        /* \"#utility.yul\":46886:46895   */\n      dup4\n        /* \"#utility.yul\":46882:46899   */\n      add\n        /* \"#utility.yul\":46875:46922   */\n      mstore\n        /* \"#utility.yul\":46939:47070   */\n      tag_1019\n        /* \"#utility.yul\":47065:47069   */\n      dup2\n        /* \"#utility.yul\":46939:47070   */\n      tag_587\n      jump\t// in\n    tag_1019:\n        /* \"#utility.yul\":46931:47070   */\n      swap1\n      pop\n        /* \"#utility.yul\":46658:47077   */\n      swap2\n      swap1\n      pop\n      jump\t// out\n        /* \"#utility.yul\":47083:47143   */\n    tag_588:\n        /* \"#utility.yul\":47111:47114   */\n      0x00\n        /* \"#utility.yul\":47132:47137   */\n      dup2\n        /* \"#utility.yul\":47125:47137   */\n      swap1\n      pop\n        /* \"#utility.yul\":47083:47143   */\n      swap2\n      swap1\n      pop\n      jump\t// out\n        /* \"#utility.yul\":47149:47289   */\n    tag_589:\n        /* \"#utility.yul\":47198:47207   */\n      0x00\n        /* \"#utility.yul\":47231:47283   */\n      tag_1022\n        /* \"#utility.yul\":47249:47282   */\n      tag_1023\n        /* \"#utility.yul\":47258:47281   */\n      tag_1024\n        /* \"#utility.yul\":47275:47280   */\n      dup5\n        /* \"#utility.yul\":47258:47281   */\n      tag_519\n      jump\t// in\n    tag_1024:\n        /* \"#utility.yul\":47249:47282   */\n      tag_588\n      jump\t// in\n    tag_1023:\n        /* \"#utility.yul\":47231:47283   */\n      tag_505\n      jump\t// in\n    tag_1022:\n        /* \"#utility.yul\":47218:47283   */\n      swap1\n      pop\n        /* \"#utility.yul\":47149:47289   */\n      swap2\n      swap1\n      pop\n      jump\t// out\n        /* \"#utility.yul\":47295:47424   */\n    tag_590:\n        /* \"#utility.yul\":47381:47417   */\n      tag_1026\n        /* \"#utility.yul\":47411:47416   */\n      dup2\n        /* \"#utility.yul\":47381:47417   */\n      tag_589\n      jump\t// in\n    tag_1026:\n        /* \"#utility.yul\":47376:47379   */\n      dup3\n        /* \"#utility.yul\":47369:47418   */\n      mstore\n        /* \"#utility.yul\":47295:47424   */\n      pop\n      pop\n      jump\t// out\n        /* \"#utility.yul\":47430:47957   */\n    tag_492:\n        /* \"#utility.yul\":47596:47600   */\n      0x00\n        /* \"#utility.yul\":47634:47636   */\n      0x60\n        /* \"#utility.yul\":47623:47632   */\n      dup3\n        /* \"#utility.yul\":47619:47637   */\n      add\n        /* \"#utility.yul\":47611:47637   */\n      swap1\n      pop\n        /* \"#utility.yul\":47647:47718   */\n      tag_1028\n        /* \"#utility.yul\":47715:47716   */\n      0x00\n        /* \"#utility.yul\":47704:47713   */\n      dup4\n        /* \"#utility.yul\":47700:47717   */\n      add\n        /* \"#utility.yul\":47691:47697   */\n      dup7\n        /* \"#utility.yul\":47647:47718   */\n      tag_523\n      jump\t// in\n    tag_1028:\n        /* \"#utility.yul\":47728:47799   */\n      tag_1029\n        /* \"#utility.yul\":47795:47797   */\n      0x20\n        /* \"#utility.yul\":47784:47793   */\n      dup4\n        /* \"#utility.yul\":47780:47798   */\n      add\n        /* \"#utility.yul\":47771:47777   */\n      dup6\n        /* \"#utility.yul\":47728:47799   */\n      tag_590\n      jump\t// in\n    tag_1029:\n        /* \"#utility.yul\":47846:47855   */\n      dup2\n        /* \"#utility.yul\":47840:47844   */\n      dup2\n        /* \"#utility.yul\":47836:47856   */\n      sub\n        /* \"#utility.yul\":47831:47833   */\n      0x40\n        /* \"#utility.yul\":47820:47829   */\n      dup4\n        /* \"#utility.yul\":47816:47834   */\n      add\n        /* \"#utility.yul\":47809:47857   */\n      mstore\n        /* \"#utility.yul\":47874:47950   */\n      tag_1030\n        /* \"#utility.yul\":47945:47949   */\n      dup2\n        /* \"#utility.yul\":47936:47942   */\n      dup5\n        /* \"#utility.yul\":47874:47950   */\n      tag_559\n      jump\t// in\n    tag_1030:\n        /* \"#utility.yul\":47866:47950   */\n      swap1\n      pop\n        /* \"#utility.yul\":47430:47957   */\n      swap5\n      swap4\n      pop\n      pop\n      pop\n      pop\n      jump\t// out\n\n    auxdata: 0xa2646970667358221220233e69aa794be7dd5cddc07e8095c008f995781a6f7d085059630107df333bbd64736f6c63430008090033\n}\n",
				"bytecode": {
					"linkReferences": {},
					"object": "60806040523480156200001157600080fd5b506040516200489238038062004892833981810160405281019062000037919062000328565b6200004833620000bc60201b60201c565b6000600160146101000a81548160ff02191690831515021790555062000074336200018060201b60201c565b80600160006101000a81548173ffffffffffffffffffffffffffffffffffffffff021916908373ffffffffffffffffffffffffffffffffffffffff160217905550506200040b565b60008060009054906101000a900473ffffffffffffffffffffffffffffffffffffffff169050816000806101000a81548173ffffffffffffffffffffffffffffffffffffffff021916908373ffffffffffffffffffffffffffffffffffffffff1602179055508173ffffffffffffffffffffffffffffffffffffffff168173ffffffffffffffffffffffffffffffffffffffff167f8be0079c531659141344cd1fd0a4f28419497f9722a3daafe3b4186f6b6457e060405160405180910390a35050565b62000191816200026860201b60201c565b15620001d4576040517f08c379a0000000000000000000000000000000000000000000000000000000008152600401620001cb90620003bb565b60405180910390fd5b6001600260008373ffffffffffffffffffffffffffffffffffffffff1673ffffffffffffffffffffffffffffffffffffffff16815260200190815260200160002060006101000a81548160ff0219169083151502179055507f6719d08c1888103bea251a4ed56406bd0c3e69723c8a1686e017e7bbe159b6f8816040516200025d9190620003ee565b60405180910390a150565b6000600260008373ffffffffffffffffffffffffffffffffffffffff1673ffffffffffffffffffffffffffffffffffffffff16815260200190815260200160002060009054906101000a900460ff169050919050565b600080fd5b600073ffffffffffffffffffffffffffffffffffffffff82169050919050565b6000620002f082620002c3565b9050919050565b6200030281620002e3565b81146200030e57600080fd5b50565b6000815190506200032281620002f7565b92915050565b600060208284031215620003415762000340620002be565b5b6000620003518482850162000311565b91505092915050565b600082825260208201905092915050565b7f4163636f756e7420697320616c72656164792070617573657200000000000000600082015250565b6000620003a36019836200035a565b9150620003b0826200036b565b602082019050919050565b60006020820190508181036000830152620003d68162000394565b9050919050565b620003e881620002e3565b82525050565b6000602082019050620004056000830184620003dd565b92915050565b614477806200041b6000396000f3fe6080604052600436106101e35760003560e01c806380f51c12116101025780639e041b9d11610095578063da754f4411610064578063da754f44146106bd578063ed99bf43146106e6578063f0cb57ce1461070f578063f2fde38b1461072b576101e3565b80639e041b9d146106105780639f825f071461064d578063a1a227fa14610676578063b2c88775146106a1576101e3565b806395b6a191116100d157806395b6a1911461056357806399d32fc41461058c5780639c1a65bd146105a35780639c649fdf146105e0576101e3565b806380f51c12146104bb57806382dc1ec4146104f85780638456cb59146105215780638da5cb5b14610538576101e3565b806343a8c1371161017a5780635c975abb116101495780635c975abb146104205780636b2c0f551461044b5780636ef8d66d146104745780637cd2bffc1461048b576101e3565b806343a8c1371461036157806346fbf68e1461038a578063547cad12146103c75780635ab7afc6146103f0576101e3565b806319ab453c116101b657806319ab453c146102bb57806327cbe705146102e45780632d5fa47c146103215780633f4ba83a1461034a576101e3565b8063065c38fd146101e85780630bcb4982146102115780631140c84e14610241578063151ff4eb1461027e575b600080fd5b3480156101f457600080fd5b5061020f600480360381019061020a9190612c69565b610754565b005b61022b60048036038101906102269190612d31565b61085e565b6040516102389190612e30565b60405180910390f35b34801561024d57600080fd5b5061026860048036038101906102639190612c69565b6108f9565b6040516102759190612e66565b60405180910390f35b34801561028a57600080fd5b506102a560048036038101906102a09190612ec1565b610919565b6040516102b29190612efd565b60405180910390f35b3480156102c757600080fd5b506102e260048036038101906102dd9190612c69565b610931565b005b3480156102f057600080fd5b5061030b60048036038101906103069190612ec1565b61097d565b6040516103189190612f27565b60405180910390f35b34801561032d57600080fd5b5061034860048036038101906103439190612fee565b6109b0565b005b34801561035657600080fd5b5061035f610b87565b005b34801561036d57600080fd5b5061038860048036038101906103839190613083565b610bd9565b005b34801561039657600080fd5b506103b160048036038101906103ac9190612c69565b610d2a565b6040516103be9190612e66565b60405180910390f35b3480156103d357600080fd5b506103ee60048036038101906103e99190612c69565b610d80565b005b61040a60048036038101906104059190613104565b610e92565b6040516104179190612e30565b60405180910390f35b34801561042c57600080fd5b50610435610f2f565b6040516104429190612e66565b60405180910390f35b34801561045757600080fd5b50610472600480360381019061046d9190612c69565b610f46565b005b34801561048057600080fd5b50610489610fc7565b005b6104a560048036038101906104a09190613104565b610fd2565b6040516104b29190612e30565b60405180910390f35b3480156104c757600080fd5b506104e260048036038101906104dd9190612c69565b61106f565b6040516104ef9190612e66565b60405180910390f35b34801561050457600080fd5b5061051f600480360381019061051a9190612c69565b61108f565b005b34801561052d57600080fd5b50610536611110565b005b34801561054457600080fd5b5061054d611162565b60405161055a9190612f27565b60405180910390f35b34801561056f57600080fd5b5061058a600480360381019061058591906131b3565b61118b565b005b34801561059857600080fd5b506105a16112e3565b005b3480156105af57600080fd5b506105ca60048036038101906105c59190613206565b6113de565b6040516105d79190612efd565b60405180910390f35b6105fa60048036038101906105f5919061339a565b6115c9565b6040516106079190612e30565b60405180910390f35b34801561061c57600080fd5b506106376004803603810190610632919061341d565b61199d565b6040516106449190612f27565b60405180910390f35b34801561065957600080fd5b50610674600480360381019061066f919061345d565b6119df565b005b34801561068257600080fd5b5061068b611abd565b6040516106989190612f27565b60405180910390f35b6106bb60048036038101906106b6919061349d565b611ae3565b005b3480156106c957600080fd5b506106e460048036038101906106df9190613504565b611fb3565b005b3480156106f257600080fd5b5061070d60048036038101906107089190612c69565b6120cb565b005b6107296004803603810190610724919061359a565b6121cc565b005b34801561073757600080fd5b50610752600480360381019061074d9190612c69565b612330565b005b3373ffffffffffffffffffffffffffffffffffffffff16610773611162565b73ffffffffffffffffffffffffffffffffffffffff16146107c9576040517f08c379a00000000000000000000000000000000000000000000000000000000081526004016107c090613691565b60405180910390fd5b6001600660008373ffffffffffffffffffffffffffffffffffffffff1673ffffffffffffffffffffffffffffffffffffffff16815260200190815260200160002060006101000a81548160ff0219169083151502179055507f9800fb32bf5eb9a3b2e42c910912da10ed1881dc538475101797669146166bf88160016040516108539291906136b1565b60405180910390a150565b6000600160009054906101000a900473ffffffffffffffffffffffffffffffffffffffff1673ffffffffffffffffffffffffffffffffffffffff163373ffffffffffffffffffffffffffffffffffffffff16146108f0576040517f08c379a00000000000000000000000000000000000000000000000000000000081526004016108e790613726565b60405180910390fd5b95945050505050565b60066020528060005260406000206000915054906101000a900460ff1681565b60036020528060005260406000206000915090505481565b610939612421565b80600160006101000a81548173ffffffffffffffffffffffffffffffffffffffff021916908373ffffffffffffffffffffffffffffffffffffffff16021790555050565b60046020528060005260406000206000915054906101000a900473ffffffffffffffffffffffffffffffffffffffff1681565b3373ffffffffffffffffffffffffffffffffffffffff166109cf611162565b73ffffffffffffffffffffffffffffffffffffffff1614610a25576040517f08c379a0000000000000000000000000000000000000000000000000000000008152600401610a1c90613691565b60405180910390fd5b818190508484905014610a6d576040517f08c379a0000000000000000000000000000000000000000000000000000000008152600401610a6490613792565b60405180910390fd5b60005b84849050811015610b7f57828282818110610a8e57610a8d6137b2565b5b9050602002016020810190610aa39190612c69565b600560008873ffffffffffffffffffffffffffffffffffffffff1673ffffffffffffffffffffffffffffffffffffffff1681526020019081526020016000206000878785818110610af757610af66137b2565b5b9050602002016020810190610b0c9190612ec1565b67ffffffffffffffff1667ffffffffffffffff16815260200190815260200160002060006101000a81548173ffffffffffffffffffffffffffffffffffffffff021916908373ffffffffffffffffffffffffffffffffffffffff1602179055508080610b7790613810565b915050610a70565b505050505050565b610b9033610d2a565b610bcf576040517f08c379a0000000000000000000000000000000000000000000000000000000008152600401610bc6906138a5565b60405180910390fd5b610bd76124bb565b565b3373ffffffffffffffffffffffffffffffffffffffff16610bf8611162565b73ffffffffffffffffffffffffffffffffffffffff1614610c4e576040517f08c379a0000000000000000000000000000000000000000000000000000000008152600401610c4590613691565b60405180910390fd5b60005b84849050811015610d2357828282818110610c6f57610c6e6137b2565b5b9050602002016020810190610c849190612c69565b60046000878785818110610c9b57610c9a6137b2565b5b9050602002016020810190610cb09190612ec1565b67ffffffffffffffff1667ffffffffffffffff16815260200190815260200160002060006101000a81548173ffffffffffffffffffffffffffffffffffffffff021916908373ffffffffffffffffffffffffffffffffffffffff1602179055508080610d1b90613810565b915050610c51565b5050505050565b6000600260008373ffffffffffffffffffffffffffffffffffffffff1673ffffffffffffffffffffffffffffffffffffffff16815260200190815260200160002060009054906101000a900460ff169050919050565b3373ffffffffffffffffffffffffffffffffffffffff16610d9f611162565b73ffffffffffffffffffffffffffffffffffffffff1614610df5576040517f08c379a0000000000000000000000000000000000000000000000000000000008152600401610dec90613691565b60405180910390fd5b80600160006101000a81548173ffffffffffffffffffffffffffffffffffffffff021916908373ffffffffffffffffffffffffffffffffffffffff1602179055507f3f8223bcd8b3b875473e9f9e14e1ad075451a2b5ffd31591655da9a01516bf5e600160009054906101000a900473ffffffffffffffffffffffffffffffffffffffff16604051610e879190612f27565b60405180910390a150565b6000600160009054906101000a900473ffffffffffffffffffffffffffffffffffffffff1673ffffffffffffffffffffffffffffffffffffffff163373ffffffffffffffffffffffffffffffffffffffff1614610f24576040517f08c379a0000000000000000000000000000000000000000000000000000000008152600401610f1b90613726565b60405180910390fd5b979650505050505050565b6000600160149054906101000a900460ff16905090565b3373ffffffffffffffffffffffffffffffffffffffff16610f65611162565b73ffffffffffffffffffffffffffffffffffffffff1614610fbb576040517f08c379a0000000000000000000000000000000000000000000000000000000008152600401610fb290613691565b60405180910390fd5b610fc48161255d565b50565b610fd03361255d565b565b6000600160009054906101000a900473ffffffffffffffffffffffffffffffffffffffff1673ffffffffffffffffffffffffffffffffffffffff163373ffffffffffffffffffffffffffffffffffffffff1614611064576040517f08c379a000000000000000000000000000000000000000000000000000000000815260040161105b90613726565b60405180910390fd5b979650505050505050565b60026020528060005260406000206000915054906101000a900460ff1681565b3373ffffffffffffffffffffffffffffffffffffffff166110ae611162565b73ffffffffffffffffffffffffffffffffffffffff1614611104576040517f08c379a00000000000000000000000000000000000000000000000000000000081526004016110fb90613691565b60405180910390fd5b61110d81612637565b50565b61111933610d2a565b611158576040517f08c379a000000000000000000000000000000000000000000000000000000000815260040161114f906138a5565b60405180910390fd5b611160612712565b565b60008060009054906101000a900473ffffffffffffffffffffffffffffffffffffffff16905090565b3373ffffffffffffffffffffffffffffffffffffffff166111aa611162565b73ffffffffffffffffffffffffffffffffffffffff1614611200576040517f08c379a00000000000000000000000000000000000000000000000000000000081526004016111f790613691565b60405180910390fd5b80600560008573ffffffffffffffffffffffffffffffffffffffff1673ffffffffffffffffffffffffffffffffffffffff16815260200190815260200160002060008467ffffffffffffffff1667ffffffffffffffff16815260200190815260200160002060006101000a81548173ffffffffffffffffffffffffffffffffffffffff021916908373ffffffffffffffffffffffffffffffffffffffff1602179055507fa5a9b84f1b7eb437335ea919a3ff6de6e242e4733d0100a773911061737948718383836040516112d6939291906138d4565b60405180910390a1505050565b3373ffffffffffffffffffffffffffffffffffffffff16611302611162565b73ffffffffffffffffffffffffffffffffffffffff1614611358576040517f08c379a000000000000000000000000000000000000000000000000000000000815260040161134f90613691565b60405180910390fd5b60004790503373ffffffffffffffffffffffffffffffffffffffff166108fc829081150290604051600060405180830381858888f193505050501580156113a3573d6000803e3d6000fd5b507f62b10e3ff3d45b5ff546e740b893897facb1680285f989a64ae932d62c5388e1816040516113d39190612efd565b60405180910390a150565b6000808373ffffffffffffffffffffffffffffffffffffffff1663c87b56dd846040518263ffffffff1660e01b815260040161141a9190612efd565b60006040518083038186803b15801561143257600080fd5b505afa158015611446573d6000803e3d6000fd5b505050506040513d6000823e3d601f19601f8201168201806040525081019061146f91906139df565b9050600060405180608001604052808673ffffffffffffffffffffffffffffffffffffffff1681526020018673ffffffffffffffffffffffffffffffffffffffff168152602001858152602001838152506040516020016114d09190613afe565b6040516020818303038152906040529050600360008767ffffffffffffffff1667ffffffffffffffff16815260200190815260200160002054600160009054906101000a900473ffffffffffffffffffffffffffffffffffffffff1673ffffffffffffffffffffffffffffffffffffffff16635335dca2836040518263ffffffff1660e01b81526004016115649190613b75565b60206040518083038186803b15801561157c57600080fd5b505afa158015611590573d6000803e3d6000fd5b505050506040513d601f19601f820116820180604052508101906115b49190613bac565b6115be9190613bd9565b925050509392505050565b6000600160009054906101000a900473ffffffffffffffffffffffffffffffffffffffff1673ffffffffffffffffffffffffffffffffffffffff163373ffffffffffffffffffffffffffffffffffffffff161461165b576040517f08c379a000000000000000000000000000000000000000000000000000000000815260040161165290613726565b60405180910390fd5b611663610f2f565b806116e15750600460008567ffffffffffffffff1667ffffffffffffffff16815260200190815260200160002060009054906101000a900473ffffffffffffffffffffffffffffffffffffffff1673ffffffffffffffffffffffffffffffffffffffff168573ffffffffffffffffffffffffffffffffffffffff1614155b156116ef5760029050611995565b6000838060200190518101906117059190613ce2565b90506001151560066000836020015173ffffffffffffffffffffffffffffffffffffffff1673ffffffffffffffffffffffffffffffffffffffff16815260200190815260200160002060009054906101000a900460ff161515141561185557806020015173ffffffffffffffffffffffffffffffffffffffff166323b872dd30836000015184604001516040518463ffffffff1660e01b81526004016117ad93929190613d2b565b600060405180830381600087803b1580156117c757600080fd5b505af19250505080156117d8575060015b611850573d8060008114611808576040519150601f19603f3d011682016040523d82523d6000602084013e61180d565b606091505b507f2c4d9008b1f58a23591c25a813b398a54f438d50b85bedea3d6e7302ee08a8108160405161183d9190613b75565b60405180910390a1600292505050611995565b611946565b806020015173ffffffffffffffffffffffffffffffffffffffff166367d74de28260000151836040015184606001516040518463ffffffff1660e01b81526004016118a293929190613d9b565b600060405180830381600087803b1580156118bc57600080fd5b505af19250505080156118cd575060015b611945573d80600081146118fd576040519150601f19603f3d011682016040523d82523d6000602084013e611902565b606091505b507f2c4d9008b1f58a23591c25a813b398a54f438d50b85bedea3d6e7302ee08a810816040516119329190613b75565b60405180910390a1600292505050611995565b5b7f0aac355db06d21352d6b898d8e0ae1334d55f65b6c4c09e26951166a8eb4dba7816000015182602001518360400151886040516119879493929190613dd9565b60405180910390a160019150505b949350505050565b60056020528160005260406000206020528060005260406000206000915091509054906101000a900473ffffffffffffffffffffffffffffffffffffffff1681565b3373ffffffffffffffffffffffffffffffffffffffff166119fe611162565b73ffffffffffffffffffffffffffffffffffffffff1614611a54576040517f08c379a0000000000000000000000000000000000000000000000000000000008152600401611a4b90613691565b60405180910390fd5b80600360008467ffffffffffffffff1667ffffffffffffffff168152602001908152602001600020819055507f446a287c2114fa54d0083d97ce8f6f15b2ce29fa1c2df4b5a580d581ea7c4ad38282604051611ab1929190613e1e565b60405180910390a15050565b600160009054906101000a900473ffffffffffffffffffffffffffffffffffffffff1681565b611aeb610f2f565b15611b2b576040517f08c379a0000000000000000000000000000000000000000000000000000000008152600401611b2290613e93565b60405180910390fd5b8373ffffffffffffffffffffffffffffffffffffffff16636352211e846040518263ffffffff1660e01b8152600401611b649190612efd565b60206040518083038186803b158015611b7c57600080fd5b505afa158015611b90573d6000803e3d6000fd5b505050506040513d601f19601f82011682018060405250810190611bb49190613eb3565b73ffffffffffffffffffffffffffffffffffffffff163373ffffffffffffffffffffffffffffffffffffffff1614611c21576040517f08c379a0000000000000000000000000000000000000000000000000000000008152600401611c1890613f2c565b60405180910390fd5b60008473ffffffffffffffffffffffffffffffffffffffff1663c87b56dd856040518263ffffffff1660e01b8152600401611c5c9190612efd565b60006040518083038186803b158015611c7457600080fd5b505afa158015611c88573d6000803e3d6000fd5b505050506040513d6000823e3d601f19601f82011682018060405250810190611cb191906139df565b905060011515600660008773ffffffffffffffffffffffffffffffffffffffff1673ffffffffffffffffffffffffffffffffffffffff16815260200190815260200160002060009054906101000a900460ff1615151415611e76578473ffffffffffffffffffffffffffffffffffffffff166323b872dd3330876040518463ffffffff1660e01b8152600401611d4993929190613d2b565b600060405180830381600087803b158015611d6357600080fd5b505af1158015611d77573d6000803e3d6000fd5b505050503073ffffffffffffffffffffffffffffffffffffffff168573ffffffffffffffffffffffffffffffffffffffff16636352211e866040518263ffffffff1660e01b8152600401611dcb9190612efd565b60206040518083038186803b158015611de357600080fd5b505afa158015611df7573d6000803e3d6000fd5b505050506040513d601f19601f82011682018060405250810190611e1b9190613eb3565b73ffffffffffffffffffffffffffffffffffffffff1614611e71576040517f08c379a0000000000000000000000000000000000000000000000000000000008152600401611e6890613f98565b60405180910390fd5b611ee2565b8473ffffffffffffffffffffffffffffffffffffffff166342966c68856040518263ffffffff1660e01b8152600401611eaf9190612efd565b600060405180830381600087803b158015611ec957600080fd5b505af1158015611edd573d6000803e3d6000fd5b505050505b600080611eef87866127b4565b91509150611f69828660405180608001604052808873ffffffffffffffffffffffffffffffffffffffff1681526020018573ffffffffffffffffffffffffffffffffffffffff1681526020018a815260200187815250604051602001611f559190613afe565b60405160208183030381529060405261296f565b7f40143e5b72b2109d658cfa709dec6213f60364dbd08b7253cdaf5f4e0c49561c338888888886604051611fa296959493929190613fb8565b60405180910390a150505050505050565b3373ffffffffffffffffffffffffffffffffffffffff16611fd2611162565b73ffffffffffffffffffffffffffffffffffffffff1614612028576040517f08c379a000000000000000000000000000000000000000000000000000000000815260040161201f90613691565b60405180910390fd5b80600460008467ffffffffffffffff1667ffffffffffffffff16815260200190815260200160002060006101000a81548173ffffffffffffffffffffffffffffffffffffffff021916908373ffffffffffffffffffffffffffffffffffffffff1602179055507f3e776334b24c927645043308f89ac1ca734002e5a921ff384a70dcbb88c92cd482826040516120bf929190614019565b60405180910390a15050565b3373ffffffffffffffffffffffffffffffffffffffff166120ea611162565b73ffffffffffffffffffffffffffffffffffffffff1614612140576040517f08c379a000000000000000000000000000000000000000000000000000000000815260040161213790613691565b60405180910390fd5b600660008273ffffffffffffffffffffffffffffffffffffffff1673ffffffffffffffffffffffffffffffffffffffff16815260200190815260200160002060006101000a81549060ff02191690557f9800fb32bf5eb9a3b2e42c910912da10ed1881dc538475101797669146166bf88160006040516121c19291906136b1565b60405180910390a150565b6121d4610f2f565b15612214576040517f08c379a000000000000000000000000000000000000000000000000000000000815260040161220b90613e93565b60405180910390fd5b6000339050600080612226838a6127b4565b915091506122e4828a60405180608001604052808b73ffffffffffffffffffffffffffffffffffffffff1681526020018573ffffffffffffffffffffffffffffffffffffffff1681526020018a815260200189898080601f016020809104026020016040519081016040528093929190818152602001838380828437600081840152601f19601f820116905080830192505050505050508152506040516020016122d09190613afe565b60405160208183030381529060405261296f565b7f40143e5b72b2109d658cfa709dec6213f60364dbd08b7253cdaf5f4e0c49561c8884888c8b8660405161231d96959493929190613fb8565b60405180910390a1505050505050505050565b3373ffffffffffffffffffffffffffffffffffffffff1661234f611162565b73ffffffffffffffffffffffffffffffffffffffff16146123a5576040517f08c379a000000000000000000000000000000000000000000000000000000000815260040161239c90613691565b60405180910390fd5b600073ffffffffffffffffffffffffffffffffffffffff168173ffffffffffffffffffffffffffffffffffffffff161415612415576040517f08c379a000000000000000000000000000000000000000000000000000000000815260040161240c906140b4565b60405180910390fd5b61241e81612b2b565b50565b600073ffffffffffffffffffffffffffffffffffffffff1660008054906101000a900473ffffffffffffffffffffffffffffffffffffffff1673ffffffffffffffffffffffffffffffffffffffff16146124b0576040517f08c379a00000000000000000000000000000000000000000000000000000000081526004016124a790614120565b60405180910390fd5b6124b933612b2b565b565b6124c3610f2f565b612502576040517f08c379a00000000000000000000000000000000000000000000000000000000081526004016124f99061418c565b60405180910390fd5b6000600160146101000a81548160ff0219169083151502179055507f5db9ee0a495bf2e6ff9c91a7834c1ba4fdd244a5e8aa4e537bd38aeae4b073aa612546612bef565b6040516125539190612f27565b60405180910390a1565b61256681610d2a565b6125a5576040517f08c379a000000000000000000000000000000000000000000000000000000000815260040161259c906141f8565b60405180910390fd5b6000600260008373ffffffffffffffffffffffffffffffffffffffff1673ffffffffffffffffffffffffffffffffffffffff16815260200190815260200160002060006101000a81548160ff0219169083151502179055507fcd265ebaf09df2871cc7bd4133404a235ba12eff2041bb89d9c714a2621c7c7e8160405161262c9190612f27565b60405180910390a150565b61264081610d2a565b15612680576040517f08c379a000000000000000000000000000000000000000000000000000000000815260040161267790614264565b60405180910390fd5b6001600260008373ffffffffffffffffffffffffffffffffffffffff1673ffffffffffffffffffffffffffffffffffffffff16815260200190815260200160002060006101000a81548160ff0219169083151502179055507f6719d08c1888103bea251a4ed56406bd0c3e69723c8a1686e017e7bbe159b6f8816040516127079190612f27565b60405180910390a150565b61271a610f2f565b1561275a576040517f08c379a000000000000000000000000000000000000000000000000000000000815260040161275190613e93565b60405180910390fd5b60018060146101000a81548160ff0219169083151502179055507f62e78cea01bee320cd4e420270b5ea74000d11b0c9f74754ebdbfc544b05a25861279d612bef565b6040516127aa9190612f27565b60405180910390a1565b600080600460008467ffffffffffffffff1667ffffffffffffffff16815260200190815260200160002060009054906101000a900473ffffffffffffffffffffffffffffffffffffffff169150600073ffffffffffffffffffffffffffffffffffffffff168273ffffffffffffffffffffffffffffffffffffffff161415612871576040517f08c379a0000000000000000000000000000000000000000000000000000000008152600401612868906142d0565b60405180910390fd5b600560008573ffffffffffffffffffffffffffffffffffffffff1673ffffffffffffffffffffffffffffffffffffffff16815260200190815260200160002060008467ffffffffffffffff1667ffffffffffffffff16815260200190815260200160002060009054906101000a900473ffffffffffffffffffffffffffffffffffffffff169050600073ffffffffffffffffffffffffffffffffffffffff168173ffffffffffffffffffffffffffffffffffffffff161415612968576040517f08c379a000000000000000000000000000000000000000000000000000000000815260040161295f9061433c565b60405180910390fd5b9250929050565b6000600160009054906101000a900473ffffffffffffffffffffffffffffffffffffffff1673ffffffffffffffffffffffffffffffffffffffff16635335dca2836040518263ffffffff1660e01b81526004016129cc9190613b75565b60206040518083038186803b1580156129e457600080fd5b505afa1580156129f8573d6000803e3d6000fd5b505050506040513d601f19601f82011682018060405250810190612a1c9190613bac565b9050600360008467ffffffffffffffff1667ffffffffffffffff1681526020019081526020016000205481612a519190613bd9565b341015612a93576040517f08c379a0000000000000000000000000000000000000000000000000000000008152600401612a8a906143a8565b60405180910390fd5b600160009054906101000a900473ffffffffffffffffffffffffffffffffffffffff1673ffffffffffffffffffffffffffffffffffffffff16639f3ce55a828686866040518563ffffffff1660e01b8152600401612af393929190614403565b6000604051808303818588803b158015612b0c57600080fd5b505af1158015612b20573d6000803e3d6000fd5b505050505050505050565b60008060009054906101000a900473ffffffffffffffffffffffffffffffffffffffff169050816000806101000a81548173ffffffffffffffffffffffffffffffffffffffff021916908373ffffffffffffffffffffffffffffffffffffffff1602179055508173ffffffffffffffffffffffffffffffffffffffff168173ffffffffffffffffffffffffffffffffffffffff167f8be0079c531659141344cd1fd0a4f28419497f9722a3daafe3b4186f6b6457e060405160405180910390a35050565b600033905090565b6000604051905090565b600080fd5b600080fd5b600073ffffffffffffffffffffffffffffffffffffffff82169050919050565b6000612c3682612c0b565b9050919050565b612c4681612c2b565b8114612c5157600080fd5b50565b600081359050612c6381612c3d565b92915050565b600060208284031215612c7f57612c7e612c01565b5b6000612c8d84828501612c54565b91505092915050565b6000819050919050565b612ca981612c96565b8114612cb457600080fd5b50565b600081359050612cc681612ca0565b92915050565b600080fd5b600080fd5b600080fd5b60008083601f840112612cf157612cf0612ccc565b5b8235905067ffffffffffffffff811115612d0e57612d0d612cd1565b5b602083019150836001820283011115612d2a57612d29612cd6565b5b9250929050565b600080600080600060808688031215612d4d57612d4c612c01565b5b6000612d5b88828901612c54565b9550506020612d6c88828901612cb7565b945050604086013567ffffffffffffffff811115612d8d57612d8c612c06565b5b612d9988828901612cdb565b93509350506060612dac88828901612c54565b9150509295509295909350565b7f4e487b7100000000000000000000000000000000000000000000000000000000600052602160045260246000fd5b60038110612df957612df8612db9565b5b50565b6000819050612e0a82612de8565b919050565b6000612e1a82612dfc565b9050919050565b612e2a81612e0f565b82525050565b6000602082019050612e456000830184612e21565b92915050565b60008115159050919050565b612e6081612e4b565b82525050565b6000602082019050612e7b6000830184612e57565b92915050565b600067ffffffffffffffff82169050919050565b612e9e81612e81565b8114612ea957600080fd5b50565b600081359050612ebb81612e95565b92915050565b600060208284031215612ed757612ed6612c01565b5b6000612ee584828501612eac565b91505092915050565b612ef781612c96565b82525050565b6000602082019050612f126000830184612eee565b92915050565b612f2181612c2b565b82525050565b6000602082019050612f3c6000830184612f18565b92915050565b60008083601f840112612f5857612f57612ccc565b5b8235905067ffffffffffffffff811115612f7557612f74612cd1565b5b602083019150836020820283011115612f9157612f90612cd6565b5b9250929050565b60008083601f840112612fae57612fad612ccc565b5b8235905067ffffffffffffffff811115612fcb57612fca612cd1565b5b602083019150836020820283011115612fe757612fe6612cd6565b5b9250929050565b60008060008060006060868803121561300a57613009612c01565b5b600061301888828901612c54565b955050602086013567ffffffffffffffff81111561303957613038612c06565b5b61304588828901612f42565b9450945050604086013567ffffffffffffffff81111561306857613067612c06565b5b61307488828901612f98565b92509250509295509295909350565b6000806000806040858703121561309d5761309c612c01565b5b600085013567ffffffffffffffff8111156130bb576130ba612c06565b5b6130c787828801612f42565b9450945050602085013567ffffffffffffffff8111156130ea576130e9612c06565b5b6130f687828801612f98565b925092505092959194509250565b600080600080600080600060c0888a03121561312357613122612c01565b5b60006131318a828b01612c54565b97505060206131428a828b01612c54565b96505060406131538a828b01612cb7565b95505060606131648a828b01612eac565b945050608088013567ffffffffffffffff81111561318557613184612c06565b5b6131918a828b01612cdb565b935093505060a06131a48a828b01612c54565b91505092959891949750929550565b6000806000606084860312156131cc576131cb612c01565b5b60006131da86828701612c54565b93505060206131eb86828701612eac565b92505060406131fc86828701612c54565b9150509250925092565b60008060006060848603121561321f5761321e612c01565b5b600061322d86828701612eac565b935050602061323e86828701612c54565b925050604061324f86828701612cb7565b9150509250925092565b600080fd5b6000601f19601f8301169050919050565b7f4e487b7100000000000000000000000000000000000000000000000000000000600052604160045260246000fd5b6132a78261325e565b810181811067ffffffffffffffff821117156132c6576132c561326f565b5b80604052505050565b60006132d9612bf7565b90506132e5828261329e565b919050565b600067ffffffffffffffff8211156133055761330461326f565b5b61330e8261325e565b9050602081019050919050565b82818337600083830152505050565b600061333d613338846132ea565b6132cf565b90508281526020810184848401111561335957613358613259565b5b61336484828561331b565b509392505050565b600082601f83011261338157613380612ccc565b5b813561339184826020860161332a565b91505092915050565b600080600080608085870312156133b4576133b3612c01565b5b60006133c287828801612c54565b94505060206133d387828801612eac565b935050604085013567ffffffffffffffff8111156133f4576133f3612c06565b5b6134008782880161336c565b925050606061341187828801612c54565b91505092959194509250565b6000806040838503121561343457613433612c01565b5b600061344285828601612c54565b925050602061345385828601612eac565b9150509250929050565b6000806040838503121561347457613473612c01565b5b600061348285828601612eac565b925050602061349385828601612cb7565b9150509250929050565b600080600080608085870312156134b7576134b6612c01565b5b60006134c587828801612c54565b94505060206134d687828801612cb7565b93505060406134e787828801612eac565b92505060606134f887828801612c54565b91505092959194509250565b6000806040838503121561351b5761351a612c01565b5b600061352985828601612eac565b925050602061353a85828601612c54565b9150509250929050565b60008083601f84011261355a57613559612ccc565b5b8235905067ffffffffffffffff81111561357757613576612cd1565b5b60208301915083600182028301111561359357613592612cd6565b5b9250929050565b60008060008060008060a087890312156135b7576135b6612c01565b5b60006135c589828a01612eac565b96505060206135d689828a01612c54565b95505060406135e789828a01612c54565b94505060606135f889828a01612cb7565b935050608087013567ffffffffffffffff81111561361957613618612c06565b5b61362589828a01613544565b92509250509295509295509295565b600082825260208201905092915050565b7f4f776e61626c653a2063616c6c6572206973206e6f7420746865206f776e6572600082015250565b600061367b602083613634565b915061368682613645565b602082019050919050565b600060208201905081810360008301526136aa8161366e565b9050919050565b60006040820190506136c66000830185612f18565b6136d36020830184612e57565b9392505050565b7f63616c6c6572206973206e6f74206d6573736167652062757300000000000000600082015250565b6000613710601983613634565b915061371b826136da565b602082019050919050565b6000602082019050818103600083015261373f81613703565b9050919050565b7f6c656e677468206d69736d617463680000000000000000000000000000000000600082015250565b600061377c600f83613634565b915061378782613746565b602082019050919050565b600060208201905081810360008301526137ab8161376f565b9050919050565b7f4e487b7100000000000000000000000000000000000000000000000000000000600052603260045260246000fd5b7f4e487b7100000000000000000000000000000000000000000000000000000000600052601160045260246000fd5b600061381b82612c96565b91507fffffffffffffffffffffffffffffffffffffffffffffffffffffffffffffffff82141561384e5761384d6137e1565b5b600182019050919050565b7f43616c6c6572206973206e6f7420706175736572000000000000000000000000600082015250565b600061388f601483613634565b915061389a82613859565b602082019050919050565b600060208201905081810360008301526138be81613882565b9050919050565b6138ce81612e81565b82525050565b60006060820190506138e96000830186612f18565b6138f660208301856138c5565b6139036040830184612f18565b949350505050565b600067ffffffffffffffff8211156139265761392561326f565b5b61392f8261325e565b9050602081019050919050565b60005b8381101561395a57808201518184015260208101905061393f565b83811115613969576000848401525b50505050565b600061398261397d8461390b565b6132cf565b90508281526020810184848401111561399e5761399d613259565b5b6139a984828561393c565b509392505050565b600082601f8301126139c6576139c5612ccc565b5b81516139d684826020860161396f565b91505092915050565b6000602082840312156139f5576139f4612c01565b5b600082015167ffffffffffffffff811115613a1357613a12612c06565b5b613a1f848285016139b1565b91505092915050565b613a3181612c2b565b82525050565b613a4081612c96565b82525050565b600081519050919050565b600082825260208201905092915050565b6000613a6d82613a46565b613a778185613a51565b9350613a8781856020860161393c565b613a908161325e565b840191505092915050565b6000608083016000830151613ab36000860182613a28565b506020830151613ac66020860182613a28565b506040830151613ad96040860182613a37565b5060608301518482036060860152613af18282613a62565b9150508091505092915050565b60006020820190508181036000830152613b188184613a9b565b905092915050565b600081519050919050565b600082825260208201905092915050565b6000613b4782613b20565b613b518185613b2b565b9350613b6181856020860161393c565b613b6a8161325e565b840191505092915050565b60006020820190508181036000830152613b8f8184613b3c565b905092915050565b600081519050613ba681612ca0565b92915050565b600060208284031215613bc257613bc1612c01565b5b6000613bd084828501613b97565b91505092915050565b6000613be482612c96565b9150613bef83612c96565b9250827fffffffffffffffffffffffffffffffffffffffffffffffffffffffffffffffff03821115613c2457613c236137e1565b5b828201905092915050565b600080fd5b600080fd5b600081519050613c4881612c3d565b92915050565b600060808284031215613c6457613c63613c2f565b5b613c6e60806132cf565b90506000613c7e84828501613c39565b6000830152506020613c9284828501613c39565b6020830152506040613ca684828501613b97565b604083015250606082015167ffffffffffffffff811115613cca57613cc9613c34565b5b613cd6848285016139b1565b60608301525092915050565b600060208284031215613cf857613cf7612c01565b5b600082015167ffffffffffffffff811115613d1657613d15612c06565b5b613d2284828501613c4e565b91505092915050565b6000606082019050613d406000830186612f18565b613d4d6020830185612f18565b613d5a6040830184612eee565b949350505050565b6000613d6d82613a46565b613d778185613634565b9350613d8781856020860161393c565b613d908161325e565b840191505092915050565b6000606082019050613db06000830186612f18565b613dbd6020830185612eee565b8181036040830152613dcf8184613d62565b9050949350505050565b6000608082019050613dee6000830187612f18565b613dfb6020830186612f18565b613e086040830185612eee565b613e1560608301846138c5565b95945050505050565b6000604082019050613e3360008301856138c5565b613e406020830184612eee565b9392505050565b7f5061757361626c653a2070617573656400000000000000000000000000000000600082015250565b6000613e7d601083613634565b9150613e8882613e47565b602082019050919050565b60006020820190508181036000830152613eac81613e70565b9050919050565b600060208284031215613ec957613ec8612c01565b5b6000613ed784828501613c39565b91505092915050565b7f6e6f7420746f6b656e206f776e65720000000000000000000000000000000000600082015250565b6000613f16600f83613634565b9150613f2182613ee0565b602082019050919050565b60006020820190508181036000830152613f4581613f09565b9050919050565b7f7472616e73666572204e4654206661696c656400000000000000000000000000600082015250565b6000613f82601383613634565b9150613f8d82613f4c565b602082019050919050565b60006020820190508181036000830152613fb181613f75565b9050919050565b600060c082019050613fcd6000830189612f18565b613fda6020830188612f18565b613fe76040830187612eee565b613ff460608301866138c5565b6140016080830185612f18565b61400e60a0830184612f18565b979650505050505050565b600060408201905061402e60008301856138c5565b61403b6020830184612f18565b9392505050565b7f4f776e61626c653a206e6577206f776e657220697320746865207a65726f206160008201527f6464726573730000000000000000000000000000000000000000000000000000602082015250565b600061409e602683613634565b91506140a982614042565b604082019050919050565b600060208201905081810360008301526140cd81614091565b9050919050565b7f6f776e657220616c726561647920736574000000000000000000000000000000600082015250565b600061410a601183613634565b9150614115826140d4565b602082019050919050565b60006020820190508181036000830152614139816140fd565b9050919050565b7f5061757361626c653a206e6f7420706175736564000000000000000000000000600082015250565b6000614176601483613634565b915061418182614140565b602082019050919050565b600060208201905081810360008301526141a581614169565b9050919050565b7f4163636f756e74206973206e6f74207061757365720000000000000000000000600082015250565b60006141e2601583613634565b91506141ed826141ac565b602082019050919050565b60006020820190508181036000830152614211816141d5565b9050919050565b7f4163636f756e7420697320616c72656164792070617573657200000000000000600082015250565b600061424e601983613634565b915061425982614218565b602082019050919050565b6000602082019050818103600083015261427d81614241565b9050919050565b7f64657374204e465420427269646765206e6f7420666f756e6400000000000000600082015250565b60006142ba601983613634565b91506142c582614284565b602082019050919050565b600060208201905081810360008301526142e9816142ad565b9050919050565b7f64657374204e4654206e6f7420666f756e640000000000000000000000000000600082015250565b6000614326601283613634565b9150614331826142f0565b602082019050919050565b6000602082019050818103600083015261435581614319565b9050919050565b7f696e73756666696369656e742066656500000000000000000000000000000000600082015250565b6000614392601083613634565b915061439d8261435c565b602082019050919050565b600060208201905081810360008301526143c181614385565b9050919050565b6000819050919050565b60006143ed6143e86143e384612e81565b6143c8565b612c96565b9050919050565b6143fd816143d2565b82525050565b60006060820190506144186000830186612f18565b61442560208301856143f4565b81810360408301526144378184613b3c565b905094935050505056fea2646970667358221220233e69aa794be7dd5cddc07e8095c008f995781a6f7d085059630107df333bbd64736f6c63430008090033",
					"opcodes": "PUSH1 0x80 PUSH1 0x40 MSTORE CALLVALUE DUP1 ISZERO PUSH3 0x11 JUMPI PUSH1 0x0 DUP1 REVERT JUMPDEST POP PUSH1 0x40 MLOAD PUSH3 0x4892 CODESIZE SUB DUP1 PUSH3 0x4892 DUP4 CODECOPY DUP2 DUP2 ADD PUSH1 0x40 MSTORE DUP2 ADD SWAP1 PUSH3 0x37 SWAP2 SWAP1 PUSH3 0x328 JUMP JUMPDEST PUSH3 0x48 CALLER PUSH3 0xBC PUSH1 0x20 SHL PUSH1 0x20 SHR JUMP JUMPDEST PUSH1 0x0 PUSH1 0x1 PUSH1 0x14 PUSH2 0x100 EXP DUP2 SLOAD DUP2 PUSH1 0xFF MUL NOT AND SWAP1 DUP4 ISZERO ISZERO MUL OR SWAP1 SSTORE POP PUSH3 0x74 CALLER PUSH3 0x180 PUSH1 0x20 SHL PUSH1 0x20 SHR JUMP JUMPDEST DUP1 PUSH1 0x1 PUSH1 0x0 PUSH2 0x100 EXP DUP2 SLOAD DUP2 PUSH20 0xFFFFFFFFFFFFFFFFFFFFFFFFFFFFFFFFFFFFFFFF MUL NOT AND SWAP1 DUP4 PUSH20 0xFFFFFFFFFFFFFFFFFFFFFFFFFFFFFFFFFFFFFFFF AND MUL OR SWAP1 SSTORE POP POP PUSH3 0x40B JUMP JUMPDEST PUSH1 0x0 DUP1 PUSH1 0x0 SWAP1 SLOAD SWAP1 PUSH2 0x100 EXP SWAP1 DIV PUSH20 0xFFFFFFFFFFFFFFFFFFFFFFFFFFFFFFFFFFFFFFFF AND SWAP1 POP DUP2 PUSH1 0x0 DUP1 PUSH2 0x100 EXP DUP2 SLOAD DUP2 PUSH20 0xFFFFFFFFFFFFFFFFFFFFFFFFFFFFFFFFFFFFFFFF MUL NOT AND SWAP1 DUP4 PUSH20 0xFFFFFFFFFFFFFFFFFFFFFFFFFFFFFFFFFFFFFFFF AND MUL OR SWAP1 SSTORE POP DUP2 PUSH20 0xFFFFFFFFFFFFFFFFFFFFFFFFFFFFFFFFFFFFFFFF AND DUP2 PUSH20 0xFFFFFFFFFFFFFFFFFFFFFFFFFFFFFFFFFFFFFFFF AND PUSH32 0x8BE0079C531659141344CD1FD0A4F28419497F9722A3DAAFE3B4186F6B6457E0 PUSH1 0x40 MLOAD PUSH1 0x40 MLOAD DUP1 SWAP2 SUB SWAP1 LOG3 POP POP JUMP JUMPDEST PUSH3 0x191 DUP2 PUSH3 0x268 PUSH1 0x20 SHL PUSH1 0x20 SHR JUMP JUMPDEST ISZERO PUSH3 0x1D4 JUMPI PUSH1 0x40 MLOAD PUSH32 0x8C379A000000000000000000000000000000000000000000000000000000000 DUP2 MSTORE PUSH1 0x4 ADD PUSH3 0x1CB SWAP1 PUSH3 0x3BB JUMP JUMPDEST PUSH1 0x40 MLOAD DUP1 SWAP2 SUB SWAP1 REVERT JUMPDEST PUSH1 0x1 PUSH1 0x2 PUSH1 0x0 DUP4 PUSH20 0xFFFFFFFFFFFFFFFFFFFFFFFFFFFFFFFFFFFFFFFF AND PUSH20 0xFFFFFFFFFFFFFFFFFFFFFFFFFFFFFFFFFFFFFFFF AND DUP2 MSTORE PUSH1 0x20 ADD SWAP1 DUP2 MSTORE PUSH1 0x20 ADD PUSH1 0x0 KECCAK256 PUSH1 0x0 PUSH2 0x100 EXP DUP2 SLOAD DUP2 PUSH1 0xFF MUL NOT AND SWAP1 DUP4 ISZERO ISZERO MUL OR SWAP1 SSTORE POP PUSH32 0x6719D08C1888103BEA251A4ED56406BD0C3E69723C8A1686E017E7BBE159B6F8 DUP2 PUSH1 0x40 MLOAD PUSH3 0x25D SWAP2 SWAP1 PUSH3 0x3EE JUMP JUMPDEST PUSH1 0x40 MLOAD DUP1 SWAP2 SUB SWAP1 LOG1 POP JUMP JUMPDEST PUSH1 0x0 PUSH1 0x2 PUSH1 0x0 DUP4 PUSH20 0xFFFFFFFFFFFFFFFFFFFFFFFFFFFFFFFFFFFFFFFF AND PUSH20 0xFFFFFFFFFFFFFFFFFFFFFFFFFFFFFFFFFFFFFFFF AND DUP2 MSTORE PUSH1 0x20 ADD SWAP1 DUP2 MSTORE PUSH1 0x20 ADD PUSH1 0x0 KECCAK256 PUSH1 0x0 SWAP1 SLOAD SWAP1 PUSH2 0x100 EXP SWAP1 DIV PUSH1 0xFF AND SWAP1 POP SWAP2 SWAP1 POP JUMP JUMPDEST PUSH1 0x0 DUP1 REVERT JUMPDEST PUSH1 0x0 PUSH20 0xFFFFFFFFFFFFFFFFFFFFFFFFFFFFFFFFFFFFFFFF DUP3 AND SWAP1 POP SWAP2 SWAP1 POP JUMP JUMPDEST PUSH1 0x0 PUSH3 0x2F0 DUP3 PUSH3 0x2C3 JUMP JUMPDEST SWAP1 POP SWAP2 SWAP1 POP JUMP JUMPDEST PUSH3 0x302 DUP2 PUSH3 0x2E3 JUMP JUMPDEST DUP2 EQ PUSH3 0x30E JUMPI PUSH1 0x0 DUP1 REVERT JUMPDEST POP JUMP JUMPDEST PUSH1 0x0 DUP2 MLOAD SWAP1 POP PUSH3 0x322 DUP2 PUSH3 0x2F7 JUMP JUMPDEST SWAP3 SWAP2 POP POP JUMP JUMPDEST PUSH1 0x0 PUSH1 0x20 DUP3 DUP5 SUB SLT ISZERO PUSH3 0x341 JUMPI PUSH3 0x340 PUSH3 0x2BE JUMP JUMPDEST JUMPDEST PUSH1 0x0 PUSH3 0x351 DUP5 DUP3 DUP6 ADD PUSH3 0x311 JUMP JUMPDEST SWAP2 POP POP SWAP3 SWAP2 POP POP JUMP JUMPDEST PUSH1 0x0 DUP3 DUP3 MSTORE PUSH1 0x20 DUP3 ADD SWAP1 POP SWAP3 SWAP2 POP POP JUMP JUMPDEST PUSH32 0x4163636F756E7420697320616C72656164792070617573657200000000000000 PUSH1 0x0 DUP3 ADD MSTORE POP JUMP JUMPDEST PUSH1 0x0 PUSH3 0x3A3 PUSH1 0x19 DUP4 PUSH3 0x35A JUMP JUMPDEST SWAP2 POP PUSH3 0x3B0 DUP3 PUSH3 0x36B JUMP JUMPDEST PUSH1 0x20 DUP3 ADD SWAP1 POP SWAP2 SWAP1 POP JUMP JUMPDEST PUSH1 0x0 PUSH1 0x20 DUP3 ADD SWAP1 POP DUP2 DUP2 SUB PUSH1 0x0 DUP4 ADD MSTORE PUSH3 0x3D6 DUP2 PUSH3 0x394 JUMP JUMPDEST SWAP1 POP SWAP2 SWAP1 POP JUMP JUMPDEST PUSH3 0x3E8 DUP2 PUSH3 0x2E3 JUMP JUMPDEST DUP3 MSTORE POP POP JUMP JUMPDEST PUSH1 0x0 PUSH1 0x20 DUP3 ADD SWAP1 POP PUSH3 0x405 PUSH1 0x0 DUP4 ADD DUP5 PUSH3 0x3DD JUMP JUMPDEST SWAP3 SWAP2 POP POP JUMP JUMPDEST PUSH2 0x4477 DUP1 PUSH3 0x41B PUSH1 0x0 CODECOPY PUSH1 0x0 RETURN INVALID PUSH1 0x80 PUSH1 0x40 MSTORE PUSH1 0x4 CALLDATASIZE LT PUSH2 0x1E3 JUMPI PUSH1 0x0 CALLDATALOAD PUSH1 0xE0 SHR DUP1 PUSH4 0x80F51C12 GT PUSH2 0x102 JUMPI DUP1 PUSH4 0x9E041B9D GT PUSH2 0x95 JUMPI DUP1 PUSH4 0xDA754F44 GT PUSH2 0x64 JUMPI DUP1 PUSH4 0xDA754F44 EQ PUSH2 0x6BD JUMPI DUP1 PUSH4 0xED99BF43 EQ PUSH2 0x6E6 JUMPI DUP1 PUSH4 0xF0CB57CE EQ PUSH2 0x70F JUMPI DUP1 PUSH4 0xF2FDE38B EQ PUSH2 0x72B JUMPI PUSH2 0x1E3 JUMP JUMPDEST DUP1 PUSH4 0x9E041B9D EQ PUSH2 0x610 JUMPI DUP1 PUSH4 0x9F825F07 EQ PUSH2 0x64D JUMPI DUP1 PUSH4 0xA1A227FA EQ PUSH2 0x676 JUMPI DUP1 PUSH4 0xB2C88775 EQ PUSH2 0x6A1 JUMPI PUSH2 0x1E3 JUMP JUMPDEST DUP1 PUSH4 0x95B6A191 GT PUSH2 0xD1 JUMPI DUP1 PUSH4 0x95B6A191 EQ PUSH2 0x563 JUMPI DUP1 PUSH4 0x99D32FC4 EQ PUSH2 0x58C JUMPI DUP1 PUSH4 0x9C1A65BD EQ PUSH2 0x5A3 JUMPI DUP1 PUSH4 0x9C649FDF EQ PUSH2 0x5E0 JUMPI PUSH2 0x1E3 JUMP JUMPDEST DUP1 PUSH4 0x80F51C12 EQ PUSH2 0x4BB JUMPI DUP1 PUSH4 0x82DC1EC4 EQ PUSH2 0x4F8 JUMPI DUP1 PUSH4 0x8456CB59 EQ PUSH2 0x521 JUMPI DUP1 PUSH4 0x8DA5CB5B EQ PUSH2 0x538 JUMPI PUSH2 0x1E3 JUMP JUMPDEST DUP1 PUSH4 0x43A8C137 GT PUSH2 0x17A JUMPI DUP1 PUSH4 0x5C975ABB GT PUSH2 0x149 JUMPI DUP1 PUSH4 0x5C975ABB EQ PUSH2 0x420 JUMPI DUP1 PUSH4 0x6B2C0F55 EQ PUSH2 0x44B JUMPI DUP1 PUSH4 0x6EF8D66D EQ PUSH2 0x474 JUMPI DUP1 PUSH4 0x7CD2BFFC EQ PUSH2 0x48B JUMPI PUSH2 0x1E3 JUMP JUMPDEST DUP1 PUSH4 0x43A8C137 EQ PUSH2 0x361 JUMPI DUP1 PUSH4 0x46FBF68E EQ PUSH2 0x38A JUMPI DUP1 PUSH4 0x547CAD12 EQ PUSH2 0x3C7 JUMPI DUP1 PUSH4 0x5AB7AFC6 EQ PUSH2 0x3F0 JUMPI PUSH2 0x1E3 JUMP JUMPDEST DUP1 PUSH4 0x19AB453C GT PUSH2 0x1B6 JUMPI DUP1 PUSH4 0x19AB453C EQ PUSH2 0x2BB JUMPI DUP1 PUSH4 0x27CBE705 EQ PUSH2 0x2E4 JUMPI DUP1 PUSH4 0x2D5FA47C EQ PUSH2 0x321 JUMPI DUP1 PUSH4 0x3F4BA83A EQ PUSH2 0x34A JUMPI PUSH2 0x1E3 JUMP JUMPDEST DUP1 PUSH4 0x65C38FD EQ PUSH2 0x1E8 JUMPI DUP1 PUSH4 0xBCB4982 EQ PUSH2 0x211 JUMPI DUP1 PUSH4 0x1140C84E EQ PUSH2 0x241 JUMPI DUP1 PUSH4 0x151FF4EB EQ PUSH2 0x27E JUMPI JUMPDEST PUSH1 0x0 DUP1 REVERT JUMPDEST CALLVALUE DUP1 ISZERO PUSH2 0x1F4 JUMPI PUSH1 0x0 DUP1 REVERT JUMPDEST POP PUSH2 0x20F PUSH1 0x4 DUP1 CALLDATASIZE SUB DUP2 ADD SWAP1 PUSH2 0x20A SWAP2 SWAP1 PUSH2 0x2C69 JUMP JUMPDEST PUSH2 0x754 JUMP JUMPDEST STOP JUMPDEST PUSH2 0x22B PUSH1 0x4 DUP1 CALLDATASIZE SUB DUP2 ADD SWAP1 PUSH2 0x226 SWAP2 SWAP1 PUSH2 0x2D31 JUMP JUMPDEST PUSH2 0x85E JUMP JUMPDEST PUSH1 0x40 MLOAD PUSH2 0x238 SWAP2 SWAP1 PUSH2 0x2E30 JUMP JUMPDEST PUSH1 0x40 MLOAD DUP1 SWAP2 SUB SWAP1 RETURN JUMPDEST CALLVALUE DUP1 ISZERO PUSH2 0x24D JUMPI PUSH1 0x0 DUP1 REVERT JUMPDEST POP PUSH2 0x268 PUSH1 0x4 DUP1 CALLDATASIZE SUB DUP2 ADD SWAP1 PUSH2 0x263 SWAP2 SWAP1 PUSH2 0x2C69 JUMP JUMPDEST PUSH2 0x8F9 JUMP JUMPDEST PUSH1 0x40 MLOAD PUSH2 0x275 SWAP2 SWAP1 PUSH2 0x2E66 JUMP JUMPDEST PUSH1 0x40 MLOAD DUP1 SWAP2 SUB SWAP1 RETURN JUMPDEST CALLVALUE DUP1 ISZERO PUSH2 0x28A JUMPI PUSH1 0x0 DUP1 REVERT JUMPDEST POP PUSH2 0x2A5 PUSH1 0x4 DUP1 CALLDATASIZE SUB DUP2 ADD SWAP1 PUSH2 0x2A0 SWAP2 SWAP1 PUSH2 0x2EC1 JUMP JUMPDEST PUSH2 0x919 JUMP JUMPDEST PUSH1 0x40 MLOAD PUSH2 0x2B2 SWAP2 SWAP1 PUSH2 0x2EFD JUMP JUMPDEST PUSH1 0x40 MLOAD DUP1 SWAP2 SUB SWAP1 RETURN JUMPDEST CALLVALUE DUP1 ISZERO PUSH2 0x2C7 JUMPI PUSH1 0x0 DUP1 REVERT JUMPDEST POP PUSH2 0x2E2 PUSH1 0x4 DUP1 CALLDATASIZE SUB DUP2 ADD SWAP1 PUSH2 0x2DD SWAP2 SWAP1 PUSH2 0x2C69 JUMP JUMPDEST PUSH2 0x931 JUMP JUMPDEST STOP JUMPDEST CALLVALUE DUP1 ISZERO PUSH2 0x2F0 JUMPI PUSH1 0x0 DUP1 REVERT JUMPDEST POP PUSH2 0x30B PUSH1 0x4 DUP1 CALLDATASIZE SUB DUP2 ADD SWAP1 PUSH2 0x306 SWAP2 SWAP1 PUSH2 0x2EC1 JUMP JUMPDEST PUSH2 0x97D JUMP JUMPDEST PUSH1 0x40 MLOAD PUSH2 0x318 SWAP2 SWAP1 PUSH2 0x2F27 JUMP JUMPDEST PUSH1 0x40 MLOAD DUP1 SWAP2 SUB SWAP1 RETURN JUMPDEST CALLVALUE DUP1 ISZERO PUSH2 0x32D JUMPI PUSH1 0x0 DUP1 REVERT JUMPDEST POP PUSH2 0x348 PUSH1 0x4 DUP1 CALLDATASIZE SUB DUP2 ADD SWAP1 PUSH2 0x343 SWAP2 SWAP1 PUSH2 0x2FEE JUMP JUMPDEST PUSH2 0x9B0 JUMP JUMPDEST STOP JUMPDEST CALLVALUE DUP1 ISZERO PUSH2 0x356 JUMPI PUSH1 0x0 DUP1 REVERT JUMPDEST POP PUSH2 0x35F PUSH2 0xB87 JUMP JUMPDEST STOP JUMPDEST CALLVALUE DUP1 ISZERO PUSH2 0x36D JUMPI PUSH1 0x0 DUP1 REVERT JUMPDEST POP PUSH2 0x388 PUSH1 0x4 DUP1 CALLDATASIZE SUB DUP2 ADD SWAP1 PUSH2 0x383 SWAP2 SWAP1 PUSH2 0x3083 JUMP JUMPDEST PUSH2 0xBD9 JUMP JUMPDEST STOP JUMPDEST CALLVALUE DUP1 ISZERO PUSH2 0x396 JUMPI PUSH1 0x0 DUP1 REVERT JUMPDEST POP PUSH2 0x3B1 PUSH1 0x4 DUP1 CALLDATASIZE SUB DUP2 ADD SWAP1 PUSH2 0x3AC SWAP2 SWAP1 PUSH2 0x2C69 JUMP JUMPDEST PUSH2 0xD2A JUMP JUMPDEST PUSH1 0x40 MLOAD PUSH2 0x3BE SWAP2 SWAP1 PUSH2 0x2E66 JUMP JUMPDEST PUSH1 0x40 MLOAD DUP1 SWAP2 SUB SWAP1 RETURN JUMPDEST CALLVALUE DUP1 ISZERO PUSH2 0x3D3 JUMPI PUSH1 0x0 DUP1 REVERT JUMPDEST POP PUSH2 0x3EE PUSH1 0x4 DUP1 CALLDATASIZE SUB DUP2 ADD SWAP1 PUSH2 0x3E9 SWAP2 SWAP1 PUSH2 0x2C69 JUMP JUMPDEST PUSH2 0xD80 JUMP JUMPDEST STOP JUMPDEST PUSH2 0x40A PUSH1 0x4 DUP1 CALLDATASIZE SUB DUP2 ADD SWAP1 PUSH2 0x405 SWAP2 SWAP1 PUSH2 0x3104 JUMP JUMPDEST PUSH2 0xE92 JUMP JUMPDEST PUSH1 0x40 MLOAD PUSH2 0x417 SWAP2 SWAP1 PUSH2 0x2E30 JUMP JUMPDEST PUSH1 0x40 MLOAD DUP1 SWAP2 SUB SWAP1 RETURN JUMPDEST CALLVALUE DUP1 ISZERO PUSH2 0x42C JUMPI PUSH1 0x0 DUP1 REVERT JUMPDEST POP PUSH2 0x435 PUSH2 0xF2F JUMP JUMPDEST PUSH1 0x40 MLOAD PUSH2 0x442 SWAP2 SWAP1 PUSH2 0x2E66 JUMP JUMPDEST PUSH1 0x40 MLOAD DUP1 SWAP2 SUB SWAP1 RETURN JUMPDEST CALLVALUE DUP1 ISZERO PUSH2 0x457 JUMPI PUSH1 0x0 DUP1 REVERT JUMPDEST POP PUSH2 0x472 PUSH1 0x4 DUP1 CALLDATASIZE SUB DUP2 ADD SWAP1 PUSH2 0x46D SWAP2 SWAP1 PUSH2 0x2C69 JUMP JUMPDEST PUSH2 0xF46 JUMP JUMPDEST STOP JUMPDEST CALLVALUE DUP1 ISZERO PUSH2 0x480 JUMPI PUSH1 0x0 DUP1 REVERT JUMPDEST POP PUSH2 0x489 PUSH2 0xFC7 JUMP JUMPDEST STOP JUMPDEST PUSH2 0x4A5 PUSH1 0x4 DUP1 CALLDATASIZE SUB DUP2 ADD SWAP1 PUSH2 0x4A0 SWAP2 SWAP1 PUSH2 0x3104 JUMP JUMPDEST PUSH2 0xFD2 JUMP JUMPDEST PUSH1 0x40 MLOAD PUSH2 0x4B2 SWAP2 SWAP1 PUSH2 0x2E30 JUMP JUMPDEST PUSH1 0x40 MLOAD DUP1 SWAP2 SUB SWAP1 RETURN JUMPDEST CALLVALUE DUP1 ISZERO PUSH2 0x4C7 JUMPI PUSH1 0x0 DUP1 REVERT JUMPDEST POP PUSH2 0x4E2 PUSH1 0x4 DUP1 CALLDATASIZE SUB DUP2 ADD SWAP1 PUSH2 0x4DD SWAP2 SWAP1 PUSH2 0x2C69 JUMP JUMPDEST PUSH2 0x106F JUMP JUMPDEST PUSH1 0x40 MLOAD PUSH2 0x4EF SWAP2 SWAP1 PUSH2 0x2E66 JUMP JUMPDEST PUSH1 0x40 MLOAD DUP1 SWAP2 SUB SWAP1 RETURN JUMPDEST CALLVALUE DUP1 ISZERO PUSH2 0x504 JUMPI PUSH1 0x0 DUP1 REVERT JUMPDEST POP PUSH2 0x51F PUSH1 0x4 DUP1 CALLDATASIZE SUB DUP2 ADD SWAP1 PUSH2 0x51A SWAP2 SWAP1 PUSH2 0x2C69 JUMP JUMPDEST PUSH2 0x108F JUMP JUMPDEST STOP JUMPDEST CALLVALUE DUP1 ISZERO PUSH2 0x52D JUMPI PUSH1 0x0 DUP1 REVERT JUMPDEST POP PUSH2 0x536 PUSH2 0x1110 JUMP JUMPDEST STOP JUMPDEST CALLVALUE DUP1 ISZERO PUSH2 0x544 JUMPI PUSH1 0x0 DUP1 REVERT JUMPDEST POP PUSH2 0x54D PUSH2 0x1162 JUMP JUMPDEST PUSH1 0x40 MLOAD PUSH2 0x55A SWAP2 SWAP1 PUSH2 0x2F27 JUMP JUMPDEST PUSH1 0x40 MLOAD DUP1 SWAP2 SUB SWAP1 RETURN JUMPDEST CALLVALUE DUP1 ISZERO PUSH2 0x56F JUMPI PUSH1 0x0 DUP1 REVERT JUMPDEST POP PUSH2 0x58A PUSH1 0x4 DUP1 CALLDATASIZE SUB DUP2 ADD SWAP1 PUSH2 0x585 SWAP2 SWAP1 PUSH2 0x31B3 JUMP JUMPDEST PUSH2 0x118B JUMP JUMPDEST STOP JUMPDEST CALLVALUE DUP1 ISZERO PUSH2 0x598 JUMPI PUSH1 0x0 DUP1 REVERT JUMPDEST POP PUSH2 0x5A1 PUSH2 0x12E3 JUMP JUMPDEST STOP JUMPDEST CALLVALUE DUP1 ISZERO PUSH2 0x5AF JUMPI PUSH1 0x0 DUP1 REVERT JUMPDEST POP PUSH2 0x5CA PUSH1 0x4 DUP1 CALLDATASIZE SUB DUP2 ADD SWAP1 PUSH2 0x5C5 SWAP2 SWAP1 PUSH2 0x3206 JUMP JUMPDEST PUSH2 0x13DE JUMP JUMPDEST PUSH1 0x40 MLOAD PUSH2 0x5D7 SWAP2 SWAP1 PUSH2 0x2EFD JUMP JUMPDEST PUSH1 0x40 MLOAD DUP1 SWAP2 SUB SWAP1 RETURN JUMPDEST PUSH2 0x5FA PUSH1 0x4 DUP1 CALLDATASIZE SUB DUP2 ADD SWAP1 PUSH2 0x5F5 SWAP2 SWAP1 PUSH2 0x339A JUMP JUMPDEST PUSH2 0x15C9 JUMP JUMPDEST PUSH1 0x40 MLOAD PUSH2 0x607 SWAP2 SWAP1 PUSH2 0x2E30 JUMP JUMPDEST PUSH1 0x40 MLOAD DUP1 SWAP2 SUB SWAP1 RETURN JUMPDEST CALLVALUE DUP1 ISZERO PUSH2 0x61C JUMPI PUSH1 0x0 DUP1 REVERT JUMPDEST POP PUSH2 0x637 PUSH1 0x4 DUP1 CALLDATASIZE SUB DUP2 ADD SWAP1 PUSH2 0x632 SWAP2 SWAP1 PUSH2 0x341D JUMP JUMPDEST PUSH2 0x199D JUMP JUMPDEST PUSH1 0x40 MLOAD PUSH2 0x644 SWAP2 SWAP1 PUSH2 0x2F27 JUMP JUMPDEST PUSH1 0x40 MLOAD DUP1 SWAP2 SUB SWAP1 RETURN JUMPDEST CALLVALUE DUP1 ISZERO PUSH2 0x659 JUMPI PUSH1 0x0 DUP1 REVERT JUMPDEST POP PUSH2 0x674 PUSH1 0x4 DUP1 CALLDATASIZE SUB DUP2 ADD SWAP1 PUSH2 0x66F SWAP2 SWAP1 PUSH2 0x345D JUMP JUMPDEST PUSH2 0x19DF JUMP JUMPDEST STOP JUMPDEST CALLVALUE DUP1 ISZERO PUSH2 0x682 JUMPI PUSH1 0x0 DUP1 REVERT JUMPDEST POP PUSH2 0x68B PUSH2 0x1ABD JUMP JUMPDEST PUSH1 0x40 MLOAD PUSH2 0x698 SWAP2 SWAP1 PUSH2 0x2F27 JUMP JUMPDEST PUSH1 0x40 MLOAD DUP1 SWAP2 SUB SWAP1 RETURN JUMPDEST PUSH2 0x6BB PUSH1 0x4 DUP1 CALLDATASIZE SUB DUP2 ADD SWAP1 PUSH2 0x6B6 SWAP2 SWAP1 PUSH2 0x349D JUMP JUMPDEST PUSH2 0x1AE3 JUMP JUMPDEST STOP JUMPDEST CALLVALUE DUP1 ISZERO PUSH2 0x6C9 JUMPI PUSH1 0x0 DUP1 REVERT JUMPDEST POP PUSH2 0x6E4 PUSH1 0x4 DUP1 CALLDATASIZE SUB DUP2 ADD SWAP1 PUSH2 0x6DF SWAP2 SWAP1 PUSH2 0x3504 JUMP JUMPDEST PUSH2 0x1FB3 JUMP JUMPDEST STOP JUMPDEST CALLVALUE DUP1 ISZERO PUSH2 0x6F2 JUMPI PUSH1 0x0 DUP1 REVERT JUMPDEST POP PUSH2 0x70D PUSH1 0x4 DUP1 CALLDATASIZE SUB DUP2 ADD SWAP1 PUSH2 0x708 SWAP2 SWAP1 PUSH2 0x2C69 JUMP JUMPDEST PUSH2 0x20CB JUMP JUMPDEST STOP JUMPDEST PUSH2 0x729 PUSH1 0x4 DUP1 CALLDATASIZE SUB DUP2 ADD SWAP1 PUSH2 0x724 SWAP2 SWAP1 PUSH2 0x359A JUMP JUMPDEST PUSH2 0x21CC JUMP JUMPDEST STOP JUMPDEST CALLVALUE DUP1 ISZERO PUSH2 0x737 JUMPI PUSH1 0x0 DUP1 REVERT JUMPDEST POP PUSH2 0x752 PUSH1 0x4 DUP1 CALLDATASIZE SUB DUP2 ADD SWAP1 PUSH2 0x74D SWAP2 SWAP1 PUSH2 0x2C69 JUMP JUMPDEST PUSH2 0x2330 JUMP JUMPDEST STOP JUMPDEST CALLER PUSH20 0xFFFFFFFFFFFFFFFFFFFFFFFFFFFFFFFFFFFFFFFF AND PUSH2 0x773 PUSH2 0x1162 JUMP JUMPDEST PUSH20 0xFFFFFFFFFFFFFFFFFFFFFFFFFFFFFFFFFFFFFFFF AND EQ PUSH2 0x7C9 JUMPI PUSH1 0x40 MLOAD PUSH32 0x8C379A000000000000000000000000000000000000000000000000000000000 DUP2 MSTORE PUSH1 0x4 ADD PUSH2 0x7C0 SWAP1 PUSH2 0x3691 JUMP JUMPDEST PUSH1 0x40 MLOAD DUP1 SWAP2 SUB SWAP1 REVERT JUMPDEST PUSH1 0x1 PUSH1 0x6 PUSH1 0x0 DUP4 PUSH20 0xFFFFFFFFFFFFFFFFFFFFFFFFFFFFFFFFFFFFFFFF AND PUSH20 0xFFFFFFFFFFFFFFFFFFFFFFFFFFFFFFFFFFFFFFFF AND DUP2 MSTORE PUSH1 0x20 ADD SWAP1 DUP2 MSTORE PUSH1 0x20 ADD PUSH1 0x0 KECCAK256 PUSH1 0x0 PUSH2 0x100 EXP DUP2 SLOAD DUP2 PUSH1 0xFF MUL NOT AND SWAP1 DUP4 ISZERO ISZERO MUL OR SWAP1 SSTORE POP PUSH32 0x9800FB32BF5EB9A3B2E42C910912DA10ED1881DC538475101797669146166BF8 DUP2 PUSH1 0x1 PUSH1 0x40 MLOAD PUSH2 0x853 SWAP3 SWAP2 SWAP1 PUSH2 0x36B1 JUMP JUMPDEST PUSH1 0x40 MLOAD DUP1 SWAP2 SUB SWAP1 LOG1 POP JUMP JUMPDEST PUSH1 0x0 PUSH1 0x1 PUSH1 0x0 SWAP1 SLOAD SWAP1 PUSH2 0x100 EXP SWAP1 DIV PUSH20 0xFFFFFFFFFFFFFFFFFFFFFFFFFFFFFFFFFFFFFFFF AND PUSH20 0xFFFFFFFFFFFFFFFFFFFFFFFFFFFFFFFFFFFFFFFF AND CALLER PUSH20 0xFFFFFFFFFFFFFFFFFFFFFFFFFFFFFFFFFFFFFFFF AND EQ PUSH2 0x8F0 JUMPI PUSH1 0x40 MLOAD PUSH32 0x8C379A000000000000000000000000000000000000000000000000000000000 DUP2 MSTORE PUSH1 0x4 ADD PUSH2 0x8E7 SWAP1 PUSH2 0x3726 JUMP JUMPDEST PUSH1 0x40 MLOAD DUP1 SWAP2 SUB SWAP1 REVERT JUMPDEST SWAP6 SWAP5 POP POP POP POP POP JUMP JUMPDEST PUSH1 0x6 PUSH1 0x20 MSTORE DUP1 PUSH1 0x0 MSTORE PUSH1 0x40 PUSH1 0x0 KECCAK256 PUSH1 0x0 SWAP2 POP SLOAD SWAP1 PUSH2 0x100 EXP SWAP1 DIV PUSH1 0xFF AND DUP2 JUMP JUMPDEST PUSH1 0x3 PUSH1 0x20 MSTORE DUP1 PUSH1 0x0 MSTORE PUSH1 0x40 PUSH1 0x0 KECCAK256 PUSH1 0x0 SWAP2 POP SWAP1 POP SLOAD DUP2 JUMP JUMPDEST PUSH2 0x939 PUSH2 0x2421 JUMP JUMPDEST DUP1 PUSH1 0x1 PUSH1 0x0 PUSH2 0x100 EXP DUP2 SLOAD DUP2 PUSH20 0xFFFFFFFFFFFFFFFFFFFFFFFFFFFFFFFFFFFFFFFF MUL NOT AND SWAP1 DUP4 PUSH20 0xFFFFFFFFFFFFFFFFFFFFFFFFFFFFFFFFFFFFFFFF AND MUL OR SWAP1 SSTORE POP POP JUMP JUMPDEST PUSH1 0x4 PUSH1 0x20 MSTORE DUP1 PUSH1 0x0 MSTORE PUSH1 0x40 PUSH1 0x0 KECCAK256 PUSH1 0x0 SWAP2 POP SLOAD SWAP1 PUSH2 0x100 EXP SWAP1 DIV PUSH20 0xFFFFFFFFFFFFFFFFFFFFFFFFFFFFFFFFFFFFFFFF AND DUP2 JUMP JUMPDEST CALLER PUSH20 0xFFFFFFFFFFFFFFFFFFFFFFFFFFFFFFFFFFFFFFFF AND PUSH2 0x9CF PUSH2 0x1162 JUMP JUMPDEST PUSH20 0xFFFFFFFFFFFFFFFFFFFFFFFFFFFFFFFFFFFFFFFF AND EQ PUSH2 0xA25 JUMPI PUSH1 0x40 MLOAD PUSH32 0x8C379A000000000000000000000000000000000000000000000000000000000 DUP2 MSTORE PUSH1 0x4 ADD PUSH2 0xA1C SWAP1 PUSH2 0x3691 JUMP JUMPDEST PUSH1 0x40 MLOAD DUP1 SWAP2 SUB SWAP1 REVERT JUMPDEST DUP2 DUP2 SWAP1 POP DUP5 DUP5 SWAP1 POP EQ PUSH2 0xA6D JUMPI PUSH1 0x40 MLOAD PUSH32 0x8C379A000000000000000000000000000000000000000000000000000000000 DUP2 MSTORE PUSH1 0x4 ADD PUSH2 0xA64 SWAP1 PUSH2 0x3792 JUMP JUMPDEST PUSH1 0x40 MLOAD DUP1 SWAP2 SUB SWAP1 REVERT JUMPDEST PUSH1 0x0 JUMPDEST DUP5 DUP5 SWAP1 POP DUP2 LT ISZERO PUSH2 0xB7F JUMPI DUP3 DUP3 DUP3 DUP2 DUP2 LT PUSH2 0xA8E JUMPI PUSH2 0xA8D PUSH2 0x37B2 JUMP JUMPDEST JUMPDEST SWAP1 POP PUSH1 0x20 MUL ADD PUSH1 0x20 DUP2 ADD SWAP1 PUSH2 0xAA3 SWAP2 SWAP1 PUSH2 0x2C69 JUMP JUMPDEST PUSH1 0x5 PUSH1 0x0 DUP9 PUSH20 0xFFFFFFFFFFFFFFFFFFFFFFFFFFFFFFFFFFFFFFFF AND PUSH20 0xFFFFFFFFFFFFFFFFFFFFFFFFFFFFFFFFFFFFFFFF AND DUP2 MSTORE PUSH1 0x20 ADD SWAP1 DUP2 MSTORE PUSH1 0x20 ADD PUSH1 0x0 KECCAK256 PUSH1 0x0 DUP8 DUP8 DUP6 DUP2 DUP2 LT PUSH2 0xAF7 JUMPI PUSH2 0xAF6 PUSH2 0x37B2 JUMP JUMPDEST JUMPDEST SWAP1 POP PUSH1 0x20 MUL ADD PUSH1 0x20 DUP2 ADD SWAP1 PUSH2 0xB0C SWAP2 SWAP1 PUSH2 0x2EC1 JUMP JUMPDEST PUSH8 0xFFFFFFFFFFFFFFFF AND PUSH8 0xFFFFFFFFFFFFFFFF AND DUP2 MSTORE PUSH1 0x20 ADD SWAP1 DUP2 MSTORE PUSH1 0x20 ADD PUSH1 0x0 KECCAK256 PUSH1 0x0 PUSH2 0x100 EXP DUP2 SLOAD DUP2 PUSH20 0xFFFFFFFFFFFFFFFFFFFFFFFFFFFFFFFFFFFFFFFF MUL NOT AND SWAP1 DUP4 PUSH20 0xFFFFFFFFFFFFFFFFFFFFFFFFFFFFFFFFFFFFFFFF AND MUL OR SWAP1 SSTORE POP DUP1 DUP1 PUSH2 0xB77 SWAP1 PUSH2 0x3810 JUMP JUMPDEST SWAP2 POP POP PUSH2 0xA70 JUMP JUMPDEST POP POP POP POP POP POP JUMP JUMPDEST PUSH2 0xB90 CALLER PUSH2 0xD2A JUMP JUMPDEST PUSH2 0xBCF JUMPI PUSH1 0x40 MLOAD PUSH32 0x8C379A000000000000000000000000000000000000000000000000000000000 DUP2 MSTORE PUSH1 0x4 ADD PUSH2 0xBC6 SWAP1 PUSH2 0x38A5 JUMP JUMPDEST PUSH1 0x40 MLOAD DUP1 SWAP2 SUB SWAP1 REVERT JUMPDEST PUSH2 0xBD7 PUSH2 0x24BB JUMP JUMPDEST JUMP JUMPDEST CALLER PUSH20 0xFFFFFFFFFFFFFFFFFFFFFFFFFFFFFFFFFFFFFFFF AND PUSH2 0xBF8 PUSH2 0x1162 JUMP JUMPDEST PUSH20 0xFFFFFFFFFFFFFFFFFFFFFFFFFFFFFFFFFFFFFFFF AND EQ PUSH2 0xC4E JUMPI PUSH1 0x40 MLOAD PUSH32 0x8C379A000000000000000000000000000000000000000000000000000000000 DUP2 MSTORE PUSH1 0x4 ADD PUSH2 0xC45 SWAP1 PUSH2 0x3691 JUMP JUMPDEST PUSH1 0x40 MLOAD DUP1 SWAP2 SUB SWAP1 REVERT JUMPDEST PUSH1 0x0 JUMPDEST DUP5 DUP5 SWAP1 POP DUP2 LT ISZERO PUSH2 0xD23 JUMPI DUP3 DUP3 DUP3 DUP2 DUP2 LT PUSH2 0xC6F JUMPI PUSH2 0xC6E PUSH2 0x37B2 JUMP JUMPDEST JUMPDEST SWAP1 POP PUSH1 0x20 MUL ADD PUSH1 0x20 DUP2 ADD SWAP1 PUSH2 0xC84 SWAP2 SWAP1 PUSH2 0x2C69 JUMP JUMPDEST PUSH1 0x4 PUSH1 0x0 DUP8 DUP8 DUP6 DUP2 DUP2 LT PUSH2 0xC9B JUMPI PUSH2 0xC9A PUSH2 0x37B2 JUMP JUMPDEST JUMPDEST SWAP1 POP PUSH1 0x20 MUL ADD PUSH1 0x20 DUP2 ADD SWAP1 PUSH2 0xCB0 SWAP2 SWAP1 PUSH2 0x2EC1 JUMP JUMPDEST PUSH8 0xFFFFFFFFFFFFFFFF AND PUSH8 0xFFFFFFFFFFFFFFFF AND DUP2 MSTORE PUSH1 0x20 ADD SWAP1 DUP2 MSTORE PUSH1 0x20 ADD PUSH1 0x0 KECCAK256 PUSH1 0x0 PUSH2 0x100 EXP DUP2 SLOAD DUP2 PUSH20 0xFFFFFFFFFFFFFFFFFFFFFFFFFFFFFFFFFFFFFFFF MUL NOT AND SWAP1 DUP4 PUSH20 0xFFFFFFFFFFFFFFFFFFFFFFFFFFFFFFFFFFFFFFFF AND MUL OR SWAP1 SSTORE POP DUP1 DUP1 PUSH2 0xD1B SWAP1 PUSH2 0x3810 JUMP JUMPDEST SWAP2 POP POP PUSH2 0xC51 JUMP JUMPDEST POP POP POP POP POP JUMP JUMPDEST PUSH1 0x0 PUSH1 0x2 PUSH1 0x0 DUP4 PUSH20 0xFFFFFFFFFFFFFFFFFFFFFFFFFFFFFFFFFFFFFFFF AND PUSH20 0xFFFFFFFFFFFFFFFFFFFFFFFFFFFFFFFFFFFFFFFF AND DUP2 MSTORE PUSH1 0x20 ADD SWAP1 DUP2 MSTORE PUSH1 0x20 ADD PUSH1 0x0 KECCAK256 PUSH1 0x0 SWAP1 SLOAD SWAP1 PUSH2 0x100 EXP SWAP1 DIV PUSH1 0xFF AND SWAP1 POP SWAP2 SWAP1 POP JUMP JUMPDEST CALLER PUSH20 0xFFFFFFFFFFFFFFFFFFFFFFFFFFFFFFFFFFFFFFFF AND PUSH2 0xD9F PUSH2 0x1162 JUMP JUMPDEST PUSH20 0xFFFFFFFFFFFFFFFFFFFFFFFFFFFFFFFFFFFFFFFF AND EQ PUSH2 0xDF5 JUMPI PUSH1 0x40 MLOAD PUSH32 0x8C379A000000000000000000000000000000000000000000000000000000000 DUP2 MSTORE PUSH1 0x4 ADD PUSH2 0xDEC SWAP1 PUSH2 0x3691 JUMP JUMPDEST PUSH1 0x40 MLOAD DUP1 SWAP2 SUB SWAP1 REVERT JUMPDEST DUP1 PUSH1 0x1 PUSH1 0x0 PUSH2 0x100 EXP DUP2 SLOAD DUP2 PUSH20 0xFFFFFFFFFFFFFFFFFFFFFFFFFFFFFFFFFFFFFFFF MUL NOT AND SWAP1 DUP4 PUSH20 0xFFFFFFFFFFFFFFFFFFFFFFFFFFFFFFFFFFFFFFFF AND MUL OR SWAP1 SSTORE POP PUSH32 0x3F8223BCD8B3B875473E9F9E14E1AD075451A2B5FFD31591655DA9A01516BF5E PUSH1 0x1 PUSH1 0x0 SWAP1 SLOAD SWAP1 PUSH2 0x100 EXP SWAP1 DIV PUSH20 0xFFFFFFFFFFFFFFFFFFFFFFFFFFFFFFFFFFFFFFFF AND PUSH1 0x40 MLOAD PUSH2 0xE87 SWAP2 SWAP1 PUSH2 0x2F27 JUMP JUMPDEST PUSH1 0x40 MLOAD DUP1 SWAP2 SUB SWAP1 LOG1 POP JUMP JUMPDEST PUSH1 0x0 PUSH1 0x1 PUSH1 0x0 SWAP1 SLOAD SWAP1 PUSH2 0x100 EXP SWAP1 DIV PUSH20 0xFFFFFFFFFFFFFFFFFFFFFFFFFFFFFFFFFFFFFFFF AND PUSH20 0xFFFFFFFFFFFFFFFFFFFFFFFFFFFFFFFFFFFFFFFF AND CALLER PUSH20 0xFFFFFFFFFFFFFFFFFFFFFFFFFFFFFFFFFFFFFFFF AND EQ PUSH2 0xF24 JUMPI PUSH1 0x40 MLOAD PUSH32 0x8C379A000000000000000000000000000000000000000000000000000000000 DUP2 MSTORE PUSH1 0x4 ADD PUSH2 0xF1B SWAP1 PUSH2 0x3726 JUMP JUMPDEST PUSH1 0x40 MLOAD DUP1 SWAP2 SUB SWAP1 REVERT JUMPDEST SWAP8 SWAP7 POP POP POP POP POP POP POP JUMP JUMPDEST PUSH1 0x0 PUSH1 0x1 PUSH1 0x14 SWAP1 SLOAD SWAP1 PUSH2 0x100 EXP SWAP1 DIV PUSH1 0xFF AND SWAP1 POP SWAP1 JUMP JUMPDEST CALLER PUSH20 0xFFFFFFFFFFFFFFFFFFFFFFFFFFFFFFFFFFFFFFFF AND PUSH2 0xF65 PUSH2 0x1162 JUMP JUMPDEST PUSH20 0xFFFFFFFFFFFFFFFFFFFFFFFFFFFFFFFFFFFFFFFF AND EQ PUSH2 0xFBB JUMPI PUSH1 0x40 MLOAD PUSH32 0x8C379A000000000000000000000000000000000000000000000000000000000 DUP2 MSTORE PUSH1 0x4 ADD PUSH2 0xFB2 SWAP1 PUSH2 0x3691 JUMP JUMPDEST PUSH1 0x40 MLOAD DUP1 SWAP2 SUB SWAP1 REVERT JUMPDEST PUSH2 0xFC4 DUP2 PUSH2 0x255D JUMP JUMPDEST POP JUMP JUMPDEST PUSH2 0xFD0 CALLER PUSH2 0x255D JUMP JUMPDEST JUMP JUMPDEST PUSH1 0x0 PUSH1 0x1 PUSH1 0x0 SWAP1 SLOAD SWAP1 PUSH2 0x100 EXP SWAP1 DIV PUSH20 0xFFFFFFFFFFFFFFFFFFFFFFFFFFFFFFFFFFFFFFFF AND PUSH20 0xFFFFFFFFFFFFFFFFFFFFFFFFFFFFFFFFFFFFFFFF AND CALLER PUSH20 0xFFFFFFFFFFFFFFFFFFFFFFFFFFFFFFFFFFFFFFFF AND EQ PUSH2 0x1064 JUMPI PUSH1 0x40 MLOAD PUSH32 0x8C379A000000000000000000000000000000000000000000000000000000000 DUP2 MSTORE PUSH1 0x4 ADD PUSH2 0x105B SWAP1 PUSH2 0x3726 JUMP JUMPDEST PUSH1 0x40 MLOAD DUP1 SWAP2 SUB SWAP1 REVERT JUMPDEST SWAP8 SWAP7 POP POP POP POP POP POP POP JUMP JUMPDEST PUSH1 0x2 PUSH1 0x20 MSTORE DUP1 PUSH1 0x0 MSTORE PUSH1 0x40 PUSH1 0x0 KECCAK256 PUSH1 0x0 SWAP2 POP SLOAD SWAP1 PUSH2 0x100 EXP SWAP1 DIV PUSH1 0xFF AND DUP2 JUMP JUMPDEST CALLER PUSH20 0xFFFFFFFFFFFFFFFFFFFFFFFFFFFFFFFFFFFFFFFF AND PUSH2 0x10AE PUSH2 0x1162 JUMP JUMPDEST PUSH20 0xFFFFFFFFFFFFFFFFFFFFFFFFFFFFFFFFFFFFFFFF AND EQ PUSH2 0x1104 JUMPI PUSH1 0x40 MLOAD PUSH32 0x8C379A000000000000000000000000000000000000000000000000000000000 DUP2 MSTORE PUSH1 0x4 ADD PUSH2 0x10FB SWAP1 PUSH2 0x3691 JUMP JUMPDEST PUSH1 0x40 MLOAD DUP1 SWAP2 SUB SWAP1 REVERT JUMPDEST PUSH2 0x110D DUP2 PUSH2 0x2637 JUMP JUMPDEST POP JUMP JUMPDEST PUSH2 0x1119 CALLER PUSH2 0xD2A JUMP JUMPDEST PUSH2 0x1158 JUMPI PUSH1 0x40 MLOAD PUSH32 0x8C379A000000000000000000000000000000000000000000000000000000000 DUP2 MSTORE PUSH1 0x4 ADD PUSH2 0x114F SWAP1 PUSH2 0x38A5 JUMP JUMPDEST PUSH1 0x40 MLOAD DUP1 SWAP2 SUB SWAP1 REVERT JUMPDEST PUSH2 0x1160 PUSH2 0x2712 JUMP JUMPDEST JUMP JUMPDEST PUSH1 0x0 DUP1 PUSH1 0x0 SWAP1 SLOAD SWAP1 PUSH2 0x100 EXP SWAP1 DIV PUSH20 0xFFFFFFFFFFFFFFFFFFFFFFFFFFFFFFFFFFFFFFFF AND SWAP1 POP SWAP1 JUMP JUMPDEST CALLER PUSH20 0xFFFFFFFFFFFFFFFFFFFFFFFFFFFFFFFFFFFFFFFF AND PUSH2 0x11AA PUSH2 0x1162 JUMP JUMPDEST PUSH20 0xFFFFFFFFFFFFFFFFFFFFFFFFFFFFFFFFFFFFFFFF AND EQ PUSH2 0x1200 JUMPI PUSH1 0x40 MLOAD PUSH32 0x8C379A000000000000000000000000000000000000000000000000000000000 DUP2 MSTORE PUSH1 0x4 ADD PUSH2 0x11F7 SWAP1 PUSH2 0x3691 JUMP JUMPDEST PUSH1 0x40 MLOAD DUP1 SWAP2 SUB SWAP1 REVERT JUMPDEST DUP1 PUSH1 0x5 PUSH1 0x0 DUP6 PUSH20 0xFFFFFFFFFFFFFFFFFFFFFFFFFFFFFFFFFFFFFFFF AND PUSH20 0xFFFFFFFFFFFFFFFFFFFFFFFFFFFFFFFFFFFFFFFF AND DUP2 MSTORE PUSH1 0x20 ADD SWAP1 DUP2 MSTORE PUSH1 0x20 ADD PUSH1 0x0 KECCAK256 PUSH1 0x0 DUP5 PUSH8 0xFFFFFFFFFFFFFFFF AND PUSH8 0xFFFFFFFFFFFFFFFF AND DUP2 MSTORE PUSH1 0x20 ADD SWAP1 DUP2 MSTORE PUSH1 0x20 ADD PUSH1 0x0 KECCAK256 PUSH1 0x0 PUSH2 0x100 EXP DUP2 SLOAD DUP2 PUSH20 0xFFFFFFFFFFFFFFFFFFFFFFFFFFFFFFFFFFFFFFFF MUL NOT AND SWAP1 DUP4 PUSH20 0xFFFFFFFFFFFFFFFFFFFFFFFFFFFFFFFFFFFFFFFF AND MUL OR SWAP1 SSTORE POP PUSH32 0xA5A9B84F1B7EB437335EA919A3FF6DE6E242E4733D0100A77391106173794871 DUP4 DUP4 DUP4 PUSH1 0x40 MLOAD PUSH2 0x12D6 SWAP4 SWAP3 SWAP2 SWAP1 PUSH2 0x38D4 JUMP JUMPDEST PUSH1 0x40 MLOAD DUP1 SWAP2 SUB SWAP1 LOG1 POP POP POP JUMP JUMPDEST CALLER PUSH20 0xFFFFFFFFFFFFFFFFFFFFFFFFFFFFFFFFFFFFFFFF AND PUSH2 0x1302 PUSH2 0x1162 JUMP JUMPDEST PUSH20 0xFFFFFFFFFFFFFFFFFFFFFFFFFFFFFFFFFFFFFFFF AND EQ PUSH2 0x1358 JUMPI PUSH1 0x40 MLOAD PUSH32 0x8C379A000000000000000000000000000000000000000000000000000000000 DUP2 MSTORE PUSH1 0x4 ADD PUSH2 0x134F SWAP1 PUSH2 0x3691 JUMP JUMPDEST PUSH1 0x40 MLOAD DUP1 SWAP2 SUB SWAP1 REVERT JUMPDEST PUSH1 0x0 SELFBALANCE SWAP1 POP CALLER PUSH20 0xFFFFFFFFFFFFFFFFFFFFFFFFFFFFFFFFFFFFFFFF AND PUSH2 0x8FC DUP3 SWAP1 DUP2 ISZERO MUL SWAP1 PUSH1 0x40 MLOAD PUSH1 0x0 PUSH1 0x40 MLOAD DUP1 DUP4 SUB DUP2 DUP6 DUP9 DUP9 CALL SWAP4 POP POP POP POP ISZERO DUP1 ISZERO PUSH2 0x13A3 JUMPI RETURNDATASIZE PUSH1 0x0 DUP1 RETURNDATACOPY RETURNDATASIZE PUSH1 0x0 REVERT JUMPDEST POP PUSH32 0x62B10E3FF3D45B5FF546E740B893897FACB1680285F989A64AE932D62C5388E1 DUP2 PUSH1 0x40 MLOAD PUSH2 0x13D3 SWAP2 SWAP1 PUSH2 0x2EFD JUMP JUMPDEST PUSH1 0x40 MLOAD DUP1 SWAP2 SUB SWAP1 LOG1 POP JUMP JUMPDEST PUSH1 0x0 DUP1 DUP4 PUSH20 0xFFFFFFFFFFFFFFFFFFFFFFFFFFFFFFFFFFFFFFFF AND PUSH4 0xC87B56DD DUP5 PUSH1 0x40 MLOAD DUP3 PUSH4 0xFFFFFFFF AND PUSH1 0xE0 SHL DUP2 MSTORE PUSH1 0x4 ADD PUSH2 0x141A SWAP2 SWAP1 PUSH2 0x2EFD JUMP JUMPDEST PUSH1 0x0 PUSH1 0x40 MLOAD DUP1 DUP4 SUB DUP2 DUP7 DUP1 EXTCODESIZE ISZERO DUP1 ISZERO PUSH2 0x1432 JUMPI PUSH1 0x0 DUP1 REVERT JUMPDEST POP GAS STATICCALL ISZERO DUP1 ISZERO PUSH2 0x1446 JUMPI RETURNDATASIZE PUSH1 0x0 DUP1 RETURNDATACOPY RETURNDATASIZE PUSH1 0x0 REVERT JUMPDEST POP POP POP POP PUSH1 0x40 MLOAD RETURNDATASIZE PUSH1 0x0 DUP3 RETURNDATACOPY RETURNDATASIZE PUSH1 0x1F NOT PUSH1 0x1F DUP3 ADD AND DUP3 ADD DUP1 PUSH1 0x40 MSTORE POP DUP2 ADD SWAP1 PUSH2 0x146F SWAP2 SWAP1 PUSH2 0x39DF JUMP JUMPDEST SWAP1 POP PUSH1 0x0 PUSH1 0x40 MLOAD DUP1 PUSH1 0x80 ADD PUSH1 0x40 MSTORE DUP1 DUP7 PUSH20 0xFFFFFFFFFFFFFFFFFFFFFFFFFFFFFFFFFFFFFFFF AND DUP2 MSTORE PUSH1 0x20 ADD DUP7 PUSH20 0xFFFFFFFFFFFFFFFFFFFFFFFFFFFFFFFFFFFFFFFF AND DUP2 MSTORE PUSH1 0x20 ADD DUP6 DUP2 MSTORE PUSH1 0x20 ADD DUP4 DUP2 MSTORE POP PUSH1 0x40 MLOAD PUSH1 0x20 ADD PUSH2 0x14D0 SWAP2 SWAP1 PUSH2 0x3AFE JUMP JUMPDEST PUSH1 0x40 MLOAD PUSH1 0x20 DUP2 DUP4 SUB SUB DUP2 MSTORE SWAP1 PUSH1 0x40 MSTORE SWAP1 POP PUSH1 0x3 PUSH1 0x0 DUP8 PUSH8 0xFFFFFFFFFFFFFFFF AND PUSH8 0xFFFFFFFFFFFFFFFF AND DUP2 MSTORE PUSH1 0x20 ADD SWAP1 DUP2 MSTORE PUSH1 0x20 ADD PUSH1 0x0 KECCAK256 SLOAD PUSH1 0x1 PUSH1 0x0 SWAP1 SLOAD SWAP1 PUSH2 0x100 EXP SWAP1 DIV PUSH20 0xFFFFFFFFFFFFFFFFFFFFFFFFFFFFFFFFFFFFFFFF AND PUSH20 0xFFFFFFFFFFFFFFFFFFFFFFFFFFFFFFFFFFFFFFFF AND PUSH4 0x5335DCA2 DUP4 PUSH1 0x40 MLOAD DUP3 PUSH4 0xFFFFFFFF AND PUSH1 0xE0 SHL DUP2 MSTORE PUSH1 0x4 ADD PUSH2 0x1564 SWAP2 SWAP1 PUSH2 0x3B75 JUMP JUMPDEST PUSH1 0x20 PUSH1 0x40 MLOAD DUP1 DUP4 SUB DUP2 DUP7 DUP1 EXTCODESIZE ISZERO DUP1 ISZERO PUSH2 0x157C JUMPI PUSH1 0x0 DUP1 REVERT JUMPDEST POP GAS STATICCALL ISZERO DUP1 ISZERO PUSH2 0x1590 JUMPI RETURNDATASIZE PUSH1 0x0 DUP1 RETURNDATACOPY RETURNDATASIZE PUSH1 0x0 REVERT JUMPDEST POP POP POP POP PUSH1 0x40 MLOAD RETURNDATASIZE PUSH1 0x1F NOT PUSH1 0x1F DUP3 ADD AND DUP3 ADD DUP1 PUSH1 0x40 MSTORE POP DUP2 ADD SWAP1 PUSH2 0x15B4 SWAP2 SWAP1 PUSH2 0x3BAC JUMP JUMPDEST PUSH2 0x15BE SWAP2 SWAP1 PUSH2 0x3BD9 JUMP JUMPDEST SWAP3 POP POP POP SWAP4 SWAP3 POP POP POP JUMP JUMPDEST PUSH1 0x0 PUSH1 0x1 PUSH1 0x0 SWAP1 SLOAD SWAP1 PUSH2 0x100 EXP SWAP1 DIV PUSH20 0xFFFFFFFFFFFFFFFFFFFFFFFFFFFFFFFFFFFFFFFF AND PUSH20 0xFFFFFFFFFFFFFFFFFFFFFFFFFFFFFFFFFFFFFFFF AND CALLER PUSH20 0xFFFFFFFFFFFFFFFFFFFFFFFFFFFFFFFFFFFFFFFF AND EQ PUSH2 0x165B JUMPI PUSH1 0x40 MLOAD PUSH32 0x8C379A000000000000000000000000000000000000000000000000000000000 DUP2 MSTORE PUSH1 0x4 ADD PUSH2 0x1652 SWAP1 PUSH2 0x3726 JUMP JUMPDEST PUSH1 0x40 MLOAD DUP1 SWAP2 SUB SWAP1 REVERT JUMPDEST PUSH2 0x1663 PUSH2 0xF2F JUMP JUMPDEST DUP1 PUSH2 0x16E1 JUMPI POP PUSH1 0x4 PUSH1 0x0 DUP6 PUSH8 0xFFFFFFFFFFFFFFFF AND PUSH8 0xFFFFFFFFFFFFFFFF AND DUP2 MSTORE PUSH1 0x20 ADD SWAP1 DUP2 MSTORE PUSH1 0x20 ADD PUSH1 0x0 KECCAK256 PUSH1 0x0 SWAP1 SLOAD SWAP1 PUSH2 0x100 EXP SWAP1 DIV PUSH20 0xFFFFFFFFFFFFFFFFFFFFFFFFFFFFFFFFFFFFFFFF AND PUSH20 0xFFFFFFFFFFFFFFFFFFFFFFFFFFFFFFFFFFFFFFFF AND DUP6 PUSH20 0xFFFFFFFFFFFFFFFFFFFFFFFFFFFFFFFFFFFFFFFF AND EQ ISZERO JUMPDEST ISZERO PUSH2 0x16EF JUMPI PUSH1 0x2 SWAP1 POP PUSH2 0x1995 JUMP JUMPDEST PUSH1 0x0 DUP4 DUP1 PUSH1 0x20 ADD SWAP1 MLOAD DUP2 ADD SWAP1 PUSH2 0x1705 SWAP2 SWAP1 PUSH2 0x3CE2 JUMP JUMPDEST SWAP1 POP PUSH1 0x1 ISZERO ISZERO PUSH1 0x6 PUSH1 0x0 DUP4 PUSH1 0x20 ADD MLOAD PUSH20 0xFFFFFFFFFFFFFFFFFFFFFFFFFFFFFFFFFFFFFFFF AND PUSH20 0xFFFFFFFFFFFFFFFFFFFFFFFFFFFFFFFFFFFFFFFF AND DUP2 MSTORE PUSH1 0x20 ADD SWAP1 DUP2 MSTORE PUSH1 0x20 ADD PUSH1 0x0 KECCAK256 PUSH1 0x0 SWAP1 SLOAD SWAP1 PUSH2 0x100 EXP SWAP1 DIV PUSH1 0xFF AND ISZERO ISZERO EQ ISZERO PUSH2 0x1855 JUMPI DUP1 PUSH1 0x20 ADD MLOAD PUSH20 0xFFFFFFFFFFFFFFFFFFFFFFFFFFFFFFFFFFFFFFFF AND PUSH4 0x23B872DD ADDRESS DUP4 PUSH1 0x0 ADD MLOAD DUP5 PUSH1 0x40 ADD MLOAD PUSH1 0x40 MLOAD DUP5 PUSH4 0xFFFFFFFF AND PUSH1 0xE0 SHL DUP2 MSTORE PUSH1 0x4 ADD PUSH2 0x17AD SWAP4 SWAP3 SWAP2 SWAP1 PUSH2 0x3D2B JUMP JUMPDEST PUSH1 0x0 PUSH1 0x40 MLOAD DUP1 DUP4 SUB DUP2 PUSH1 0x0 DUP8 DUP1 EXTCODESIZE ISZERO DUP1 ISZERO PUSH2 0x17C7 JUMPI PUSH1 0x0 DUP1 REVERT JUMPDEST POP GAS CALL SWAP3 POP POP POP DUP1 ISZERO PUSH2 0x17D8 JUMPI POP PUSH1 0x1 JUMPDEST PUSH2 0x1850 JUMPI RETURNDATASIZE DUP1 PUSH1 0x0 DUP2 EQ PUSH2 0x1808 JUMPI PUSH1 0x40 MLOAD SWAP2 POP PUSH1 0x1F NOT PUSH1 0x3F RETURNDATASIZE ADD AND DUP3 ADD PUSH1 0x40 MSTORE RETURNDATASIZE DUP3 MSTORE RETURNDATASIZE PUSH1 0x0 PUSH1 0x20 DUP5 ADD RETURNDATACOPY PUSH2 0x180D JUMP JUMPDEST PUSH1 0x60 SWAP2 POP JUMPDEST POP PUSH32 0x2C4D9008B1F58A23591C25A813B398A54F438D50B85BEDEA3D6E7302EE08A810 DUP2 PUSH1 0x40 MLOAD PUSH2 0x183D SWAP2 SWAP1 PUSH2 0x3B75 JUMP JUMPDEST PUSH1 0x40 MLOAD DUP1 SWAP2 SUB SWAP1 LOG1 PUSH1 0x2 SWAP3 POP POP POP PUSH2 0x1995 JUMP JUMPDEST PUSH2 0x1946 JUMP JUMPDEST DUP1 PUSH1 0x20 ADD MLOAD PUSH20 0xFFFFFFFFFFFFFFFFFFFFFFFFFFFFFFFFFFFFFFFF AND PUSH4 0x67D74DE2 DUP3 PUSH1 0x0 ADD MLOAD DUP4 PUSH1 0x40 ADD MLOAD DUP5 PUSH1 0x60 ADD MLOAD PUSH1 0x40 MLOAD DUP5 PUSH4 0xFFFFFFFF AND PUSH1 0xE0 SHL DUP2 MSTORE PUSH1 0x4 ADD PUSH2 0x18A2 SWAP4 SWAP3 SWAP2 SWAP1 PUSH2 0x3D9B JUMP JUMPDEST PUSH1 0x0 PUSH1 0x40 MLOAD DUP1 DUP4 SUB DUP2 PUSH1 0x0 DUP8 DUP1 EXTCODESIZE ISZERO DUP1 ISZERO PUSH2 0x18BC JUMPI PUSH1 0x0 DUP1 REVERT JUMPDEST POP GAS CALL SWAP3 POP POP POP DUP1 ISZERO PUSH2 0x18CD JUMPI POP PUSH1 0x1 JUMPDEST PUSH2 0x1945 JUMPI RETURNDATASIZE DUP1 PUSH1 0x0 DUP2 EQ PUSH2 0x18FD JUMPI PUSH1 0x40 MLOAD SWAP2 POP PUSH1 0x1F NOT PUSH1 0x3F RETURNDATASIZE ADD AND DUP3 ADD PUSH1 0x40 MSTORE RETURNDATASIZE DUP3 MSTORE RETURNDATASIZE PUSH1 0x0 PUSH1 0x20 DUP5 ADD RETURNDATACOPY PUSH2 0x1902 JUMP JUMPDEST PUSH1 0x60 SWAP2 POP JUMPDEST POP PUSH32 0x2C4D9008B1F58A23591C25A813B398A54F438D50B85BEDEA3D6E7302EE08A810 DUP2 PUSH1 0x40 MLOAD PUSH2 0x1932 SWAP2 SWAP1 PUSH2 0x3B75 JUMP JUMPDEST PUSH1 0x40 MLOAD DUP1 SWAP2 SUB SWAP1 LOG1 PUSH1 0x2 SWAP3 POP POP POP PUSH2 0x1995 JUMP JUMPDEST JUMPDEST PUSH32 0xAAC355DB06D21352D6B898D8E0AE1334D55F65B6C4C09E26951166A8EB4DBA7 DUP2 PUSH1 0x0 ADD MLOAD DUP3 PUSH1 0x20 ADD MLOAD DUP4 PUSH1 0x40 ADD MLOAD DUP9 PUSH1 0x40 MLOAD PUSH2 0x1987 SWAP5 SWAP4 SWAP3 SWAP2 SWAP1 PUSH2 0x3DD9 JUMP JUMPDEST PUSH1 0x40 MLOAD DUP1 SWAP2 SUB SWAP1 LOG1 PUSH1 0x1 SWAP2 POP POP JUMPDEST SWAP5 SWAP4 POP POP POP POP JUMP JUMPDEST PUSH1 0x5 PUSH1 0x20 MSTORE DUP2 PUSH1 0x0 MSTORE PUSH1 0x40 PUSH1 0x0 KECCAK256 PUSH1 0x20 MSTORE DUP1 PUSH1 0x0 MSTORE PUSH1 0x40 PUSH1 0x0 KECCAK256 PUSH1 0x0 SWAP2 POP SWAP2 POP SWAP1 SLOAD SWAP1 PUSH2 0x100 EXP SWAP1 DIV PUSH20 0xFFFFFFFFFFFFFFFFFFFFFFFFFFFFFFFFFFFFFFFF AND DUP2 JUMP JUMPDEST CALLER PUSH20 0xFFFFFFFFFFFFFFFFFFFFFFFFFFFFFFFFFFFFFFFF AND PUSH2 0x19FE PUSH2 0x1162 JUMP JUMPDEST PUSH20 0xFFFFFFFFFFFFFFFFFFFFFFFFFFFFFFFFFFFFFFFF AND EQ PUSH2 0x1A54 JUMPI PUSH1 0x40 MLOAD PUSH32 0x8C379A000000000000000000000000000000000000000000000000000000000 DUP2 MSTORE PUSH1 0x4 ADD PUSH2 0x1A4B SWAP1 PUSH2 0x3691 JUMP JUMPDEST PUSH1 0x40 MLOAD DUP1 SWAP2 SUB SWAP1 REVERT JUMPDEST DUP1 PUSH1 0x3 PUSH1 0x0 DUP5 PUSH8 0xFFFFFFFFFFFFFFFF AND PUSH8 0xFFFFFFFFFFFFFFFF AND DUP2 MSTORE PUSH1 0x20 ADD SWAP1 DUP2 MSTORE PUSH1 0x20 ADD PUSH1 0x0 KECCAK256 DUP2 SWAP1 SSTORE POP PUSH32 0x446A287C2114FA54D0083D97CE8F6F15B2CE29FA1C2DF4B5A580D581EA7C4AD3 DUP3 DUP3 PUSH1 0x40 MLOAD PUSH2 0x1AB1 SWAP3 SWAP2 SWAP1 PUSH2 0x3E1E JUMP JUMPDEST PUSH1 0x40 MLOAD DUP1 SWAP2 SUB SWAP1 LOG1 POP POP JUMP JUMPDEST PUSH1 0x1 PUSH1 0x0 SWAP1 SLOAD SWAP1 PUSH2 0x100 EXP SWAP1 DIV PUSH20 0xFFFFFFFFFFFFFFFFFFFFFFFFFFFFFFFFFFFFFFFF AND DUP2 JUMP JUMPDEST PUSH2 0x1AEB PUSH2 0xF2F JUMP JUMPDEST ISZERO PUSH2 0x1B2B JUMPI PUSH1 0x40 MLOAD PUSH32 0x8C379A000000000000000000000000000000000000000000000000000000000 DUP2 MSTORE PUSH1 0x4 ADD PUSH2 0x1B22 SWAP1 PUSH2 0x3E93 JUMP JUMPDEST PUSH1 0x40 MLOAD DUP1 SWAP2 SUB SWAP1 REVERT JUMPDEST DUP4 PUSH20 0xFFFFFFFFFFFFFFFFFFFFFFFFFFFFFFFFFFFFFFFF AND PUSH4 0x6352211E DUP5 PUSH1 0x40 MLOAD DUP3 PUSH4 0xFFFFFFFF AND PUSH1 0xE0 SHL DUP2 MSTORE PUSH1 0x4 ADD PUSH2 0x1B64 SWAP2 SWAP1 PUSH2 0x2EFD JUMP JUMPDEST PUSH1 0x20 PUSH1 0x40 MLOAD DUP1 DUP4 SUB DUP2 DUP7 DUP1 EXTCODESIZE ISZERO DUP1 ISZERO PUSH2 0x1B7C JUMPI PUSH1 0x0 DUP1 REVERT JUMPDEST POP GAS STATICCALL ISZERO DUP1 ISZERO PUSH2 0x1B90 JUMPI RETURNDATASIZE PUSH1 0x0 DUP1 RETURNDATACOPY RETURNDATASIZE PUSH1 0x0 REVERT JUMPDEST POP POP POP POP PUSH1 0x40 MLOAD RETURNDATASIZE PUSH1 0x1F NOT PUSH1 0x1F DUP3 ADD AND DUP3 ADD DUP1 PUSH1 0x40 MSTORE POP DUP2 ADD SWAP1 PUSH2 0x1BB4 SWAP2 SWAP1 PUSH2 0x3EB3 JUMP JUMPDEST PUSH20 0xFFFFFFFFFFFFFFFFFFFFFFFFFFFFFFFFFFFFFFFF AND CALLER PUSH20 0xFFFFFFFFFFFFFFFFFFFFFFFFFFFFFFFFFFFFFFFF AND EQ PUSH2 0x1C21 JUMPI PUSH1 0x40 MLOAD PUSH32 0x8C379A000000000000000000000000000000000000000000000000000000000 DUP2 MSTORE PUSH1 0x4 ADD PUSH2 0x1C18 SWAP1 PUSH2 0x3F2C JUMP JUMPDEST PUSH1 0x40 MLOAD DUP1 SWAP2 SUB SWAP1 REVERT JUMPDEST PUSH1 0x0 DUP5 PUSH20 0xFFFFFFFFFFFFFFFFFFFFFFFFFFFFFFFFFFFFFFFF AND PUSH4 0xC87B56DD DUP6 PUSH1 0x40 MLOAD DUP3 PUSH4 0xFFFFFFFF AND PUSH1 0xE0 SHL DUP2 MSTORE PUSH1 0x4 ADD PUSH2 0x1C5C SWAP2 SWAP1 PUSH2 0x2EFD JUMP JUMPDEST PUSH1 0x0 PUSH1 0x40 MLOAD DUP1 DUP4 SUB DUP2 DUP7 DUP1 EXTCODESIZE ISZERO DUP1 ISZERO PUSH2 0x1C74 JUMPI PUSH1 0x0 DUP1 REVERT JUMPDEST POP GAS STATICCALL ISZERO DUP1 ISZERO PUSH2 0x1C88 JUMPI RETURNDATASIZE PUSH1 0x0 DUP1 RETURNDATACOPY RETURNDATASIZE PUSH1 0x0 REVERT JUMPDEST POP POP POP POP PUSH1 0x40 MLOAD RETURNDATASIZE PUSH1 0x0 DUP3 RETURNDATACOPY RETURNDATASIZE PUSH1 0x1F NOT PUSH1 0x1F DUP3 ADD AND DUP3 ADD DUP1 PUSH1 0x40 MSTORE POP DUP2 ADD SWAP1 PUSH2 0x1CB1 SWAP2 SWAP1 PUSH2 0x39DF JUMP JUMPDEST SWAP1 POP PUSH1 0x1 ISZERO ISZERO PUSH1 0x6 PUSH1 0x0 DUP8 PUSH20 0xFFFFFFFFFFFFFFFFFFFFFFFFFFFFFFFFFFFFFFFF AND PUSH20 0xFFFFFFFFFFFFFFFFFFFFFFFFFFFFFFFFFFFFFFFF AND DUP2 MSTORE PUSH1 0x20 ADD SWAP1 DUP2 MSTORE PUSH1 0x20 ADD PUSH1 0x0 KECCAK256 PUSH1 0x0 SWAP1 SLOAD SWAP1 PUSH2 0x100 EXP SWAP1 DIV PUSH1 0xFF AND ISZERO ISZERO EQ ISZERO PUSH2 0x1E76 JUMPI DUP5 PUSH20 0xFFFFFFFFFFFFFFFFFFFFFFFFFFFFFFFFFFFFFFFF AND PUSH4 0x23B872DD CALLER ADDRESS DUP8 PUSH1 0x40 MLOAD DUP5 PUSH4 0xFFFFFFFF AND PUSH1 0xE0 SHL DUP2 MSTORE PUSH1 0x4 ADD PUSH2 0x1D49 SWAP4 SWAP3 SWAP2 SWAP1 PUSH2 0x3D2B JUMP JUMPDEST PUSH1 0x0 PUSH1 0x40 MLOAD DUP1 DUP4 SUB DUP2 PUSH1 0x0 DUP8 DUP1 EXTCODESIZE ISZERO DUP1 ISZERO PUSH2 0x1D63 JUMPI PUSH1 0x0 DUP1 REVERT JUMPDEST POP GAS CALL ISZERO DUP1 ISZERO PUSH2 0x1D77 JUMPI RETURNDATASIZE PUSH1 0x0 DUP1 RETURNDATACOPY RETURNDATASIZE PUSH1 0x0 REVERT JUMPDEST POP POP POP POP ADDRESS PUSH20 0xFFFFFFFFFFFFFFFFFFFFFFFFFFFFFFFFFFFFFFFF AND DUP6 PUSH20 0xFFFFFFFFFFFFFFFFFFFFFFFFFFFFFFFFFFFFFFFF AND PUSH4 0x6352211E DUP7 PUSH1 0x40 MLOAD DUP3 PUSH4 0xFFFFFFFF AND PUSH1 0xE0 SHL DUP2 MSTORE PUSH1 0x4 ADD PUSH2 0x1DCB SWAP2 SWAP1 PUSH2 0x2EFD JUMP JUMPDEST PUSH1 0x20 PUSH1 0x40 MLOAD DUP1 DUP4 SUB DUP2 DUP7 DUP1 EXTCODESIZE ISZERO DUP1 ISZERO PUSH2 0x1DE3 JUMPI PUSH1 0x0 DUP1 REVERT JUMPDEST POP GAS STATICCALL ISZERO DUP1 ISZERO PUSH2 0x1DF7 JUMPI RETURNDATASIZE PUSH1 0x0 DUP1 RETURNDATACOPY RETURNDATASIZE PUSH1 0x0 REVERT JUMPDEST POP POP POP POP PUSH1 0x40 MLOAD RETURNDATASIZE PUSH1 0x1F NOT PUSH1 0x1F DUP3 ADD AND DUP3 ADD DUP1 PUSH1 0x40 MSTORE POP DUP2 ADD SWAP1 PUSH2 0x1E1B SWAP2 SWAP1 PUSH2 0x3EB3 JUMP JUMPDEST PUSH20 0xFFFFFFFFFFFFFFFFFFFFFFFFFFFFFFFFFFFFFFFF AND EQ PUSH2 0x1E71 JUMPI PUSH1 0x40 MLOAD PUSH32 0x8C379A000000000000000000000000000000000000000000000000000000000 DUP2 MSTORE PUSH1 0x4 ADD PUSH2 0x1E68 SWAP1 PUSH2 0x3F98 JUMP JUMPDEST PUSH1 0x40 MLOAD DUP1 SWAP2 SUB SWAP1 REVERT JUMPDEST PUSH2 0x1EE2 JUMP JUMPDEST DUP5 PUSH20 0xFFFFFFFFFFFFFFFFFFFFFFFFFFFFFFFFFFFFFFFF AND PUSH4 0x42966C68 DUP6 PUSH1 0x40 MLOAD DUP3 PUSH4 0xFFFFFFFF AND PUSH1 0xE0 SHL DUP2 MSTORE PUSH1 0x4 ADD PUSH2 0x1EAF SWAP2 SWAP1 PUSH2 0x2EFD JUMP JUMPDEST PUSH1 0x0 PUSH1 0x40 MLOAD DUP1 DUP4 SUB DUP2 PUSH1 0x0 DUP8 DUP1 EXTCODESIZE ISZERO DUP1 ISZERO PUSH2 0x1EC9 JUMPI PUSH1 0x0 DUP1 REVERT JUMPDEST POP GAS CALL ISZERO DUP1 ISZERO PUSH2 0x1EDD JUMPI RETURNDATASIZE PUSH1 0x0 DUP1 RETURNDATACOPY RETURNDATASIZE PUSH1 0x0 REVERT JUMPDEST POP POP POP POP JUMPDEST PUSH1 0x0 DUP1 PUSH2 0x1EEF DUP8 DUP7 PUSH2 0x27B4 JUMP JUMPDEST SWAP2 POP SWAP2 POP PUSH2 0x1F69 DUP3 DUP7 PUSH1 0x40 MLOAD DUP1 PUSH1 0x80 ADD PUSH1 0x40 MSTORE DUP1 DUP9 PUSH20 0xFFFFFFFFFFFFFFFFFFFFFFFFFFFFFFFFFFFFFFFF AND DUP2 MSTORE PUSH1 0x20 ADD DUP6 PUSH20 0xFFFFFFFFFFFFFFFFFFFFFFFFFFFFFFFFFFFFFFFF AND DUP2 MSTORE PUSH1 0x20 ADD DUP11 DUP2 MSTORE PUSH1 0x20 ADD DUP8 DUP2 MSTORE POP PUSH1 0x40 MLOAD PUSH1 0x20 ADD PUSH2 0x1F55 SWAP2 SWAP1 PUSH2 0x3AFE JUMP JUMPDEST PUSH1 0x40 MLOAD PUSH1 0x20 DUP2 DUP4 SUB SUB DUP2 MSTORE SWAP1 PUSH1 0x40 MSTORE PUSH2 0x296F JUMP JUMPDEST PUSH32 0x40143E5B72B2109D658CFA709DEC6213F60364DBD08B7253CDAF5F4E0C49561C CALLER DUP9 DUP9 DUP9 DUP9 DUP7 PUSH1 0x40 MLOAD PUSH2 0x1FA2 SWAP7 SWAP6 SWAP5 SWAP4 SWAP3 SWAP2 SWAP1 PUSH2 0x3FB8 JUMP JUMPDEST PUSH1 0x40 MLOAD DUP1 SWAP2 SUB SWAP1 LOG1 POP POP POP POP POP POP POP JUMP JUMPDEST CALLER PUSH20 0xFFFFFFFFFFFFFFFFFFFFFFFFFFFFFFFFFFFFFFFF AND PUSH2 0x1FD2 PUSH2 0x1162 JUMP JUMPDEST PUSH20 0xFFFFFFFFFFFFFFFFFFFFFFFFFFFFFFFFFFFFFFFF AND EQ PUSH2 0x2028 JUMPI PUSH1 0x40 MLOAD PUSH32 0x8C379A000000000000000000000000000000000000000000000000000000000 DUP2 MSTORE PUSH1 0x4 ADD PUSH2 0x201F SWAP1 PUSH2 0x3691 JUMP JUMPDEST PUSH1 0x40 MLOAD DUP1 SWAP2 SUB SWAP1 REVERT JUMPDEST DUP1 PUSH1 0x4 PUSH1 0x0 DUP5 PUSH8 0xFFFFFFFFFFFFFFFF AND PUSH8 0xFFFFFFFFFFFFFFFF AND DUP2 MSTORE PUSH1 0x20 ADD SWAP1 DUP2 MSTORE PUSH1 0x20 ADD PUSH1 0x0 KECCAK256 PUSH1 0x0 PUSH2 0x100 EXP DUP2 SLOAD DUP2 PUSH20 0xFFFFFFFFFFFFFFFFFFFFFFFFFFFFFFFFFFFFFFFF MUL NOT AND SWAP1 DUP4 PUSH20 0xFFFFFFFFFFFFFFFFFFFFFFFFFFFFFFFFFFFFFFFF AND MUL OR SWAP1 SSTORE POP PUSH32 0x3E776334B24C927645043308F89AC1CA734002E5A921FF384A70DCBB88C92CD4 DUP3 DUP3 PUSH1 0x40 MLOAD PUSH2 0x20BF SWAP3 SWAP2 SWAP1 PUSH2 0x4019 JUMP JUMPDEST PUSH1 0x40 MLOAD DUP1 SWAP2 SUB SWAP1 LOG1 POP POP JUMP JUMPDEST CALLER PUSH20 0xFFFFFFFFFFFFFFFFFFFFFFFFFFFFFFFFFFFFFFFF AND PUSH2 0x20EA PUSH2 0x1162 JUMP JUMPDEST PUSH20 0xFFFFFFFFFFFFFFFFFFFFFFFFFFFFFFFFFFFFFFFF AND EQ PUSH2 0x2140 JUMPI PUSH1 0x40 MLOAD PUSH32 0x8C379A000000000000000000000000000000000000000000000000000000000 DUP2 MSTORE PUSH1 0x4 ADD PUSH2 0x2137 SWAP1 PUSH2 0x3691 JUMP JUMPDEST PUSH1 0x40 MLOAD DUP1 SWAP2 SUB SWAP1 REVERT JUMPDEST PUSH1 0x6 PUSH1 0x0 DUP3 PUSH20 0xFFFFFFFFFFFFFFFFFFFFFFFFFFFFFFFFFFFFFFFF AND PUSH20 0xFFFFFFFFFFFFFFFFFFFFFFFFFFFFFFFFFFFFFFFF AND DUP2 MSTORE PUSH1 0x20 ADD SWAP1 DUP2 MSTORE PUSH1 0x20 ADD PUSH1 0x0 KECCAK256 PUSH1 0x0 PUSH2 0x100 EXP DUP2 SLOAD SWAP1 PUSH1 0xFF MUL NOT AND SWAP1 SSTORE PUSH32 0x9800FB32BF5EB9A3B2E42C910912DA10ED1881DC538475101797669146166BF8 DUP2 PUSH1 0x0 PUSH1 0x40 MLOAD PUSH2 0x21C1 SWAP3 SWAP2 SWAP1 PUSH2 0x36B1 JUMP JUMPDEST PUSH1 0x40 MLOAD DUP1 SWAP2 SUB SWAP1 LOG1 POP JUMP JUMPDEST PUSH2 0x21D4 PUSH2 0xF2F JUMP JUMPDEST ISZERO PUSH2 0x2214 JUMPI PUSH1 0x40 MLOAD PUSH32 0x8C379A000000000000000000000000000000000000000000000000000000000 DUP2 MSTORE PUSH1 0x4 ADD PUSH2 0x220B SWAP1 PUSH2 0x3E93 JUMP JUMPDEST PUSH1 0x40 MLOAD DUP1 SWAP2 SUB SWAP1 REVERT JUMPDEST PUSH1 0x0 CALLER SWAP1 POP PUSH1 0x0 DUP1 PUSH2 0x2226 DUP4 DUP11 PUSH2 0x27B4 JUMP JUMPDEST SWAP2 POP SWAP2 POP PUSH2 0x22E4 DUP3 DUP11 PUSH1 0x40 MLOAD DUP1 PUSH1 0x80 ADD PUSH1 0x40 MSTORE DUP1 DUP12 PUSH20 0xFFFFFFFFFFFFFFFFFFFFFFFFFFFFFFFFFFFFFFFF AND DUP2 MSTORE PUSH1 0x20 ADD DUP6 PUSH20 0xFFFFFFFFFFFFFFFFFFFFFFFFFFFFFFFFFFFFFFFF AND DUP2 MSTORE PUSH1 0x20 ADD DUP11 DUP2 MSTORE PUSH1 0x20 ADD DUP10 DUP10 DUP1 DUP1 PUSH1 0x1F ADD PUSH1 0x20 DUP1 SWAP2 DIV MUL PUSH1 0x20 ADD PUSH1 0x40 MLOAD SWAP1 DUP2 ADD PUSH1 0x40 MSTORE DUP1 SWAP4 SWAP3 SWAP2 SWAP1 DUP2 DUP2 MSTORE PUSH1 0x20 ADD DUP4 DUP4 DUP1 DUP3 DUP5 CALLDATACOPY PUSH1 0x0 DUP2 DUP5 ADD MSTORE PUSH1 0x1F NOT PUSH1 0x1F DUP3 ADD AND SWAP1 POP DUP1 DUP4 ADD SWAP3 POP POP POP POP POP POP POP DUP2 MSTORE POP PUSH1 0x40 MLOAD PUSH1 0x20 ADD PUSH2 0x22D0 SWAP2 SWAP1 PUSH2 0x3AFE JUMP JUMPDEST PUSH1 0x40 MLOAD PUSH1 0x20 DUP2 DUP4 SUB SUB DUP2 MSTORE SWAP1 PUSH1 0x40 MSTORE PUSH2 0x296F JUMP JUMPDEST PUSH32 0x40143E5B72B2109D658CFA709DEC6213F60364DBD08B7253CDAF5F4E0C49561C DUP9 DUP5 DUP9 DUP13 DUP12 DUP7 PUSH1 0x40 MLOAD PUSH2 0x231D SWAP7 SWAP6 SWAP5 SWAP4 SWAP3 SWAP2 SWAP1 PUSH2 0x3FB8 JUMP JUMPDEST PUSH1 0x40 MLOAD DUP1 SWAP2 SUB SWAP1 LOG1 POP POP POP POP POP POP POP POP POP JUMP JUMPDEST CALLER PUSH20 0xFFFFFFFFFFFFFFFFFFFFFFFFFFFFFFFFFFFFFFFF AND PUSH2 0x234F PUSH2 0x1162 JUMP JUMPDEST PUSH20 0xFFFFFFFFFFFFFFFFFFFFFFFFFFFFFFFFFFFFFFFF AND EQ PUSH2 0x23A5 JUMPI PUSH1 0x40 MLOAD PUSH32 0x8C379A000000000000000000000000000000000000000000000000000000000 DUP2 MSTORE PUSH1 0x4 ADD PUSH2 0x239C SWAP1 PUSH2 0x3691 JUMP JUMPDEST PUSH1 0x40 MLOAD DUP1 SWAP2 SUB SWAP1 REVERT JUMPDEST PUSH1 0x0 PUSH20 0xFFFFFFFFFFFFFFFFFFFFFFFFFFFFFFFFFFFFFFFF AND DUP2 PUSH20 0xFFFFFFFFFFFFFFFFFFFFFFFFFFFFFFFFFFFFFFFF AND EQ ISZERO PUSH2 0x2415 JUMPI PUSH1 0x40 MLOAD PUSH32 0x8C379A000000000000000000000000000000000000000000000000000000000 DUP2 MSTORE PUSH1 0x4 ADD PUSH2 0x240C SWAP1 PUSH2 0x40B4 JUMP JUMPDEST PUSH1 0x40 MLOAD DUP1 SWAP2 SUB SWAP1 REVERT JUMPDEST PUSH2 0x241E DUP2 PUSH2 0x2B2B JUMP JUMPDEST POP JUMP JUMPDEST PUSH1 0x0 PUSH20 0xFFFFFFFFFFFFFFFFFFFFFFFFFFFFFFFFFFFFFFFF AND PUSH1 0x0 DUP1 SLOAD SWAP1 PUSH2 0x100 EXP SWAP1 DIV PUSH20 0xFFFFFFFFFFFFFFFFFFFFFFFFFFFFFFFFFFFFFFFF AND PUSH20 0xFFFFFFFFFFFFFFFFFFFFFFFFFFFFFFFFFFFFFFFF AND EQ PUSH2 0x24B0 JUMPI PUSH1 0x40 MLOAD PUSH32 0x8C379A000000000000000000000000000000000000000000000000000000000 DUP2 MSTORE PUSH1 0x4 ADD PUSH2 0x24A7 SWAP1 PUSH2 0x4120 JUMP JUMPDEST PUSH1 0x40 MLOAD DUP1 SWAP2 SUB SWAP1 REVERT JUMPDEST PUSH2 0x24B9 CALLER PUSH2 0x2B2B JUMP JUMPDEST JUMP JUMPDEST PUSH2 0x24C3 PUSH2 0xF2F JUMP JUMPDEST PUSH2 0x2502 JUMPI PUSH1 0x40 MLOAD PUSH32 0x8C379A000000000000000000000000000000000000000000000000000000000 DUP2 MSTORE PUSH1 0x4 ADD PUSH2 0x24F9 SWAP1 PUSH2 0x418C JUMP JUMPDEST PUSH1 0x40 MLOAD DUP1 SWAP2 SUB SWAP1 REVERT JUMPDEST PUSH1 0x0 PUSH1 0x1 PUSH1 0x14 PUSH2 0x100 EXP DUP2 SLOAD DUP2 PUSH1 0xFF MUL NOT AND SWAP1 DUP4 ISZERO ISZERO MUL OR SWAP1 SSTORE POP PUSH32 0x5DB9EE0A495BF2E6FF9C91A7834C1BA4FDD244A5E8AA4E537BD38AEAE4B073AA PUSH2 0x2546 PUSH2 0x2BEF JUMP JUMPDEST PUSH1 0x40 MLOAD PUSH2 0x2553 SWAP2 SWAP1 PUSH2 0x2F27 JUMP JUMPDEST PUSH1 0x40 MLOAD DUP1 SWAP2 SUB SWAP1 LOG1 JUMP JUMPDEST PUSH2 0x2566 DUP2 PUSH2 0xD2A JUMP JUMPDEST PUSH2 0x25A5 JUMPI PUSH1 0x40 MLOAD PUSH32 0x8C379A000000000000000000000000000000000000000000000000000000000 DUP2 MSTORE PUSH1 0x4 ADD PUSH2 0x259C SWAP1 PUSH2 0x41F8 JUMP JUMPDEST PUSH1 0x40 MLOAD DUP1 SWAP2 SUB SWAP1 REVERT JUMPDEST PUSH1 0x0 PUSH1 0x2 PUSH1 0x0 DUP4 PUSH20 0xFFFFFFFFFFFFFFFFFFFFFFFFFFFFFFFFFFFFFFFF AND PUSH20 0xFFFFFFFFFFFFFFFFFFFFFFFFFFFFFFFFFFFFFFFF AND DUP2 MSTORE PUSH1 0x20 ADD SWAP1 DUP2 MSTORE PUSH1 0x20 ADD PUSH1 0x0 KECCAK256 PUSH1 0x0 PUSH2 0x100 EXP DUP2 SLOAD DUP2 PUSH1 0xFF MUL NOT AND SWAP1 DUP4 ISZERO ISZERO MUL OR SWAP1 SSTORE POP PUSH32 0xCD265EBAF09DF2871CC7BD4133404A235BA12EFF2041BB89D9C714A2621C7C7E DUP2 PUSH1 0x40 MLOAD PUSH2 0x262C SWAP2 SWAP1 PUSH2 0x2F27 JUMP JUMPDEST PUSH1 0x40 MLOAD DUP1 SWAP2 SUB SWAP1 LOG1 POP JUMP JUMPDEST PUSH2 0x2640 DUP2 PUSH2 0xD2A JUMP JUMPDEST ISZERO PUSH2 0x2680 JUMPI PUSH1 0x40 MLOAD PUSH32 0x8C379A000000000000000000000000000000000000000000000000000000000 DUP2 MSTORE PUSH1 0x4 ADD PUSH2 0x2677 SWAP1 PUSH2 0x4264 JUMP JUMPDEST PUSH1 0x40 MLOAD DUP1 SWAP2 SUB SWAP1 REVERT JUMPDEST PUSH1 0x1 PUSH1 0x2 PUSH1 0x0 DUP4 PUSH20 0xFFFFFFFFFFFFFFFFFFFFFFFFFFFFFFFFFFFFFFFF AND PUSH20 0xFFFFFFFFFFFFFFFFFFFFFFFFFFFFFFFFFFFFFFFF AND DUP2 MSTORE PUSH1 0x20 ADD SWAP1 DUP2 MSTORE PUSH1 0x20 ADD PUSH1 0x0 KECCAK256 PUSH1 0x0 PUSH2 0x100 EXP DUP2 SLOAD DUP2 PUSH1 0xFF MUL NOT AND SWAP1 DUP4 ISZERO ISZERO MUL OR SWAP1 SSTORE POP PUSH32 0x6719D08C1888103BEA251A4ED56406BD0C3E69723C8A1686E017E7BBE159B6F8 DUP2 PUSH1 0x40 MLOAD PUSH2 0x2707 SWAP2 SWAP1 PUSH2 0x2F27 JUMP JUMPDEST PUSH1 0x40 MLOAD DUP1 SWAP2 SUB SWAP1 LOG1 POP JUMP JUMPDEST PUSH2 0x271A PUSH2 0xF2F JUMP JUMPDEST ISZERO PUSH2 0x275A JUMPI PUSH1 0x40 MLOAD PUSH32 0x8C379A000000000000000000000000000000000000000000000000000000000 DUP2 MSTORE PUSH1 0x4 ADD PUSH2 0x2751 SWAP1 PUSH2 0x3E93 JUMP JUMPDEST PUSH1 0x40 MLOAD DUP1 SWAP2 SUB SWAP1 REVERT JUMPDEST PUSH1 0x1 DUP1 PUSH1 0x14 PUSH2 0x100 EXP DUP2 SLOAD DUP2 PUSH1 0xFF MUL NOT AND SWAP1 DUP4 ISZERO ISZERO MUL OR SWAP1 SSTORE POP PUSH32 0x62E78CEA01BEE320CD4E420270B5EA74000D11B0C9F74754EBDBFC544B05A258 PUSH2 0x279D PUSH2 0x2BEF JUMP JUMPDEST PUSH1 0x40 MLOAD PUSH2 0x27AA SWAP2 SWAP1 PUSH2 0x2F27 JUMP JUMPDEST PUSH1 0x40 MLOAD DUP1 SWAP2 SUB SWAP1 LOG1 JUMP JUMPDEST PUSH1 0x0 DUP1 PUSH1 0x4 PUSH1 0x0 DUP5 PUSH8 0xFFFFFFFFFFFFFFFF AND PUSH8 0xFFFFFFFFFFFFFFFF AND DUP2 MSTORE PUSH1 0x20 ADD SWAP1 DUP2 MSTORE PUSH1 0x20 ADD PUSH1 0x0 KECCAK256 PUSH1 0x0 SWAP1 SLOAD SWAP1 PUSH2 0x100 EXP SWAP1 DIV PUSH20 0xFFFFFFFFFFFFFFFFFFFFFFFFFFFFFFFFFFFFFFFF AND SWAP2 POP PUSH1 0x0 PUSH20 0xFFFFFFFFFFFFFFFFFFFFFFFFFFFFFFFFFFFFFFFF AND DUP3 PUSH20 0xFFFFFFFFFFFFFFFFFFFFFFFFFFFFFFFFFFFFFFFF AND EQ ISZERO PUSH2 0x2871 JUMPI PUSH1 0x40 MLOAD PUSH32 0x8C379A000000000000000000000000000000000000000000000000000000000 DUP2 MSTORE PUSH1 0x4 ADD PUSH2 0x2868 SWAP1 PUSH2 0x42D0 JUMP JUMPDEST PUSH1 0x40 MLOAD DUP1 SWAP2 SUB SWAP1 REVERT JUMPDEST PUSH1 0x5 PUSH1 0x0 DUP6 PUSH20 0xFFFFFFFFFFFFFFFFFFFFFFFFFFFFFFFFFFFFFFFF AND PUSH20 0xFFFFFFFFFFFFFFFFFFFFFFFFFFFFFFFFFFFFFFFF AND DUP2 MSTORE PUSH1 0x20 ADD SWAP1 DUP2 MSTORE PUSH1 0x20 ADD PUSH1 0x0 KECCAK256 PUSH1 0x0 DUP5 PUSH8 0xFFFFFFFFFFFFFFFF AND PUSH8 0xFFFFFFFFFFFFFFFF AND DUP2 MSTORE PUSH1 0x20 ADD SWAP1 DUP2 MSTORE PUSH1 0x20 ADD PUSH1 0x0 KECCAK256 PUSH1 0x0 SWAP1 SLOAD SWAP1 PUSH2 0x100 EXP SWAP1 DIV PUSH20 0xFFFFFFFFFFFFFFFFFFFFFFFFFFFFFFFFFFFFFFFF AND SWAP1 POP PUSH1 0x0 PUSH20 0xFFFFFFFFFFFFFFFFFFFFFFFFFFFFFFFFFFFFFFFF AND DUP2 PUSH20 0xFFFFFFFFFFFFFFFFFFFFFFFFFFFFFFFFFFFFFFFF AND EQ ISZERO PUSH2 0x2968 JUMPI PUSH1 0x40 MLOAD PUSH32 0x8C379A000000000000000000000000000000000000000000000000000000000 DUP2 MSTORE PUSH1 0x4 ADD PUSH2 0x295F SWAP1 PUSH2 0x433C JUMP JUMPDEST PUSH1 0x40 MLOAD DUP1 SWAP2 SUB SWAP1 REVERT JUMPDEST SWAP3 POP SWAP3 SWAP1 POP JUMP JUMPDEST PUSH1 0x0 PUSH1 0x1 PUSH1 0x0 SWAP1 SLOAD SWAP1 PUSH2 0x100 EXP SWAP1 DIV PUSH20 0xFFFFFFFFFFFFFFFFFFFFFFFFFFFFFFFFFFFFFFFF AND PUSH20 0xFFFFFFFFFFFFFFFFFFFFFFFFFFFFFFFFFFFFFFFF AND PUSH4 0x5335DCA2 DUP4 PUSH1 0x40 MLOAD DUP3 PUSH4 0xFFFFFFFF AND PUSH1 0xE0 SHL DUP2 MSTORE PUSH1 0x4 ADD PUSH2 0x29CC SWAP2 SWAP1 PUSH2 0x3B75 JUMP JUMPDEST PUSH1 0x20 PUSH1 0x40 MLOAD DUP1 DUP4 SUB DUP2 DUP7 DUP1 EXTCODESIZE ISZERO DUP1 ISZERO PUSH2 0x29E4 JUMPI PUSH1 0x0 DUP1 REVERT JUMPDEST POP GAS STATICCALL ISZERO DUP1 ISZERO PUSH2 0x29F8 JUMPI RETURNDATASIZE PUSH1 0x0 DUP1 RETURNDATACOPY RETURNDATASIZE PUSH1 0x0 REVERT JUMPDEST POP POP POP POP PUSH1 0x40 MLOAD RETURNDATASIZE PUSH1 0x1F NOT PUSH1 0x1F DUP3 ADD AND DUP3 ADD DUP1 PUSH1 0x40 MSTORE POP DUP2 ADD SWAP1 PUSH2 0x2A1C SWAP2 SWAP1 PUSH2 0x3BAC JUMP JUMPDEST SWAP1 POP PUSH1 0x3 PUSH1 0x0 DUP5 PUSH8 0xFFFFFFFFFFFFFFFF AND PUSH8 0xFFFFFFFFFFFFFFFF AND DUP2 MSTORE PUSH1 0x20 ADD SWAP1 DUP2 MSTORE PUSH1 0x20 ADD PUSH1 0x0 KECCAK256 SLOAD DUP2 PUSH2 0x2A51 SWAP2 SWAP1 PUSH2 0x3BD9 JUMP JUMPDEST CALLVALUE LT ISZERO PUSH2 0x2A93 JUMPI PUSH1 0x40 MLOAD PUSH32 0x8C379A000000000000000000000000000000000000000000000000000000000 DUP2 MSTORE PUSH1 0x4 ADD PUSH2 0x2A8A SWAP1 PUSH2 0x43A8 JUMP JUMPDEST PUSH1 0x40 MLOAD DUP1 SWAP2 SUB SWAP1 REVERT JUMPDEST PUSH1 0x1 PUSH1 0x0 SWAP1 SLOAD SWAP1 PUSH2 0x100 EXP SWAP1 DIV PUSH20 0xFFFFFFFFFFFFFFFFFFFFFFFFFFFFFFFFFFFFFFFF AND PUSH20 0xFFFFFFFFFFFFFFFFFFFFFFFFFFFFFFFFFFFFFFFF AND PUSH4 0x9F3CE55A DUP3 DUP7 DUP7 DUP7 PUSH1 0x40 MLOAD DUP6 PUSH4 0xFFFFFFFF AND PUSH1 0xE0 SHL DUP2 MSTORE PUSH1 0x4 ADD PUSH2 0x2AF3 SWAP4 SWAP3 SWAP2 SWAP1 PUSH2 0x4403 JUMP JUMPDEST PUSH1 0x0 PUSH1 0x40 MLOAD DUP1 DUP4 SUB DUP2 DUP6 DUP9 DUP1 EXTCODESIZE ISZERO DUP1 ISZERO PUSH2 0x2B0C JUMPI PUSH1 0x0 DUP1 REVERT JUMPDEST POP GAS CALL ISZERO DUP1 ISZERO PUSH2 0x2B20 JUMPI RETURNDATASIZE PUSH1 0x0 DUP1 RETURNDATACOPY RETURNDATASIZE PUSH1 0x0 REVERT JUMPDEST POP POP POP POP POP POP POP POP POP JUMP JUMPDEST PUSH1 0x0 DUP1 PUSH1 0x0 SWAP1 SLOAD SWAP1 PUSH2 0x100 EXP SWAP1 DIV PUSH20 0xFFFFFFFFFFFFFFFFFFFFFFFFFFFFFFFFFFFFFFFF AND SWAP1 POP DUP2 PUSH1 0x0 DUP1 PUSH2 0x100 EXP DUP2 SLOAD DUP2 PUSH20 0xFFFFFFFFFFFFFFFFFFFFFFFFFFFFFFFFFFFFFFFF MUL NOT AND SWAP1 DUP4 PUSH20 0xFFFFFFFFFFFFFFFFFFFFFFFFFFFFFFFFFFFFFFFF AND MUL OR SWAP1 SSTORE POP DUP2 PUSH20 0xFFFFFFFFFFFFFFFFFFFFFFFFFFFFFFFFFFFFFFFF AND DUP2 PUSH20 0xFFFFFFFFFFFFFFFFFFFFFFFFFFFFFFFFFFFFFFFF AND PUSH32 0x8BE0079C531659141344CD1FD0A4F28419497F9722A3DAAFE3B4186F6B6457E0 PUSH1 0x40 MLOAD PUSH1 0x40 MLOAD DUP1 SWAP2 SUB SWAP1 LOG3 POP POP JUMP JUMPDEST PUSH1 0x0 CALLER SWAP1 POP SWAP1 JUMP JUMPDEST PUSH1 0x0 PUSH1 0x40 MLOAD SWAP1 POP SWAP1 JUMP JUMPDEST PUSH1 0x0 DUP1 REVERT JUMPDEST PUSH1 0x0 DUP1 REVERT JUMPDEST PUSH1 0x0 PUSH20 0xFFFFFFFFFFFFFFFFFFFFFFFFFFFFFFFFFFFFFFFF DUP3 AND SWAP1 POP SWAP2 SWAP1 POP JUMP JUMPDEST PUSH1 0x0 PUSH2 0x2C36 DUP3 PUSH2 0x2C0B JUMP JUMPDEST SWAP1 POP SWAP2 SWAP1 POP JUMP JUMPDEST PUSH2 0x2C46 DUP2 PUSH2 0x2C2B JUMP JUMPDEST DUP2 EQ PUSH2 0x2C51 JUMPI PUSH1 0x0 DUP1 REVERT JUMPDEST POP JUMP JUMPDEST PUSH1 0x0 DUP2 CALLDATALOAD SWAP1 POP PUSH2 0x2C63 DUP2 PUSH2 0x2C3D JUMP JUMPDEST SWAP3 SWAP2 POP POP JUMP JUMPDEST PUSH1 0x0 PUSH1 0x20 DUP3 DUP5 SUB SLT ISZERO PUSH2 0x2C7F JUMPI PUSH2 0x2C7E PUSH2 0x2C01 JUMP JUMPDEST JUMPDEST PUSH1 0x0 PUSH2 0x2C8D DUP5 DUP3 DUP6 ADD PUSH2 0x2C54 JUMP JUMPDEST SWAP2 POP POP SWAP3 SWAP2 POP POP JUMP JUMPDEST PUSH1 0x0 DUP2 SWAP1 POP SWAP2 SWAP1 POP JUMP JUMPDEST PUSH2 0x2CA9 DUP2 PUSH2 0x2C96 JUMP JUMPDEST DUP2 EQ PUSH2 0x2CB4 JUMPI PUSH1 0x0 DUP1 REVERT JUMPDEST POP JUMP JUMPDEST PUSH1 0x0 DUP2 CALLDATALOAD SWAP1 POP PUSH2 0x2CC6 DUP2 PUSH2 0x2CA0 JUMP JUMPDEST SWAP3 SWAP2 POP POP JUMP JUMPDEST PUSH1 0x0 DUP1 REVERT JUMPDEST PUSH1 0x0 DUP1 REVERT JUMPDEST PUSH1 0x0 DUP1 REVERT JUMPDEST PUSH1 0x0 DUP1 DUP4 PUSH1 0x1F DUP5 ADD SLT PUSH2 0x2CF1 JUMPI PUSH2 0x2CF0 PUSH2 0x2CCC JUMP JUMPDEST JUMPDEST DUP3 CALLDATALOAD SWAP1 POP PUSH8 0xFFFFFFFFFFFFFFFF DUP2 GT ISZERO PUSH2 0x2D0E JUMPI PUSH2 0x2D0D PUSH2 0x2CD1 JUMP JUMPDEST JUMPDEST PUSH1 0x20 DUP4 ADD SWAP2 POP DUP4 PUSH1 0x1 DUP3 MUL DUP4 ADD GT ISZERO PUSH2 0x2D2A JUMPI PUSH2 0x2D29 PUSH2 0x2CD6 JUMP JUMPDEST JUMPDEST SWAP3 POP SWAP3 SWAP1 POP JUMP JUMPDEST PUSH1 0x0 DUP1 PUSH1 0x0 DUP1 PUSH1 0x0 PUSH1 0x80 DUP7 DUP9 SUB SLT ISZERO PUSH2 0x2D4D JUMPI PUSH2 0x2D4C PUSH2 0x2C01 JUMP JUMPDEST JUMPDEST PUSH1 0x0 PUSH2 0x2D5B DUP9 DUP3 DUP10 ADD PUSH2 0x2C54 JUMP JUMPDEST SWAP6 POP POP PUSH1 0x20 PUSH2 0x2D6C DUP9 DUP3 DUP10 ADD PUSH2 0x2CB7 JUMP JUMPDEST SWAP5 POP POP PUSH1 0x40 DUP7 ADD CALLDATALOAD PUSH8 0xFFFFFFFFFFFFFFFF DUP2 GT ISZERO PUSH2 0x2D8D JUMPI PUSH2 0x2D8C PUSH2 0x2C06 JUMP JUMPDEST JUMPDEST PUSH2 0x2D99 DUP9 DUP3 DUP10 ADD PUSH2 0x2CDB JUMP JUMPDEST SWAP4 POP SWAP4 POP POP PUSH1 0x60 PUSH2 0x2DAC DUP9 DUP3 DUP10 ADD PUSH2 0x2C54 JUMP JUMPDEST SWAP2 POP POP SWAP3 SWAP6 POP SWAP3 SWAP6 SWAP1 SWAP4 POP JUMP JUMPDEST PUSH32 0x4E487B7100000000000000000000000000000000000000000000000000000000 PUSH1 0x0 MSTORE PUSH1 0x21 PUSH1 0x4 MSTORE PUSH1 0x24 PUSH1 0x0 REVERT JUMPDEST PUSH1 0x3 DUP2 LT PUSH2 0x2DF9 JUMPI PUSH2 0x2DF8 PUSH2 0x2DB9 JUMP JUMPDEST JUMPDEST POP JUMP JUMPDEST PUSH1 0x0 DUP2 SWAP1 POP PUSH2 0x2E0A DUP3 PUSH2 0x2DE8 JUMP JUMPDEST SWAP2 SWAP1 POP JUMP JUMPDEST PUSH1 0x0 PUSH2 0x2E1A DUP3 PUSH2 0x2DFC JUMP JUMPDEST SWAP1 POP SWAP2 SWAP1 POP JUMP JUMPDEST PUSH2 0x2E2A DUP2 PUSH2 0x2E0F JUMP JUMPDEST DUP3 MSTORE POP POP JUMP JUMPDEST PUSH1 0x0 PUSH1 0x20 DUP3 ADD SWAP1 POP PUSH2 0x2E45 PUSH1 0x0 DUP4 ADD DUP5 PUSH2 0x2E21 JUMP JUMPDEST SWAP3 SWAP2 POP POP JUMP JUMPDEST PUSH1 0x0 DUP2 ISZERO ISZERO SWAP1 POP SWAP2 SWAP1 POP JUMP JUMPDEST PUSH2 0x2E60 DUP2 PUSH2 0x2E4B JUMP JUMPDEST DUP3 MSTORE POP POP JUMP JUMPDEST PUSH1 0x0 PUSH1 0x20 DUP3 ADD SWAP1 POP PUSH2 0x2E7B PUSH1 0x0 DUP4 ADD DUP5 PUSH2 0x2E57 JUMP JUMPDEST SWAP3 SWAP2 POP POP JUMP JUMPDEST PUSH1 0x0 PUSH8 0xFFFFFFFFFFFFFFFF DUP3 AND SWAP1 POP SWAP2 SWAP1 POP JUMP JUMPDEST PUSH2 0x2E9E DUP2 PUSH2 0x2E81 JUMP JUMPDEST DUP2 EQ PUSH2 0x2EA9 JUMPI PUSH1 0x0 DUP1 REVERT JUMPDEST POP JUMP JUMPDEST PUSH1 0x0 DUP2 CALLDATALOAD SWAP1 POP PUSH2 0x2EBB DUP2 PUSH2 0x2E95 JUMP JUMPDEST SWAP3 SWAP2 POP POP JUMP JUMPDEST PUSH1 0x0 PUSH1 0x20 DUP3 DUP5 SUB SLT ISZERO PUSH2 0x2ED7 JUMPI PUSH2 0x2ED6 PUSH2 0x2C01 JUMP JUMPDEST JUMPDEST PUSH1 0x0 PUSH2 0x2EE5 DUP5 DUP3 DUP6 ADD PUSH2 0x2EAC JUMP JUMPDEST SWAP2 POP POP SWAP3 SWAP2 POP POP JUMP JUMPDEST PUSH2 0x2EF7 DUP2 PUSH2 0x2C96 JUMP JUMPDEST DUP3 MSTORE POP POP JUMP JUMPDEST PUSH1 0x0 PUSH1 0x20 DUP3 ADD SWAP1 POP PUSH2 0x2F12 PUSH1 0x0 DUP4 ADD DUP5 PUSH2 0x2EEE JUMP JUMPDEST SWAP3 SWAP2 POP POP JUMP JUMPDEST PUSH2 0x2F21 DUP2 PUSH2 0x2C2B JUMP JUMPDEST DUP3 MSTORE POP POP JUMP JUMPDEST PUSH1 0x0 PUSH1 0x20 DUP3 ADD SWAP1 POP PUSH2 0x2F3C PUSH1 0x0 DUP4 ADD DUP5 PUSH2 0x2F18 JUMP JUMPDEST SWAP3 SWAP2 POP POP JUMP JUMPDEST PUSH1 0x0 DUP1 DUP4 PUSH1 0x1F DUP5 ADD SLT PUSH2 0x2F58 JUMPI PUSH2 0x2F57 PUSH2 0x2CCC JUMP JUMPDEST JUMPDEST DUP3 CALLDATALOAD SWAP1 POP PUSH8 0xFFFFFFFFFFFFFFFF DUP2 GT ISZERO PUSH2 0x2F75 JUMPI PUSH2 0x2F74 PUSH2 0x2CD1 JUMP JUMPDEST JUMPDEST PUSH1 0x20 DUP4 ADD SWAP2 POP DUP4 PUSH1 0x20 DUP3 MUL DUP4 ADD GT ISZERO PUSH2 0x2F91 JUMPI PUSH2 0x2F90 PUSH2 0x2CD6 JUMP JUMPDEST JUMPDEST SWAP3 POP SWAP3 SWAP1 POP JUMP JUMPDEST PUSH1 0x0 DUP1 DUP4 PUSH1 0x1F DUP5 ADD SLT PUSH2 0x2FAE JUMPI PUSH2 0x2FAD PUSH2 0x2CCC JUMP JUMPDEST JUMPDEST DUP3 CALLDATALOAD SWAP1 POP PUSH8 0xFFFFFFFFFFFFFFFF DUP2 GT ISZERO PUSH2 0x2FCB JUMPI PUSH2 0x2FCA PUSH2 0x2CD1 JUMP JUMPDEST JUMPDEST PUSH1 0x20 DUP4 ADD SWAP2 POP DUP4 PUSH1 0x20 DUP3 MUL DUP4 ADD GT ISZERO PUSH2 0x2FE7 JUMPI PUSH2 0x2FE6 PUSH2 0x2CD6 JUMP JUMPDEST JUMPDEST SWAP3 POP SWAP3 SWAP1 POP JUMP JUMPDEST PUSH1 0x0 DUP1 PUSH1 0x0 DUP1 PUSH1 0x0 PUSH1 0x60 DUP7 DUP9 SUB SLT ISZERO PUSH2 0x300A JUMPI PUSH2 0x3009 PUSH2 0x2C01 JUMP JUMPDEST JUMPDEST PUSH1 0x0 PUSH2 0x3018 DUP9 DUP3 DUP10 ADD PUSH2 0x2C54 JUMP JUMPDEST SWAP6 POP POP PUSH1 0x20 DUP7 ADD CALLDATALOAD PUSH8 0xFFFFFFFFFFFFFFFF DUP2 GT ISZERO PUSH2 0x3039 JUMPI PUSH2 0x3038 PUSH2 0x2C06 JUMP JUMPDEST JUMPDEST PUSH2 0x3045 DUP9 DUP3 DUP10 ADD PUSH2 0x2F42 JUMP JUMPDEST SWAP5 POP SWAP5 POP POP PUSH1 0x40 DUP7 ADD CALLDATALOAD PUSH8 0xFFFFFFFFFFFFFFFF DUP2 GT ISZERO PUSH2 0x3068 JUMPI PUSH2 0x3067 PUSH2 0x2C06 JUMP JUMPDEST JUMPDEST PUSH2 0x3074 DUP9 DUP3 DUP10 ADD PUSH2 0x2F98 JUMP JUMPDEST SWAP3 POP SWAP3 POP POP SWAP3 SWAP6 POP SWAP3 SWAP6 SWAP1 SWAP4 POP JUMP JUMPDEST PUSH1 0x0 DUP1 PUSH1 0x0 DUP1 PUSH1 0x40 DUP6 DUP8 SUB SLT ISZERO PUSH2 0x309D JUMPI PUSH2 0x309C PUSH2 0x2C01 JUMP JUMPDEST JUMPDEST PUSH1 0x0 DUP6 ADD CALLDATALOAD PUSH8 0xFFFFFFFFFFFFFFFF DUP2 GT ISZERO PUSH2 0x30BB JUMPI PUSH2 0x30BA PUSH2 0x2C06 JUMP JUMPDEST JUMPDEST PUSH2 0x30C7 DUP8 DUP3 DUP9 ADD PUSH2 0x2F42 JUMP JUMPDEST SWAP5 POP SWAP5 POP POP PUSH1 0x20 DUP6 ADD CALLDATALOAD PUSH8 0xFFFFFFFFFFFFFFFF DUP2 GT ISZERO PUSH2 0x30EA JUMPI PUSH2 0x30E9 PUSH2 0x2C06 JUMP JUMPDEST JUMPDEST PUSH2 0x30F6 DUP8 DUP3 DUP9 ADD PUSH2 0x2F98 JUMP JUMPDEST SWAP3 POP SWAP3 POP POP SWAP3 SWAP6 SWAP2 SWAP5 POP SWAP3 POP JUMP JUMPDEST PUSH1 0x0 DUP1 PUSH1 0x0 DUP1 PUSH1 0x0 DUP1 PUSH1 0x0 PUSH1 0xC0 DUP9 DUP11 SUB SLT ISZERO PUSH2 0x3123 JUMPI PUSH2 0x3122 PUSH2 0x2C01 JUMP JUMPDEST JUMPDEST PUSH1 0x0 PUSH2 0x3131 DUP11 DUP3 DUP12 ADD PUSH2 0x2C54 JUMP JUMPDEST SWAP8 POP POP PUSH1 0x20 PUSH2 0x3142 DUP11 DUP3 DUP12 ADD PUSH2 0x2C54 JUMP JUMPDEST SWAP7 POP POP PUSH1 0x40 PUSH2 0x3153 DUP11 DUP3 DUP12 ADD PUSH2 0x2CB7 JUMP JUMPDEST SWAP6 POP POP PUSH1 0x60 PUSH2 0x3164 DUP11 DUP3 DUP12 ADD PUSH2 0x2EAC JUMP JUMPDEST SWAP5 POP POP PUSH1 0x80 DUP9 ADD CALLDATALOAD PUSH8 0xFFFFFFFFFFFFFFFF DUP2 GT ISZERO PUSH2 0x3185 JUMPI PUSH2 0x3184 PUSH2 0x2C06 JUMP JUMPDEST JUMPDEST PUSH2 0x3191 DUP11 DUP3 DUP12 ADD PUSH2 0x2CDB JUMP JUMPDEST SWAP4 POP SWAP4 POP POP PUSH1 0xA0 PUSH2 0x31A4 DUP11 DUP3 DUP12 ADD PUSH2 0x2C54 JUMP JUMPDEST SWAP2 POP POP SWAP3 SWAP6 SWAP9 SWAP2 SWAP5 SWAP8 POP SWAP3 SWAP6 POP JUMP JUMPDEST PUSH1 0x0 DUP1 PUSH1 0x0 PUSH1 0x60 DUP5 DUP7 SUB SLT ISZERO PUSH2 0x31CC JUMPI PUSH2 0x31CB PUSH2 0x2C01 JUMP JUMPDEST JUMPDEST PUSH1 0x0 PUSH2 0x31DA DUP7 DUP3 DUP8 ADD PUSH2 0x2C54 JUMP JUMPDEST SWAP4 POP POP PUSH1 0x20 PUSH2 0x31EB DUP7 DUP3 DUP8 ADD PUSH2 0x2EAC JUMP JUMPDEST SWAP3 POP POP PUSH1 0x40 PUSH2 0x31FC DUP7 DUP3 DUP8 ADD PUSH2 0x2C54 JUMP JUMPDEST SWAP2 POP POP SWAP3 POP SWAP3 POP SWAP3 JUMP JUMPDEST PUSH1 0x0 DUP1 PUSH1 0x0 PUSH1 0x60 DUP5 DUP7 SUB SLT ISZERO PUSH2 0x321F JUMPI PUSH2 0x321E PUSH2 0x2C01 JUMP JUMPDEST JUMPDEST PUSH1 0x0 PUSH2 0x322D DUP7 DUP3 DUP8 ADD PUSH2 0x2EAC JUMP JUMPDEST SWAP4 POP POP PUSH1 0x20 PUSH2 0x323E DUP7 DUP3 DUP8 ADD PUSH2 0x2C54 JUMP JUMPDEST SWAP3 POP POP PUSH1 0x40 PUSH2 0x324F DUP7 DUP3 DUP8 ADD PUSH2 0x2CB7 JUMP JUMPDEST SWAP2 POP POP SWAP3 POP SWAP3 POP SWAP3 JUMP JUMPDEST PUSH1 0x0 DUP1 REVERT JUMPDEST PUSH1 0x0 PUSH1 0x1F NOT PUSH1 0x1F DUP4 ADD AND SWAP1 POP SWAP2 SWAP1 POP JUMP JUMPDEST PUSH32 0x4E487B7100000000000000000000000000000000000000000000000000000000 PUSH1 0x0 MSTORE PUSH1 0x41 PUSH1 0x4 MSTORE PUSH1 0x24 PUSH1 0x0 REVERT JUMPDEST PUSH2 0x32A7 DUP3 PUSH2 0x325E JUMP JUMPDEST DUP2 ADD DUP2 DUP2 LT PUSH8 0xFFFFFFFFFFFFFFFF DUP3 GT OR ISZERO PUSH2 0x32C6 JUMPI PUSH2 0x32C5 PUSH2 0x326F JUMP JUMPDEST JUMPDEST DUP1 PUSH1 0x40 MSTORE POP POP POP JUMP JUMPDEST PUSH1 0x0 PUSH2 0x32D9 PUSH2 0x2BF7 JUMP JUMPDEST SWAP1 POP PUSH2 0x32E5 DUP3 DUP3 PUSH2 0x329E JUMP JUMPDEST SWAP2 SWAP1 POP JUMP JUMPDEST PUSH1 0x0 PUSH8 0xFFFFFFFFFFFFFFFF DUP3 GT ISZERO PUSH2 0x3305 JUMPI PUSH2 0x3304 PUSH2 0x326F JUMP JUMPDEST JUMPDEST PUSH2 0x330E DUP3 PUSH2 0x325E JUMP JUMPDEST SWAP1 POP PUSH1 0x20 DUP2 ADD SWAP1 POP SWAP2 SWAP1 POP JUMP JUMPDEST DUP3 DUP2 DUP4 CALLDATACOPY PUSH1 0x0 DUP4 DUP4 ADD MSTORE POP POP POP JUMP JUMPDEST PUSH1 0x0 PUSH2 0x333D PUSH2 0x3338 DUP5 PUSH2 0x32EA JUMP JUMPDEST PUSH2 0x32CF JUMP JUMPDEST SWAP1 POP DUP3 DUP2 MSTORE PUSH1 0x20 DUP2 ADD DUP5 DUP5 DUP5 ADD GT ISZERO PUSH2 0x3359 JUMPI PUSH2 0x3358 PUSH2 0x3259 JUMP JUMPDEST JUMPDEST PUSH2 0x3364 DUP5 DUP3 DUP6 PUSH2 0x331B JUMP JUMPDEST POP SWAP4 SWAP3 POP POP POP JUMP JUMPDEST PUSH1 0x0 DUP3 PUSH1 0x1F DUP4 ADD SLT PUSH2 0x3381 JUMPI PUSH2 0x3380 PUSH2 0x2CCC JUMP JUMPDEST JUMPDEST DUP2 CALLDATALOAD PUSH2 0x3391 DUP5 DUP3 PUSH1 0x20 DUP7 ADD PUSH2 0x332A JUMP JUMPDEST SWAP2 POP POP SWAP3 SWAP2 POP POP JUMP JUMPDEST PUSH1 0x0 DUP1 PUSH1 0x0 DUP1 PUSH1 0x80 DUP6 DUP8 SUB SLT ISZERO PUSH2 0x33B4 JUMPI PUSH2 0x33B3 PUSH2 0x2C01 JUMP JUMPDEST JUMPDEST PUSH1 0x0 PUSH2 0x33C2 DUP8 DUP3 DUP9 ADD PUSH2 0x2C54 JUMP JUMPDEST SWAP5 POP POP PUSH1 0x20 PUSH2 0x33D3 DUP8 DUP3 DUP9 ADD PUSH2 0x2EAC JUMP JUMPDEST SWAP4 POP POP PUSH1 0x40 DUP6 ADD CALLDATALOAD PUSH8 0xFFFFFFFFFFFFFFFF DUP2 GT ISZERO PUSH2 0x33F4 JUMPI PUSH2 0x33F3 PUSH2 0x2C06 JUMP JUMPDEST JUMPDEST PUSH2 0x3400 DUP8 DUP3 DUP9 ADD PUSH2 0x336C JUMP JUMPDEST SWAP3 POP POP PUSH1 0x60 PUSH2 0x3411 DUP8 DUP3 DUP9 ADD PUSH2 0x2C54 JUMP JUMPDEST SWAP2 POP POP SWAP3 SWAP6 SWAP2 SWAP5 POP SWAP3 POP JUMP JUMPDEST PUSH1 0x0 DUP1 PUSH1 0x40 DUP4 DUP6 SUB SLT ISZERO PUSH2 0x3434 JUMPI PUSH2 0x3433 PUSH2 0x2C01 JUMP JUMPDEST JUMPDEST PUSH1 0x0 PUSH2 0x3442 DUP6 DUP3 DUP7 ADD PUSH2 0x2C54 JUMP JUMPDEST SWAP3 POP POP PUSH1 0x20 PUSH2 0x3453 DUP6 DUP3 DUP7 ADD PUSH2 0x2EAC JUMP JUMPDEST SWAP2 POP POP SWAP3 POP SWAP3 SWAP1 POP JUMP JUMPDEST PUSH1 0x0 DUP1 PUSH1 0x40 DUP4 DUP6 SUB SLT ISZERO PUSH2 0x3474 JUMPI PUSH2 0x3473 PUSH2 0x2C01 JUMP JUMPDEST JUMPDEST PUSH1 0x0 PUSH2 0x3482 DUP6 DUP3 DUP7 ADD PUSH2 0x2EAC JUMP JUMPDEST SWAP3 POP POP PUSH1 0x20 PUSH2 0x3493 DUP6 DUP3 DUP7 ADD PUSH2 0x2CB7 JUMP JUMPDEST SWAP2 POP POP SWAP3 POP SWAP3 SWAP1 POP JUMP JUMPDEST PUSH1 0x0 DUP1 PUSH1 0x0 DUP1 PUSH1 0x80 DUP6 DUP8 SUB SLT ISZERO PUSH2 0x34B7 JUMPI PUSH2 0x34B6 PUSH2 0x2C01 JUMP JUMPDEST JUMPDEST PUSH1 0x0 PUSH2 0x34C5 DUP8 DUP3 DUP9 ADD PUSH2 0x2C54 JUMP JUMPDEST SWAP5 POP POP PUSH1 0x20 PUSH2 0x34D6 DUP8 DUP3 DUP9 ADD PUSH2 0x2CB7 JUMP JUMPDEST SWAP4 POP POP PUSH1 0x40 PUSH2 0x34E7 DUP8 DUP3 DUP9 ADD PUSH2 0x2EAC JUMP JUMPDEST SWAP3 POP POP PUSH1 0x60 PUSH2 0x34F8 DUP8 DUP3 DUP9 ADD PUSH2 0x2C54 JUMP JUMPDEST SWAP2 POP POP SWAP3 SWAP6 SWAP2 SWAP5 POP SWAP3 POP JUMP JUMPDEST PUSH1 0x0 DUP1 PUSH1 0x40 DUP4 DUP6 SUB SLT ISZERO PUSH2 0x351B JUMPI PUSH2 0x351A PUSH2 0x2C01 JUMP JUMPDEST JUMPDEST PUSH1 0x0 PUSH2 0x3529 DUP6 DUP3 DUP7 ADD PUSH2 0x2EAC JUMP JUMPDEST SWAP3 POP POP PUSH1 0x20 PUSH2 0x353A DUP6 DUP3 DUP7 ADD PUSH2 0x2C54 JUMP JUMPDEST SWAP2 POP POP SWAP3 POP SWAP3 SWAP1 POP JUMP JUMPDEST PUSH1 0x0 DUP1 DUP4 PUSH1 0x1F DUP5 ADD SLT PUSH2 0x355A JUMPI PUSH2 0x3559 PUSH2 0x2CCC JUMP JUMPDEST JUMPDEST DUP3 CALLDATALOAD SWAP1 POP PUSH8 0xFFFFFFFFFFFFFFFF DUP2 GT ISZERO PUSH2 0x3577 JUMPI PUSH2 0x3576 PUSH2 0x2CD1 JUMP JUMPDEST JUMPDEST PUSH1 0x20 DUP4 ADD SWAP2 POP DUP4 PUSH1 0x1 DUP3 MUL DUP4 ADD GT ISZERO PUSH2 0x3593 JUMPI PUSH2 0x3592 PUSH2 0x2CD6 JUMP JUMPDEST JUMPDEST SWAP3 POP SWAP3 SWAP1 POP JUMP JUMPDEST PUSH1 0x0 DUP1 PUSH1 0x0 DUP1 PUSH1 0x0 DUP1 PUSH1 0xA0 DUP8 DUP10 SUB SLT ISZERO PUSH2 0x35B7 JUMPI PUSH2 0x35B6 PUSH2 0x2C01 JUMP JUMPDEST JUMPDEST PUSH1 0x0 PUSH2 0x35C5 DUP10 DUP3 DUP11 ADD PUSH2 0x2EAC JUMP JUMPDEST SWAP7 POP POP PUSH1 0x20 PUSH2 0x35D6 DUP10 DUP3 DUP11 ADD PUSH2 0x2C54 JUMP JUMPDEST SWAP6 POP POP PUSH1 0x40 PUSH2 0x35E7 DUP10 DUP3 DUP11 ADD PUSH2 0x2C54 JUMP JUMPDEST SWAP5 POP POP PUSH1 0x60 PUSH2 0x35F8 DUP10 DUP3 DUP11 ADD PUSH2 0x2CB7 JUMP JUMPDEST SWAP4 POP POP PUSH1 0x80 DUP8 ADD CALLDATALOAD PUSH8 0xFFFFFFFFFFFFFFFF DUP2 GT ISZERO PUSH2 0x3619 JUMPI PUSH2 0x3618 PUSH2 0x2C06 JUMP JUMPDEST JUMPDEST PUSH2 0x3625 DUP10 DUP3 DUP11 ADD PUSH2 0x3544 JUMP JUMPDEST SWAP3 POP SWAP3 POP POP SWAP3 SWAP6 POP SWAP3 SWAP6 POP SWAP3 SWAP6 JUMP JUMPDEST PUSH1 0x0 DUP3 DUP3 MSTORE PUSH1 0x20 DUP3 ADD SWAP1 POP SWAP3 SWAP2 POP POP JUMP JUMPDEST PUSH32 0x4F776E61626C653A2063616C6C6572206973206E6F7420746865206F776E6572 PUSH1 0x0 DUP3 ADD MSTORE POP JUMP JUMPDEST PUSH1 0x0 PUSH2 0x367B PUSH1 0x20 DUP4 PUSH2 0x3634 JUMP JUMPDEST SWAP2 POP PUSH2 0x3686 DUP3 PUSH2 0x3645 JUMP JUMPDEST PUSH1 0x20 DUP3 ADD SWAP1 POP SWAP2 SWAP1 POP JUMP JUMPDEST PUSH1 0x0 PUSH1 0x20 DUP3 ADD SWAP1 POP DUP2 DUP2 SUB PUSH1 0x0 DUP4 ADD MSTORE PUSH2 0x36AA DUP2 PUSH2 0x366E JUMP JUMPDEST SWAP1 POP SWAP2 SWAP1 POP JUMP JUMPDEST PUSH1 0x0 PUSH1 0x40 DUP3 ADD SWAP1 POP PUSH2 0x36C6 PUSH1 0x0 DUP4 ADD DUP6 PUSH2 0x2F18 JUMP JUMPDEST PUSH2 0x36D3 PUSH1 0x20 DUP4 ADD DUP5 PUSH2 0x2E57 JUMP JUMPDEST SWAP4 SWAP3 POP POP POP JUMP JUMPDEST PUSH32 0x63616C6C6572206973206E6F74206D6573736167652062757300000000000000 PUSH1 0x0 DUP3 ADD MSTORE POP JUMP JUMPDEST PUSH1 0x0 PUSH2 0x3710 PUSH1 0x19 DUP4 PUSH2 0x3634 JUMP JUMPDEST SWAP2 POP PUSH2 0x371B DUP3 PUSH2 0x36DA JUMP JUMPDEST PUSH1 0x20 DUP3 ADD SWAP1 POP SWAP2 SWAP1 POP JUMP JUMPDEST PUSH1 0x0 PUSH1 0x20 DUP3 ADD SWAP1 POP DUP2 DUP2 SUB PUSH1 0x0 DUP4 ADD MSTORE PUSH2 0x373F DUP2 PUSH2 0x3703 JUMP JUMPDEST SWAP1 POP SWAP2 SWAP1 POP JUMP JUMPDEST PUSH32 0x6C656E677468206D69736D617463680000000000000000000000000000000000 PUSH1 0x0 DUP3 ADD MSTORE POP JUMP JUMPDEST PUSH1 0x0 PUSH2 0x377C PUSH1 0xF DUP4 PUSH2 0x3634 JUMP JUMPDEST SWAP2 POP PUSH2 0x3787 DUP3 PUSH2 0x3746 JUMP JUMPDEST PUSH1 0x20 DUP3 ADD SWAP1 POP SWAP2 SWAP1 POP JUMP JUMPDEST PUSH1 0x0 PUSH1 0x20 DUP3 ADD SWAP1 POP DUP2 DUP2 SUB PUSH1 0x0 DUP4 ADD MSTORE PUSH2 0x37AB DUP2 PUSH2 0x376F JUMP JUMPDEST SWAP1 POP SWAP2 SWAP1 POP JUMP JUMPDEST PUSH32 0x4E487B7100000000000000000000000000000000000000000000000000000000 PUSH1 0x0 MSTORE PUSH1 0x32 PUSH1 0x4 MSTORE PUSH1 0x24 PUSH1 0x0 REVERT JUMPDEST PUSH32 0x4E487B7100000000000000000000000000000000000000000000000000000000 PUSH1 0x0 MSTORE PUSH1 0x11 PUSH1 0x4 MSTORE PUSH1 0x24 PUSH1 0x0 REVERT JUMPDEST PUSH1 0x0 PUSH2 0x381B DUP3 PUSH2 0x2C96 JUMP JUMPDEST SWAP2 POP PUSH32 0xFFFFFFFFFFFFFFFFFFFFFFFFFFFFFFFFFFFFFFFFFFFFFFFFFFFFFFFFFFFFFFFF DUP3 EQ ISZERO PUSH2 0x384E JUMPI PUSH2 0x384D PUSH2 0x37E1 JUMP JUMPDEST JUMPDEST PUSH1 0x1 DUP3 ADD SWAP1 POP SWAP2 SWAP1 POP JUMP JUMPDEST PUSH32 0x43616C6C6572206973206E6F7420706175736572000000000000000000000000 PUSH1 0x0 DUP3 ADD MSTORE POP JUMP JUMPDEST PUSH1 0x0 PUSH2 0x388F PUSH1 0x14 DUP4 PUSH2 0x3634 JUMP JUMPDEST SWAP2 POP PUSH2 0x389A DUP3 PUSH2 0x3859 JUMP JUMPDEST PUSH1 0x20 DUP3 ADD SWAP1 POP SWAP2 SWAP1 POP JUMP JUMPDEST PUSH1 0x0 PUSH1 0x20 DUP3 ADD SWAP1 POP DUP2 DUP2 SUB PUSH1 0x0 DUP4 ADD MSTORE PUSH2 0x38BE DUP2 PUSH2 0x3882 JUMP JUMPDEST SWAP1 POP SWAP2 SWAP1 POP JUMP JUMPDEST PUSH2 0x38CE DUP2 PUSH2 0x2E81 JUMP JUMPDEST DUP3 MSTORE POP POP JUMP JUMPDEST PUSH1 0x0 PUSH1 0x60 DUP3 ADD SWAP1 POP PUSH2 0x38E9 PUSH1 0x0 DUP4 ADD DUP7 PUSH2 0x2F18 JUMP JUMPDEST PUSH2 0x38F6 PUSH1 0x20 DUP4 ADD DUP6 PUSH2 0x38C5 JUMP JUMPDEST PUSH2 0x3903 PUSH1 0x40 DUP4 ADD DUP5 PUSH2 0x2F18 JUMP JUMPDEST SWAP5 SWAP4 POP POP POP POP JUMP JUMPDEST PUSH1 0x0 PUSH8 0xFFFFFFFFFFFFFFFF DUP3 GT ISZERO PUSH2 0x3926 JUMPI PUSH2 0x3925 PUSH2 0x326F JUMP JUMPDEST JUMPDEST PUSH2 0x392F DUP3 PUSH2 0x325E JUMP JUMPDEST SWAP1 POP PUSH1 0x20 DUP2 ADD SWAP1 POP SWAP2 SWAP1 POP JUMP JUMPDEST PUSH1 0x0 JUMPDEST DUP4 DUP2 LT ISZERO PUSH2 0x395A JUMPI DUP1 DUP3 ADD MLOAD DUP2 DUP5 ADD MSTORE PUSH1 0x20 DUP2 ADD SWAP1 POP PUSH2 0x393F JUMP JUMPDEST DUP4 DUP2 GT ISZERO PUSH2 0x3969 JUMPI PUSH1 0x0 DUP5 DUP5 ADD MSTORE JUMPDEST POP POP POP POP JUMP JUMPDEST PUSH1 0x0 PUSH2 0x3982 PUSH2 0x397D DUP5 PUSH2 0x390B JUMP JUMPDEST PUSH2 0x32CF JUMP JUMPDEST SWAP1 POP DUP3 DUP2 MSTORE PUSH1 0x20 DUP2 ADD DUP5 DUP5 DUP5 ADD GT ISZERO PUSH2 0x399E JUMPI PUSH2 0x399D PUSH2 0x3259 JUMP JUMPDEST JUMPDEST PUSH2 0x39A9 DUP5 DUP3 DUP6 PUSH2 0x393C JUMP JUMPDEST POP SWAP4 SWAP3 POP POP POP JUMP JUMPDEST PUSH1 0x0 DUP3 PUSH1 0x1F DUP4 ADD SLT PUSH2 0x39C6 JUMPI PUSH2 0x39C5 PUSH2 0x2CCC JUMP JUMPDEST JUMPDEST DUP2 MLOAD PUSH2 0x39D6 DUP5 DUP3 PUSH1 0x20 DUP7 ADD PUSH2 0x396F JUMP JUMPDEST SWAP2 POP POP SWAP3 SWAP2 POP POP JUMP JUMPDEST PUSH1 0x0 PUSH1 0x20 DUP3 DUP5 SUB SLT ISZERO PUSH2 0x39F5 JUMPI PUSH2 0x39F4 PUSH2 0x2C01 JUMP JUMPDEST JUMPDEST PUSH1 0x0 DUP3 ADD MLOAD PUSH8 0xFFFFFFFFFFFFFFFF DUP2 GT ISZERO PUSH2 0x3A13 JUMPI PUSH2 0x3A12 PUSH2 0x2C06 JUMP JUMPDEST JUMPDEST PUSH2 0x3A1F DUP5 DUP3 DUP6 ADD PUSH2 0x39B1 JUMP JUMPDEST SWAP2 POP POP SWAP3 SWAP2 POP POP JUMP JUMPDEST PUSH2 0x3A31 DUP2 PUSH2 0x2C2B JUMP JUMPDEST DUP3 MSTORE POP POP JUMP JUMPDEST PUSH2 0x3A40 DUP2 PUSH2 0x2C96 JUMP JUMPDEST DUP3 MSTORE POP POP JUMP JUMPDEST PUSH1 0x0 DUP2 MLOAD SWAP1 POP SWAP2 SWAP1 POP JUMP JUMPDEST PUSH1 0x0 DUP3 DUP3 MSTORE PUSH1 0x20 DUP3 ADD SWAP1 POP SWAP3 SWAP2 POP POP JUMP JUMPDEST PUSH1 0x0 PUSH2 0x3A6D DUP3 PUSH2 0x3A46 JUMP JUMPDEST PUSH2 0x3A77 DUP2 DUP6 PUSH2 0x3A51 JUMP JUMPDEST SWAP4 POP PUSH2 0x3A87 DUP2 DUP6 PUSH1 0x20 DUP7 ADD PUSH2 0x393C JUMP JUMPDEST PUSH2 0x3A90 DUP2 PUSH2 0x325E JUMP JUMPDEST DUP5 ADD SWAP2 POP POP SWAP3 SWAP2 POP POP JUMP JUMPDEST PUSH1 0x0 PUSH1 0x80 DUP4 ADD PUSH1 0x0 DUP4 ADD MLOAD PUSH2 0x3AB3 PUSH1 0x0 DUP7 ADD DUP3 PUSH2 0x3A28 JUMP JUMPDEST POP PUSH1 0x20 DUP4 ADD MLOAD PUSH2 0x3AC6 PUSH1 0x20 DUP7 ADD DUP3 PUSH2 0x3A28 JUMP JUMPDEST POP PUSH1 0x40 DUP4 ADD MLOAD PUSH2 0x3AD9 PUSH1 0x40 DUP7 ADD DUP3 PUSH2 0x3A37 JUMP JUMPDEST POP PUSH1 0x60 DUP4 ADD MLOAD DUP5 DUP3 SUB PUSH1 0x60 DUP7 ADD MSTORE PUSH2 0x3AF1 DUP3 DUP3 PUSH2 0x3A62 JUMP JUMPDEST SWAP2 POP POP DUP1 SWAP2 POP POP SWAP3 SWAP2 POP POP JUMP JUMPDEST PUSH1 0x0 PUSH1 0x20 DUP3 ADD SWAP1 POP DUP2 DUP2 SUB PUSH1 0x0 DUP4 ADD MSTORE PUSH2 0x3B18 DUP2 DUP5 PUSH2 0x3A9B JUMP JUMPDEST SWAP1 POP SWAP3 SWAP2 POP POP JUMP JUMPDEST PUSH1 0x0 DUP2 MLOAD SWAP1 POP SWAP2 SWAP1 POP JUMP JUMPDEST PUSH1 0x0 DUP3 DUP3 MSTORE PUSH1 0x20 DUP3 ADD SWAP1 POP SWAP3 SWAP2 POP POP JUMP JUMPDEST PUSH1 0x0 PUSH2 0x3B47 DUP3 PUSH2 0x3B20 JUMP JUMPDEST PUSH2 0x3B51 DUP2 DUP6 PUSH2 0x3B2B JUMP JUMPDEST SWAP4 POP PUSH2 0x3B61 DUP2 DUP6 PUSH1 0x20 DUP7 ADD PUSH2 0x393C JUMP JUMPDEST PUSH2 0x3B6A DUP2 PUSH2 0x325E JUMP JUMPDEST DUP5 ADD SWAP2 POP POP SWAP3 SWAP2 POP POP JUMP JUMPDEST PUSH1 0x0 PUSH1 0x20 DUP3 ADD SWAP1 POP DUP2 DUP2 SUB PUSH1 0x0 DUP4 ADD MSTORE PUSH2 0x3B8F DUP2 DUP5 PUSH2 0x3B3C JUMP JUMPDEST SWAP1 POP SWAP3 SWAP2 POP POP JUMP JUMPDEST PUSH1 0x0 DUP2 MLOAD SWAP1 POP PUSH2 0x3BA6 DUP2 PUSH2 0x2CA0 JUMP JUMPDEST SWAP3 SWAP2 POP POP JUMP JUMPDEST PUSH1 0x0 PUSH1 0x20 DUP3 DUP5 SUB SLT ISZERO PUSH2 0x3BC2 JUMPI PUSH2 0x3BC1 PUSH2 0x2C01 JUMP JUMPDEST JUMPDEST PUSH1 0x0 PUSH2 0x3BD0 DUP5 DUP3 DUP6 ADD PUSH2 0x3B97 JUMP JUMPDEST SWAP2 POP POP SWAP3 SWAP2 POP POP JUMP JUMPDEST PUSH1 0x0 PUSH2 0x3BE4 DUP3 PUSH2 0x2C96 JUMP JUMPDEST SWAP2 POP PUSH2 0x3BEF DUP4 PUSH2 0x2C96 JUMP JUMPDEST SWAP3 POP DUP3 PUSH32 0xFFFFFFFFFFFFFFFFFFFFFFFFFFFFFFFFFFFFFFFFFFFFFFFFFFFFFFFFFFFFFFFF SUB DUP3 GT ISZERO PUSH2 0x3C24 JUMPI PUSH2 0x3C23 PUSH2 0x37E1 JUMP JUMPDEST JUMPDEST DUP3 DUP3 ADD SWAP1 POP SWAP3 SWAP2 POP POP JUMP JUMPDEST PUSH1 0x0 DUP1 REVERT JUMPDEST PUSH1 0x0 DUP1 REVERT JUMPDEST PUSH1 0x0 DUP2 MLOAD SWAP1 POP PUSH2 0x3C48 DUP2 PUSH2 0x2C3D JUMP JUMPDEST SWAP3 SWAP2 POP POP JUMP JUMPDEST PUSH1 0x0 PUSH1 0x80 DUP3 DUP5 SUB SLT ISZERO PUSH2 0x3C64 JUMPI PUSH2 0x3C63 PUSH2 0x3C2F JUMP JUMPDEST JUMPDEST PUSH2 0x3C6E PUSH1 0x80 PUSH2 0x32CF JUMP JUMPDEST SWAP1 POP PUSH1 0x0 PUSH2 0x3C7E DUP5 DUP3 DUP6 ADD PUSH2 0x3C39 JUMP JUMPDEST PUSH1 0x0 DUP4 ADD MSTORE POP PUSH1 0x20 PUSH2 0x3C92 DUP5 DUP3 DUP6 ADD PUSH2 0x3C39 JUMP JUMPDEST PUSH1 0x20 DUP4 ADD MSTORE POP PUSH1 0x40 PUSH2 0x3CA6 DUP5 DUP3 DUP6 ADD PUSH2 0x3B97 JUMP JUMPDEST PUSH1 0x40 DUP4 ADD MSTORE POP PUSH1 0x60 DUP3 ADD MLOAD PUSH8 0xFFFFFFFFFFFFFFFF DUP2 GT ISZERO PUSH2 0x3CCA JUMPI PUSH2 0x3CC9 PUSH2 0x3C34 JUMP JUMPDEST JUMPDEST PUSH2 0x3CD6 DUP5 DUP3 DUP6 ADD PUSH2 0x39B1 JUMP JUMPDEST PUSH1 0x60 DUP4 ADD MSTORE POP SWAP3 SWAP2 POP POP JUMP JUMPDEST PUSH1 0x0 PUSH1 0x20 DUP3 DUP5 SUB SLT ISZERO PUSH2 0x3CF8 JUMPI PUSH2 0x3CF7 PUSH2 0x2C01 JUMP JUMPDEST JUMPDEST PUSH1 0x0 DUP3 ADD MLOAD PUSH8 0xFFFFFFFFFFFFFFFF DUP2 GT ISZERO PUSH2 0x3D16 JUMPI PUSH2 0x3D15 PUSH2 0x2C06 JUMP JUMPDEST JUMPDEST PUSH2 0x3D22 DUP5 DUP3 DUP6 ADD PUSH2 0x3C4E JUMP JUMPDEST SWAP2 POP POP SWAP3 SWAP2 POP POP JUMP JUMPDEST PUSH1 0x0 PUSH1 0x60 DUP3 ADD SWAP1 POP PUSH2 0x3D40 PUSH1 0x0 DUP4 ADD DUP7 PUSH2 0x2F18 JUMP JUMPDEST PUSH2 0x3D4D PUSH1 0x20 DUP4 ADD DUP6 PUSH2 0x2F18 JUMP JUMPDEST PUSH2 0x3D5A PUSH1 0x40 DUP4 ADD DUP5 PUSH2 0x2EEE JUMP JUMPDEST SWAP5 SWAP4 POP POP POP POP JUMP JUMPDEST PUSH1 0x0 PUSH2 0x3D6D DUP3 PUSH2 0x3A46 JUMP JUMPDEST PUSH2 0x3D77 DUP2 DUP6 PUSH2 0x3634 JUMP JUMPDEST SWAP4 POP PUSH2 0x3D87 DUP2 DUP6 PUSH1 0x20 DUP7 ADD PUSH2 0x393C JUMP JUMPDEST PUSH2 0x3D90 DUP2 PUSH2 0x325E JUMP JUMPDEST DUP5 ADD SWAP2 POP POP SWAP3 SWAP2 POP POP JUMP JUMPDEST PUSH1 0x0 PUSH1 0x60 DUP3 ADD SWAP1 POP PUSH2 0x3DB0 PUSH1 0x0 DUP4 ADD DUP7 PUSH2 0x2F18 JUMP JUMPDEST PUSH2 0x3DBD PUSH1 0x20 DUP4 ADD DUP6 PUSH2 0x2EEE JUMP JUMPDEST DUP2 DUP2 SUB PUSH1 0x40 DUP4 ADD MSTORE PUSH2 0x3DCF DUP2 DUP5 PUSH2 0x3D62 JUMP JUMPDEST SWAP1 POP SWAP5 SWAP4 POP POP POP POP JUMP JUMPDEST PUSH1 0x0 PUSH1 0x80 DUP3 ADD SWAP1 POP PUSH2 0x3DEE PUSH1 0x0 DUP4 ADD DUP8 PUSH2 0x2F18 JUMP JUMPDEST PUSH2 0x3DFB PUSH1 0x20 DUP4 ADD DUP7 PUSH2 0x2F18 JUMP JUMPDEST PUSH2 0x3E08 PUSH1 0x40 DUP4 ADD DUP6 PUSH2 0x2EEE JUMP JUMPDEST PUSH2 0x3E15 PUSH1 0x60 DUP4 ADD DUP5 PUSH2 0x38C5 JUMP JUMPDEST SWAP6 SWAP5 POP POP POP POP POP JUMP JUMPDEST PUSH1 0x0 PUSH1 0x40 DUP3 ADD SWAP1 POP PUSH2 0x3E33 PUSH1 0x0 DUP4 ADD DUP6 PUSH2 0x38C5 JUMP JUMPDEST PUSH2 0x3E40 PUSH1 0x20 DUP4 ADD DUP5 PUSH2 0x2EEE JUMP JUMPDEST SWAP4 SWAP3 POP POP POP JUMP JUMPDEST PUSH32 0x5061757361626C653A2070617573656400000000000000000000000000000000 PUSH1 0x0 DUP3 ADD MSTORE POP JUMP JUMPDEST PUSH1 0x0 PUSH2 0x3E7D PUSH1 0x10 DUP4 PUSH2 0x3634 JUMP JUMPDEST SWAP2 POP PUSH2 0x3E88 DUP3 PUSH2 0x3E47 JUMP JUMPDEST PUSH1 0x20 DUP3 ADD SWAP1 POP SWAP2 SWAP1 POP JUMP JUMPDEST PUSH1 0x0 PUSH1 0x20 DUP3 ADD SWAP1 POP DUP2 DUP2 SUB PUSH1 0x0 DUP4 ADD MSTORE PUSH2 0x3EAC DUP2 PUSH2 0x3E70 JUMP JUMPDEST SWAP1 POP SWAP2 SWAP1 POP JUMP JUMPDEST PUSH1 0x0 PUSH1 0x20 DUP3 DUP5 SUB SLT ISZERO PUSH2 0x3EC9 JUMPI PUSH2 0x3EC8 PUSH2 0x2C01 JUMP JUMPDEST JUMPDEST PUSH1 0x0 PUSH2 0x3ED7 DUP5 DUP3 DUP6 ADD PUSH2 0x3C39 JUMP JUMPDEST SWAP2 POP POP SWAP3 SWAP2 POP POP JUMP JUMPDEST PUSH32 0x6E6F7420746F6B656E206F776E65720000000000000000000000000000000000 PUSH1 0x0 DUP3 ADD MSTORE POP JUMP JUMPDEST PUSH1 0x0 PUSH2 0x3F16 PUSH1 0xF DUP4 PUSH2 0x3634 JUMP JUMPDEST SWAP2 POP PUSH2 0x3F21 DUP3 PUSH2 0x3EE0 JUMP JUMPDEST PUSH1 0x20 DUP3 ADD SWAP1 POP SWAP2 SWAP1 POP JUMP JUMPDEST PUSH1 0x0 PUSH1 0x20 DUP3 ADD SWAP1 POP DUP2 DUP2 SUB PUSH1 0x0 DUP4 ADD MSTORE PUSH2 0x3F45 DUP2 PUSH2 0x3F09 JUMP JUMPDEST SWAP1 POP SWAP2 SWAP1 POP JUMP JUMPDEST PUSH32 0x7472616E73666572204E4654206661696C656400000000000000000000000000 PUSH1 0x0 DUP3 ADD MSTORE POP JUMP JUMPDEST PUSH1 0x0 PUSH2 0x3F82 PUSH1 0x13 DUP4 PUSH2 0x3634 JUMP JUMPDEST SWAP2 POP PUSH2 0x3F8D DUP3 PUSH2 0x3F4C JUMP JUMPDEST PUSH1 0x20 DUP3 ADD SWAP1 POP SWAP2 SWAP1 POP JUMP JUMPDEST PUSH1 0x0 PUSH1 0x20 DUP3 ADD SWAP1 POP DUP2 DUP2 SUB PUSH1 0x0 DUP4 ADD MSTORE PUSH2 0x3FB1 DUP2 PUSH2 0x3F75 JUMP JUMPDEST SWAP1 POP SWAP2 SWAP1 POP JUMP JUMPDEST PUSH1 0x0 PUSH1 0xC0 DUP3 ADD SWAP1 POP PUSH2 0x3FCD PUSH1 0x0 DUP4 ADD DUP10 PUSH2 0x2F18 JUMP JUMPDEST PUSH2 0x3FDA PUSH1 0x20 DUP4 ADD DUP9 PUSH2 0x2F18 JUMP JUMPDEST PUSH2 0x3FE7 PUSH1 0x40 DUP4 ADD DUP8 PUSH2 0x2EEE JUMP JUMPDEST PUSH2 0x3FF4 PUSH1 0x60 DUP4 ADD DUP7 PUSH2 0x38C5 JUMP JUMPDEST PUSH2 0x4001 PUSH1 0x80 DUP4 ADD DUP6 PUSH2 0x2F18 JUMP JUMPDEST PUSH2 0x400E PUSH1 0xA0 DUP4 ADD DUP5 PUSH2 0x2F18 JUMP JUMPDEST SWAP8 SWAP7 POP POP POP POP POP POP POP JUMP JUMPDEST PUSH1 0x0 PUSH1 0x40 DUP3 ADD SWAP1 POP PUSH2 0x402E PUSH1 0x0 DUP4 ADD DUP6 PUSH2 0x38C5 JUMP JUMPDEST PUSH2 0x403B PUSH1 0x20 DUP4 ADD DUP5 PUSH2 0x2F18 JUMP JUMPDEST SWAP4 SWAP3 POP POP POP JUMP JUMPDEST PUSH32 0x4F776E61626C653A206E6577206F776E657220697320746865207A65726F2061 PUSH1 0x0 DUP3 ADD MSTORE PUSH32 0x6464726573730000000000000000000000000000000000000000000000000000 PUSH1 0x20 DUP3 ADD MSTORE POP JUMP JUMPDEST PUSH1 0x0 PUSH2 0x409E PUSH1 0x26 DUP4 PUSH2 0x3634 JUMP JUMPDEST SWAP2 POP PUSH2 0x40A9 DUP3 PUSH2 0x4042 JUMP JUMPDEST PUSH1 0x40 DUP3 ADD SWAP1 POP SWAP2 SWAP1 POP JUMP JUMPDEST PUSH1 0x0 PUSH1 0x20 DUP3 ADD SWAP1 POP DUP2 DUP2 SUB PUSH1 0x0 DUP4 ADD MSTORE PUSH2 0x40CD DUP2 PUSH2 0x4091 JUMP JUMPDEST SWAP1 POP SWAP2 SWAP1 POP JUMP JUMPDEST PUSH32 0x6F776E657220616C726561647920736574000000000000000000000000000000 PUSH1 0x0 DUP3 ADD MSTORE POP JUMP JUMPDEST PUSH1 0x0 PUSH2 0x410A PUSH1 0x11 DUP4 PUSH2 0x3634 JUMP JUMPDEST SWAP2 POP PUSH2 0x4115 DUP3 PUSH2 0x40D4 JUMP JUMPDEST PUSH1 0x20 DUP3 ADD SWAP1 POP SWAP2 SWAP1 POP JUMP JUMPDEST PUSH1 0x0 PUSH1 0x20 DUP3 ADD SWAP1 POP DUP2 DUP2 SUB PUSH1 0x0 DUP4 ADD MSTORE PUSH2 0x4139 DUP2 PUSH2 0x40FD JUMP JUMPDEST SWAP1 POP SWAP2 SWAP1 POP JUMP JUMPDEST PUSH32 0x5061757361626C653A206E6F7420706175736564000000000000000000000000 PUSH1 0x0 DUP3 ADD MSTORE POP JUMP JUMPDEST PUSH1 0x0 PUSH2 0x4176 PUSH1 0x14 DUP4 PUSH2 0x3634 JUMP JUMPDEST SWAP2 POP PUSH2 0x4181 DUP3 PUSH2 0x4140 JUMP JUMPDEST PUSH1 0x20 DUP3 ADD SWAP1 POP SWAP2 SWAP1 POP JUMP JUMPDEST PUSH1 0x0 PUSH1 0x20 DUP3 ADD SWAP1 POP DUP2 DUP2 SUB PUSH1 0x0 DUP4 ADD MSTORE PUSH2 0x41A5 DUP2 PUSH2 0x4169 JUMP JUMPDEST SWAP1 POP SWAP2 SWAP1 POP JUMP JUMPDEST PUSH32 0x4163636F756E74206973206E6F74207061757365720000000000000000000000 PUSH1 0x0 DUP3 ADD MSTORE POP JUMP JUMPDEST PUSH1 0x0 PUSH2 0x41E2 PUSH1 0x15 DUP4 PUSH2 0x3634 JUMP JUMPDEST SWAP2 POP PUSH2 0x41ED DUP3 PUSH2 0x41AC JUMP JUMPDEST PUSH1 0x20 DUP3 ADD SWAP1 POP SWAP2 SWAP1 POP JUMP JUMPDEST PUSH1 0x0 PUSH1 0x20 DUP3 ADD SWAP1 POP DUP2 DUP2 SUB PUSH1 0x0 DUP4 ADD MSTORE PUSH2 0x4211 DUP2 PUSH2 0x41D5 JUMP JUMPDEST SWAP1 POP SWAP2 SWAP1 POP JUMP JUMPDEST PUSH32 0x4163636F756E7420697320616C72656164792070617573657200000000000000 PUSH1 0x0 DUP3 ADD MSTORE POP JUMP JUMPDEST PUSH1 0x0 PUSH2 0x424E PUSH1 0x19 DUP4 PUSH2 0x3634 JUMP JUMPDEST SWAP2 POP PUSH2 0x4259 DUP3 PUSH2 0x4218 JUMP JUMPDEST PUSH1 0x20 DUP3 ADD SWAP1 POP SWAP2 SWAP1 POP JUMP JUMPDEST PUSH1 0x0 PUSH1 0x20 DUP3 ADD SWAP1 POP DUP2 DUP2 SUB PUSH1 0x0 DUP4 ADD MSTORE PUSH2 0x427D DUP2 PUSH2 0x4241 JUMP JUMPDEST SWAP1 POP SWAP2 SWAP1 POP JUMP JUMPDEST PUSH32 0x64657374204E465420427269646765206E6F7420666F756E6400000000000000 PUSH1 0x0 DUP3 ADD MSTORE POP JUMP JUMPDEST PUSH1 0x0 PUSH2 0x42BA PUSH1 0x19 DUP4 PUSH2 0x3634 JUMP JUMPDEST SWAP2 POP PUSH2 0x42C5 DUP3 PUSH2 0x4284 JUMP JUMPDEST PUSH1 0x20 DUP3 ADD SWAP1 POP SWAP2 SWAP1 POP JUMP JUMPDEST PUSH1 0x0 PUSH1 0x20 DUP3 ADD SWAP1 POP DUP2 DUP2 SUB PUSH1 0x0 DUP4 ADD MSTORE PUSH2 0x42E9 DUP2 PUSH2 0x42AD JUMP JUMPDEST SWAP1 POP SWAP2 SWAP1 POP JUMP JUMPDEST PUSH32 0x64657374204E4654206E6F7420666F756E640000000000000000000000000000 PUSH1 0x0 DUP3 ADD MSTORE POP JUMP JUMPDEST PUSH1 0x0 PUSH2 0x4326 PUSH1 0x12 DUP4 PUSH2 0x3634 JUMP JUMPDEST SWAP2 POP PUSH2 0x4331 DUP3 PUSH2 0x42F0 JUMP JUMPDEST PUSH1 0x20 DUP3 ADD SWAP1 POP SWAP2 SWAP1 POP JUMP JUMPDEST PUSH1 0x0 PUSH1 0x20 DUP3 ADD SWAP1 POP DUP2 DUP2 SUB PUSH1 0x0 DUP4 ADD MSTORE PUSH2 0x4355 DUP2 PUSH2 0x4319 JUMP JUMPDEST SWAP1 POP SWAP2 SWAP1 POP JUMP JUMPDEST PUSH32 0x696E73756666696369656E742066656500000000000000000000000000000000 PUSH1 0x0 DUP3 ADD MSTORE POP JUMP JUMPDEST PUSH1 0x0 PUSH2 0x4392 PUSH1 0x10 DUP4 PUSH2 0x3634 JUMP JUMPDEST SWAP2 POP PUSH2 0x439D DUP3 PUSH2 0x435C JUMP JUMPDEST PUSH1 0x20 DUP3 ADD SWAP1 POP SWAP2 SWAP1 POP JUMP JUMPDEST PUSH1 0x0 PUSH1 0x20 DUP3 ADD SWAP1 POP DUP2 DUP2 SUB PUSH1 0x0 DUP4 ADD MSTORE PUSH2 0x43C1 DUP2 PUSH2 0x4385 JUMP JUMPDEST SWAP1 POP SWAP2 SWAP1 POP JUMP JUMPDEST PUSH1 0x0 DUP2 SWAP1 POP SWAP2 SWAP1 POP JUMP JUMPDEST PUSH1 0x0 PUSH2 0x43ED PUSH2 0x43E8 PUSH2 0x43E3 DUP5 PUSH2 0x2E81 JUMP JUMPDEST PUSH2 0x43C8 JUMP JUMPDEST PUSH2 0x2C96 JUMP JUMPDEST SWAP1 POP SWAP2 SWAP1 POP JUMP JUMPDEST PUSH2 0x43FD DUP2 PUSH2 0x43D2 JUMP JUMPDEST DUP3 MSTORE POP POP JUMP JUMPDEST PUSH1 0x0 PUSH1 0x60 DUP3 ADD SWAP1 POP PUSH2 0x4418 PUSH1 0x0 DUP4 ADD DUP7 PUSH2 0x2F18 JUMP JUMPDEST PUSH2 0x4425 PUSH1 0x20 DUP4 ADD DUP6 PUSH2 0x43F4 JUMP JUMPDEST DUP2 DUP2 SUB PUSH1 0x40 DUP4 ADD MSTORE PUSH2 0x4437 DUP2 DUP5 PUSH2 0x3B3C JUMP JUMPDEST SWAP1 POP SWAP5 SWAP4 POP POP POP POP JUMP INVALID LOG2 PUSH5 0x6970667358 0x22 SLT KECCAK256 0x23 RETURNDATACOPY PUSH10 0xAA794BE7DD5CDDC07E80 SWAP6 0xC0 ADDMOD 0xF9 SWAP6 PUSH25 0x1A6F7D085059630107DF333BBD64736F6C6343000809003300 "
				},
				"gasEstimates": {
					"creation": {
						"codeDepositCost": "3505400",
						"executionCost": "infinite",
						"totalCost": "infinite"
					},
					"external": {
						"addPauser(address)": "infinite",
						"claimFee()": "infinite",
						"delOrigNFT(address)": "infinite",
						"destBridge(uint64)": "2913",
						"destNFTAddr(address,uint64)": "infinite",
						"destTxFee(uint64)": "2884",
						"executeMessage(address,uint64,bytes,address)": "infinite",
						"executeMessageWithTransfer(address,address,uint256,uint64,bytes,address)": "infinite",
						"executeMessageWithTransferFallback(address,address,uint256,uint64,bytes,address)": "infinite",
						"executeMessageWithTransferRefund(address,uint256,bytes,address)": "infinite",
						"init(address)": "54949",
						"isPauser(address)": "2951",
						"messageBus()": "2603",
						"origNFT(address)": "2936",
						"owner()": "2634",
						"pause()": "30375",
						"paused()": "2574",
						"pausers(address)": "2891",
						"removePauser(address)": "infinite",
						"renouncePauser()": "28144",
						"sendMsg(uint64,address,address,uint256,string)": "infinite",
						"sendTo(address,uint256,uint64,address)": "infinite",
						"setDestBridge(uint64,address)": "infinite",
						"setDestBridges(uint64[],address[])": "infinite",
						"setDestNFT(address,uint64,address)": "infinite",
						"setDestNFTs(address,uint64[],address[])": "infinite",
						"setMessageBus(address)": "infinite",
						"setOrigNFT(address)": "infinite",
						"setTxFee(uint64,uint256)": "infinite",
						"totalFee(uint64,address,uint256)": "infinite",
						"transferOwnership(address)": "30798",
						"unpause()": "30394"
					},
					"internal": {
						"checkAddr(address,uint64)": "infinite",
						"msgBus(address,uint64,bytes memory)": "infinite"
					}
				},
				"methodIdentifiers": {
					"addPauser(address)": "82dc1ec4",
					"claimFee()": "99d32fc4",
					"delOrigNFT(address)": "ed99bf43",
					"destBridge(uint64)": "27cbe705",
					"destNFTAddr(address,uint64)": "9e041b9d",
					"destTxFee(uint64)": "151ff4eb",
					"executeMessage(address,uint64,bytes,address)": "9c649fdf",
					"executeMessageWithTransfer(address,address,uint256,uint64,bytes,address)": "7cd2bffc",
					"executeMessageWithTransferFallback(address,address,uint256,uint64,bytes,address)": "5ab7afc6",
					"executeMessageWithTransferRefund(address,uint256,bytes,address)": "0bcb4982",
					"init(address)": "19ab453c",
					"isPauser(address)": "46fbf68e",
					"messageBus()": "a1a227fa",
					"origNFT(address)": "1140c84e",
					"owner()": "8da5cb5b",
					"pause()": "8456cb59",
					"paused()": "5c975abb",
					"pausers(address)": "80f51c12",
					"removePauser(address)": "6b2c0f55",
					"renouncePauser()": "6ef8d66d",
					"sendMsg(uint64,address,address,uint256,string)": "f0cb57ce",
					"sendTo(address,uint256,uint64,address)": "b2c88775",
					"setDestBridge(uint64,address)": "da754f44",
					"setDestBridges(uint64[],address[])": "43a8c137",
					"setDestNFT(address,uint64,address)": "95b6a191",
					"setDestNFTs(address,uint64[],address[])": "2d5fa47c",
					"setMessageBus(address)": "547cad12",
					"setOrigNFT(address)": "065c38fd",
					"setTxFee(uint64,uint256)": "9f825f07",
					"totalFee(uint64,address,uint256)": "9c1a65bd",
					"transferOwnership(address)": "f2fde38b",
					"unpause()": "3f4ba83a"
				}
			},
			"storageLayout": {
				"storage": [
					{
						"astId": 1337,
						"contract": "contracts/NFTBridge.sol:NFTBridge",
						"label": "_owner",
						"offset": 0,
						"slot": "0",
						"type": "t_address"
					},
					{
						"astId": 919,
						"contract": "contracts/NFTBridge.sol:NFTBridge",
						"label": "messageBus",
						"offset": 0,
						"slot": "1",
						"type": "t_address"
					},
					{
						"astId": 17,
						"contract": "contracts/NFTBridge.sol:NFTBridge",
						"label": "_paused",
						"offset": 20,
						"slot": "1",
						"type": "t_bool"
					},
					{
						"astId": 1451,
						"contract": "contracts/NFTBridge.sol:NFTBridge",
						"label": "pausers",
						"offset": 0,
						"slot": "2",
						"type": "t_mapping(t_address,t_bool)"
					},
					{
						"astId": 166,
						"contract": "contracts/NFTBridge.sol:NFTBridge",
						"label": "destTxFee",
						"offset": 0,
						"slot": "3",
						"type": "t_mapping(t_uint64,t_uint256)"
					},
					{
						"astId": 171,
						"contract": "contracts/NFTBridge.sol:NFTBridge",
						"label": "destBridge",
						"offset": 0,
						"slot": "4",
						"type": "t_mapping(t_uint64,t_address)"
					},
					{
						"astId": 178,
						"contract": "contracts/NFTBridge.sol:NFTBridge",
						"label": "destNFTAddr",
						"offset": 0,
						"slot": "5",
						"type": "t_mapping(t_address,t_mapping(t_uint64,t_address))"
					},
					{
						"astId": 183,
						"contract": "contracts/NFTBridge.sol:NFTBridge",
						"label": "origNFT",
						"offset": 0,
						"slot": "6",
						"type": "t_mapping(t_address,t_bool)"
					}
				],
				"types": {
					"t_address": {
						"encoding": "inplace",
						"label": "address",
						"numberOfBytes": "20"
					},
					"t_bool": {
						"encoding": "inplace",
						"label": "bool",
						"numberOfBytes": "1"
					},
					"t_mapping(t_address,t_bool)": {
						"encoding": "mapping",
						"key": "t_address",
						"label": "mapping(address => bool)",
						"numberOfBytes": "32",
						"value": "t_bool"
					},
					"t_mapping(t_address,t_mapping(t_uint64,t_address))": {
						"encoding": "mapping",
						"key": "t_address",
						"label": "mapping(address => mapping(uint64 => address))",
						"numberOfBytes": "32",
						"value": "t_mapping(t_uint64,t_address)"
					},
					"t_mapping(t_uint64,t_address)": {
						"encoding": "mapping",
						"key": "t_uint64",
						"label": "mapping(uint64 => address)",
						"numberOfBytes": "32",
						"value": "t_address"
					},
					"t_mapping(t_uint64,t_uint256)": {
						"encoding": "mapping",
						"key": "t_uint64",
						"label": "mapping(uint64 => uint256)",
						"numberOfBytes": "32",
						"value": "t_uint256"
					},
					"t_uint256": {
						"encoding": "inplace",
						"label": "uint256",
						"numberOfBytes": "32"
					},
					"t_uint64": {
						"encoding": "inplace",
						"label": "uint64",
						"numberOfBytes": "8"
					}
				}
			},
			"userdoc": {
				"kind": "user",
				"methods": {
					"destBridge(uint64)": {
						"notice": "per dest chain id NFTBridge address"
					},
					"destNFTAddr(address,uint64)": {
						"notice": "first key is NFT address on this chain, 2nd key is dest chain id, value is address on dest chain"
					},
					"destTxFee(uint64)": {
						"notice": "per dest chain id executor fee in this chain's gas token"
					},
					"executeMessageWithTransfer(address,address,uint256,uint64,bytes,address)": {
						"notice": "Called by MessageBus (MessageBusReceiver) if the process is originated from MessageBus (MessageBusSender)'s         sendMessageWithTransfer it is only called when the tokens are checked to be arrived at this contract's address."
					},
					"executeMessageWithTransferFallback(address,address,uint256,uint64,bytes,address)": {
						"notice": "Only called by MessageBus (MessageBusReceiver) if         1. executeMessageWithTransfer reverts, or         2. executeMessageWithTransfer returns ExecutionStatus.Fail"
					},
					"executeMessageWithTransferRefund(address,uint256,bytes,address)": {
						"notice": "Called by MessageBus (MessageBusReceiver) to process refund of the original transfer from this contract"
					},
					"origNFT(address)": {
						"notice": "only set to true if NFT addr on this chain is the orig, so we will use deposit/withdraw instead of burn/mint. not applicable for mcn nft (always burn/mint)"
					},
					"sendTo(address,uint256,uint64,address)": {
						"notice": "locks or burn user's NFT in this contract and send message to mint (or withdraw) on dest chain"
					},
					"totalFee(uint64,address,uint256)": {
						"notice": "totalFee returns gas token value to be set in user tx, includes both cbridge msg fee and executor fee on dest chain"
					}
				},
				"version": 1
			}
		}
	}
}