{
	"data": {
		"bytecode": {
			"linkReferences": {},
			"object": "60806040523480156200001157600080fd5b506040516200489238038062004892833981810160405281019062000037919062000328565b6200004833620000bc60201b60201c565b6000600160146101000a81548160ff02191690831515021790555062000074336200018060201b60201c565b80600160006101000a81548173ffffffffffffffffffffffffffffffffffffffff021916908373ffffffffffffffffffffffffffffffffffffffff160217905550506200040b565b60008060009054906101000a900473ffffffffffffffffffffffffffffffffffffffff169050816000806101000a81548173ffffffffffffffffffffffffffffffffffffffff021916908373ffffffffffffffffffffffffffffffffffffffff1602179055508173ffffffffffffffffffffffffffffffffffffffff168173ffffffffffffffffffffffffffffffffffffffff167f8be0079c531659141344cd1fd0a4f28419497f9722a3daafe3b4186f6b6457e060405160405180910390a35050565b62000191816200026860201b60201c565b15620001d4576040517f08c379a0000000000000000000000000000000000000000000000000000000008152600401620001cb90620003bb565b60405180910390fd5b6001600260008373ffffffffffffffffffffffffffffffffffffffff1673ffffffffffffffffffffffffffffffffffffffff16815260200190815260200160002060006101000a81548160ff0219169083151502179055507f6719d08c1888103bea251a4ed56406bd0c3e69723c8a1686e017e7bbe159b6f8816040516200025d9190620003ee565b60405180910390a150565b6000600260008373ffffffffffffffffffffffffffffffffffffffff1673ffffffffffffffffffffffffffffffffffffffff16815260200190815260200160002060009054906101000a900460ff169050919050565b600080fd5b600073ffffffffffffffffffffffffffffffffffffffff82169050919050565b6000620002f082620002c3565b9050919050565b6200030281620002e3565b81146200030e57600080fd5b50565b6000815190506200032281620002f7565b92915050565b600060208284031215620003415762000340620002be565b5b6000620003518482850162000311565b91505092915050565b600082825260208201905092915050565b7f4163636f756e7420697320616c72656164792070617573657200000000000000600082015250565b6000620003a36019836200035a565b9150620003b0826200036b565b602082019050919050565b60006020820190508181036000830152620003d68162000394565b9050919050565b620003e881620002e3565b82525050565b6000602082019050620004056000830184620003dd565b92915050565b614477806200041b6000396000f3fe6080604052600436106101e35760003560e01c806380f51c12116101025780639e041b9d11610095578063da754f4411610064578063da754f44146106bd578063ed99bf43146106e6578063f0cb57ce1461070f578063f2fde38b1461072b576101e3565b80639e041b9d146106105780639f825f071461064d578063a1a227fa14610676578063b2c88775146106a1576101e3565b806395b6a191116100d157806395b6a1911461056357806399d32fc41461058c5780639c1a65bd146105a35780639c649fdf146105e0576101e3565b806380f51c12146104bb57806382dc1ec4146104f85780638456cb59146105215780638da5cb5b14610538576101e3565b806343a8c1371161017a5780635c975abb116101495780635c975abb146104205780636b2c0f551461044b5780636ef8d66d146104745780637cd2bffc1461048b576101e3565b806343a8c1371461036157806346fbf68e1461038a578063547cad12146103c75780635ab7afc6146103f0576101e3565b806319ab453c116101b657806319ab453c146102bb57806327cbe705146102e45780632d5fa47c146103215780633f4ba83a1461034a576101e3565b8063065c38fd146101e85780630bcb4982146102115780631140c84e14610241578063151ff4eb1461027e575b600080fd5b3480156101f457600080fd5b5061020f600480360381019061020a9190612c69565b610754565b005b61022b60048036038101906102269190612d31565b61085e565b6040516102389190612e30565b60405180910390f35b34801561024d57600080fd5b5061026860048036038101906102639190612c69565b6108f9565b6040516102759190612e66565b60405180910390f35b34801561028a57600080fd5b506102a560048036038101906102a09190612ec1565b610919565b6040516102b29190612efd565b60405180910390f35b3480156102c757600080fd5b506102e260048036038101906102dd9190612c69565b610931565b005b3480156102f057600080fd5b5061030b60048036038101906103069190612ec1565b61097d565b6040516103189190612f27565b60405180910390f35b34801561032d57600080fd5b5061034860048036038101906103439190612fee565b6109b0565b005b34801561035657600080fd5b5061035f610b87565b005b34801561036d57600080fd5b5061038860048036038101906103839190613083565b610bd9565b005b34801561039657600080fd5b506103b160048036038101906103ac9190612c69565b610d2a565b6040516103be9190612e66565b60405180910390f35b3480156103d357600080fd5b506103ee60048036038101906103e99190612c69565b610d80565b005b61040a60048036038101906104059190613104565b610e92565b6040516104179190612e30565b60405180910390f35b34801561042c57600080fd5b50610435610f2f565b6040516104429190612e66565b60405180910390f35b34801561045757600080fd5b50610472600480360381019061046d9190612c69565b610f46565b005b34801561048057600080fd5b50610489610fc7565b005b6104a560048036038101906104a09190613104565b610fd2565b6040516104b29190612e30565b60405180910390f35b3480156104c757600080fd5b506104e260048036038101906104dd9190612c69565b61106f565b6040516104ef9190612e66565b60405180910390f35b34801561050457600080fd5b5061051f600480360381019061051a9190612c69565b61108f565b005b34801561052d57600080fd5b50610536611110565b005b34801561054457600080fd5b5061054d611162565b60405161055a9190612f27565b60405180910390f35b34801561056f57600080fd5b5061058a600480360381019061058591906131b3565b61118b565b005b34801561059857600080fd5b506105a16112e3565b005b3480156105af57600080fd5b506105ca60048036038101906105c59190613206565b6113de565b6040516105d79190612efd565b60405180910390f35b6105fa60048036038101906105f5919061339a565b6115c9565b6040516106079190612e30565b60405180910390f35b34801561061c57600080fd5b506106376004803603810190610632919061341d565b61199d565b6040516106449190612f27565b60405180910390f35b34801561065957600080fd5b50610674600480360381019061066f919061345d565b6119df565b005b34801561068257600080fd5b5061068b611abd565b6040516106989190612f27565b60405180910390f35b6106bb60048036038101906106b6919061349d565b611ae3565b005b3480156106c957600080fd5b506106e460048036038101906106df9190613504565b611fb3565b005b3480156106f257600080fd5b5061070d60048036038101906107089190612c69565b6120cb565b005b6107296004803603810190610724919061359a565b6121cc565b005b34801561073757600080fd5b50610752600480360381019061074d9190612c69565b612330565b005b3373ffffffffffffffffffffffffffffffffffffffff16610773611162565b73ffffffffffffffffffffffffffffffffffffffff16146107c9576040517f08c379a00000000000000000000000000000000000000000000000000000000081526004016107c090613691565b60405180910390fd5b6001600660008373ffffffffffffffffffffffffffffffffffffffff1673ffffffffffffffffffffffffffffffffffffffff16815260200190815260200160002060006101000a81548160ff0219169083151502179055507f9800fb32bf5eb9a3b2e42c910912da10ed1881dc538475101797669146166bf88160016040516108539291906136b1565b60405180910390a150565b6000600160009054906101000a900473ffffffffffffffffffffffffffffffffffffffff1673ffffffffffffffffffffffffffffffffffffffff163373ffffffffffffffffffffffffffffffffffffffff16146108f0576040517f08c379a00000000000000000000000000000000000000000000000000000000081526004016108e790613726565b60405180910390fd5b95945050505050565b60066020528060005260406000206000915054906101000a900460ff1681565b60036020528060005260406000206000915090505481565b610939612421565b80600160006101000a81548173ffffffffffffffffffffffffffffffffffffffff021916908373ffffffffffffffffffffffffffffffffffffffff16021790555050565b60046020528060005260406000206000915054906101000a900473ffffffffffffffffffffffffffffffffffffffff1681565b3373ffffffffffffffffffffffffffffffffffffffff166109cf611162565b73ffffffffffffffffffffffffffffffffffffffff1614610a25576040517f08c379a0000000000000000000000000000000000000000000000000000000008152600401610a1c90613691565b60405180910390fd5b818190508484905014610a6d576040517f08c379a0000000000000000000000000000000000000000000000000000000008152600401610a6490613792565b60405180910390fd5b60005b84849050811015610b7f57828282818110610a8e57610a8d6137b2565b5b9050602002016020810190610aa39190612c69565b600560008873ffffffffffffffffffffffffffffffffffffffff1673ffffffffffffffffffffffffffffffffffffffff1681526020019081526020016000206000878785818110610af757610af66137b2565b5b9050602002016020810190610b0c9190612ec1565b67ffffffffffffffff1667ffffffffffffffff16815260200190815260200160002060006101000a81548173ffffffffffffffffffffffffffffffffffffffff021916908373ffffffffffffffffffffffffffffffffffffffff1602179055508080610b7790613810565b915050610a70565b505050505050565b610b9033610d2a565b610bcf576040517f08c379a0000000000000000000000000000000000000000000000000000000008152600401610bc6906138a5565b60405180910390fd5b610bd76124bb565b565b3373ffffffffffffffffffffffffffffffffffffffff16610bf8611162565b73ffffffffffffffffffffffffffffffffffffffff1614610c4e576040517f08c379a0000000000000000000000000000000000000000000000000000000008152600401610c4590613691565b60405180910390fd5b60005b84849050811015610d2357828282818110610c6f57610c6e6137b2565b5b9050602002016020810190610c849190612c69565b60046000878785818110610c9b57610c9a6137b2565b5b9050602002016020810190610cb09190612ec1565b67ffffffffffffffff1667ffffffffffffffff16815260200190815260200160002060006101000a81548173ffffffffffffffffffffffffffffffffffffffff021916908373ffffffffffffffffffffffffffffffffffffffff1602179055508080610d1b90613810565b915050610c51565b5050505050565b6000600260008373ffffffffffffffffffffffffffffffffffffffff1673ffffffffffffffffffffffffffffffffffffffff16815260200190815260200160002060009054906101000a900460ff169050919050565b3373ffffffffffffffffffffffffffffffffffffffff16610d9f611162565b73ffffffffffffffffffffffffffffffffffffffff1614610df5576040517f08c379a0000000000000000000000000000000000000000000000000000000008152600401610dec90613691565b60405180910390fd5b80600160006101000a81548173ffffffffffffffffffffffffffffffffffffffff021916908373ffffffffffffffffffffffffffffffffffffffff1602179055507f3f8223bcd8b3b875473e9f9e14e1ad075451a2b5ffd31591655da9a01516bf5e600160009054906101000a900473ffffffffffffffffffffffffffffffffffffffff16604051610e879190612f27565b60405180910390a150565b6000600160009054906101000a900473ffffffffffffffffffffffffffffffffffffffff1673ffffffffffffffffffffffffffffffffffffffff163373ffffffffffffffffffffffffffffffffffffffff1614610f24576040517f08c379a0000000000000000000000000000000000000000000000000000000008152600401610f1b90613726565b60405180910390fd5b979650505050505050565b6000600160149054906101000a900460ff16905090565b3373ffffffffffffffffffffffffffffffffffffffff16610f65611162565b73ffffffffffffffffffffffffffffffffffffffff1614610fbb576040517f08c379a0000000000000000000000000000000000000000000000000000000008152600401610fb290613691565b60405180910390fd5b610fc48161255d565b50565b610fd03361255d565b565b6000600160009054906101000a900473ffffffffffffffffffffffffffffffffffffffff1673ffffffffffffffffffffffffffffffffffffffff163373ffffffffffffffffffffffffffffffffffffffff1614611064576040517f08c379a000000000000000000000000000000000000000000000000000000000815260040161105b90613726565b60405180910390fd5b979650505050505050565b60026020528060005260406000206000915054906101000a900460ff1681565b3373ffffffffffffffffffffffffffffffffffffffff166110ae611162565b73ffffffffffffffffffffffffffffffffffffffff1614611104576040517f08c379a00000000000000000000000000000000000000000000000000000000081526004016110fb90613691565b60405180910390fd5b61110d81612637565b50565b61111933610d2a565b611158576040517f08c379a000000000000000000000000000000000000000000000000000000000815260040161114f906138a5565b60405180910390fd5b611160612712565b565b60008060009054906101000a900473ffffffffffffffffffffffffffffffffffffffff16905090565b3373ffffffffffffffffffffffffffffffffffffffff166111aa611162565b73ffffffffffffffffffffffffffffffffffffffff1614611200576040517f08c379a00000000000000000000000000000000000000000000000000000000081526004016111f790613691565b60405180910390fd5b80600560008573ffffffffffffffffffffffffffffffffffffffff1673ffffffffffffffffffffffffffffffffffffffff16815260200190815260200160002060008467ffffffffffffffff1667ffffffffffffffff16815260200190815260200160002060006101000a81548173ffffffffffffffffffffffffffffffffffffffff021916908373ffffffffffffffffffffffffffffffffffffffff1602179055507fa5a9b84f1b7eb437335ea919a3ff6de6e242e4733d0100a773911061737948718383836040516112d6939291906138d4565b60405180910390a1505050565b3373ffffffffffffffffffffffffffffffffffffffff16611302611162565b73ffffffffffffffffffffffffffffffffffffffff1614611358576040517f08c379a000000000000000000000000000000000000000000000000000000000815260040161134f90613691565b60405180910390fd5b60004790503373ffffffffffffffffffffffffffffffffffffffff166108fc829081150290604051600060405180830381858888f193505050501580156113a3573d6000803e3d6000fd5b507f62b10e3ff3d45b5ff546e740b893897facb1680285f989a64ae932d62c5388e1816040516113d39190612efd565b60405180910390a150565b6000808373ffffffffffffffffffffffffffffffffffffffff1663c87b56dd846040518263ffffffff1660e01b815260040161141a9190612efd565b60006040518083038186803b15801561143257600080fd5b505afa158015611446573d6000803e3d6000fd5b505050506040513d6000823e3d601f19601f8201168201806040525081019061146f91906139df565b9050600060405180608001604052808673ffffffffffffffffffffffffffffffffffffffff1681526020018673ffffffffffffffffffffffffffffffffffffffff168152602001858152602001838152506040516020016114d09190613afe565b6040516020818303038152906040529050600360008767ffffffffffffffff1667ffffffffffffffff16815260200190815260200160002054600160009054906101000a900473ffffffffffffffffffffffffffffffffffffffff1673ffffffffffffffffffffffffffffffffffffffff16635335dca2836040518263ffffffff1660e01b81526004016115649190613b75565b60206040518083038186803b15801561157c57600080fd5b505afa158015611590573d6000803e3d6000fd5b505050506040513d601f19601f820116820180604052508101906115b49190613bac565b6115be9190613bd9565b925050509392505050565b6000600160009054906101000a900473ffffffffffffffffffffffffffffffffffffffff1673ffffffffffffffffffffffffffffffffffffffff163373ffffffffffffffffffffffffffffffffffffffff161461165b576040517f08c379a000000000000000000000000000000000000000000000000000000000815260040161165290613726565b60405180910390fd5b611663610f2f565b806116e15750600460008567ffffffffffffffff1667ffffffffffffffff16815260200190815260200160002060009054906101000a900473ffffffffffffffffffffffffffffffffffffffff1673ffffffffffffffffffffffffffffffffffffffff168573ffffffffffffffffffffffffffffffffffffffff1614155b156116ef5760029050611995565b6000838060200190518101906117059190613ce2565b90506001151560066000836020015173ffffffffffffffffffffffffffffffffffffffff1673ffffffffffffffffffffffffffffffffffffffff16815260200190815260200160002060009054906101000a900460ff161515141561185557806020015173ffffffffffffffffffffffffffffffffffffffff166323b872dd30836000015184604001516040518463ffffffff1660e01b81526004016117ad93929190613d2b565b600060405180830381600087803b1580156117c757600080fd5b505af19250505080156117d8575060015b611850573d8060008114611808576040519150601f19603f3d011682016040523d82523d6000602084013e61180d565b606091505b507f2c4d9008b1f58a23591c25a813b398a54f438d50b85bedea3d6e7302ee08a8108160405161183d9190613b75565b60405180910390a1600292505050611995565b611946565b806020015173ffffffffffffffffffffffffffffffffffffffff166367d74de28260000151836040015184606001516040518463ffffffff1660e01b81526004016118a293929190613d9b565b600060405180830381600087803b1580156118bc57600080fd5b505af19250505080156118cd575060015b611945573d80600081146118fd576040519150601f19603f3d011682016040523d82523d6000602084013e611902565b606091505b507f2c4d9008b1f58a23591c25a813b398a54f438d50b85bedea3d6e7302ee08a810816040516119329190613b75565b60405180910390a1600292505050611995565b5b7f0aac355db06d21352d6b898d8e0ae1334d55f65b6c4c09e26951166a8eb4dba7816000015182602001518360400151886040516119879493929190613dd9565b60405180910390a160019150505b949350505050565b60056020528160005260406000206020528060005260406000206000915091509054906101000a900473ffffffffffffffffffffffffffffffffffffffff1681565b3373ffffffffffffffffffffffffffffffffffffffff166119fe611162565b73ffffffffffffffffffffffffffffffffffffffff1614611a54576040517f08c379a0000000000000000000000000000000000000000000000000000000008152600401611a4b90613691565b60405180910390fd5b80600360008467ffffffffffffffff1667ffffffffffffffff168152602001908152602001600020819055507f446a287c2114fa54d0083d97ce8f6f15b2ce29fa1c2df4b5a580d581ea7c4ad38282604051611ab1929190613e1e565b60405180910390a15050565b600160009054906101000a900473ffffffffffffffffffffffffffffffffffffffff1681565b611aeb610f2f565b15611b2b576040517f08c379a0000000000000000000000000000000000000000000000000000000008152600401611b2290613e93565b60405180910390fd5b8373ffffffffffffffffffffffffffffffffffffffff16636352211e846040518263ffffffff1660e01b8152600401611b649190612efd565b60206040518083038186803b158015611b7c57600080fd5b505afa158015611b90573d6000803e3d6000fd5b505050506040513d601f19601f82011682018060405250810190611bb49190613eb3565b73ffffffffffffffffffffffffffffffffffffffff163373ffffffffffffffffffffffffffffffffffffffff1614611c21576040517f08c379a0000000000000000000000000000000000000000000000000000000008152600401611c1890613f2c565b60405180910390fd5b60008473ffffffffffffffffffffffffffffffffffffffff1663c87b56dd856040518263ffffffff1660e01b8152600401611c5c9190612efd565b60006040518083038186803b158015611c7457600080fd5b505afa158015611c88573d6000803e3d6000fd5b505050506040513d6000823e3d601f19601f82011682018060405250810190611cb191906139df565b905060011515600660008773ffffffffffffffffffffffffffffffffffffffff1673ffffffffffffffffffffffffffffffffffffffff16815260200190815260200160002060009054906101000a900460ff1615151415611e76578473ffffffffffffffffffffffffffffffffffffffff166323b872dd3330876040518463ffffffff1660e01b8152600401611d4993929190613d2b565b600060405180830381600087803b158015611d6357600080fd5b505af1158015611d77573d6000803e3d6000fd5b505050503073ffffffffffffffffffffffffffffffffffffffff168573ffffffffffffffffffffffffffffffffffffffff16636352211e866040518263ffffffff1660e01b8152600401611dcb9190612efd565b60206040518083038186803b158015611de357600080fd5b505afa158015611df7573d6000803e3d6000fd5b505050506040513d601f19601f82011682018060405250810190611e1b9190613eb3565b73ffffffffffffffffffffffffffffffffffffffff1614611e71576040517f08c379a0000000000000000000000000000000000000000000000000000000008152600401611e6890613f98565b60405180910390fd5b611ee2565b8473ffffffffffffffffffffffffffffffffffffffff166342966c68856040518263ffffffff1660e01b8152600401611eaf9190612efd565b600060405180830381600087803b158015611ec957600080fd5b505af1158015611edd573d6000803e3d6000fd5b505050505b600080611eef87866127b4565b91509150611f69828660405180608001604052808873ffffffffffffffffffffffffffffffffffffffff1681526020018573ffffffffffffffffffffffffffffffffffffffff1681526020018a815260200187815250604051602001611f559190613afe565b60405160208183030381529060405261296f565b7f40143e5b72b2109d658cfa709dec6213f60364dbd08b7253cdaf5f4e0c49561c338888888886604051611fa296959493929190613fb8565b60405180910390a150505050505050565b3373ffffffffffffffffffffffffffffffffffffffff16611fd2611162565b73ffffffffffffffffffffffffffffffffffffffff1614612028576040517f08c379a000000000000000000000000000000000000000000000000000000000815260040161201f90613691565b60405180910390fd5b80600460008467ffffffffffffffff1667ffffffffffffffff16815260200190815260200160002060006101000a81548173ffffffffffffffffffffffffffffffffffffffff021916908373ffffffffffffffffffffffffffffffffffffffff1602179055507f3e776334b24c927645043308f89ac1ca734002e5a921ff384a70dcbb88c92cd482826040516120bf929190614019565b60405180910390a15050565b3373ffffffffffffffffffffffffffffffffffffffff166120ea611162565b73ffffffffffffffffffffffffffffffffffffffff1614612140576040517f08c379a000000000000000000000000000000000000000000000000000000000815260040161213790613691565b60405180910390fd5b600660008273ffffffffffffffffffffffffffffffffffffffff1673ffffffffffffffffffffffffffffffffffffffff16815260200190815260200160002060006101000a81549060ff02191690557f9800fb32bf5eb9a3b2e42c910912da10ed1881dc538475101797669146166bf88160006040516121c19291906136b1565b60405180910390a150565b6121d4610f2f565b15612214576040517f08c379a000000000000000000000000000000000000000000000000000000000815260040161220b90613e93565b60405180910390fd5b6000339050600080612226838a6127b4565b915091506122e4828a60405180608001604052808b73ffffffffffffffffffffffffffffffffffffffff1681526020018573ffffffffffffffffffffffffffffffffffffffff1681526020018a815260200189898080601f016020809104026020016040519081016040528093929190818152602001838380828437600081840152601f19601f820116905080830192505050505050508152506040516020016122d09190613afe565b60405160208183030381529060405261296f565b7f40143e5b72b2109d658cfa709dec6213f60364dbd08b7253cdaf5f4e0c49561c8884888c8b8660405161231d96959493929190613fb8565b60405180910390a1505050505050505050565b3373ffffffffffffffffffffffffffffffffffffffff1661234f611162565b73ffffffffffffffffffffffffffffffffffffffff16146123a5576040517f08c379a000000000000000000000000000000000000000000000000000000000815260040161239c90613691565b60405180910390fd5b600073ffffffffffffffffffffffffffffffffffffffff168173ffffffffffffffffffffffffffffffffffffffff161415612415576040517f08c379a000000000000000000000000000000000000000000000000000000000815260040161240c906140b4565b60405180910390fd5b61241e81612b2b565b50565b600073ffffffffffffffffffffffffffffffffffffffff1660008054906101000a900473ffffffffffffffffffffffffffffffffffffffff1673ffffffffffffffffffffffffffffffffffffffff16146124b0576040517f08c379a00000000000000000000000000000000000000000000000000000000081526004016124a790614120565b60405180910390fd5b6124b933612b2b565b565b6124c3610f2f565b612502576040517f08c379a00000000000000000000000000000000000000000000000000000000081526004016124f99061418c565b60405180910390fd5b6000600160146101000a81548160ff0219169083151502179055507f5db9ee0a495bf2e6ff9c91a7834c1ba4fdd244a5e8aa4e537bd38aeae4b073aa612546612bef565b6040516125539190612f27565b60405180910390a1565b61256681610d2a565b6125a5576040517f08c379a000000000000000000000000000000000000000000000000000000000815260040161259c906141f8565b60405180910390fd5b6000600260008373ffffffffffffffffffffffffffffffffffffffff1673ffffffffffffffffffffffffffffffffffffffff16815260200190815260200160002060006101000a81548160ff0219169083151502179055507fcd265ebaf09df2871cc7bd4133404a235ba12eff2041bb89d9c714a2621c7c7e8160405161262c9190612f27565b60405180910390a150565b61264081610d2a565b15612680576040517f08c379a000000000000000000000000000000000000000000000000000000000815260040161267790614264565b60405180910390fd5b6001600260008373ffffffffffffffffffffffffffffffffffffffff1673ffffffffffffffffffffffffffffffffffffffff16815260200190815260200160002060006101000a81548160ff0219169083151502179055507f6719d08c1888103bea251a4ed56406bd0c3e69723c8a1686e017e7bbe159b6f8816040516127079190612f27565b60405180910390a150565b61271a610f2f565b1561275a576040517f08c379a000000000000000000000000000000000000000000000000000000000815260040161275190613e93565b60405180910390fd5b60018060146101000a81548160ff0219169083151502179055507f62e78cea01bee320cd4e420270b5ea74000d11b0c9f74754ebdbfc544b05a25861279d612bef565b6040516127aa9190612f27565b60405180910390a1565b600080600460008467ffffffffffffffff1667ffffffffffffffff16815260200190815260200160002060009054906101000a900473ffffffffffffffffffffffffffffffffffffffff169150600073ffffffffffffffffffffffffffffffffffffffff168273ffffffffffffffffffffffffffffffffffffffff161415612871576040517f08c379a0000000000000000000000000000000000000000000000000000000008152600401612868906142d0565b60405180910390fd5b600560008573ffffffffffffffffffffffffffffffffffffffff1673ffffffffffffffffffffffffffffffffffffffff16815260200190815260200160002060008467ffffffffffffffff1667ffffffffffffffff16815260200190815260200160002060009054906101000a900473ffffffffffffffffffffffffffffffffffffffff169050600073ffffffffffffffffffffffffffffffffffffffff168173ffffffffffffffffffffffffffffffffffffffff161415612968576040517f08c379a000000000000000000000000000000000000000000000000000000000815260040161295f9061433c565b60405180910390fd5b9250929050565b6000600160009054906101000a900473ffffffffffffffffffffffffffffffffffffffff1673ffffffffffffffffffffffffffffffffffffffff16635335dca2836040518263ffffffff1660e01b81526004016129cc9190613b75565b60206040518083038186803b1580156129e457600080fd5b505afa1580156129f8573d6000803e3d6000fd5b505050506040513d601f19601f82011682018060405250810190612a1c9190613bac565b9050600360008467ffffffffffffffff1667ffffffffffffffff1681526020019081526020016000205481612a519190613bd9565b341015612a93576040517f08c379a0000000000000000000000000000000000000000000000000000000008152600401612a8a906143a8565b60405180910390fd5b600160009054906101000a900473ffffffffffffffffffffffffffffffffffffffff1673ffffffffffffffffffffffffffffffffffffffff16639f3ce55a828686866040518563ffffffff1660e01b8152600401612af393929190614403565b6000604051808303818588803b158015612b0c57600080fd5b505af1158015612b20573d6000803e3d6000fd5b505050505050505050565b60008060009054906101000a900473ffffffffffffffffffffffffffffffffffffffff169050816000806101000a81548173ffffffffffffffffffffffffffffffffffffffff021916908373ffffffffffffffffffffffffffffffffffffffff1602179055508173ffffffffffffffffffffffffffffffffffffffff168173ffffffffffffffffffffffffffffffffffffffff167f8be0079c531659141344cd1fd0a4f28419497f9722a3daafe3b4186f6b6457e060405160405180910390a35050565b600033905090565b6000604051905090565b600080fd5b600080fd5b600073ffffffffffffffffffffffffffffffffffffffff82169050919050565b6000612c3682612c0b565b9050919050565b612c4681612c2b565b8114612c5157600080fd5b50565b600081359050612c6381612c3d565b92915050565b600060208284031215612c7f57612c7e612c01565b5b6000612c8d84828501612c54565b91505092915050565b6000819050919050565b612ca981612c96565b8114612cb457600080fd5b50565b600081359050612cc681612ca0565b92915050565b600080fd5b600080fd5b600080fd5b60008083601f840112612cf157612cf0612ccc565b5b8235905067ffffffffffffffff811115612d0e57612d0d612cd1565b5b602083019150836001820283011115612d2a57612d29612cd6565b5b9250929050565b600080600080600060808688031215612d4d57612d4c612c01565b5b6000612d5b88828901612c54565b9550506020612d6c88828901612cb7565b945050604086013567ffffffffffffffff811115612d8d57612d8c612c06565b5b612d9988828901612cdb565b93509350506060612dac88828901612c54565b9150509295509295909350565b7f4e487b7100000000000000000000000000000000000000000000000000000000600052602160045260246000fd5b60038110612df957612df8612db9565b5b50565b6000819050612e0a82612de8565b919050565b6000612e1a82612dfc565b9050919050565b612e2a81612e0f565b82525050565b6000602082019050612e456000830184612e21565b92915050565b60008115159050919050565b612e6081612e4b565b82525050565b6000602082019050612e7b6000830184612e57565b92915050565b600067ffffffffffffffff82169050919050565b612e9e81612e81565b8114612ea957600080fd5b50565b600081359050612ebb81612e95565b92915050565b600060208284031215612ed757612ed6612c01565b5b6000612ee584828501612eac565b91505092915050565b612ef781612c96565b82525050565b6000602082019050612f126000830184612eee565b92915050565b612f2181612c2b565b82525050565b6000602082019050612f3c6000830184612f18565b92915050565b60008083601f840112612f5857612f57612ccc565b5b8235905067ffffffffffffffff811115612f7557612f74612cd1565b5b602083019150836020820283011115612f9157612f90612cd6565b5b9250929050565b60008083601f840112612fae57612fad612ccc565b5b8235905067ffffffffffffffff811115612fcb57612fca612cd1565b5b602083019150836020820283011115612fe757612fe6612cd6565b5b9250929050565b60008060008060006060868803121561300a57613009612c01565b5b600061301888828901612c54565b955050602086013567ffffffffffffffff81111561303957613038612c06565b5b61304588828901612f42565b9450945050604086013567ffffffffffffffff81111561306857613067612c06565b5b61307488828901612f98565b92509250509295509295909350565b6000806000806040858703121561309d5761309c612c01565b5b600085013567ffffffffffffffff8111156130bb576130ba612c06565b5b6130c787828801612f42565b9450945050602085013567ffffffffffffffff8111156130ea576130e9612c06565b5b6130f687828801612f98565b925092505092959194509250565b600080600080600080600060c0888a03121561312357613122612c01565b5b60006131318a828b01612c54565b97505060206131428a828b01612c54565b96505060406131538a828b01612cb7565b95505060606131648a828b01612eac565b945050608088013567ffffffffffffffff81111561318557613184612c06565b5b6131918a828b01612cdb565b935093505060a06131a48a828b01612c54565b91505092959891949750929550565b6000806000606084860312156131cc576131cb612c01565b5b60006131da86828701612c54565b93505060206131eb86828701612eac565b92505060406131fc86828701612c54565b9150509250925092565b60008060006060848603121561321f5761321e612c01565b5b600061322d86828701612eac565b935050602061323e86828701612c54565b925050604061324f86828701612cb7565b9150509250925092565b600080fd5b6000601f19601f8301169050919050565b7f4e487b7100000000000000000000000000000000000000000000000000000000600052604160045260246000fd5b6132a78261325e565b810181811067ffffffffffffffff821117156132c6576132c561326f565b5b80604052505050565b60006132d9612bf7565b90506132e5828261329e565b919050565b600067ffffffffffffffff8211156133055761330461326f565b5b61330e8261325e565b9050602081019050919050565b82818337600083830152505050565b600061333d613338846132ea565b6132cf565b90508281526020810184848401111561335957613358613259565b5b61336484828561331b565b509392505050565b600082601f83011261338157613380612ccc565b5b813561339184826020860161332a565b91505092915050565b600080600080608085870312156133b4576133b3612c01565b5b60006133c287828801612c54565b94505060206133d387828801612eac565b935050604085013567ffffffffffffffff8111156133f4576133f3612c06565b5b6134008782880161336c565b925050606061341187828801612c54565b91505092959194509250565b6000806040838503121561343457613433612c01565b5b600061344285828601612c54565b925050602061345385828601612eac565b9150509250929050565b6000806040838503121561347457613473612c01565b5b600061348285828601612eac565b925050602061349385828601612cb7565b9150509250929050565b600080600080608085870312156134b7576134b6612c01565b5b60006134c587828801612c54565b94505060206134d687828801612cb7565b93505060406134e787828801612eac565b92505060606134f887828801612c54565b91505092959194509250565b6000806040838503121561351b5761351a612c01565b5b600061352985828601612eac565b925050602061353a85828601612c54565b9150509250929050565b60008083601f84011261355a57613559612ccc565b5b8235905067ffffffffffffffff81111561357757613576612cd1565b5b60208301915083600182028301111561359357613592612cd6565b5b9250929050565b60008060008060008060a087890312156135b7576135b6612c01565b5b60006135c589828a01612eac565b96505060206135d689828a01612c54565b95505060406135e789828a01612c54565b94505060606135f889828a01612cb7565b935050608087013567ffffffffffffffff81111561361957613618612c06565b5b61362589828a01613544565b92509250509295509295509295565b600082825260208201905092915050565b7f4f776e61626c653a2063616c6c6572206973206e6f7420746865206f776e6572600082015250565b600061367b602083613634565b915061368682613645565b602082019050919050565b600060208201905081810360008301526136aa8161366e565b9050919050565b60006040820190506136c66000830185612f18565b6136d36020830184612e57565b9392505050565b7f63616c6c6572206973206e6f74206d6573736167652062757300000000000000600082015250565b6000613710601983613634565b915061371b826136da565b602082019050919050565b6000602082019050818103600083015261373f81613703565b9050919050565b7f6c656e677468206d69736d617463680000000000000000000000000000000000600082015250565b600061377c600f83613634565b915061378782613746565b602082019050919050565b600060208201905081810360008301526137ab8161376f565b9050919050565b7f4e487b7100000000000000000000000000000000000000000000000000000000600052603260045260246000fd5b7f4e487b7100000000000000000000000000000000000000000000000000000000600052601160045260246000fd5b600061381b82612c96565b91507fffffffffffffffffffffffffffffffffffffffffffffffffffffffffffffffff82141561384e5761384d6137e1565b5b600182019050919050565b7f43616c6c6572206973206e6f7420706175736572000000000000000000000000600082015250565b600061388f601483613634565b915061389a82613859565b602082019050919050565b600060208201905081810360008301526138be81613882565b9050919050565b6138ce81612e81565b82525050565b60006060820190506138e96000830186612f18565b6138f660208301856138c5565b6139036040830184612f18565b949350505050565b600067ffffffffffffffff8211156139265761392561326f565b5b61392f8261325e565b9050602081019050919050565b60005b8381101561395a57808201518184015260208101905061393f565b83811115613969576000848401525b50505050565b600061398261397d8461390b565b6132cf565b90508281526020810184848401111561399e5761399d613259565b5b6139a984828561393c565b509392505050565b600082601f8301126139c6576139c5612ccc565b5b81516139d684826020860161396f565b91505092915050565b6000602082840312156139f5576139f4612c01565b5b600082015167ffffffffffffffff811115613a1357613a12612c06565b5b613a1f848285016139b1565b91505092915050565b613a3181612c2b565b82525050565b613a4081612c96565b82525050565b600081519050919050565b600082825260208201905092915050565b6000613a6d82613a46565b613a778185613a51565b9350613a8781856020860161393c565b613a908161325e565b840191505092915050565b6000608083016000830151613ab36000860182613a28565b506020830151613ac66020860182613a28565b506040830151613ad96040860182613a37565b5060608301518482036060860152613af18282613a62565b9150508091505092915050565b60006020820190508181036000830152613b188184613a9b565b905092915050565b600081519050919050565b600082825260208201905092915050565b6000613b4782613b20565b613b518185613b2b565b9350613b6181856020860161393c565b613b6a8161325e565b840191505092915050565b60006020820190508181036000830152613b8f8184613b3c565b905092915050565b600081519050613ba681612ca0565b92915050565b600060208284031215613bc257613bc1612c01565b5b6000613bd084828501613b97565b91505092915050565b6000613be482612c96565b9150613bef83612c96565b9250827fffffffffffffffffffffffffffffffffffffffffffffffffffffffffffffffff03821115613c2457613c236137e1565b5b828201905092915050565b600080fd5b600080fd5b600081519050613c4881612c3d565b92915050565b600060808284031215613c6457613c63613c2f565b5b613c6e60806132cf565b90506000613c7e84828501613c39565b6000830152506020613c9284828501613c39565b6020830152506040613ca684828501613b97565b604083015250606082015167ffffffffffffffff811115613cca57613cc9613c34565b5b613cd6848285016139b1565b60608301525092915050565b600060208284031215613cf857613cf7612c01565b5b600082015167ffffffffffffffff811115613d1657613d15612c06565b5b613d2284828501613c4e565b91505092915050565b6000606082019050613d406000830186612f18565b613d4d6020830185612f18565b613d5a6040830184612eee565b949350505050565b6000613d6d82613a46565b613d778185613634565b9350613d8781856020860161393c565b613d908161325e565b840191505092915050565b6000606082019050613db06000830186612f18565b613dbd6020830185612eee565b8181036040830152613dcf8184613d62565b9050949350505050565b6000608082019050613dee6000830187612f18565b613dfb6020830186612f18565b613e086040830185612eee565b613e1560608301846138c5565b95945050505050565b6000604082019050613e3360008301856138c5565b613e406020830184612eee565b9392505050565b7f5061757361626c653a2070617573656400000000000000000000000000000000600082015250565b6000613e7d601083613634565b9150613e8882613e47565b602082019050919050565b60006020820190508181036000830152613eac81613e70565b9050919050565b600060208284031215613ec957613ec8612c01565b5b6000613ed784828501613c39565b91505092915050565b7f6e6f7420746f6b656e206f776e65720000000000000000000000000000000000600082015250565b6000613f16600f83613634565b9150613f2182613ee0565b602082019050919050565b60006020820190508181036000830152613f4581613f09565b9050919050565b7f7472616e73666572204e4654206661696c656400000000000000000000000000600082015250565b6000613f82601383613634565b9150613f8d82613f4c565b602082019050919050565b60006020820190508181036000830152613fb181613f75565b9050919050565b600060c082019050613fcd6000830189612f18565b613fda6020830188612f18565b613fe76040830187612eee565b613ff460608301866138c5565b6140016080830185612f18565b61400e60a0830184612f18565b979650505050505050565b600060408201905061402e60008301856138c5565b61403b6020830184612f18565b9392505050565b7f4f776e61626c653a206e6577206f776e657220697320746865207a65726f206160008201527f6464726573730000000000000000000000000000000000000000000000000000602082015250565b600061409e602683613634565b91506140a982614042565b604082019050919050565b600060208201905081810360008301526140cd81614091565b9050919050565b7f6f776e657220616c726561647920736574000000000000000000000000000000600082015250565b600061410a601183613634565b9150614115826140d4565b602082019050919050565b60006020820190508181036000830152614139816140fd565b9050919050565b7f5061757361626c653a206e6f7420706175736564000000000000000000000000600082015250565b6000614176601483613634565b915061418182614140565b602082019050919050565b600060208201905081810360008301526141a581614169565b9050919050565b7f4163636f756e74206973206e6f74207061757365720000000000000000000000600082015250565b60006141e2601583613634565b91506141ed826141ac565b602082019050919050565b60006020820190508181036000830152614211816141d5565b9050919050565b7f4163636f756e7420697320616c72656164792070617573657200000000000000600082015250565b600061424e601983613634565b915061425982614218565b602082019050919050565b6000602082019050818103600083015261427d81614241565b9050919050565b7f64657374204e465420427269646765206e6f7420666f756e6400000000000000600082015250565b60006142ba601983613634565b91506142c582614284565b602082019050919050565b600060208201905081810360008301526142e9816142ad565b9050919050565b7f64657374204e4654206e6f7420666f756e640000000000000000000000000000600082015250565b6000614326601283613634565b9150614331826142f0565b602082019050919050565b6000602082019050818103600083015261435581614319565b9050919050565b7f696e73756666696369656e742066656500000000000000000000000000000000600082015250565b6000614392601083613634565b915061439d8261435c565b602082019050919050565b600060208201905081810360008301526143c181614385565b9050919050565b6000819050919050565b60006143ed6143e86143e384612e81565b6143c8565b612c96565b9050919050565b6143fd816143d2565b82525050565b60006060820190506144186000830186612f18565b61442560208301856143f4565b81810360408301526144378184613b3c565b905094935050505056fea2646970667358221220233e69aa794be7dd5cddc07e8095c008f995781a6f7d085059630107df333bbd64736f6c63430008090033",
			"opcodes": "PUSH1 0x80 PUSH1 0x40 MSTORE CALLVALUE DUP1 ISZERO PUSH3 0x11 JUMPI PUSH1 0x0 DUP1 REVERT JUMPDEST POP PUSH1 0x40 MLOAD PUSH3 0x4892 CODESIZE SUB DUP1 PUSH3 0x4892 DUP4 CODECOPY DUP2 DUP2 ADD PUSH1 0x40 MSTORE DUP2 ADD SWAP1 PUSH3 0x37 SWAP2 SWAP1 PUSH3 0x328 JUMP JUMPDEST PUSH3 0x48 CALLER PUSH3 0xBC PUSH1 0x20 SHL PUSH1 0x20 SHR JUMP JUMPDEST PUSH1 0x0 PUSH1 0x1 PUSH1 0x14 PUSH2 0x100 EXP DUP2 SLOAD DUP2 PUSH1 0xFF MUL NOT AND SWAP1 DUP4 ISZERO ISZERO MUL OR SWAP1 SSTORE POP PUSH3 0x74 CALLER PUSH3 0x180 PUSH1 0x20 SHL PUSH1 0x20 SHR JUMP JUMPDEST DUP1 PUSH1 0x1 PUSH1 0x0 PUSH2 0x100 EXP DUP2 SLOAD DUP2 PUSH20 0xFFFFFFFFFFFFFFFFFFFFFFFFFFFFFFFFFFFFFFFF MUL NOT AND SWAP1 DUP4 PUSH20 0xFFFFFFFFFFFFFFFFFFFFFFFFFFFFFFFFFFFFFFFF AND MUL OR SWAP1 SSTORE POP POP PUSH3 0x40B JUMP JUMPDEST PUSH1 0x0 DUP1 PUSH1 0x0 SWAP1 SLOAD SWAP1 PUSH2 0x100 EXP SWAP1 DIV PUSH20 0xFFFFFFFFFFFFFFFFFFFFFFFFFFFFFFFFFFFFFFFF AND SWAP1 POP DUP2 PUSH1 0x0 DUP1 PUSH2 0x100 EXP DUP2 SLOAD DUP2 PUSH20 0xFFFFFFFFFFFFFFFFFFFFFFFFFFFFFFFFFFFFFFFF MUL NOT AND SWAP1 DUP4 PUSH20 0xFFFFFFFFFFFFFFFFFFFFFFFFFFFFFFFFFFFFFFFF AND MUL OR SWAP1 SSTORE POP DUP2 PUSH20 0xFFFFFFFFFFFFFFFFFFFFFFFFFFFFFFFFFFFFFFFF AND DUP2 PUSH20 0xFFFFFFFFFFFFFFFFFFFFFFFFFFFFFFFFFFFFFFFF AND PUSH32 0x8BE0079C531659141344CD1FD0A4F28419497F9722A3DAAFE3B4186F6B6457E0 PUSH1 0x40 MLOAD PUSH1 0x40 MLOAD DUP1 SWAP2 SUB SWAP1 LOG3 POP POP JUMP JUMPDEST PUSH3 0x191 DUP2 PUSH3 0x268 PUSH1 0x20 SHL PUSH1 0x20 SHR JUMP JUMPDEST ISZERO PUSH3 0x1D4 JUMPI PUSH1 0x40 MLOAD PUSH32 0x8C379A000000000000000000000000000000000000000000000000000000000 DUP2 MSTORE PUSH1 0x4 ADD PUSH3 0x1CB SWAP1 PUSH3 0x3BB JUMP JUMPDEST PUSH1 0x40 MLOAD DUP1 SWAP2 SUB SWAP1 REVERT JUMPDEST PUSH1 0x1 PUSH1 0x2 PUSH1 0x0 DUP4 PUSH20 0xFFFFFFFFFFFFFFFFFFFFFFFFFFFFFFFFFFFFFFFF AND PUSH20 0xFFFFFFFFFFFFFFFFFFFFFFFFFFFFFFFFFFFFFFFF AND DUP2 MSTORE PUSH1 0x20 ADD SWAP1 DUP2 MSTORE PUSH1 0x20 ADD PUSH1 0x0 KECCAK256 PUSH1 0x0 PUSH2 0x100 EXP DUP2 SLOAD DUP2 PUSH1 0xFF MUL NOT AND SWAP1 DUP4 ISZERO ISZERO MUL OR SWAP1 SSTORE POP PUSH32 0x6719D08C1888103BEA251A4ED56406BD0C3E69723C8A1686E017E7BBE159B6F8 DUP2 PUSH1 0x40 MLOAD PUSH3 0x25D SWAP2 SWAP1 PUSH3 0x3EE JUMP JUMPDEST PUSH1 0x40 MLOAD DUP1 SWAP2 SUB SWAP1 LOG1 POP JUMP JUMPDEST PUSH1 0x0 PUSH1 0x2 PUSH1 0x0 DUP4 PUSH20 0xFFFFFFFFFFFFFFFFFFFFFFFFFFFFFFFFFFFFFFFF AND PUSH20 0xFFFFFFFFFFFFFFFFFFFFFFFFFFFFFFFFFFFFFFFF AND DUP2 MSTORE PUSH1 0x20 ADD SWAP1 DUP2 MSTORE PUSH1 0x20 ADD PUSH1 0x0 KECCAK256 PUSH1 0x0 SWAP1 SLOAD SWAP1 PUSH2 0x100 EXP SWAP1 DIV PUSH1 0xFF AND SWAP1 POP SWAP2 SWAP1 POP JUMP JUMPDEST PUSH1 0x0 DUP1 REVERT JUMPDEST PUSH1 0x0 PUSH20 0xFFFFFFFFFFFFFFFFFFFFFFFFFFFFFFFFFFFFFFFF DUP3 AND SWAP1 POP SWAP2 SWAP1 POP JUMP JUMPDEST PUSH1 0x0 PUSH3 0x2F0 DUP3 PUSH3 0x2C3 JUMP JUMPDEST SWAP1 POP SWAP2 SWAP1 POP JUMP JUMPDEST PUSH3 0x302 DUP2 PUSH3 0x2E3 JUMP JUMPDEST DUP2 EQ PUSH3 0x30E JUMPI PUSH1 0x0 DUP1 REVERT JUMPDEST POP JUMP JUMPDEST PUSH1 0x0 DUP2 MLOAD SWAP1 POP PUSH3 0x322 DUP2 PUSH3 0x2F7 JUMP JUMPDEST SWAP3 SWAP2 POP POP JUMP JUMPDEST PUSH1 0x0 PUSH1 0x20 DUP3 DUP5 SUB SLT ISZERO PUSH3 0x341 JUMPI PUSH3 0x340 PUSH3 0x2BE JUMP JUMPDEST JUMPDEST PUSH1 0x0 PUSH3 0x351 DUP5 DUP3 DUP6 ADD PUSH3 0x311 JUMP JUMPDEST SWAP2 POP POP SWAP3 SWAP2 POP POP JUMP JUMPDEST PUSH1 0x0 DUP3 DUP3 MSTORE PUSH1 0x20 DUP3 ADD SWAP1 POP SWAP3 SWAP2 POP POP JUMP JUMPDEST PUSH32 0x4163636F756E7420697320616C72656164792070617573657200000000000000 PUSH1 0x0 DUP3 ADD MSTORE POP JUMP JUMPDEST PUSH1 0x0 PUSH3 0x3A3 PUSH1 0x19 DUP4 PUSH3 0x35A JUMP JUMPDEST SWAP2 POP PUSH3 0x3B0 DUP3 PUSH3 0x36B JUMP JUMPDEST PUSH1 0x20 DUP3 ADD SWAP1 POP SWAP2 SWAP1 POP JUMP JUMPDEST PUSH1 0x0 PUSH1 0x20 DUP3 ADD SWAP1 POP DUP2 DUP2 SUB PUSH1 0x0 DUP4 ADD MSTORE PUSH3 0x3D6 DUP2 PUSH3 0x394 JUMP JUMPDEST SWAP1 POP SWAP2 SWAP1 POP JUMP JUMPDEST PUSH3 0x3E8 DUP2 PUSH3 0x2E3 JUMP JUMPDEST DUP3 MSTORE POP POP JUMP JUMPDEST PUSH1 0x0 PUSH1 0x20 DUP3 ADD SWAP1 POP PUSH3 0x405 PUSH1 0x0 DUP4 ADD DUP5 PUSH3 0x3DD JUMP JUMPDEST SWAP3 SWAP2 POP POP JUMP JUMPDEST PUSH2 0x4477 DUP1 PUSH3 0x41B PUSH1 0x0 CODECOPY PUSH1 0x0 RETURN INVALID PUSH1 0x80 PUSH1 0x40 MSTORE PUSH1 0x4 CALLDATASIZE LT PUSH2 0x1E3 JUMPI PUSH1 0x0 CALLDATALOAD PUSH1 0xE0 SHR DUP1 PUSH4 0x80F51C12 GT PUSH2 0x102 JUMPI DUP1 PUSH4 0x9E041B9D GT PUSH2 0x95 JUMPI DUP1 PUSH4 0xDA754F44 GT PUSH2 0x64 JUMPI DUP1 PUSH4 0xDA754F44 EQ PUSH2 0x6BD JUMPI DUP1 PUSH4 0xED99BF43 EQ PUSH2 0x6E6 JUMPI DUP1 PUSH4 0xF0CB57CE EQ PUSH2 0x70F JUMPI DUP1 PUSH4 0xF2FDE38B EQ PUSH2 0x72B JUMPI PUSH2 0x1E3 JUMP JUMPDEST DUP1 PUSH4 0x9E041B9D EQ PUSH2 0x610 JUMPI DUP1 PUSH4 0x9F825F07 EQ PUSH2 0x64D JUMPI DUP1 PUSH4 0xA1A227FA EQ PUSH2 0x676 JUMPI DUP1 PUSH4 0xB2C88775 EQ PUSH2 0x6A1 JUMPI PUSH2 0x1E3 JUMP JUMPDEST DUP1 PUSH4 0x95B6A191 GT PUSH2 0xD1 JUMPI DUP1 PUSH4 0x95B6A191 EQ PUSH2 0x563 JUMPI DUP1 PUSH4 0x99D32FC4 EQ PUSH2 0x58C JUMPI DUP1 PUSH4 0x9C1A65BD EQ PUSH2 0x5A3 JUMPI DUP1 PUSH4 0x9C649FDF EQ PUSH2 0x5E0 JUMPI PUSH2 0x1E3 JUMP JUMPDEST DUP1 PUSH4 0x80F51C12 EQ PUSH2 0x4BB JUMPI DUP1 PUSH4 0x82DC1EC4 EQ PUSH2 0x4F8 JUMPI DUP1 PUSH4 0x8456CB59 EQ PUSH2 0x521 JUMPI DUP1 PUSH4 0x8DA5CB5B EQ PUSH2 0x538 JUMPI PUSH2 0x1E3 JUMP JUMPDEST DUP1 PUSH4 0x43A8C137 GT PUSH2 0x17A JUMPI DUP1 PUSH4 0x5C975ABB GT PUSH2 0x149 JUMPI DUP1 PUSH4 0x5C975ABB EQ PUSH2 0x420 JUMPI DUP1 PUSH4 0x6B2C0F55 EQ PUSH2 0x44B JUMPI DUP1 PUSH4 0x6EF8D66D EQ PUSH2 0x474 JUMPI DUP1 PUSH4 0x7CD2BFFC EQ PUSH2 0x48B JUMPI PUSH2 0x1E3 JUMP JUMPDEST DUP1 PUSH4 0x43A8C137 EQ PUSH2 0x361 JUMPI DUP1 PUSH4 0x46FBF68E EQ PUSH2 0x38A JUMPI DUP1 PUSH4 0x547CAD12 EQ PUSH2 0x3C7 JUMPI DUP1 PUSH4 0x5AB7AFC6 EQ PUSH2 0x3F0 JUMPI PUSH2 0x1E3 JUMP JUMPDEST DUP1 PUSH4 0x19AB453C GT PUSH2 0x1B6 JUMPI DUP1 PUSH4 0x19AB453C EQ PUSH2 0x2BB JUMPI DUP1 PUSH4 0x27CBE705 EQ PUSH2 0x2E4 JUMPI DUP1 PUSH4 0x2D5FA47C EQ PUSH2 0x321 JUMPI DUP1 PUSH4 0x3F4BA83A EQ PUSH2 0x34A JUMPI PUSH2 0x1E3 JUMP JUMPDEST DUP1 PUSH4 0x65C38FD EQ PUSH2 0x1E8 JUMPI DUP1 PUSH4 0xBCB4982 EQ PUSH2 0x211 JUMPI DUP1 PUSH4 0x1140C84E EQ PUSH2 0x241 JUMPI DUP1 PUSH4 0x151FF4EB EQ PUSH2 0x27E JUMPI JUMPDEST PUSH1 0x0 DUP1 REVERT JUMPDEST CALLVALUE DUP1 ISZERO PUSH2 0x1F4 JUMPI PUSH1 0x0 DUP1 REVERT JUMPDEST POP PUSH2 0x20F PUSH1 0x4 DUP1 CALLDATASIZE SUB DUP2 ADD SWAP1 PUSH2 0x20A SWAP2 SWAP1 PUSH2 0x2C69 JUMP JUMPDEST PUSH2 0x754 JUMP JUMPDEST STOP JUMPDEST PUSH2 0x22B PUSH1 0x4 DUP1 CALLDATASIZE SUB DUP2 ADD SWAP1 PUSH2 0x226 SWAP2 SWAP1 PUSH2 0x2D31 JUMP JUMPDEST PUSH2 0x85E JUMP JUMPDEST PUSH1 0x40 MLOAD PUSH2 0x238 SWAP2 SWAP1 PUSH2 0x2E30 JUMP JUMPDEST PUSH1 0x40 MLOAD DUP1 SWAP2 SUB SWAP1 RETURN JUMPDEST CALLVALUE DUP1 ISZERO PUSH2 0x24D JUMPI PUSH1 0x0 DUP1 REVERT JUMPDEST POP PUSH2 0x268 PUSH1 0x4 DUP1 CALLDATASIZE SUB DUP2 ADD SWAP1 PUSH2 0x263 SWAP2 SWAP1 PUSH2 0x2C69 JUMP JUMPDEST PUSH2 0x8F9 JUMP JUMPDEST PUSH1 0x40 MLOAD PUSH2 0x275 SWAP2 SWAP1 PUSH2 0x2E66 JUMP JUMPDEST PUSH1 0x40 MLOAD DUP1 SWAP2 SUB SWAP1 RETURN JUMPDEST CALLVALUE DUP1 ISZERO PUSH2 0x28A JUMPI PUSH1 0x0 DUP1 REVERT JUMPDEST POP PUSH2 0x2A5 PUSH1 0x4 DUP1 CALLDATASIZE SUB DUP2 ADD SWAP1 PUSH2 0x2A0 SWAP2 SWAP1 PUSH2 0x2EC1 JUMP JUMPDEST PUSH2 0x919 JUMP JUMPDEST PUSH1 0x40 MLOAD PUSH2 0x2B2 SWAP2 SWAP1 PUSH2 0x2EFD JUMP JUMPDEST PUSH1 0x40 MLOAD DUP1 SWAP2 SUB SWAP1 RETURN JUMPDEST CALLVALUE DUP1 ISZERO PUSH2 0x2C7 JUMPI PUSH1 0x0 DUP1 REVERT JUMPDEST POP PUSH2 0x2E2 PUSH1 0x4 DUP1 CALLDATASIZE SUB DUP2 ADD SWAP1 PUSH2 0x2DD SWAP2 SWAP1 PUSH2 0x2C69 JUMP JUMPDEST PUSH2 0x931 JUMP JUMPDEST STOP JUMPDEST CALLVALUE DUP1 ISZERO PUSH2 0x2F0 JUMPI PUSH1 0x0 DUP1 REVERT JUMPDEST POP PUSH2 0x30B PUSH1 0x4 DUP1 CALLDATASIZE SUB DUP2 ADD SWAP1 PUSH2 0x306 SWAP2 SWAP1 PUSH2 0x2EC1 JUMP JUMPDEST PUSH2 0x97D JUMP JUMPDEST PUSH1 0x40 MLOAD PUSH2 0x318 SWAP2 SWAP1 PUSH2 0x2F27 JUMP JUMPDEST PUSH1 0x40 MLOAD DUP1 SWAP2 SUB SWAP1 RETURN JUMPDEST CALLVALUE DUP1 ISZERO PUSH2 0x32D JUMPI PUSH1 0x0 DUP1 REVERT JUMPDEST POP PUSH2 0x348 PUSH1 0x4 DUP1 CALLDATASIZE SUB DUP2 ADD SWAP1 PUSH2 0x343 SWAP2 SWAP1 PUSH2 0x2FEE JUMP JUMPDEST PUSH2 0x9B0 JUMP JUMPDEST STOP JUMPDEST CALLVALUE DUP1 ISZERO PUSH2 0x356 JUMPI PUSH1 0x0 DUP1 REVERT JUMPDEST POP PUSH2 0x35F PUSH2 0xB87 JUMP JUMPDEST STOP JUMPDEST CALLVALUE DUP1 ISZERO PUSH2 0x36D JUMPI PUSH1 0x0 DUP1 REVERT JUMPDEST POP PUSH2 0x388 PUSH1 0x4 DUP1 CALLDATASIZE SUB DUP2 ADD SWAP1 PUSH2 0x383 SWAP2 SWAP1 PUSH2 0x3083 JUMP JUMPDEST PUSH2 0xBD9 JUMP JUMPDEST STOP JUMPDEST CALLVALUE DUP1 ISZERO PUSH2 0x396 JUMPI PUSH1 0x0 DUP1 REVERT JUMPDEST POP PUSH2 0x3B1 PUSH1 0x4 DUP1 CALLDATASIZE SUB DUP2 ADD SWAP1 PUSH2 0x3AC SWAP2 SWAP1 PUSH2 0x2C69 JUMP JUMPDEST PUSH2 0xD2A JUMP JUMPDEST PUSH1 0x40 MLOAD PUSH2 0x3BE SWAP2 SWAP1 PUSH2 0x2E66 JUMP JUMPDEST PUSH1 0x40 MLOAD DUP1 SWAP2 SUB SWAP1 RETURN JUMPDEST CALLVALUE DUP1 ISZERO PUSH2 0x3D3 JUMPI PUSH1 0x0 DUP1 REVERT JUMPDEST POP PUSH2 0x3EE PUSH1 0x4 DUP1 CALLDATASIZE SUB DUP2 ADD SWAP1 PUSH2 0x3E9 SWAP2 SWAP1 PUSH2 0x2C69 JUMP JUMPDEST PUSH2 0xD80 JUMP JUMPDEST STOP JUMPDEST PUSH2 0x40A PUSH1 0x4 DUP1 CALLDATASIZE SUB DUP2 ADD SWAP1 PUSH2 0x405 SWAP2 SWAP1 PUSH2 0x3104 JUMP JUMPDEST PUSH2 0xE92 JUMP JUMPDEST PUSH1 0x40 MLOAD PUSH2 0x417 SWAP2 SWAP1 PUSH2 0x2E30 JUMP JUMPDEST PUSH1 0x40 MLOAD DUP1 SWAP2 SUB SWAP1 RETURN JUMPDEST CALLVALUE DUP1 ISZERO PUSH2 0x42C JUMPI PUSH1 0x0 DUP1 REVERT JUMPDEST POP PUSH2 0x435 PUSH2 0xF2F JUMP JUMPDEST PUSH1 0x40 MLOAD PUSH2 0x442 SWAP2 SWAP1 PUSH2 0x2E66 JUMP JUMPDEST PUSH1 0x40 MLOAD DUP1 SWAP2 SUB SWAP1 RETURN JUMPDEST CALLVALUE DUP1 ISZERO PUSH2 0x457 JUMPI PUSH1 0x0 DUP1 REVERT JUMPDEST POP PUSH2 0x472 PUSH1 0x4 DUP1 CALLDATASIZE SUB DUP2 ADD SWAP1 PUSH2 0x46D SWAP2 SWAP1 PUSH2 0x2C69 JUMP JUMPDEST PUSH2 0xF46 JUMP JUMPDEST STOP JUMPDEST CALLVALUE DUP1 ISZERO PUSH2 0x480 JUMPI PUSH1 0x0 DUP1 REVERT JUMPDEST POP PUSH2 0x489 PUSH2 0xFC7 JUMP JUMPDEST STOP JUMPDEST PUSH2 0x4A5 PUSH1 0x4 DUP1 CALLDATASIZE SUB DUP2 ADD SWAP1 PUSH2 0x4A0 SWAP2 SWAP1 PUSH2 0x3104 JUMP JUMPDEST PUSH2 0xFD2 JUMP JUMPDEST PUSH1 0x40 MLOAD PUSH2 0x4B2 SWAP2 SWAP1 PUSH2 0x2E30 JUMP JUMPDEST PUSH1 0x40 MLOAD DUP1 SWAP2 SUB SWAP1 RETURN JUMPDEST CALLVALUE DUP1 ISZERO PUSH2 0x4C7 JUMPI PUSH1 0x0 DUP1 REVERT JUMPDEST POP PUSH2 0x4E2 PUSH1 0x4 DUP1 CALLDATASIZE SUB DUP2 ADD SWAP1 PUSH2 0x4DD SWAP2 SWAP1 PUSH2 0x2C69 JUMP JUMPDEST PUSH2 0x106F JUMP JUMPDEST PUSH1 0x40 MLOAD PUSH2 0x4EF SWAP2 SWAP1 PUSH2 0x2E66 JUMP JUMPDEST PUSH1 0x40 MLOAD DUP1 SWAP2 SUB SWAP1 RETURN JUMPDEST CALLVALUE DUP1 ISZERO PUSH2 0x504 JUMPI PUSH1 0x0 DUP1 REVERT JUMPDEST POP PUSH2 0x51F PUSH1 0x4 DUP1 CALLDATASIZE SUB DUP2 ADD SWAP1 PUSH2 0x51A SWAP2 SWAP1 PUSH2 0x2C69 JUMP JUMPDEST PUSH2 0x108F JUMP JUMPDEST STOP JUMPDEST CALLVALUE DUP1 ISZERO PUSH2 0x52D JUMPI PUSH1 0x0 DUP1 REVERT JUMPDEST POP PUSH2 0x536 PUSH2 0x1110 JUMP JUMPDEST STOP JUMPDEST CALLVALUE DUP1 ISZERO PUSH2 0x544 JUMPI PUSH1 0x0 DUP1 REVERT JUMPDEST POP PUSH2 0x54D PUSH2 0x1162 JUMP JUMPDEST PUSH1 0x40 MLOAD PUSH2 0x55A SWAP2 SWAP1 PUSH2 0x2F27 JUMP JUMPDEST PUSH1 0x40 MLOAD DUP1 SWAP2 SUB SWAP1 RETURN JUMPDEST CALLVALUE DUP1 ISZERO PUSH2 0x56F JUMPI PUSH1 0x0 DUP1 REVERT JUMPDEST POP PUSH2 0x58A PUSH1 0x4 DUP1 CALLDATASIZE SUB DUP2 ADD SWAP1 PUSH2 0x585 SWAP2 SWAP1 PUSH2 0x31B3 JUMP JUMPDEST PUSH2 0x118B JUMP JUMPDEST STOP JUMPDEST CALLVALUE DUP1 ISZERO PUSH2 0x598 JUMPI PUSH1 0x0 DUP1 REVERT JUMPDEST POP PUSH2 0x5A1 PUSH2 0x12E3 JUMP JUMPDEST STOP JUMPDEST CALLVALUE DUP1 ISZERO PUSH2 0x5AF JUMPI PUSH1 0x0 DUP1 REVERT JUMPDEST POP PUSH2 0x5CA PUSH1 0x4 DUP1 CALLDATASIZE SUB DUP2 ADD SWAP1 PUSH2 0x5C5 SWAP2 SWAP1 PUSH2 0x3206 JUMP JUMPDEST PUSH2 0x13DE JUMP JUMPDEST PUSH1 0x40 MLOAD PUSH2 0x5D7 SWAP2 SWAP1 PUSH2 0x2EFD JUMP JUMPDEST PUSH1 0x40 MLOAD DUP1 SWAP2 SUB SWAP1 RETURN JUMPDEST PUSH2 0x5FA PUSH1 0x4 DUP1 CALLDATASIZE SUB DUP2 ADD SWAP1 PUSH2 0x5F5 SWAP2 SWAP1 PUSH2 0x339A JUMP JUMPDEST PUSH2 0x15C9 JUMP JUMPDEST PUSH1 0x40 MLOAD PUSH2 0x607 SWAP2 SWAP1 PUSH2 0x2E30 JUMP JUMPDEST PUSH1 0x40 MLOAD DUP1 SWAP2 SUB SWAP1 RETURN JUMPDEST CALLVALUE DUP1 ISZERO PUSH2 0x61C JUMPI PUSH1 0x0 DUP1 REVERT JUMPDEST POP PUSH2 0x637 PUSH1 0x4 DUP1 CALLDATASIZE SUB DUP2 ADD SWAP1 PUSH2 0x632 SWAP2 SWAP1 PUSH2 0x341D JUMP JUMPDEST PUSH2 0x199D JUMP JUMPDEST PUSH1 0x40 MLOAD PUSH2 0x644 SWAP2 SWAP1 PUSH2 0x2F27 JUMP JUMPDEST PUSH1 0x40 MLOAD DUP1 SWAP2 SUB SWAP1 RETURN JUMPDEST CALLVALUE DUP1 ISZERO PUSH2 0x659 JUMPI PUSH1 0x0 DUP1 REVERT JUMPDEST POP PUSH2 0x674 PUSH1 0x4 DUP1 CALLDATASIZE SUB DUP2 ADD SWAP1 PUSH2 0x66F SWAP2 SWAP1 PUSH2 0x345D JUMP JUMPDEST PUSH2 0x19DF JUMP JUMPDEST STOP JUMPDEST CALLVALUE DUP1 ISZERO PUSH2 0x682 JUMPI PUSH1 0x0 DUP1 REVERT JUMPDEST POP PUSH2 0x68B PUSH2 0x1ABD JUMP JUMPDEST PUSH1 0x40 MLOAD PUSH2 0x698 SWAP2 SWAP1 PUSH2 0x2F27 JUMP JUMPDEST PUSH1 0x40 MLOAD DUP1 SWAP2 SUB SWAP1 RETURN JUMPDEST PUSH2 0x6BB PUSH1 0x4 DUP1 CALLDATASIZE SUB DUP2 ADD SWAP1 PUSH2 0x6B6 SWAP2 SWAP1 PUSH2 0x349D JUMP JUMPDEST PUSH2 0x1AE3 JUMP JUMPDEST STOP JUMPDEST CALLVALUE DUP1 ISZERO PUSH2 0x6C9 JUMPI PUSH1 0x0 DUP1 REVERT JUMPDEST POP PUSH2 0x6E4 PUSH1 0x4 DUP1 CALLDATASIZE SUB DUP2 ADD SWAP1 PUSH2 0x6DF SWAP2 SWAP1 PUSH2 0x3504 JUMP JUMPDEST PUSH2 0x1FB3 JUMP JUMPDEST STOP JUMPDEST CALLVALUE DUP1 ISZERO PUSH2 0x6F2 JUMPI PUSH1 0x0 DUP1 REVERT JUMPDEST POP PUSH2 0x70D PUSH1 0x4 DUP1 CALLDATASIZE SUB DUP2 ADD SWAP1 PUSH2 0x708 SWAP2 SWAP1 PUSH2 0x2C69 JUMP JUMPDEST PUSH2 0x20CB JUMP JUMPDEST STOP JUMPDEST PUSH2 0x729 PUSH1 0x4 DUP1 CALLDATASIZE SUB DUP2 ADD SWAP1 PUSH2 0x724 SWAP2 SWAP1 PUSH2 0x359A JUMP JUMPDEST PUSH2 0x21CC JUMP JUMPDEST STOP JUMPDEST CALLVALUE DUP1 ISZERO PUSH2 0x737 JUMPI PUSH1 0x0 DUP1 REVERT JUMPDEST POP PUSH2 0x752 PUSH1 0x4 DUP1 CALLDATASIZE SUB DUP2 ADD SWAP1 PUSH2 0x74D SWAP2 SWAP1 PUSH2 0x2C69 JUMP JUMPDEST PUSH2 0x2330 JUMP JUMPDEST STOP JUMPDEST CALLER PUSH20 0xFFFFFFFFFFFFFFFFFFFFFFFFFFFFFFFFFFFFFFFF AND PUSH2 0x773 PUSH2 0x1162 JUMP JUMPDEST PUSH20 0xFFFFFFFFFFFFFFFFFFFFFFFFFFFFFFFFFFFFFFFF AND EQ PUSH2 0x7C9 JUMPI PUSH1 0x40 MLOAD PUSH32 0x8C379A000000000000000000000000000000000000000000000000000000000 DUP2 MSTORE PUSH1 0x4 ADD PUSH2 0x7C0 SWAP1 PUSH2 0x3691 JUMP JUMPDEST PUSH1 0x40 MLOAD DUP1 SWAP2 SUB SWAP1 REVERT JUMPDEST PUSH1 0x1 PUSH1 0x6 PUSH1 0x0 DUP4 PUSH20 0xFFFFFFFFFFFFFFFFFFFFFFFFFFFFFFFFFFFFFFFF AND PUSH20 0xFFFFFFFFFFFFFFFFFFFFFFFFFFFFFFFFFFFFFFFF AND DUP2 MSTORE PUSH1 0x20 ADD SWAP1 DUP2 MSTORE PUSH1 0x20 ADD PUSH1 0x0 KECCAK256 PUSH1 0x0 PUSH2 0x100 EXP DUP2 SLOAD DUP2 PUSH1 0xFF MUL NOT AND SWAP1 DUP4 ISZERO ISZERO MUL OR SWAP1 SSTORE POP PUSH32 0x9800FB32BF5EB9A3B2E42C910912DA10ED1881DC538475101797669146166BF8 DUP2 PUSH1 0x1 PUSH1 0x40 MLOAD PUSH2 0x853 SWAP3 SWAP2 SWAP1 PUSH2 0x36B1 JUMP JUMPDEST PUSH1 0x40 MLOAD DUP1 SWAP2 SUB SWAP1 LOG1 POP JUMP JUMPDEST PUSH1 0x0 PUSH1 0x1 PUSH1 0x0 SWAP1 SLOAD SWAP1 PUSH2 0x100 EXP SWAP1 DIV PUSH20 0xFFFFFFFFFFFFFFFFFFFFFFFFFFFFFFFFFFFFFFFF AND PUSH20 0xFFFFFFFFFFFFFFFFFFFFFFFFFFFFFFFFFFFFFFFF AND CALLER PUSH20 0xFFFFFFFFFFFFFFFFFFFFFFFFFFFFFFFFFFFFFFFF AND EQ PUSH2 0x8F0 JUMPI PUSH1 0x40 MLOAD PUSH32 0x8C379A000000000000000000000000000000000000000000000000000000000 DUP2 MSTORE PUSH1 0x4 ADD PUSH2 0x8E7 SWAP1 PUSH2 0x3726 JUMP JUMPDEST PUSH1 0x40 MLOAD DUP1 SWAP2 SUB SWAP1 REVERT JUMPDEST SWAP6 SWAP5 POP POP POP POP POP JUMP JUMPDEST PUSH1 0x6 PUSH1 0x20 MSTORE DUP1 PUSH1 0x0 MSTORE PUSH1 0x40 PUSH1 0x0 KECCAK256 PUSH1 0x0 SWAP2 POP SLOAD SWAP1 PUSH2 0x100 EXP SWAP1 DIV PUSH1 0xFF AND DUP2 JUMP JUMPDEST PUSH1 0x3 PUSH1 0x20 MSTORE DUP1 PUSH1 0x0 MSTORE PUSH1 0x40 PUSH1 0x0 KECCAK256 PUSH1 0x0 SWAP2 POP SWAP1 POP SLOAD DUP2 JUMP JUMPDEST PUSH2 0x939 PUSH2 0x2421 JUMP JUMPDEST DUP1 PUSH1 0x1 PUSH1 0x0 PUSH2 0x100 EXP DUP2 SLOAD DUP2 PUSH20 0xFFFFFFFFFFFFFFFFFFFFFFFFFFFFFFFFFFFFFFFF MUL NOT AND SWAP1 DUP4 PUSH20 0xFFFFFFFFFFFFFFFFFFFFFFFFFFFFFFFFFFFFFFFF AND MUL OR SWAP1 SSTORE POP POP JUMP JUMPDEST PUSH1 0x4 PUSH1 0x20 MSTORE DUP1 PUSH1 0x0 MSTORE PUSH1 0x40 PUSH1 0x0 KECCAK256 PUSH1 0x0 SWAP2 POP SLOAD SWAP1 PUSH2 0x100 EXP SWAP1 DIV PUSH20 0xFFFFFFFFFFFFFFFFFFFFFFFFFFFFFFFFFFFFFFFF AND DUP2 JUMP JUMPDEST CALLER PUSH20 0xFFFFFFFFFFFFFFFFFFFFFFFFFFFFFFFFFFFFFFFF AND PUSH2 0x9CF PUSH2 0x1162 JUMP JUMPDEST PUSH20 0xFFFFFFFFFFFFFFFFFFFFFFFFFFFFFFFFFFFFFFFF AND EQ PUSH2 0xA25 JUMPI PUSH1 0x40 MLOAD PUSH32 0x8C379A000000000000000000000000000000000000000000000000000000000 DUP2 MSTORE PUSH1 0x4 ADD PUSH2 0xA1C SWAP1 PUSH2 0x3691 JUMP JUMPDEST PUSH1 0x40 MLOAD DUP1 SWAP2 SUB SWAP1 REVERT JUMPDEST DUP2 DUP2 SWAP1 POP DUP5 DUP5 SWAP1 POP EQ PUSH2 0xA6D JUMPI PUSH1 0x40 MLOAD PUSH32 0x8C379A000000000000000000000000000000000000000000000000000000000 DUP2 MSTORE PUSH1 0x4 ADD PUSH2 0xA64 SWAP1 PUSH2 0x3792 JUMP JUMPDEST PUSH1 0x40 MLOAD DUP1 SWAP2 SUB SWAP1 REVERT JUMPDEST PUSH1 0x0 JUMPDEST DUP5 DUP5 SWAP1 POP DUP2 LT ISZERO PUSH2 0xB7F JUMPI DUP3 DUP3 DUP3 DUP2 DUP2 LT PUSH2 0xA8E JUMPI PUSH2 0xA8D PUSH2 0x37B2 JUMP JUMPDEST JUMPDEST SWAP1 POP PUSH1 0x20 MUL ADD PUSH1 0x20 DUP2 ADD SWAP1 PUSH2 0xAA3 SWAP2 SWAP1 PUSH2 0x2C69 JUMP JUMPDEST PUSH1 0x5 PUSH1 0x0 DUP9 PUSH20 0xFFFFFFFFFFFFFFFFFFFFFFFFFFFFFFFFFFFFFFFF AND PUSH20 0xFFFFFFFFFFFFFFFFFFFFFFFFFFFFFFFFFFFFFFFF AND DUP2 MSTORE PUSH1 0x20 ADD SWAP1 DUP2 MSTORE PUSH1 0x20 ADD PUSH1 0x0 KECCAK256 PUSH1 0x0 DUP8 DUP8 DUP6 DUP2 DUP2 LT PUSH2 0xAF7 JUMPI PUSH2 0xAF6 PUSH2 0x37B2 JUMP JUMPDEST JUMPDEST SWAP1 POP PUSH1 0x20 MUL ADD PUSH1 0x20 DUP2 ADD SWAP1 PUSH2 0xB0C SWAP2 SWAP1 PUSH2 0x2EC1 JUMP JUMPDEST PUSH8 0xFFFFFFFFFFFFFFFF AND PUSH8 0xFFFFFFFFFFFFFFFF AND DUP2 MSTORE PUSH1 0x20 ADD SWAP1 DUP2 MSTORE PUSH1 0x20 ADD PUSH1 0x0 KECCAK256 PUSH1 0x0 PUSH2 0x100 EXP DUP2 SLOAD DUP2 PUSH20 0xFFFFFFFFFFFFFFFFFFFFFFFFFFFFFFFFFFFFFFFF MUL NOT AND SWAP1 DUP4 PUSH20 0xFFFFFFFFFFFFFFFFFFFFFFFFFFFFFFFFFFFFFFFF AND MUL OR SWAP1 SSTORE POP DUP1 DUP1 PUSH2 0xB77 SWAP1 PUSH2 0x3810 JUMP JUMPDEST SWAP2 POP POP PUSH2 0xA70 JUMP JUMPDEST POP POP POP POP POP POP JUMP JUMPDEST PUSH2 0xB90 CALLER PUSH2 0xD2A JUMP JUMPDEST PUSH2 0xBCF JUMPI PUSH1 0x40 MLOAD PUSH32 0x8C379A000000000000000000000000000000000000000000000000000000000 DUP2 MSTORE PUSH1 0x4 ADD PUSH2 0xBC6 SWAP1 PUSH2 0x38A5 JUMP JUMPDEST PUSH1 0x40 MLOAD DUP1 SWAP2 SUB SWAP1 REVERT JUMPDEST PUSH2 0xBD7 PUSH2 0x24BB JUMP JUMPDEST JUMP JUMPDEST CALLER PUSH20 0xFFFFFFFFFFFFFFFFFFFFFFFFFFFFFFFFFFFFFFFF AND PUSH2 0xBF8 PUSH2 0x1162 JUMP JUMPDEST PUSH20 0xFFFFFFFFFFFFFFFFFFFFFFFFFFFFFFFFFFFFFFFF AND EQ PUSH2 0xC4E JUMPI PUSH1 0x40 MLOAD PUSH32 0x8C379A000000000000000000000000000000000000000000000000000000000 DUP2 MSTORE PUSH1 0x4 ADD PUSH2 0xC45 SWAP1 PUSH2 0x3691 JUMP JUMPDEST PUSH1 0x40 MLOAD DUP1 SWAP2 SUB SWAP1 REVERT JUMPDEST PUSH1 0x0 JUMPDEST DUP5 DUP5 SWAP1 POP DUP2 LT ISZERO PUSH2 0xD23 JUMPI DUP3 DUP3 DUP3 DUP2 DUP2 LT PUSH2 0xC6F JUMPI PUSH2 0xC6E PUSH2 0x37B2 JUMP JUMPDEST JUMPDEST SWAP1 POP PUSH1 0x20 MUL ADD PUSH1 0x20 DUP2 ADD SWAP1 PUSH2 0xC84 SWAP2 SWAP1 PUSH2 0x2C69 JUMP JUMPDEST PUSH1 0x4 PUSH1 0x0 DUP8 DUP8 DUP6 DUP2 DUP2 LT PUSH2 0xC9B JUMPI PUSH2 0xC9A PUSH2 0x37B2 JUMP JUMPDEST JUMPDEST SWAP1 POP PUSH1 0x20 MUL ADD PUSH1 0x20 DUP2 ADD SWAP1 PUSH2 0xCB0 SWAP2 SWAP1 PUSH2 0x2EC1 JUMP JUMPDEST PUSH8 0xFFFFFFFFFFFFFFFF AND PUSH8 0xFFFFFFFFFFFFFFFF AND DUP2 MSTORE PUSH1 0x20 ADD SWAP1 DUP2 MSTORE PUSH1 0x20 ADD PUSH1 0x0 KECCAK256 PUSH1 0x0 PUSH2 0x100 EXP DUP2 SLOAD DUP2 PUSH20 0xFFFFFFFFFFFFFFFFFFFFFFFFFFFFFFFFFFFFFFFF MUL NOT AND SWAP1 DUP4 PUSH20 0xFFFFFFFFFFFFFFFFFFFFFFFFFFFFFFFFFFFFFFFF AND MUL OR SWAP1 SSTORE POP DUP1 DUP1 PUSH2 0xD1B SWAP1 PUSH2 0x3810 JUMP JUMPDEST SWAP2 POP POP PUSH2 0xC51 JUMP JUMPDEST POP POP POP POP POP JUMP JUMPDEST PUSH1 0x0 PUSH1 0x2 PUSH1 0x0 DUP4 PUSH20 0xFFFFFFFFFFFFFFFFFFFFFFFFFFFFFFFFFFFFFFFF AND PUSH20 0xFFFFFFFFFFFFFFFFFFFFFFFFFFFFFFFFFFFFFFFF AND DUP2 MSTORE PUSH1 0x20 ADD SWAP1 DUP2 MSTORE PUSH1 0x20 ADD PUSH1 0x0 KECCAK256 PUSH1 0x0 SWAP1 SLOAD SWAP1 PUSH2 0x100 EXP SWAP1 DIV PUSH1 0xFF AND SWAP1 POP SWAP2 SWAP1 POP JUMP JUMPDEST CALLER PUSH20 0xFFFFFFFFFFFFFFFFFFFFFFFFFFFFFFFFFFFFFFFF AND PUSH2 0xD9F PUSH2 0x1162 JUMP JUMPDEST PUSH20 0xFFFFFFFFFFFFFFFFFFFFFFFFFFFFFFFFFFFFFFFF AND EQ PUSH2 0xDF5 JUMPI PUSH1 0x40 MLOAD PUSH32 0x8C379A000000000000000000000000000000000000000000000000000000000 DUP2 MSTORE PUSH1 0x4 ADD PUSH2 0xDEC SWAP1 PUSH2 0x3691 JUMP JUMPDEST PUSH1 0x40 MLOAD DUP1 SWAP2 SUB SWAP1 REVERT JUMPDEST DUP1 PUSH1 0x1 PUSH1 0x0 PUSH2 0x100 EXP DUP2 SLOAD DUP2 PUSH20 0xFFFFFFFFFFFFFFFFFFFFFFFFFFFFFFFFFFFFFFFF MUL NOT AND SWAP1 DUP4 PUSH20 0xFFFFFFFFFFFFFFFFFFFFFFFFFFFFFFFFFFFFFFFF AND MUL OR SWAP1 SSTORE POP PUSH32 0x3F8223BCD8B3B875473E9F9E14E1AD075451A2B5FFD31591655DA9A01516BF5E PUSH1 0x1 PUSH1 0x0 SWAP1 SLOAD SWAP1 PUSH2 0x100 EXP SWAP1 DIV PUSH20 0xFFFFFFFFFFFFFFFFFFFFFFFFFFFFFFFFFFFFFFFF AND PUSH1 0x40 MLOAD PUSH2 0xE87 SWAP2 SWAP1 PUSH2 0x2F27 JUMP JUMPDEST PUSH1 0x40 MLOAD DUP1 SWAP2 SUB SWAP1 LOG1 POP JUMP JUMPDEST PUSH1 0x0 PUSH1 0x1 PUSH1 0x0 SWAP1 SLOAD SWAP1 PUSH2 0x100 EXP SWAP1 DIV PUSH20 0xFFFFFFFFFFFFFFFFFFFFFFFFFFFFFFFFFFFFFFFF AND PUSH20 0xFFFFFFFFFFFFFFFFFFFFFFFFFFFFFFFFFFFFFFFF AND CALLER PUSH20 0xFFFFFFFFFFFFFFFFFFFFFFFFFFFFFFFFFFFFFFFF AND EQ PUSH2 0xF24 JUMPI PUSH1 0x40 MLOAD PUSH32 0x8C379A000000000000000000000000000000000000000000000000000000000 DUP2 MSTORE PUSH1 0x4 ADD PUSH2 0xF1B SWAP1 PUSH2 0x3726 JUMP JUMPDEST PUSH1 0x40 MLOAD DUP1 SWAP2 SUB SWAP1 REVERT JUMPDEST SWAP8 SWAP7 POP POP POP POP POP POP POP JUMP JUMPDEST PUSH1 0x0 PUSH1 0x1 PUSH1 0x14 SWAP1 SLOAD SWAP1 PUSH2 0x100 EXP SWAP1 DIV PUSH1 0xFF AND SWAP1 POP SWAP1 JUMP JUMPDEST CALLER PUSH20 0xFFFFFFFFFFFFFFFFFFFFFFFFFFFFFFFFFFFFFFFF AND PUSH2 0xF65 PUSH2 0x1162 JUMP JUMPDEST PUSH20 0xFFFFFFFFFFFFFFFFFFFFFFFFFFFFFFFFFFFFFFFF AND EQ PUSH2 0xFBB JUMPI PUSH1 0x40 MLOAD PUSH32 0x8C379A000000000000000000000000000000000000000000000000000000000 DUP2 MSTORE PUSH1 0x4 ADD PUSH2 0xFB2 SWAP1 PUSH2 0x3691 JUMP JUMPDEST PUSH1 0x40 MLOAD DUP1 SWAP2 SUB SWAP1 REVERT JUMPDEST PUSH2 0xFC4 DUP2 PUSH2 0x255D JUMP JUMPDEST POP JUMP JUMPDEST PUSH2 0xFD0 CALLER PUSH2 0x255D JUMP JUMPDEST JUMP JUMPDEST PUSH1 0x0 PUSH1 0x1 PUSH1 0x0 SWAP1 SLOAD SWAP1 PUSH2 0x100 EXP SWAP1 DIV PUSH20 0xFFFFFFFFFFFFFFFFFFFFFFFFFFFFFFFFFFFFFFFF AND PUSH20 0xFFFFFFFFFFFFFFFFFFFFFFFFFFFFFFFFFFFFFFFF AND CALLER PUSH20 0xFFFFFFFFFFFFFFFFFFFFFFFFFFFFFFFFFFFFFFFF AND EQ PUSH2 0x1064 JUMPI PUSH1 0x40 MLOAD PUSH32 0x8C379A000000000000000000000000000000000000000000000000000000000 DUP2 MSTORE PUSH1 0x4 ADD PUSH2 0x105B SWAP1 PUSH2 0x3726 JUMP JUMPDEST PUSH1 0x40 MLOAD DUP1 SWAP2 SUB SWAP1 REVERT JUMPDEST SWAP8 SWAP7 POP POP POP POP POP POP POP JUMP JUMPDEST PUSH1 0x2 PUSH1 0x20 MSTORE DUP1 PUSH1 0x0 MSTORE PUSH1 0x40 PUSH1 0x0 KECCAK256 PUSH1 0x0 SWAP2 POP SLOAD SWAP1 PUSH2 0x100 EXP SWAP1 DIV PUSH1 0xFF AND DUP2 JUMP JUMPDEST CALLER PUSH20 0xFFFFFFFFFFFFFFFFFFFFFFFFFFFFFFFFFFFFFFFF AND PUSH2 0x10AE PUSH2 0x1162 JUMP JUMPDEST PUSH20 0xFFFFFFFFFFFFFFFFFFFFFFFFFFFFFFFFFFFFFFFF AND EQ PUSH2 0x1104 JUMPI PUSH1 0x40 MLOAD PUSH32 0x8C379A000000000000000000000000000000000000000000000000000000000 DUP2 MSTORE PUSH1 0x4 ADD PUSH2 0x10FB SWAP1 PUSH2 0x3691 JUMP JUMPDEST PUSH1 0x40 MLOAD DUP1 SWAP2 SUB SWAP1 REVERT JUMPDEST PUSH2 0x110D DUP2 PUSH2 0x2637 JUMP JUMPDEST POP JUMP JUMPDEST PUSH2 0x1119 CALLER PUSH2 0xD2A JUMP JUMPDEST PUSH2 0x1158 JUMPI PUSH1 0x40 MLOAD PUSH32 0x8C379A000000000000000000000000000000000000000000000000000000000 DUP2 MSTORE PUSH1 0x4 ADD PUSH2 0x114F SWAP1 PUSH2 0x38A5 JUMP JUMPDEST PUSH1 0x40 MLOAD DUP1 SWAP2 SUB SWAP1 REVERT JUMPDEST PUSH2 0x1160 PUSH2 0x2712 JUMP JUMPDEST JUMP JUMPDEST PUSH1 0x0 DUP1 PUSH1 0x0 SWAP1 SLOAD SWAP1 PUSH2 0x100 EXP SWAP1 DIV PUSH20 0xFFFFFFFFFFFFFFFFFFFFFFFFFFFFFFFFFFFFFFFF AND SWAP1 POP SWAP1 JUMP JUMPDEST CALLER PUSH20 0xFFFFFFFFFFFFFFFFFFFFFFFFFFFFFFFFFFFFFFFF AND PUSH2 0x11AA PUSH2 0x1162 JUMP JUMPDEST PUSH20 0xFFFFFFFFFFFFFFFFFFFFFFFFFFFFFFFFFFFFFFFF AND EQ PUSH2 0x1200 JUMPI PUSH1 0x40 MLOAD PUSH32 0x8C379A000000000000000000000000000000000000000000000000000000000 DUP2 MSTORE PUSH1 0x4 ADD PUSH2 0x11F7 SWAP1 PUSH2 0x3691 JUMP JUMPDEST PUSH1 0x40 MLOAD DUP1 SWAP2 SUB SWAP1 REVERT JUMPDEST DUP1 PUSH1 0x5 PUSH1 0x0 DUP6 PUSH20 0xFFFFFFFFFFFFFFFFFFFFFFFFFFFFFFFFFFFFFFFF AND PUSH20 0xFFFFFFFFFFFFFFFFFFFFFFFFFFFFFFFFFFFFFFFF AND DUP2 MSTORE PUSH1 0x20 ADD SWAP1 DUP2 MSTORE PUSH1 0x20 ADD PUSH1 0x0 KECCAK256 PUSH1 0x0 DUP5 PUSH8 0xFFFFFFFFFFFFFFFF AND PUSH8 0xFFFFFFFFFFFFFFFF AND DUP2 MSTORE PUSH1 0x20 ADD SWAP1 DUP2 MSTORE PUSH1 0x20 ADD PUSH1 0x0 KECCAK256 PUSH1 0x0 PUSH2 0x100 EXP DUP2 SLOAD DUP2 PUSH20 0xFFFFFFFFFFFFFFFFFFFFFFFFFFFFFFFFFFFFFFFF MUL NOT AND SWAP1 DUP4 PUSH20 0xFFFFFFFFFFFFFFFFFFFFFFFFFFFFFFFFFFFFFFFF AND MUL OR SWAP1 SSTORE POP PUSH32 0xA5A9B84F1B7EB437335EA919A3FF6DE6E242E4733D0100A77391106173794871 DUP4 DUP4 DUP4 PUSH1 0x40 MLOAD PUSH2 0x12D6 SWAP4 SWAP3 SWAP2 SWAP1 PUSH2 0x38D4 JUMP JUMPDEST PUSH1 0x40 MLOAD DUP1 SWAP2 SUB SWAP1 LOG1 POP POP POP JUMP JUMPDEST CALLER PUSH20 0xFFFFFFFFFFFFFFFFFFFFFFFFFFFFFFFFFFFFFFFF AND PUSH2 0x1302 PUSH2 0x1162 JUMP JUMPDEST PUSH20 0xFFFFFFFFFFFFFFFFFFFFFFFFFFFFFFFFFFFFFFFF AND EQ PUSH2 0x1358 JUMPI PUSH1 0x40 MLOAD PUSH32 0x8C379A000000000000000000000000000000000000000000000000000000000 DUP2 MSTORE PUSH1 0x4 ADD PUSH2 0x134F SWAP1 PUSH2 0x3691 JUMP JUMPDEST PUSH1 0x40 MLOAD DUP1 SWAP2 SUB SWAP1 REVERT JUMPDEST PUSH1 0x0 SELFBALANCE SWAP1 POP CALLER PUSH20 0xFFFFFFFFFFFFFFFFFFFFFFFFFFFFFFFFFFFFFFFF AND PUSH2 0x8FC DUP3 SWAP1 DUP2 ISZERO MUL SWAP1 PUSH1 0x40 MLOAD PUSH1 0x0 PUSH1 0x40 MLOAD DUP1 DUP4 SUB DUP2 DUP6 DUP9 DUP9 CALL SWAP4 POP POP POP POP ISZERO DUP1 ISZERO PUSH2 0x13A3 JUMPI RETURNDATASIZE PUSH1 0x0 DUP1 RETURNDATACOPY RETURNDATASIZE PUSH1 0x0 REVERT JUMPDEST POP PUSH32 0x62B10E3FF3D45B5FF546E740B893897FACB1680285F989A64AE932D62C5388E1 DUP2 PUSH1 0x40 MLOAD PUSH2 0x13D3 SWAP2 SWAP1 PUSH2 0x2EFD JUMP JUMPDEST PUSH1 0x40 MLOAD DUP1 SWAP2 SUB SWAP1 LOG1 POP JUMP JUMPDEST PUSH1 0x0 DUP1 DUP4 PUSH20 0xFFFFFFFFFFFFFFFFFFFFFFFFFFFFFFFFFFFFFFFF AND PUSH4 0xC87B56DD DUP5 PUSH1 0x40 MLOAD DUP3 PUSH4 0xFFFFFFFF AND PUSH1 0xE0 SHL DUP2 MSTORE PUSH1 0x4 ADD PUSH2 0x141A SWAP2 SWAP1 PUSH2 0x2EFD JUMP JUMPDEST PUSH1 0x0 PUSH1 0x40 MLOAD DUP1 DUP4 SUB DUP2 DUP7 DUP1 EXTCODESIZE ISZERO DUP1 ISZERO PUSH2 0x1432 JUMPI PUSH1 0x0 DUP1 REVERT JUMPDEST POP GAS STATICCALL ISZERO DUP1 ISZERO PUSH2 0x1446 JUMPI RETURNDATASIZE PUSH1 0x0 DUP1 RETURNDATACOPY RETURNDATASIZE PUSH1 0x0 REVERT JUMPDEST POP POP POP POP PUSH1 0x40 MLOAD RETURNDATASIZE PUSH1 0x0 DUP3 RETURNDATACOPY RETURNDATASIZE PUSH1 0x1F NOT PUSH1 0x1F DUP3 ADD AND DUP3 ADD DUP1 PUSH1 0x40 MSTORE POP DUP2 ADD SWAP1 PUSH2 0x146F SWAP2 SWAP1 PUSH2 0x39DF JUMP JUMPDEST SWAP1 POP PUSH1 0x0 PUSH1 0x40 MLOAD DUP1 PUSH1 0x80 ADD PUSH1 0x40 MSTORE DUP1 DUP7 PUSH20 0xFFFFFFFFFFFFFFFFFFFFFFFFFFFFFFFFFFFFFFFF AND DUP2 MSTORE PUSH1 0x20 ADD DUP7 PUSH20 0xFFFFFFFFFFFFFFFFFFFFFFFFFFFFFFFFFFFFFFFF AND DUP2 MSTORE PUSH1 0x20 ADD DUP6 DUP2 MSTORE PUSH1 0x20 ADD DUP4 DUP2 MSTORE POP PUSH1 0x40 MLOAD PUSH1 0x20 ADD PUSH2 0x14D0 SWAP2 SWAP1 PUSH2 0x3AFE JUMP JUMPDEST PUSH1 0x40 MLOAD PUSH1 0x20 DUP2 DUP4 SUB SUB DUP2 MSTORE SWAP1 PUSH1 0x40 MSTORE SWAP1 POP PUSH1 0x3 PUSH1 0x0 DUP8 PUSH8 0xFFFFFFFFFFFFFFFF AND PUSH8 0xFFFFFFFFFFFFFFFF AND DUP2 MSTORE PUSH1 0x20 ADD SWAP1 DUP2 MSTORE PUSH1 0x20 ADD PUSH1 0x0 KECCAK256 SLOAD PUSH1 0x1 PUSH1 0x0 SWAP1 SLOAD SWAP1 PUSH2 0x100 EXP SWAP1 DIV PUSH20 0xFFFFFFFFFFFFFFFFFFFFFFFFFFFFFFFFFFFFFFFF AND PUSH20 0xFFFFFFFFFFFFFFFFFFFFFFFFFFFFFFFFFFFFFFFF AND PUSH4 0x5335DCA2 DUP4 PUSH1 0x40 MLOAD DUP3 PUSH4 0xFFFFFFFF AND PUSH1 0xE0 SHL DUP2 MSTORE PUSH1 0x4 ADD PUSH2 0x1564 SWAP2 SWAP1 PUSH2 0x3B75 JUMP JUMPDEST PUSH1 0x20 PUSH1 0x40 MLOAD DUP1 DUP4 SUB DUP2 DUP7 DUP1 EXTCODESIZE ISZERO DUP1 ISZERO PUSH2 0x157C JUMPI PUSH1 0x0 DUP1 REVERT JUMPDEST POP GAS STATICCALL ISZERO DUP1 ISZERO PUSH2 0x1590 JUMPI RETURNDATASIZE PUSH1 0x0 DUP1 RETURNDATACOPY RETURNDATASIZE PUSH1 0x0 REVERT JUMPDEST POP POP POP POP PUSH1 0x40 MLOAD RETURNDATASIZE PUSH1 0x1F NOT PUSH1 0x1F DUP3 ADD AND DUP3 ADD DUP1 PUSH1 0x40 MSTORE POP DUP2 ADD SWAP1 PUSH2 0x15B4 SWAP2 SWAP1 PUSH2 0x3BAC JUMP JUMPDEST PUSH2 0x15BE SWAP2 SWAP1 PUSH2 0x3BD9 JUMP JUMPDEST SWAP3 POP POP POP SWAP4 SWAP3 POP POP POP JUMP JUMPDEST PUSH1 0x0 PUSH1 0x1 PUSH1 0x0 SWAP1 SLOAD SWAP1 PUSH2 0x100 EXP SWAP1 DIV PUSH20 0xFFFFFFFFFFFFFFFFFFFFFFFFFFFFFFFFFFFFFFFF AND PUSH20 0xFFFFFFFFFFFFFFFFFFFFFFFFFFFFFFFFFFFFFFFF AND CALLER PUSH20 0xFFFFFFFFFFFFFFFFFFFFFFFFFFFFFFFFFFFFFFFF AND EQ PUSH2 0x165B JUMPI PUSH1 0x40 MLOAD PUSH32 0x8C379A000000000000000000000000000000000000000000000000000000000 DUP2 MSTORE PUSH1 0x4 ADD PUSH2 0x1652 SWAP1 PUSH2 0x3726 JUMP JUMPDEST PUSH1 0x40 MLOAD DUP1 SWAP2 SUB SWAP1 REVERT JUMPDEST PUSH2 0x1663 PUSH2 0xF2F JUMP JUMPDEST DUP1 PUSH2 0x16E1 JUMPI POP PUSH1 0x4 PUSH1 0x0 DUP6 PUSH8 0xFFFFFFFFFFFFFFFF AND PUSH8 0xFFFFFFFFFFFFFFFF AND DUP2 MSTORE PUSH1 0x20 ADD SWAP1 DUP2 MSTORE PUSH1 0x20 ADD PUSH1 0x0 KECCAK256 PUSH1 0x0 SWAP1 SLOAD SWAP1 PUSH2 0x100 EXP SWAP1 DIV PUSH20 0xFFFFFFFFFFFFFFFFFFFFFFFFFFFFFFFFFFFFFFFF AND PUSH20 0xFFFFFFFFFFFFFFFFFFFFFFFFFFFFFFFFFFFFFFFF AND DUP6 PUSH20 0xFFFFFFFFFFFFFFFFFFFFFFFFFFFFFFFFFFFFFFFF AND EQ ISZERO JUMPDEST ISZERO PUSH2 0x16EF JUMPI PUSH1 0x2 SWAP1 POP PUSH2 0x1995 JUMP JUMPDEST PUSH1 0x0 DUP4 DUP1 PUSH1 0x20 ADD SWAP1 MLOAD DUP2 ADD SWAP1 PUSH2 0x1705 SWAP2 SWAP1 PUSH2 0x3CE2 JUMP JUMPDEST SWAP1 POP PUSH1 0x1 ISZERO ISZERO PUSH1 0x6 PUSH1 0x0 DUP4 PUSH1 0x20 ADD MLOAD PUSH20 0xFFFFFFFFFFFFFFFFFFFFFFFFFFFFFFFFFFFFFFFF AND PUSH20 0xFFFFFFFFFFFFFFFFFFFFFFFFFFFFFFFFFFFFFFFF AND DUP2 MSTORE PUSH1 0x20 ADD SWAP1 DUP2 MSTORE PUSH1 0x20 ADD PUSH1 0x0 KECCAK256 PUSH1 0x0 SWAP1 SLOAD SWAP1 PUSH2 0x100 EXP SWAP1 DIV PUSH1 0xFF AND ISZERO ISZERO EQ ISZERO PUSH2 0x1855 JUMPI DUP1 PUSH1 0x20 ADD MLOAD PUSH20 0xFFFFFFFFFFFFFFFFFFFFFFFFFFFFFFFFFFFFFFFF AND PUSH4 0x23B872DD ADDRESS DUP4 PUSH1 0x0 ADD MLOAD DUP5 PUSH1 0x40 ADD MLOAD PUSH1 0x40 MLOAD DUP5 PUSH4 0xFFFFFFFF AND PUSH1 0xE0 SHL DUP2 MSTORE PUSH1 0x4 ADD PUSH2 0x17AD SWAP4 SWAP3 SWAP2 SWAP1 PUSH2 0x3D2B JUMP JUMPDEST PUSH1 0x0 PUSH1 0x40 MLOAD DUP1 DUP4 SUB DUP2 PUSH1 0x0 DUP8 DUP1 EXTCODESIZE ISZERO DUP1 ISZERO PUSH2 0x17C7 JUMPI PUSH1 0x0 DUP1 REVERT JUMPDEST POP GAS CALL SWAP3 POP POP POP DUP1 ISZERO PUSH2 0x17D8 JUMPI POP PUSH1 0x1 JUMPDEST PUSH2 0x1850 JUMPI RETURNDATASIZE DUP1 PUSH1 0x0 DUP2 EQ PUSH2 0x1808 JUMPI PUSH1 0x40 MLOAD SWAP2 POP PUSH1 0x1F NOT PUSH1 0x3F RETURNDATASIZE ADD AND DUP3 ADD PUSH1 0x40 MSTORE RETURNDATASIZE DUP3 MSTORE RETURNDATASIZE PUSH1 0x0 PUSH1 0x20 DUP5 ADD RETURNDATACOPY PUSH2 0x180D JUMP JUMPDEST PUSH1 0x60 SWAP2 POP JUMPDEST POP PUSH32 0x2C4D9008B1F58A23591C25A813B398A54F438D50B85BEDEA3D6E7302EE08A810 DUP2 PUSH1 0x40 MLOAD PUSH2 0x183D SWAP2 SWAP1 PUSH2 0x3B75 JUMP JUMPDEST PUSH1 0x40 MLOAD DUP1 SWAP2 SUB SWAP1 LOG1 PUSH1 0x2 SWAP3 POP POP POP PUSH2 0x1995 JUMP JUMPDEST PUSH2 0x1946 JUMP JUMPDEST DUP1 PUSH1 0x20 ADD MLOAD PUSH20 0xFFFFFFFFFFFFFFFFFFFFFFFFFFFFFFFFFFFFFFFF AND PUSH4 0x67D74DE2 DUP3 PUSH1 0x0 ADD MLOAD DUP4 PUSH1 0x40 ADD MLOAD DUP5 PUSH1 0x60 ADD MLOAD PUSH1 0x40 MLOAD DUP5 PUSH4 0xFFFFFFFF AND PUSH1 0xE0 SHL DUP2 MSTORE PUSH1 0x4 ADD PUSH2 0x18A2 SWAP4 SWAP3 SWAP2 SWAP1 PUSH2 0x3D9B JUMP JUMPDEST PUSH1 0x0 PUSH1 0x40 MLOAD DUP1 DUP4 SUB DUP2 PUSH1 0x0 DUP8 DUP1 EXTCODESIZE ISZERO DUP1 ISZERO PUSH2 0x18BC JUMPI PUSH1 0x0 DUP1 REVERT JUMPDEST POP GAS CALL SWAP3 POP POP POP DUP1 ISZERO PUSH2 0x18CD JUMPI POP PUSH1 0x1 JUMPDEST PUSH2 0x1945 JUMPI RETURNDATASIZE DUP1 PUSH1 0x0 DUP2 EQ PUSH2 0x18FD JUMPI PUSH1 0x40 MLOAD SWAP2 POP PUSH1 0x1F NOT PUSH1 0x3F RETURNDATASIZE ADD AND DUP3 ADD PUSH1 0x40 MSTORE RETURNDATASIZE DUP3 MSTORE RETURNDATASIZE PUSH1 0x0 PUSH1 0x20 DUP5 ADD RETURNDATACOPY PUSH2 0x1902 JUMP JUMPDEST PUSH1 0x60 SWAP2 POP JUMPDEST POP PUSH32 0x2C4D9008B1F58A23591C25A813B398A54F438D50B85BEDEA3D6E7302EE08A810 DUP2 PUSH1 0x40 MLOAD PUSH2 0x1932 SWAP2 SWAP1 PUSH2 0x3B75 JUMP JUMPDEST PUSH1 0x40 MLOAD DUP1 SWAP2 SUB SWAP1 LOG1 PUSH1 0x2 SWAP3 POP POP POP PUSH2 0x1995 JUMP JUMPDEST JUMPDEST PUSH32 0xAAC355DB06D21352D6B898D8E0AE1334D55F65B6C4C09E26951166A8EB4DBA7 DUP2 PUSH1 0x0 ADD MLOAD DUP3 PUSH1 0x20 ADD MLOAD DUP4 PUSH1 0x40 ADD MLOAD DUP9 PUSH1 0x40 MLOAD PUSH2 0x1987 SWAP5 SWAP4 SWAP3 SWAP2 SWAP1 PUSH2 0x3DD9 JUMP JUMPDEST PUSH1 0x40 MLOAD DUP1 SWAP2 SUB SWAP1 LOG1 PUSH1 0x1 SWAP2 POP POP JUMPDEST SWAP5 SWAP4 POP POP POP POP JUMP JUMPDEST PUSH1 0x5 PUSH1 0x20 MSTORE DUP2 PUSH1 0x0 MSTORE PUSH1 0x40 PUSH1 0x0 KECCAK256 PUSH1 0x20 MSTORE DUP1 PUSH1 0x0 MSTORE PUSH1 0x40 PUSH1 0x0 KECCAK256 PUSH1 0x0 SWAP2 POP SWAP2 POP SWAP1 SLOAD SWAP1 PUSH2 0x100 EXP SWAP1 DIV PUSH20 0xFFFFFFFFFFFFFFFFFFFFFFFFFFFFFFFFFFFFFFFF AND DUP2 JUMP JUMPDEST CALLER PUSH20 0xFFFFFFFFFFFFFFFFFFFFFFFFFFFFFFFFFFFFFFFF AND PUSH2 0x19FE PUSH2 0x1162 JUMP JUMPDEST PUSH20 0xFFFFFFFFFFFFFFFFFFFFFFFFFFFFFFFFFFFFFFFF AND EQ PUSH2 0x1A54 JUMPI PUSH1 0x40 MLOAD PUSH32 0x8C379A000000000000000000000000000000000000000000000000000000000 DUP2 MSTORE PUSH1 0x4 ADD PUSH2 0x1A4B SWAP1 PUSH2 0x3691 JUMP JUMPDEST PUSH1 0x40 MLOAD DUP1 SWAP2 SUB SWAP1 REVERT JUMPDEST DUP1 PUSH1 0x3 PUSH1 0x0 DUP5 PUSH8 0xFFFFFFFFFFFFFFFF AND PUSH8 0xFFFFFFFFFFFFFFFF AND DUP2 MSTORE PUSH1 0x20 ADD SWAP1 DUP2 MSTORE PUSH1 0x20 ADD PUSH1 0x0 KECCAK256 DUP2 SWAP1 SSTORE POP PUSH32 0x446A287C2114FA54D0083D97CE8F6F15B2CE29FA1C2DF4B5A580D581EA7C4AD3 DUP3 DUP3 PUSH1 0x40 MLOAD PUSH2 0x1AB1 SWAP3 SWAP2 SWAP1 PUSH2 0x3E1E JUMP JUMPDEST PUSH1 0x40 MLOAD DUP1 SWAP2 SUB SWAP1 LOG1 POP POP JUMP JUMPDEST PUSH1 0x1 PUSH1 0x0 SWAP1 SLOAD SWAP1 PUSH2 0x100 EXP SWAP1 DIV PUSH20 0xFFFFFFFFFFFFFFFFFFFFFFFFFFFFFFFFFFFFFFFF AND DUP2 JUMP JUMPDEST PUSH2 0x1AEB PUSH2 0xF2F JUMP JUMPDEST ISZERO PUSH2 0x1B2B JUMPI PUSH1 0x40 MLOAD PUSH32 0x8C379A000000000000000000000000000000000000000000000000000000000 DUP2 MSTORE PUSH1 0x4 ADD PUSH2 0x1B22 SWAP1 PUSH2 0x3E93 JUMP JUMPDEST PUSH1 0x40 MLOAD DUP1 SWAP2 SUB SWAP1 REVERT JUMPDEST DUP4 PUSH20 0xFFFFFFFFFFFFFFFFFFFFFFFFFFFFFFFFFFFFFFFF AND PUSH4 0x6352211E DUP5 PUSH1 0x40 MLOAD DUP3 PUSH4 0xFFFFFFFF AND PUSH1 0xE0 SHL DUP2 MSTORE PUSH1 0x4 ADD PUSH2 0x1B64 SWAP2 SWAP1 PUSH2 0x2EFD JUMP JUMPDEST PUSH1 0x20 PUSH1 0x40 MLOAD DUP1 DUP4 SUB DUP2 DUP7 DUP1 EXTCODESIZE ISZERO DUP1 ISZERO PUSH2 0x1B7C JUMPI PUSH1 0x0 DUP1 REVERT JUMPDEST POP GAS STATICCALL ISZERO DUP1 ISZERO PUSH2 0x1B90 JUMPI RETURNDATASIZE PUSH1 0x0 DUP1 RETURNDATACOPY RETURNDATASIZE PUSH1 0x0 REVERT JUMPDEST POP POP POP POP PUSH1 0x40 MLOAD RETURNDATASIZE PUSH1 0x1F NOT PUSH1 0x1F DUP3 ADD AND DUP3 ADD DUP1 PUSH1 0x40 MSTORE POP DUP2 ADD SWAP1 PUSH2 0x1BB4 SWAP2 SWAP1 PUSH2 0x3EB3 JUMP JUMPDEST PUSH20 0xFFFFFFFFFFFFFFFFFFFFFFFFFFFFFFFFFFFFFFFF AND CALLER PUSH20 0xFFFFFFFFFFFFFFFFFFFFFFFFFFFFFFFFFFFFFFFF AND EQ PUSH2 0x1C21 JUMPI PUSH1 0x40 MLOAD PUSH32 0x8C379A000000000000000000000000000000000000000000000000000000000 DUP2 MSTORE PUSH1 0x4 ADD PUSH2 0x1C18 SWAP1 PUSH2 0x3F2C JUMP JUMPDEST PUSH1 0x40 MLOAD DUP1 SWAP2 SUB SWAP1 REVERT JUMPDEST PUSH1 0x0 DUP5 PUSH20 0xFFFFFFFFFFFFFFFFFFFFFFFFFFFFFFFFFFFFFFFF AND PUSH4 0xC87B56DD DUP6 PUSH1 0x40 MLOAD DUP3 PUSH4 0xFFFFFFFF AND PUSH1 0xE0 SHL DUP2 MSTORE PUSH1 0x4 ADD PUSH2 0x1C5C SWAP2 SWAP1 PUSH2 0x2EFD JUMP JUMPDEST PUSH1 0x0 PUSH1 0x40 MLOAD DUP1 DUP4 SUB DUP2 DUP7 DUP1 EXTCODESIZE ISZERO DUP1 ISZERO PUSH2 0x1C74 JUMPI PUSH1 0x0 DUP1 REVERT JUMPDEST POP GAS STATICCALL ISZERO DUP1 ISZERO PUSH2 0x1C88 JUMPI RETURNDATASIZE PUSH1 0x0 DUP1 RETURNDATACOPY RETURNDATASIZE PUSH1 0x0 REVERT JUMPDEST POP POP POP POP PUSH1 0x40 MLOAD RETURNDATASIZE PUSH1 0x0 DUP3 RETURNDATACOPY RETURNDATASIZE PUSH1 0x1F NOT PUSH1 0x1F DUP3 ADD AND DUP3 ADD DUP1 PUSH1 0x40 MSTORE POP DUP2 ADD SWAP1 PUSH2 0x1CB1 SWAP2 SWAP1 PUSH2 0x39DF JUMP JUMPDEST SWAP1 POP PUSH1 0x1 ISZERO ISZERO PUSH1 0x6 PUSH1 0x0 DUP8 PUSH20 0xFFFFFFFFFFFFFFFFFFFFFFFFFFFFFFFFFFFFFFFF AND PUSH20 0xFFFFFFFFFFFFFFFFFFFFFFFFFFFFFFFFFFFFFFFF AND DUP2 MSTORE PUSH1 0x20 ADD SWAP1 DUP2 MSTORE PUSH1 0x20 ADD PUSH1 0x0 KECCAK256 PUSH1 0x0 SWAP1 SLOAD SWAP1 PUSH2 0x100 EXP SWAP1 DIV PUSH1 0xFF AND ISZERO ISZERO EQ ISZERO PUSH2 0x1E76 JUMPI DUP5 PUSH20 0xFFFFFFFFFFFFFFFFFFFFFFFFFFFFFFFFFFFFFFFF AND PUSH4 0x23B872DD CALLER ADDRESS DUP8 PUSH1 0x40 MLOAD DUP5 PUSH4 0xFFFFFFFF AND PUSH1 0xE0 SHL DUP2 MSTORE PUSH1 0x4 ADD PUSH2 0x1D49 SWAP4 SWAP3 SWAP2 SWAP1 PUSH2 0x3D2B JUMP JUMPDEST PUSH1 0x0 PUSH1 0x40 MLOAD DUP1 DUP4 SUB DUP2 PUSH1 0x0 DUP8 DUP1 EXTCODESIZE ISZERO DUP1 ISZERO PUSH2 0x1D63 JUMPI PUSH1 0x0 DUP1 REVERT JUMPDEST POP GAS CALL ISZERO DUP1 ISZERO PUSH2 0x1D77 JUMPI RETURNDATASIZE PUSH1 0x0 DUP1 RETURNDATACOPY RETURNDATASIZE PUSH1 0x0 REVERT JUMPDEST POP POP POP POP ADDRESS PUSH20 0xFFFFFFFFFFFFFFFFFFFFFFFFFFFFFFFFFFFFFFFF AND DUP6 PUSH20 0xFFFFFFFFFFFFFFFFFFFFFFFFFFFFFFFFFFFFFFFF AND PUSH4 0x6352211E DUP7 PUSH1 0x40 MLOAD DUP3 PUSH4 0xFFFFFFFF AND PUSH1 0xE0 SHL DUP2 MSTORE PUSH1 0x4 ADD PUSH2 0x1DCB SWAP2 SWAP1 PUSH2 0x2EFD JUMP JUMPDEST PUSH1 0x20 PUSH1 0x40 MLOAD DUP1 DUP4 SUB DUP2 DUP7 DUP1 EXTCODESIZE ISZERO DUP1 ISZERO PUSH2 0x1DE3 JUMPI PUSH1 0x0 DUP1 REVERT JUMPDEST POP GAS STATICCALL ISZERO DUP1 ISZERO PUSH2 0x1DF7 JUMPI RETURNDATASIZE PUSH1 0x0 DUP1 RETURNDATACOPY RETURNDATASIZE PUSH1 0x0 REVERT JUMPDEST POP POP POP POP PUSH1 0x40 MLOAD RETURNDATASIZE PUSH1 0x1F NOT PUSH1 0x1F DUP3 ADD AND DUP3 ADD DUP1 PUSH1 0x40 MSTORE POP DUP2 ADD SWAP1 PUSH2 0x1E1B SWAP2 SWAP1 PUSH2 0x3EB3 JUMP JUMPDEST PUSH20 0xFFFFFFFFFFFFFFFFFFFFFFFFFFFFFFFFFFFFFFFF AND EQ PUSH2 0x1E71 JUMPI PUSH1 0x40 MLOAD PUSH32 0x8C379A000000000000000000000000000000000000000000000000000000000 DUP2 MSTORE PUSH1 0x4 ADD PUSH2 0x1E68 SWAP1 PUSH2 0x3F98 JUMP JUMPDEST PUSH1 0x40 MLOAD DUP1 SWAP2 SUB SWAP1 REVERT JUMPDEST PUSH2 0x1EE2 JUMP JUMPDEST DUP5 PUSH20 0xFFFFFFFFFFFFFFFFFFFFFFFFFFFFFFFFFFFFFFFF AND PUSH4 0x42966C68 DUP6 PUSH1 0x40 MLOAD DUP3 PUSH4 0xFFFFFFFF AND PUSH1 0xE0 SHL DUP2 MSTORE PUSH1 0x4 ADD PUSH2 0x1EAF SWAP2 SWAP1 PUSH2 0x2EFD JUMP JUMPDEST PUSH1 0x0 PUSH1 0x40 MLOAD DUP1 DUP4 SUB DUP2 PUSH1 0x0 DUP8 DUP1 EXTCODESIZE ISZERO DUP1 ISZERO PUSH2 0x1EC9 JUMPI PUSH1 0x0 DUP1 REVERT JUMPDEST POP GAS CALL ISZERO DUP1 ISZERO PUSH2 0x1EDD JUMPI RETURNDATASIZE PUSH1 0x0 DUP1 RETURNDATACOPY RETURNDATASIZE PUSH1 0x0 REVERT JUMPDEST POP POP POP POP JUMPDEST PUSH1 0x0 DUP1 PUSH2 0x1EEF DUP8 DUP7 PUSH2 0x27B4 JUMP JUMPDEST SWAP2 POP SWAP2 POP PUSH2 0x1F69 DUP3 DUP7 PUSH1 0x40 MLOAD DUP1 PUSH1 0x80 ADD PUSH1 0x40 MSTORE DUP1 DUP9 PUSH20 0xFFFFFFFFFFFFFFFFFFFFFFFFFFFFFFFFFFFFFFFF AND DUP2 MSTORE PUSH1 0x20 ADD DUP6 PUSH20 0xFFFFFFFFFFFFFFFFFFFFFFFFFFFFFFFFFFFFFFFF AND DUP2 MSTORE PUSH1 0x20 ADD DUP11 DUP2 MSTORE PUSH1 0x20 ADD DUP8 DUP2 MSTORE POP PUSH1 0x40 MLOAD PUSH1 0x20 ADD PUSH2 0x1F55 SWAP2 SWAP1 PUSH2 0x3AFE JUMP JUMPDEST PUSH1 0x40 MLOAD PUSH1 0x20 DUP2 DUP4 SUB SUB DUP2 MSTORE SWAP1 PUSH1 0x40 MSTORE PUSH2 0x296F JUMP JUMPDEST PUSH32 0x40143E5B72B2109D658CFA709DEC6213F60364DBD08B7253CDAF5F4E0C49561C CALLER DUP9 DUP9 DUP9 DUP9 DUP7 PUSH1 0x40 MLOAD PUSH2 0x1FA2 SWAP7 SWAP6 SWAP5 SWAP4 SWAP3 SWAP2 SWAP1 PUSH2 0x3FB8 JUMP JUMPDEST PUSH1 0x40 MLOAD DUP1 SWAP2 SUB SWAP1 LOG1 POP POP POP POP POP POP POP JUMP JUMPDEST CALLER PUSH20 0xFFFFFFFFFFFFFFFFFFFFFFFFFFFFFFFFFFFFFFFF AND PUSH2 0x1FD2 PUSH2 0x1162 JUMP JUMPDEST PUSH20 0xFFFFFFFFFFFFFFFFFFFFFFFFFFFFFFFFFFFFFFFF AND EQ PUSH2 0x2028 JUMPI PUSH1 0x40 MLOAD PUSH32 0x8C379A000000000000000000000000000000000000000000000000000000000 DUP2 MSTORE PUSH1 0x4 ADD PUSH2 0x201F SWAP1 PUSH2 0x3691 JUMP JUMPDEST PUSH1 0x40 MLOAD DUP1 SWAP2 SUB SWAP1 REVERT JUMPDEST DUP1 PUSH1 0x4 PUSH1 0x0 DUP5 PUSH8 0xFFFFFFFFFFFFFFFF AND PUSH8 0xFFFFFFFFFFFFFFFF AND DUP2 MSTORE PUSH1 0x20 ADD SWAP1 DUP2 MSTORE PUSH1 0x20 ADD PUSH1 0x0 KECCAK256 PUSH1 0x0 PUSH2 0x100 EXP DUP2 SLOAD DUP2 PUSH20 0xFFFFFFFFFFFFFFFFFFFFFFFFFFFFFFFFFFFFFFFF MUL NOT AND SWAP1 DUP4 PUSH20 0xFFFFFFFFFFFFFFFFFFFFFFFFFFFFFFFFFFFFFFFF AND MUL OR SWAP1 SSTORE POP PUSH32 0x3E776334B24C927645043308F89AC1CA734002E5A921FF384A70DCBB88C92CD4 DUP3 DUP3 PUSH1 0x40 MLOAD PUSH2 0x20BF SWAP3 SWAP2 SWAP1 PUSH2 0x4019 JUMP JUMPDEST PUSH1 0x40 MLOAD DUP1 SWAP2 SUB SWAP1 LOG1 POP POP JUMP JUMPDEST CALLER PUSH20 0xFFFFFFFFFFFFFFFFFFFFFFFFFFFFFFFFFFFFFFFF AND PUSH2 0x20EA PUSH2 0x1162 JUMP JUMPDEST PUSH20 0xFFFFFFFFFFFFFFFFFFFFFFFFFFFFFFFFFFFFFFFF AND EQ PUSH2 0x2140 JUMPI PUSH1 0x40 MLOAD PUSH32 0x8C379A000000000000000000000000000000000000000000000000000000000 DUP2 MSTORE PUSH1 0x4 ADD PUSH2 0x2137 SWAP1 PUSH2 0x3691 JUMP JUMPDEST PUSH1 0x40 MLOAD DUP1 SWAP2 SUB SWAP1 REVERT JUMPDEST PUSH1 0x6 PUSH1 0x0 DUP3 PUSH20 0xFFFFFFFFFFFFFFFFFFFFFFFFFFFFFFFFFFFFFFFF AND PUSH20 0xFFFFFFFFFFFFFFFFFFFFFFFFFFFFFFFFFFFFFFFF AND DUP2 MSTORE PUSH1 0x20 ADD SWAP1 DUP2 MSTORE PUSH1 0x20 ADD PUSH1 0x0 KECCAK256 PUSH1 0x0 PUSH2 0x100 EXP DUP2 SLOAD SWAP1 PUSH1 0xFF MUL NOT AND SWAP1 SSTORE PUSH32 0x9800FB32BF5EB9A3B2E42C910912DA10ED1881DC538475101797669146166BF8 DUP2 PUSH1 0x0 PUSH1 0x40 MLOAD PUSH2 0x21C1 SWAP3 SWAP2 SWAP1 PUSH2 0x36B1 JUMP JUMPDEST PUSH1 0x40 MLOAD DUP1 SWAP2 SUB SWAP1 LOG1 POP JUMP JUMPDEST PUSH2 0x21D4 PUSH2 0xF2F JUMP JUMPDEST ISZERO PUSH2 0x2214 JUMPI PUSH1 0x40 MLOAD PUSH32 0x8C379A000000000000000000000000000000000000000000000000000000000 DUP2 MSTORE PUSH1 0x4 ADD PUSH2 0x220B SWAP1 PUSH2 0x3E93 JUMP JUMPDEST PUSH1 0x40 MLOAD DUP1 SWAP2 SUB SWAP1 REVERT JUMPDEST PUSH1 0x0 CALLER SWAP1 POP PUSH1 0x0 DUP1 PUSH2 0x2226 DUP4 DUP11 PUSH2 0x27B4 JUMP JUMPDEST SWAP2 POP SWAP2 POP PUSH2 0x22E4 DUP3 DUP11 PUSH1 0x40 MLOAD DUP1 PUSH1 0x80 ADD PUSH1 0x40 MSTORE DUP1 DUP12 PUSH20 0xFFFFFFFFFFFFFFFFFFFFFFFFFFFFFFFFFFFFFFFF AND DUP2 MSTORE PUSH1 0x20 ADD DUP6 PUSH20 0xFFFFFFFFFFFFFFFFFFFFFFFFFFFFFFFFFFFFFFFF AND DUP2 MSTORE PUSH1 0x20 ADD DUP11 DUP2 MSTORE PUSH1 0x20 ADD DUP10 DUP10 DUP1 DUP1 PUSH1 0x1F ADD PUSH1 0x20 DUP1 SWAP2 DIV MUL PUSH1 0x20 ADD PUSH1 0x40 MLOAD SWAP1 DUP2 ADD PUSH1 0x40 MSTORE DUP1 SWAP4 SWAP3 SWAP2 SWAP1 DUP2 DUP2 MSTORE PUSH1 0x20 ADD DUP4 DUP4 DUP1 DUP3 DUP5 CALLDATACOPY PUSH1 0x0 DUP2 DUP5 ADD MSTORE PUSH1 0x1F NOT PUSH1 0x1F DUP3 ADD AND SWAP1 POP DUP1 DUP4 ADD SWAP3 POP POP POP POP POP POP POP DUP2 MSTORE POP PUSH1 0x40 MLOAD PUSH1 0x20 ADD PUSH2 0x22D0 SWAP2 SWAP1 PUSH2 0x3AFE JUMP JUMPDEST PUSH1 0x40 MLOAD PUSH1 0x20 DUP2 DUP4 SUB SUB DUP2 MSTORE SWAP1 PUSH1 0x40 MSTORE PUSH2 0x296F JUMP JUMPDEST PUSH32 0x40143E5B72B2109D658CFA709DEC6213F60364DBD08B7253CDAF5F4E0C49561C DUP9 DUP5 DUP9 DUP13 DUP12 DUP7 PUSH1 0x40 MLOAD PUSH2 0x231D SWAP7 SWAP6 SWAP5 SWAP4 SWAP3 SWAP2 SWAP1 PUSH2 0x3FB8 JUMP JUMPDEST PUSH1 0x40 MLOAD DUP1 SWAP2 SUB SWAP1 LOG1 POP POP POP POP POP POP POP POP POP JUMP JUMPDEST CALLER PUSH20 0xFFFFFFFFFFFFFFFFFFFFFFFFFFFFFFFFFFFFFFFF AND PUSH2 0x234F PUSH2 0x1162 JUMP JUMPDEST PUSH20 0xFFFFFFFFFFFFFFFFFFFFFFFFFFFFFFFFFFFFFFFF AND EQ PUSH2 0x23A5 JUMPI PUSH1 0x40 MLOAD PUSH32 0x8C379A000000000000000000000000000000000000000000000000000000000 DUP2 MSTORE PUSH1 0x4 ADD PUSH2 0x239C SWAP1 PUSH2 0x3691 JUMP JUMPDEST PUSH1 0x40 MLOAD DUP1 SWAP2 SUB SWAP1 REVERT JUMPDEST PUSH1 0x0 PUSH20 0xFFFFFFFFFFFFFFFFFFFFFFFFFFFFFFFFFFFFFFFF AND DUP2 PUSH20 0xFFFFFFFFFFFFFFFFFFFFFFFFFFFFFFFFFFFFFFFF AND EQ ISZERO PUSH2 0x2415 JUMPI PUSH1 0x40 MLOAD PUSH32 0x8C379A000000000000000000000000000000000000000000000000000000000 DUP2 MSTORE PUSH1 0x4 ADD PUSH2 0x240C SWAP1 PUSH2 0x40B4 JUMP JUMPDEST PUSH1 0x40 MLOAD DUP1 SWAP2 SUB SWAP1 REVERT JUMPDEST PUSH2 0x241E DUP2 PUSH2 0x2B2B JUMP JUMPDEST POP JUMP JUMPDEST PUSH1 0x0 PUSH20 0xFFFFFFFFFFFFFFFFFFFFFFFFFFFFFFFFFFFFFFFF AND PUSH1 0x0 DUP1 SLOAD SWAP1 PUSH2 0x100 EXP SWAP1 DIV PUSH20 0xFFFFFFFFFFFFFFFFFFFFFFFFFFFFFFFFFFFFFFFF AND PUSH20 0xFFFFFFFFFFFFFFFFFFFFFFFFFFFFFFFFFFFFFFFF AND EQ PUSH2 0x24B0 JUMPI PUSH1 0x40 MLOAD PUSH32 0x8C379A000000000000000000000000000000000000000000000000000000000 DUP2 MSTORE PUSH1 0x4 ADD PUSH2 0x24A7 SWAP1 PUSH2 0x4120 JUMP JUMPDEST PUSH1 0x40 MLOAD DUP1 SWAP2 SUB SWAP1 REVERT JUMPDEST PUSH2 0x24B9 CALLER PUSH2 0x2B2B JUMP JUMPDEST JUMP JUMPDEST PUSH2 0x24C3 PUSH2 0xF2F JUMP JUMPDEST PUSH2 0x2502 JUMPI PUSH1 0x40 MLOAD PUSH32 0x8C379A000000000000000000000000000000000000000000000000000000000 DUP2 MSTORE PUSH1 0x4 ADD PUSH2 0x24F9 SWAP1 PUSH2 0x418C JUMP JUMPDEST PUSH1 0x40 MLOAD DUP1 SWAP2 SUB SWAP1 REVERT JUMPDEST PUSH1 0x0 PUSH1 0x1 PUSH1 0x14 PUSH2 0x100 EXP DUP2 SLOAD DUP2 PUSH1 0xFF MUL NOT AND SWAP1 DUP4 ISZERO ISZERO MUL OR SWAP1 SSTORE POP PUSH32 0x5DB9EE0A495BF2E6FF9C91A7834C1BA4FDD244A5E8AA4E537BD38AEAE4B073AA PUSH2 0x2546 PUSH2 0x2BEF JUMP JUMPDEST PUSH1 0x40 MLOAD PUSH2 0x2553 SWAP2 SWAP1 PUSH2 0x2F27 JUMP JUMPDEST PUSH1 0x40 MLOAD DUP1 SWAP2 SUB SWAP1 LOG1 JUMP JUMPDEST PUSH2 0x2566 DUP2 PUSH2 0xD2A JUMP JUMPDEST PUSH2 0x25A5 JUMPI PUSH1 0x40 MLOAD PUSH32 0x8C379A000000000000000000000000000000000000000000000000000000000 DUP2 MSTORE PUSH1 0x4 ADD PUSH2 0x259C SWAP1 PUSH2 0x41F8 JUMP JUMPDEST PUSH1 0x40 MLOAD DUP1 SWAP2 SUB SWAP1 REVERT JUMPDEST PUSH1 0x0 PUSH1 0x2 PUSH1 0x0 DUP4 PUSH20 0xFFFFFFFFFFFFFFFFFFFFFFFFFFFFFFFFFFFFFFFF AND PUSH20 0xFFFFFFFFFFFFFFFFFFFFFFFFFFFFFFFFFFFFFFFF AND DUP2 MSTORE PUSH1 0x20 ADD SWAP1 DUP2 MSTORE PUSH1 0x20 ADD PUSH1 0x0 KECCAK256 PUSH1 0x0 PUSH2 0x100 EXP DUP2 SLOAD DUP2 PUSH1 0xFF MUL NOT AND SWAP1 DUP4 ISZERO ISZERO MUL OR SWAP1 SSTORE POP PUSH32 0xCD265EBAF09DF2871CC7BD4133404A235BA12EFF2041BB89D9C714A2621C7C7E DUP2 PUSH1 0x40 MLOAD PUSH2 0x262C SWAP2 SWAP1 PUSH2 0x2F27 JUMP JUMPDEST PUSH1 0x40 MLOAD DUP1 SWAP2 SUB SWAP1 LOG1 POP JUMP JUMPDEST PUSH2 0x2640 DUP2 PUSH2 0xD2A JUMP JUMPDEST ISZERO PUSH2 0x2680 JUMPI PUSH1 0x40 MLOAD PUSH32 0x8C379A000000000000000000000000000000000000000000000000000000000 DUP2 MSTORE PUSH1 0x4 ADD PUSH2 0x2677 SWAP1 PUSH2 0x4264 JUMP JUMPDEST PUSH1 0x40 MLOAD DUP1 SWAP2 SUB SWAP1 REVERT JUMPDEST PUSH1 0x1 PUSH1 0x2 PUSH1 0x0 DUP4 PUSH20 0xFFFFFFFFFFFFFFFFFFFFFFFFFFFFFFFFFFFFFFFF AND PUSH20 0xFFFFFFFFFFFFFFFFFFFFFFFFFFFFFFFFFFFFFFFF AND DUP2 MSTORE PUSH1 0x20 ADD SWAP1 DUP2 MSTORE PUSH1 0x20 ADD PUSH1 0x0 KECCAK256 PUSH1 0x0 PUSH2 0x100 EXP DUP2 SLOAD DUP2 PUSH1 0xFF MUL NOT AND SWAP1 DUP4 ISZERO ISZERO MUL OR SWAP1 SSTORE POP PUSH32 0x6719D08C1888103BEA251A4ED56406BD0C3E69723C8A1686E017E7BBE159B6F8 DUP2 PUSH1 0x40 MLOAD PUSH2 0x2707 SWAP2 SWAP1 PUSH2 0x2F27 JUMP JUMPDEST PUSH1 0x40 MLOAD DUP1 SWAP2 SUB SWAP1 LOG1 POP JUMP JUMPDEST PUSH2 0x271A PUSH2 0xF2F JUMP JUMPDEST ISZERO PUSH2 0x275A JUMPI PUSH1 0x40 MLOAD PUSH32 0x8C379A000000000000000000000000000000000000000000000000000000000 DUP2 MSTORE PUSH1 0x4 ADD PUSH2 0x2751 SWAP1 PUSH2 0x3E93 JUMP JUMPDEST PUSH1 0x40 MLOAD DUP1 SWAP2 SUB SWAP1 REVERT JUMPDEST PUSH1 0x1 DUP1 PUSH1 0x14 PUSH2 0x100 EXP DUP2 SLOAD DUP2 PUSH1 0xFF MUL NOT AND SWAP1 DUP4 ISZERO ISZERO MUL OR SWAP1 SSTORE POP PUSH32 0x62E78CEA01BEE320CD4E420270B5EA74000D11B0C9F74754EBDBFC544B05A258 PUSH2 0x279D PUSH2 0x2BEF JUMP JUMPDEST PUSH1 0x40 MLOAD PUSH2 0x27AA SWAP2 SWAP1 PUSH2 0x2F27 JUMP JUMPDEST PUSH1 0x40 MLOAD DUP1 SWAP2 SUB SWAP1 LOG1 JUMP JUMPDEST PUSH1 0x0 DUP1 PUSH1 0x4 PUSH1 0x0 DUP5 PUSH8 0xFFFFFFFFFFFFFFFF AND PUSH8 0xFFFFFFFFFFFFFFFF AND DUP2 MSTORE PUSH1 0x20 ADD SWAP1 DUP2 MSTORE PUSH1 0x20 ADD PUSH1 0x0 KECCAK256 PUSH1 0x0 SWAP1 SLOAD SWAP1 PUSH2 0x100 EXP SWAP1 DIV PUSH20 0xFFFFFFFFFFFFFFFFFFFFFFFFFFFFFFFFFFFFFFFF AND SWAP2 POP PUSH1 0x0 PUSH20 0xFFFFFFFFFFFFFFFFFFFFFFFFFFFFFFFFFFFFFFFF AND DUP3 PUSH20 0xFFFFFFFFFFFFFFFFFFFFFFFFFFFFFFFFFFFFFFFF AND EQ ISZERO PUSH2 0x2871 JUMPI PUSH1 0x40 MLOAD PUSH32 0x8C379A000000000000000000000000000000000000000000000000000000000 DUP2 MSTORE PUSH1 0x4 ADD PUSH2 0x2868 SWAP1 PUSH2 0x42D0 JUMP JUMPDEST PUSH1 0x40 MLOAD DUP1 SWAP2 SUB SWAP1 REVERT JUMPDEST PUSH1 0x5 PUSH1 0x0 DUP6 PUSH20 0xFFFFFFFFFFFFFFFFFFFFFFFFFFFFFFFFFFFFFFFF AND PUSH20 0xFFFFFFFFFFFFFFFFFFFFFFFFFFFFFFFFFFFFFFFF AND DUP2 MSTORE PUSH1 0x20 ADD SWAP1 DUP2 MSTORE PUSH1 0x20 ADD PUSH1 0x0 KECCAK256 PUSH1 0x0 DUP5 PUSH8 0xFFFFFFFFFFFFFFFF AND PUSH8 0xFFFFFFFFFFFFFFFF AND DUP2 MSTORE PUSH1 0x20 ADD SWAP1 DUP2 MSTORE PUSH1 0x20 ADD PUSH1 0x0 KECCAK256 PUSH1 0x0 SWAP1 SLOAD SWAP1 PUSH2 0x100 EXP SWAP1 DIV PUSH20 0xFFFFFFFFFFFFFFFFFFFFFFFFFFFFFFFFFFFFFFFF AND SWAP1 POP PUSH1 0x0 PUSH20 0xFFFFFFFFFFFFFFFFFFFFFFFFFFFFFFFFFFFFFFFF AND DUP2 PUSH20 0xFFFFFFFFFFFFFFFFFFFFFFFFFFFFFFFFFFFFFFFF AND EQ ISZERO PUSH2 0x2968 JUMPI PUSH1 0x40 MLOAD PUSH32 0x8C379A000000000000000000000000000000000000000000000000000000000 DUP2 MSTORE PUSH1 0x4 ADD PUSH2 0x295F SWAP1 PUSH2 0x433C JUMP JUMPDEST PUSH1 0x40 MLOAD DUP1 SWAP2 SUB SWAP1 REVERT JUMPDEST SWAP3 POP SWAP3 SWAP1 POP JUMP JUMPDEST PUSH1 0x0 PUSH1 0x1 PUSH1 0x0 SWAP1 SLOAD SWAP1 PUSH2 0x100 EXP SWAP1 DIV PUSH20 0xFFFFFFFFFFFFFFFFFFFFFFFFFFFFFFFFFFFFFFFF AND PUSH20 0xFFFFFFFFFFFFFFFFFFFFFFFFFFFFFFFFFFFFFFFF AND PUSH4 0x5335DCA2 DUP4 PUSH1 0x40 MLOAD DUP3 PUSH4 0xFFFFFFFF AND PUSH1 0xE0 SHL DUP2 MSTORE PUSH1 0x4 ADD PUSH2 0x29CC SWAP2 SWAP1 PUSH2 0x3B75 JUMP JUMPDEST PUSH1 0x20 PUSH1 0x40 MLOAD DUP1 DUP4 SUB DUP2 DUP7 DUP1 EXTCODESIZE ISZERO DUP1 ISZERO PUSH2 0x29E4 JUMPI PUSH1 0x0 DUP1 REVERT JUMPDEST POP GAS STATICCALL ISZERO DUP1 ISZERO PUSH2 0x29F8 JUMPI RETURNDATASIZE PUSH1 0x0 DUP1 RETURNDATACOPY RETURNDATASIZE PUSH1 0x0 REVERT JUMPDEST POP POP POP POP PUSH1 0x40 MLOAD RETURNDATASIZE PUSH1 0x1F NOT PUSH1 0x1F DUP3 ADD AND DUP3 ADD DUP1 PUSH1 0x40 MSTORE POP DUP2 ADD SWAP1 PUSH2 0x2A1C SWAP2 SWAP1 PUSH2 0x3BAC JUMP JUMPDEST SWAP1 POP PUSH1 0x3 PUSH1 0x0 DUP5 PUSH8 0xFFFFFFFFFFFFFFFF AND PUSH8 0xFFFFFFFFFFFFFFFF AND DUP2 MSTORE PUSH1 0x20 ADD SWAP1 DUP2 MSTORE PUSH1 0x20 ADD PUSH1 0x0 KECCAK256 SLOAD DUP2 PUSH2 0x2A51 SWAP2 SWAP1 PUSH2 0x3BD9 JUMP JUMPDEST CALLVALUE LT ISZERO PUSH2 0x2A93 JUMPI PUSH1 0x40 MLOAD PUSH32 0x8C379A000000000000000000000000000000000000000000000000000000000 DUP2 MSTORE PUSH1 0x4 ADD PUSH2 0x2A8A SWAP1 PUSH2 0x43A8 JUMP JUMPDEST PUSH1 0x40 MLOAD DUP1 SWAP2 SUB SWAP1 REVERT JUMPDEST PUSH1 0x1 PUSH1 0x0 SWAP1 SLOAD SWAP1 PUSH2 0x100 EXP SWAP1 DIV PUSH20 0xFFFFFFFFFFFFFFFFFFFFFFFFFFFFFFFFFFFFFFFF AND PUSH20 0xFFFFFFFFFFFFFFFFFFFFFFFFFFFFFFFFFFFFFFFF AND PUSH4 0x9F3CE55A DUP3 DUP7 DUP7 DUP7 PUSH1 0x40 MLOAD DUP6 PUSH4 0xFFFFFFFF AND PUSH1 0xE0 SHL DUP2 MSTORE PUSH1 0x4 ADD PUSH2 0x2AF3 SWAP4 SWAP3 SWAP2 SWAP1 PUSH2 0x4403 JUMP JUMPDEST PUSH1 0x0 PUSH1 0x40 MLOAD DUP1 DUP4 SUB DUP2 DUP6 DUP9 DUP1 EXTCODESIZE ISZERO DUP1 ISZERO PUSH2 0x2B0C JUMPI PUSH1 0x0 DUP1 REVERT JUMPDEST POP GAS CALL ISZERO DUP1 ISZERO PUSH2 0x2B20 JUMPI RETURNDATASIZE PUSH1 0x0 DUP1 RETURNDATACOPY RETURNDATASIZE PUSH1 0x0 REVERT JUMPDEST POP POP POP POP POP POP POP POP POP JUMP JUMPDEST PUSH1 0x0 DUP1 PUSH1 0x0 SWAP1 SLOAD SWAP1 PUSH2 0x100 EXP SWAP1 DIV PUSH20 0xFFFFFFFFFFFFFFFFFFFFFFFFFFFFFFFFFFFFFFFF AND SWAP1 POP DUP2 PUSH1 0x0 DUP1 PUSH2 0x100 EXP DUP2 SLOAD DUP2 PUSH20 0xFFFFFFFFFFFFFFFFFFFFFFFFFFFFFFFFFFFFFFFF MUL NOT AND SWAP1 DUP4 PUSH20 0xFFFFFFFFFFFFFFFFFFFFFFFFFFFFFFFFFFFFFFFF AND MUL OR SWAP1 SSTORE POP DUP2 PUSH20 0xFFFFFFFFFFFFFFFFFFFFFFFFFFFFFFFFFFFFFFFF AND DUP2 PUSH20 0xFFFFFFFFFFFFFFFFFFFFFFFFFFFFFFFFFFFFFFFF AND PUSH32 0x8BE0079C531659141344CD1FD0A4F28419497F9722A3DAAFE3B4186F6B6457E0 PUSH1 0x40 MLOAD PUSH1 0x40 MLOAD DUP1 SWAP2 SUB SWAP1 LOG3 POP POP JUMP JUMPDEST PUSH1 0x0 CALLER SWAP1 POP SWAP1 JUMP JUMPDEST PUSH1 0x0 PUSH1 0x40 MLOAD SWAP1 POP SWAP1 JUMP JUMPDEST PUSH1 0x0 DUP1 REVERT JUMPDEST PUSH1 0x0 DUP1 REVERT JUMPDEST PUSH1 0x0 PUSH20 0xFFFFFFFFFFFFFFFFFFFFFFFFFFFFFFFFFFFFFFFF DUP3 AND SWAP1 POP SWAP2 SWAP1 POP JUMP JUMPDEST PUSH1 0x0 PUSH2 0x2C36 DUP3 PUSH2 0x2C0B JUMP JUMPDEST SWAP1 POP SWAP2 SWAP1 POP JUMP JUMPDEST PUSH2 0x2C46 DUP2 PUSH2 0x2C2B JUMP JUMPDEST DUP2 EQ PUSH2 0x2C51 JUMPI PUSH1 0x0 DUP1 REVERT JUMPDEST POP JUMP JUMPDEST PUSH1 0x0 DUP2 CALLDATALOAD SWAP1 POP PUSH2 0x2C63 DUP2 PUSH2 0x2C3D JUMP JUMPDEST SWAP3 SWAP2 POP POP JUMP JUMPDEST PUSH1 0x0 PUSH1 0x20 DUP3 DUP5 SUB SLT ISZERO PUSH2 0x2C7F JUMPI PUSH2 0x2C7E PUSH2 0x2C01 JUMP JUMPDEST JUMPDEST PUSH1 0x0 PUSH2 0x2C8D DUP5 DUP3 DUP6 ADD PUSH2 0x2C54 JUMP JUMPDEST SWAP2 POP POP SWAP3 SWAP2 POP POP JUMP JUMPDEST PUSH1 0x0 DUP2 SWAP1 POP SWAP2 SWAP1 POP JUMP JUMPDEST PUSH2 0x2CA9 DUP2 PUSH2 0x2C96 JUMP JUMPDEST DUP2 EQ PUSH2 0x2CB4 JUMPI PUSH1 0x0 DUP1 REVERT JUMPDEST POP JUMP JUMPDEST PUSH1 0x0 DUP2 CALLDATALOAD SWAP1 POP PUSH2 0x2CC6 DUP2 PUSH2 0x2CA0 JUMP JUMPDEST SWAP3 SWAP2 POP POP JUMP JUMPDEST PUSH1 0x0 DUP1 REVERT JUMPDEST PUSH1 0x0 DUP1 REVERT JUMPDEST PUSH1 0x0 DUP1 REVERT JUMPDEST PUSH1 0x0 DUP1 DUP4 PUSH1 0x1F DUP5 ADD SLT PUSH2 0x2CF1 JUMPI PUSH2 0x2CF0 PUSH2 0x2CCC JUMP JUMPDEST JUMPDEST DUP3 CALLDATALOAD SWAP1 POP PUSH8 0xFFFFFFFFFFFFFFFF DUP2 GT ISZERO PUSH2 0x2D0E JUMPI PUSH2 0x2D0D PUSH2 0x2CD1 JUMP JUMPDEST JUMPDEST PUSH1 0x20 DUP4 ADD SWAP2 POP DUP4 PUSH1 0x1 DUP3 MUL DUP4 ADD GT ISZERO PUSH2 0x2D2A JUMPI PUSH2 0x2D29 PUSH2 0x2CD6 JUMP JUMPDEST JUMPDEST SWAP3 POP SWAP3 SWAP1 POP JUMP JUMPDEST PUSH1 0x0 DUP1 PUSH1 0x0 DUP1 PUSH1 0x0 PUSH1 0x80 DUP7 DUP9 SUB SLT ISZERO PUSH2 0x2D4D JUMPI PUSH2 0x2D4C PUSH2 0x2C01 JUMP JUMPDEST JUMPDEST PUSH1 0x0 PUSH2 0x2D5B DUP9 DUP3 DUP10 ADD PUSH2 0x2C54 JUMP JUMPDEST SWAP6 POP POP PUSH1 0x20 PUSH2 0x2D6C DUP9 DUP3 DUP10 ADD PUSH2 0x2CB7 JUMP JUMPDEST SWAP5 POP POP PUSH1 0x40 DUP7 ADD CALLDATALOAD PUSH8 0xFFFFFFFFFFFFFFFF DUP2 GT ISZERO PUSH2 0x2D8D JUMPI PUSH2 0x2D8C PUSH2 0x2C06 JUMP JUMPDEST JUMPDEST PUSH2 0x2D99 DUP9 DUP3 DUP10 ADD PUSH2 0x2CDB JUMP JUMPDEST SWAP4 POP SWAP4 POP POP PUSH1 0x60 PUSH2 0x2DAC DUP9 DUP3 DUP10 ADD PUSH2 0x2C54 JUMP JUMPDEST SWAP2 POP POP SWAP3 SWAP6 POP SWAP3 SWAP6 SWAP1 SWAP4 POP JUMP JUMPDEST PUSH32 0x4E487B7100000000000000000000000000000000000000000000000000000000 PUSH1 0x0 MSTORE PUSH1 0x21 PUSH1 0x4 MSTORE PUSH1 0x24 PUSH1 0x0 REVERT JUMPDEST PUSH1 0x3 DUP2 LT PUSH2 0x2DF9 JUMPI PUSH2 0x2DF8 PUSH2 0x2DB9 JUMP JUMPDEST JUMPDEST POP JUMP JUMPDEST PUSH1 0x0 DUP2 SWAP1 POP PUSH2 0x2E0A DUP3 PUSH2 0x2DE8 JUMP JUMPDEST SWAP2 SWAP1 POP JUMP JUMPDEST PUSH1 0x0 PUSH2 0x2E1A DUP3 PUSH2 0x2DFC JUMP JUMPDEST SWAP1 POP SWAP2 SWAP1 POP JUMP JUMPDEST PUSH2 0x2E2A DUP2 PUSH2 0x2E0F JUMP JUMPDEST DUP3 MSTORE POP POP JUMP JUMPDEST PUSH1 0x0 PUSH1 0x20 DUP3 ADD SWAP1 POP PUSH2 0x2E45 PUSH1 0x0 DUP4 ADD DUP5 PUSH2 0x2E21 JUMP JUMPDEST SWAP3 SWAP2 POP POP JUMP JUMPDEST PUSH1 0x0 DUP2 ISZERO ISZERO SWAP1 POP SWAP2 SWAP1 POP JUMP JUMPDEST PUSH2 0x2E60 DUP2 PUSH2 0x2E4B JUMP JUMPDEST DUP3 MSTORE POP POP JUMP JUMPDEST PUSH1 0x0 PUSH1 0x20 DUP3 ADD SWAP1 POP PUSH2 0x2E7B PUSH1 0x0 DUP4 ADD DUP5 PUSH2 0x2E57 JUMP JUMPDEST SWAP3 SWAP2 POP POP JUMP JUMPDEST PUSH1 0x0 PUSH8 0xFFFFFFFFFFFFFFFF DUP3 AND SWAP1 POP SWAP2 SWAP1 POP JUMP JUMPDEST PUSH2 0x2E9E DUP2 PUSH2 0x2E81 JUMP JUMPDEST DUP2 EQ PUSH2 0x2EA9 JUMPI PUSH1 0x0 DUP1 REVERT JUMPDEST POP JUMP JUMPDEST PUSH1 0x0 DUP2 CALLDATALOAD SWAP1 POP PUSH2 0x2EBB DUP2 PUSH2 0x2E95 JUMP JUMPDEST SWAP3 SWAP2 POP POP JUMP JUMPDEST PUSH1 0x0 PUSH1 0x20 DUP3 DUP5 SUB SLT ISZERO PUSH2 0x2ED7 JUMPI PUSH2 0x2ED6 PUSH2 0x2C01 JUMP JUMPDEST JUMPDEST PUSH1 0x0 PUSH2 0x2EE5 DUP5 DUP3 DUP6 ADD PUSH2 0x2EAC JUMP JUMPDEST SWAP2 POP POP SWAP3 SWAP2 POP POP JUMP JUMPDEST PUSH2 0x2EF7 DUP2 PUSH2 0x2C96 JUMP JUMPDEST DUP3 MSTORE POP POP JUMP JUMPDEST PUSH1 0x0 PUSH1 0x20 DUP3 ADD SWAP1 POP PUSH2 0x2F12 PUSH1 0x0 DUP4 ADD DUP5 PUSH2 0x2EEE JUMP JUMPDEST SWAP3 SWAP2 POP POP JUMP JUMPDEST PUSH2 0x2F21 DUP2 PUSH2 0x2C2B JUMP JUMPDEST DUP3 MSTORE POP POP JUMP JUMPDEST PUSH1 0x0 PUSH1 0x20 DUP3 ADD SWAP1 POP PUSH2 0x2F3C PUSH1 0x0 DUP4 ADD DUP5 PUSH2 0x2F18 JUMP JUMPDEST SWAP3 SWAP2 POP POP JUMP JUMPDEST PUSH1 0x0 DUP1 DUP4 PUSH1 0x1F DUP5 ADD SLT PUSH2 0x2F58 JUMPI PUSH2 0x2F57 PUSH2 0x2CCC JUMP JUMPDEST JUMPDEST DUP3 CALLDATALOAD SWAP1 POP PUSH8 0xFFFFFFFFFFFFFFFF DUP2 GT ISZERO PUSH2 0x2F75 JUMPI PUSH2 0x2F74 PUSH2 0x2CD1 JUMP JUMPDEST JUMPDEST PUSH1 0x20 DUP4 ADD SWAP2 POP DUP4 PUSH1 0x20 DUP3 MUL DUP4 ADD GT ISZERO PUSH2 0x2F91 JUMPI PUSH2 0x2F90 PUSH2 0x2CD6 JUMP JUMPDEST JUMPDEST SWAP3 POP SWAP3 SWAP1 POP JUMP JUMPDEST PUSH1 0x0 DUP1 DUP4 PUSH1 0x1F DUP5 ADD SLT PUSH2 0x2FAE JUMPI PUSH2 0x2FAD PUSH2 0x2CCC JUMP JUMPDEST JUMPDEST DUP3 CALLDATALOAD SWAP1 POP PUSH8 0xFFFFFFFFFFFFFFFF DUP2 GT ISZERO PUSH2 0x2FCB JUMPI PUSH2 0x2FCA PUSH2 0x2CD1 JUMP JUMPDEST JUMPDEST PUSH1 0x20 DUP4 ADD SWAP2 POP DUP4 PUSH1 0x20 DUP3 MUL DUP4 ADD GT ISZERO PUSH2 0x2FE7 JUMPI PUSH2 0x2FE6 PUSH2 0x2CD6 JUMP JUMPDEST JUMPDEST SWAP3 POP SWAP3 SWAP1 POP JUMP JUMPDEST PUSH1 0x0 DUP1 PUSH1 0x0 DUP1 PUSH1 0x0 PUSH1 0x60 DUP7 DUP9 SUB SLT ISZERO PUSH2 0x300A JUMPI PUSH2 0x3009 PUSH2 0x2C01 JUMP JUMPDEST JUMPDEST PUSH1 0x0 PUSH2 0x3018 DUP9 DUP3 DUP10 ADD PUSH2 0x2C54 JUMP JUMPDEST SWAP6 POP POP PUSH1 0x20 DUP7 ADD CALLDATALOAD PUSH8 0xFFFFFFFFFFFFFFFF DUP2 GT ISZERO PUSH2 0x3039 JUMPI PUSH2 0x3038 PUSH2 0x2C06 JUMP JUMPDEST JUMPDEST PUSH2 0x3045 DUP9 DUP3 DUP10 ADD PUSH2 0x2F42 JUMP JUMPDEST SWAP5 POP SWAP5 POP POP PUSH1 0x40 DUP7 ADD CALLDATALOAD PUSH8 0xFFFFFFFFFFFFFFFF DUP2 GT ISZERO PUSH2 0x3068 JUMPI PUSH2 0x3067 PUSH2 0x2C06 JUMP JUMPDEST JUMPDEST PUSH2 0x3074 DUP9 DUP3 DUP10 ADD PUSH2 0x2F98 JUMP JUMPDEST SWAP3 POP SWAP3 POP POP SWAP3 SWAP6 POP SWAP3 SWAP6 SWAP1 SWAP4 POP JUMP JUMPDEST PUSH1 0x0 DUP1 PUSH1 0x0 DUP1 PUSH1 0x40 DUP6 DUP8 SUB SLT ISZERO PUSH2 0x309D JUMPI PUSH2 0x309C PUSH2 0x2C01 JUMP JUMPDEST JUMPDEST PUSH1 0x0 DUP6 ADD CALLDATALOAD PUSH8 0xFFFFFFFFFFFFFFFF DUP2 GT ISZERO PUSH2 0x30BB JUMPI PUSH2 0x30BA PUSH2 0x2C06 JUMP JUMPDEST JUMPDEST PUSH2 0x30C7 DUP8 DUP3 DUP9 ADD PUSH2 0x2F42 JUMP JUMPDEST SWAP5 POP SWAP5 POP POP PUSH1 0x20 DUP6 ADD CALLDATALOAD PUSH8 0xFFFFFFFFFFFFFFFF DUP2 GT ISZERO PUSH2 0x30EA JUMPI PUSH2 0x30E9 PUSH2 0x2C06 JUMP JUMPDEST JUMPDEST PUSH2 0x30F6 DUP8 DUP3 DUP9 ADD PUSH2 0x2F98 JUMP JUMPDEST SWAP3 POP SWAP3 POP POP SWAP3 SWAP6 SWAP2 SWAP5 POP SWAP3 POP JUMP JUMPDEST PUSH1 0x0 DUP1 PUSH1 0x0 DUP1 PUSH1 0x0 DUP1 PUSH1 0x0 PUSH1 0xC0 DUP9 DUP11 SUB SLT ISZERO PUSH2 0x3123 JUMPI PUSH2 0x3122 PUSH2 0x2C01 JUMP JUMPDEST JUMPDEST PUSH1 0x0 PUSH2 0x3131 DUP11 DUP3 DUP12 ADD PUSH2 0x2C54 JUMP JUMPDEST SWAP8 POP POP PUSH1 0x20 PUSH2 0x3142 DUP11 DUP3 DUP12 ADD PUSH2 0x2C54 JUMP JUMPDEST SWAP7 POP POP PUSH1 0x40 PUSH2 0x3153 DUP11 DUP3 DUP12 ADD PUSH2 0x2CB7 JUMP JUMPDEST SWAP6 POP POP PUSH1 0x60 PUSH2 0x3164 DUP11 DUP3 DUP12 ADD PUSH2 0x2EAC JUMP JUMPDEST SWAP5 POP POP PUSH1 0x80 DUP9 ADD CALLDATALOAD PUSH8 0xFFFFFFFFFFFFFFFF DUP2 GT ISZERO PUSH2 0x3185 JUMPI PUSH2 0x3184 PUSH2 0x2C06 JUMP JUMPDEST JUMPDEST PUSH2 0x3191 DUP11 DUP3 DUP12 ADD PUSH2 0x2CDB JUMP JUMPDEST SWAP4 POP SWAP4 POP POP PUSH1 0xA0 PUSH2 0x31A4 DUP11 DUP3 DUP12 ADD PUSH2 0x2C54 JUMP JUMPDEST SWAP2 POP POP SWAP3 SWAP6 SWAP9 SWAP2 SWAP5 SWAP8 POP SWAP3 SWAP6 POP JUMP JUMPDEST PUSH1 0x0 DUP1 PUSH1 0x0 PUSH1 0x60 DUP5 DUP7 SUB SLT ISZERO PUSH2 0x31CC JUMPI PUSH2 0x31CB PUSH2 0x2C01 JUMP JUMPDEST JUMPDEST PUSH1 0x0 PUSH2 0x31DA DUP7 DUP3 DUP8 ADD PUSH2 0x2C54 JUMP JUMPDEST SWAP4 POP POP PUSH1 0x20 PUSH2 0x31EB DUP7 DUP3 DUP8 ADD PUSH2 0x2EAC JUMP JUMPDEST SWAP3 POP POP PUSH1 0x40 PUSH2 0x31FC DUP7 DUP3 DUP8 ADD PUSH2 0x2C54 JUMP JUMPDEST SWAP2 POP POP SWAP3 POP SWAP3 POP SWAP3 JUMP JUMPDEST PUSH1 0x0 DUP1 PUSH1 0x0 PUSH1 0x60 DUP5 DUP7 SUB SLT ISZERO PUSH2 0x321F JUMPI PUSH2 0x321E PUSH2 0x2C01 JUMP JUMPDEST JUMPDEST PUSH1 0x0 PUSH2 0x322D DUP7 DUP3 DUP8 ADD PUSH2 0x2EAC JUMP JUMPDEST SWAP4 POP POP PUSH1 0x20 PUSH2 0x323E DUP7 DUP3 DUP8 ADD PUSH2 0x2C54 JUMP JUMPDEST SWAP3 POP POP PUSH1 0x40 PUSH2 0x324F DUP7 DUP3 DUP8 ADD PUSH2 0x2CB7 JUMP JUMPDEST SWAP2 POP POP SWAP3 POP SWAP3 POP SWAP3 JUMP JUMPDEST PUSH1 0x0 DUP1 REVERT JUMPDEST PUSH1 0x0 PUSH1 0x1F NOT PUSH1 0x1F DUP4 ADD AND SWAP1 POP SWAP2 SWAP1 POP JUMP JUMPDEST PUSH32 0x4E487B7100000000000000000000000000000000000000000000000000000000 PUSH1 0x0 MSTORE PUSH1 0x41 PUSH1 0x4 MSTORE PUSH1 0x24 PUSH1 0x0 REVERT JUMPDEST PUSH2 0x32A7 DUP3 PUSH2 0x325E JUMP JUMPDEST DUP2 ADD DUP2 DUP2 LT PUSH8 0xFFFFFFFFFFFFFFFF DUP3 GT OR ISZERO PUSH2 0x32C6 JUMPI PUSH2 0x32C5 PUSH2 0x326F JUMP JUMPDEST JUMPDEST DUP1 PUSH1 0x40 MSTORE POP POP POP JUMP JUMPDEST PUSH1 0x0 PUSH2 0x32D9 PUSH2 0x2BF7 JUMP JUMPDEST SWAP1 POP PUSH2 0x32E5 DUP3 DUP3 PUSH2 0x329E JUMP JUMPDEST SWAP2 SWAP1 POP JUMP JUMPDEST PUSH1 0x0 PUSH8 0xFFFFFFFFFFFFFFFF DUP3 GT ISZERO PUSH2 0x3305 JUMPI PUSH2 0x3304 PUSH2 0x326F JUMP JUMPDEST JUMPDEST PUSH2 0x330E DUP3 PUSH2 0x325E JUMP JUMPDEST SWAP1 POP PUSH1 0x20 DUP2 ADD SWAP1 POP SWAP2 SWAP1 POP JUMP JUMPDEST DUP3 DUP2 DUP4 CALLDATACOPY PUSH1 0x0 DUP4 DUP4 ADD MSTORE POP POP POP JUMP JUMPDEST PUSH1 0x0 PUSH2 0x333D PUSH2 0x3338 DUP5 PUSH2 0x32EA JUMP JUMPDEST PUSH2 0x32CF JUMP JUMPDEST SWAP1 POP DUP3 DUP2 MSTORE PUSH1 0x20 DUP2 ADD DUP5 DUP5 DUP5 ADD GT ISZERO PUSH2 0x3359 JUMPI PUSH2 0x3358 PUSH2 0x3259 JUMP JUMPDEST JUMPDEST PUSH2 0x3364 DUP5 DUP3 DUP6 PUSH2 0x331B JUMP JUMPDEST POP SWAP4 SWAP3 POP POP POP JUMP JUMPDEST PUSH1 0x0 DUP3 PUSH1 0x1F DUP4 ADD SLT PUSH2 0x3381 JUMPI PUSH2 0x3380 PUSH2 0x2CCC JUMP JUMPDEST JUMPDEST DUP2 CALLDATALOAD PUSH2 0x3391 DUP5 DUP3 PUSH1 0x20 DUP7 ADD PUSH2 0x332A JUMP JUMPDEST SWAP2 POP POP SWAP3 SWAP2 POP POP JUMP JUMPDEST PUSH1 0x0 DUP1 PUSH1 0x0 DUP1 PUSH1 0x80 DUP6 DUP8 SUB SLT ISZERO PUSH2 0x33B4 JUMPI PUSH2 0x33B3 PUSH2 0x2C01 JUMP JUMPDEST JUMPDEST PUSH1 0x0 PUSH2 0x33C2 DUP8 DUP3 DUP9 ADD PUSH2 0x2C54 JUMP JUMPDEST SWAP5 POP POP PUSH1 0x20 PUSH2 0x33D3 DUP8 DUP3 DUP9 ADD PUSH2 0x2EAC JUMP JUMPDEST SWAP4 POP POP PUSH1 0x40 DUP6 ADD CALLDATALOAD PUSH8 0xFFFFFFFFFFFFFFFF DUP2 GT ISZERO PUSH2 0x33F4 JUMPI PUSH2 0x33F3 PUSH2 0x2C06 JUMP JUMPDEST JUMPDEST PUSH2 0x3400 DUP8 DUP3 DUP9 ADD PUSH2 0x336C JUMP JUMPDEST SWAP3 POP POP PUSH1 0x60 PUSH2 0x3411 DUP8 DUP3 DUP9 ADD PUSH2 0x2C54 JUMP JUMPDEST SWAP2 POP POP SWAP3 SWAP6 SWAP2 SWAP5 POP SWAP3 POP JUMP JUMPDEST PUSH1 0x0 DUP1 PUSH1 0x40 DUP4 DUP6 SUB SLT ISZERO PUSH2 0x3434 JUMPI PUSH2 0x3433 PUSH2 0x2C01 JUMP JUMPDEST JUMPDEST PUSH1 0x0 PUSH2 0x3442 DUP6 DUP3 DUP7 ADD PUSH2 0x2C54 JUMP JUMPDEST SWAP3 POP POP PUSH1 0x20 PUSH2 0x3453 DUP6 DUP3 DUP7 ADD PUSH2 0x2EAC JUMP JUMPDEST SWAP2 POP POP SWAP3 POP SWAP3 SWAP1 POP JUMP JUMPDEST PUSH1 0x0 DUP1 PUSH1 0x40 DUP4 DUP6 SUB SLT ISZERO PUSH2 0x3474 JUMPI PUSH2 0x3473 PUSH2 0x2C01 JUMP JUMPDEST JUMPDEST PUSH1 0x0 PUSH2 0x3482 DUP6 DUP3 DUP7 ADD PUSH2 0x2EAC JUMP JUMPDEST SWAP3 POP POP PUSH1 0x20 PUSH2 0x3493 DUP6 DUP3 DUP7 ADD PUSH2 0x2CB7 JUMP JUMPDEST SWAP2 POP POP SWAP3 POP SWAP3 SWAP1 POP JUMP JUMPDEST PUSH1 0x0 DUP1 PUSH1 0x0 DUP1 PUSH1 0x80 DUP6 DUP8 SUB SLT ISZERO PUSH2 0x34B7 JUMPI PUSH2 0x34B6 PUSH2 0x2C01 JUMP JUMPDEST JUMPDEST PUSH1 0x0 PUSH2 0x34C5 DUP8 DUP3 DUP9 ADD PUSH2 0x2C54 JUMP JUMPDEST SWAP5 POP POP PUSH1 0x20 PUSH2 0x34D6 DUP8 DUP3 DUP9 ADD PUSH2 0x2CB7 JUMP JUMPDEST SWAP4 POP POP PUSH1 0x40 PUSH2 0x34E7 DUP8 DUP3 DUP9 ADD PUSH2 0x2EAC JUMP JUMPDEST SWAP3 POP POP PUSH1 0x60 PUSH2 0x34F8 DUP8 DUP3 DUP9 ADD PUSH2 0x2C54 JUMP JUMPDEST SWAP2 POP POP SWAP3 SWAP6 SWAP2 SWAP5 POP SWAP3 POP JUMP JUMPDEST PUSH1 0x0 DUP1 PUSH1 0x40 DUP4 DUP6 SUB SLT ISZERO PUSH2 0x351B JUMPI PUSH2 0x351A PUSH2 0x2C01 JUMP JUMPDEST JUMPDEST PUSH1 0x0 PUSH2 0x3529 DUP6 DUP3 DUP7 ADD PUSH2 0x2EAC JUMP JUMPDEST SWAP3 POP POP PUSH1 0x20 PUSH2 0x353A DUP6 DUP3 DUP7 ADD PUSH2 0x2C54 JUMP JUMPDEST SWAP2 POP POP SWAP3 POP SWAP3 SWAP1 POP JUMP JUMPDEST PUSH1 0x0 DUP1 DUP4 PUSH1 0x1F DUP5 ADD SLT PUSH2 0x355A JUMPI PUSH2 0x3559 PUSH2 0x2CCC JUMP JUMPDEST JUMPDEST DUP3 CALLDATALOAD SWAP1 POP PUSH8 0xFFFFFFFFFFFFFFFF DUP2 GT ISZERO PUSH2 0x3577 JUMPI PUSH2 0x3576 PUSH2 0x2CD1 JUMP JUMPDEST JUMPDEST PUSH1 0x20 DUP4 ADD SWAP2 POP DUP4 PUSH1 0x1 DUP3 MUL DUP4 ADD GT ISZERO PUSH2 0x3593 JUMPI PUSH2 0x3592 PUSH2 0x2CD6 JUMP JUMPDEST JUMPDEST SWAP3 POP SWAP3 SWAP1 POP JUMP JUMPDEST PUSH1 0x0 DUP1 PUSH1 0x0 DUP1 PUSH1 0x0 DUP1 PUSH1 0xA0 DUP8 DUP10 SUB SLT ISZERO PUSH2 0x35B7 JUMPI PUSH2 0x35B6 PUSH2 0x2C01 JUMP JUMPDEST JUMPDEST PUSH1 0x0 PUSH2 0x35C5 DUP10 DUP3 DUP11 ADD PUSH2 0x2EAC JUMP JUMPDEST SWAP7 POP POP PUSH1 0x20 PUSH2 0x35D6 DUP10 DUP3 DUP11 ADD PUSH2 0x2C54 JUMP JUMPDEST SWAP6 POP POP PUSH1 0x40 PUSH2 0x35E7 DUP10 DUP3 DUP11 ADD PUSH2 0x2C54 JUMP JUMPDEST SWAP5 POP POP PUSH1 0x60 PUSH2 0x35F8 DUP10 DUP3 DUP11 ADD PUSH2 0x2CB7 JUMP JUMPDEST SWAP4 POP POP PUSH1 0x80 DUP8 ADD CALLDATALOAD PUSH8 0xFFFFFFFFFFFFFFFF DUP2 GT ISZERO PUSH2 0x3619 JUMPI PUSH2 0x3618 PUSH2 0x2C06 JUMP JUMPDEST JUMPDEST PUSH2 0x3625 DUP10 DUP3 DUP11 ADD PUSH2 0x3544 JUMP JUMPDEST SWAP3 POP SWAP3 POP POP SWAP3 SWAP6 POP SWAP3 SWAP6 POP SWAP3 SWAP6 JUMP JUMPDEST PUSH1 0x0 DUP3 DUP3 MSTORE PUSH1 0x20 DUP3 ADD SWAP1 POP SWAP3 SWAP2 POP POP JUMP JUMPDEST PUSH32 0x4F776E61626C653A2063616C6C6572206973206E6F7420746865206F776E6572 PUSH1 0x0 DUP3 ADD MSTORE POP JUMP JUMPDEST PUSH1 0x0 PUSH2 0x367B PUSH1 0x20 DUP4 PUSH2 0x3634 JUMP JUMPDEST SWAP2 POP PUSH2 0x3686 DUP3 PUSH2 0x3645 JUMP JUMPDEST PUSH1 0x20 DUP3 ADD SWAP1 POP SWAP2 SWAP1 POP JUMP JUMPDEST PUSH1 0x0 PUSH1 0x20 DUP3 ADD SWAP1 POP DUP2 DUP2 SUB PUSH1 0x0 DUP4 ADD MSTORE PUSH2 0x36AA DUP2 PUSH2 0x366E JUMP JUMPDEST SWAP1 POP SWAP2 SWAP1 POP JUMP JUMPDEST PUSH1 0x0 PUSH1 0x40 DUP3 ADD SWAP1 POP PUSH2 0x36C6 PUSH1 0x0 DUP4 ADD DUP6 PUSH2 0x2F18 JUMP JUMPDEST PUSH2 0x36D3 PUSH1 0x20 DUP4 ADD DUP5 PUSH2 0x2E57 JUMP JUMPDEST SWAP4 SWAP3 POP POP POP JUMP JUMPDEST PUSH32 0x63616C6C6572206973206E6F74206D6573736167652062757300000000000000 PUSH1 0x0 DUP3 ADD MSTORE POP JUMP JUMPDEST PUSH1 0x0 PUSH2 0x3710 PUSH1 0x19 DUP4 PUSH2 0x3634 JUMP JUMPDEST SWAP2 POP PUSH2 0x371B DUP3 PUSH2 0x36DA JUMP JUMPDEST PUSH1 0x20 DUP3 ADD SWAP1 POP SWAP2 SWAP1 POP JUMP JUMPDEST PUSH1 0x0 PUSH1 0x20 DUP3 ADD SWAP1 POP DUP2 DUP2 SUB PUSH1 0x0 DUP4 ADD MSTORE PUSH2 0x373F DUP2 PUSH2 0x3703 JUMP JUMPDEST SWAP1 POP SWAP2 SWAP1 POP JUMP JUMPDEST PUSH32 0x6C656E677468206D69736D617463680000000000000000000000000000000000 PUSH1 0x0 DUP3 ADD MSTORE POP JUMP JUMPDEST PUSH1 0x0 PUSH2 0x377C PUSH1 0xF DUP4 PUSH2 0x3634 JUMP JUMPDEST SWAP2 POP PUSH2 0x3787 DUP3 PUSH2 0x3746 JUMP JUMPDEST PUSH1 0x20 DUP3 ADD SWAP1 POP SWAP2 SWAP1 POP JUMP JUMPDEST PUSH1 0x0 PUSH1 0x20 DUP3 ADD SWAP1 POP DUP2 DUP2 SUB PUSH1 0x0 DUP4 ADD MSTORE PUSH2 0x37AB DUP2 PUSH2 0x376F JUMP JUMPDEST SWAP1 POP SWAP2 SWAP1 POP JUMP JUMPDEST PUSH32 0x4E487B7100000000000000000000000000000000000000000000000000000000 PUSH1 0x0 MSTORE PUSH1 0x32 PUSH1 0x4 MSTORE PUSH1 0x24 PUSH1 0x0 REVERT JUMPDEST PUSH32 0x4E487B7100000000000000000000000000000000000000000000000000000000 PUSH1 0x0 MSTORE PUSH1 0x11 PUSH1 0x4 MSTORE PUSH1 0x24 PUSH1 0x0 REVERT JUMPDEST PUSH1 0x0 PUSH2 0x381B DUP3 PUSH2 0x2C96 JUMP JUMPDEST SWAP2 POP PUSH32 0xFFFFFFFFFFFFFFFFFFFFFFFFFFFFFFFFFFFFFFFFFFFFFFFFFFFFFFFFFFFFFFFF DUP3 EQ ISZERO PUSH2 0x384E JUMPI PUSH2 0x384D PUSH2 0x37E1 JUMP JUMPDEST JUMPDEST PUSH1 0x1 DUP3 ADD SWAP1 POP SWAP2 SWAP1 POP JUMP JUMPDEST PUSH32 0x43616C6C6572206973206E6F7420706175736572000000000000000000000000 PUSH1 0x0 DUP3 ADD MSTORE POP JUMP JUMPDEST PUSH1 0x0 PUSH2 0x388F PUSH1 0x14 DUP4 PUSH2 0x3634 JUMP JUMPDEST SWAP2 POP PUSH2 0x389A DUP3 PUSH2 0x3859 JUMP JUMPDEST PUSH1 0x20 DUP3 ADD SWAP1 POP SWAP2 SWAP1 POP JUMP JUMPDEST PUSH1 0x0 PUSH1 0x20 DUP3 ADD SWAP1 POP DUP2 DUP2 SUB PUSH1 0x0 DUP4 ADD MSTORE PUSH2 0x38BE DUP2 PUSH2 0x3882 JUMP JUMPDEST SWAP1 POP SWAP2 SWAP1 POP JUMP JUMPDEST PUSH2 0x38CE DUP2 PUSH2 0x2E81 JUMP JUMPDEST DUP3 MSTORE POP POP JUMP JUMPDEST PUSH1 0x0 PUSH1 0x60 DUP3 ADD SWAP1 POP PUSH2 0x38E9 PUSH1 0x0 DUP4 ADD DUP7 PUSH2 0x2F18 JUMP JUMPDEST PUSH2 0x38F6 PUSH1 0x20 DUP4 ADD DUP6 PUSH2 0x38C5 JUMP JUMPDEST PUSH2 0x3903 PUSH1 0x40 DUP4 ADD DUP5 PUSH2 0x2F18 JUMP JUMPDEST SWAP5 SWAP4 POP POP POP POP JUMP JUMPDEST PUSH1 0x0 PUSH8 0xFFFFFFFFFFFFFFFF DUP3 GT ISZERO PUSH2 0x3926 JUMPI PUSH2 0x3925 PUSH2 0x326F JUMP JUMPDEST JUMPDEST PUSH2 0x392F DUP3 PUSH2 0x325E JUMP JUMPDEST SWAP1 POP PUSH1 0x20 DUP2 ADD SWAP1 POP SWAP2 SWAP1 POP JUMP JUMPDEST PUSH1 0x0 JUMPDEST DUP4 DUP2 LT ISZERO PUSH2 0x395A JUMPI DUP1 DUP3 ADD MLOAD DUP2 DUP5 ADD MSTORE PUSH1 0x20 DUP2 ADD SWAP1 POP PUSH2 0x393F JUMP JUMPDEST DUP4 DUP2 GT ISZERO PUSH2 0x3969 JUMPI PUSH1 0x0 DUP5 DUP5 ADD MSTORE JUMPDEST POP POP POP POP JUMP JUMPDEST PUSH1 0x0 PUSH2 0x3982 PUSH2 0x397D DUP5 PUSH2 0x390B JUMP JUMPDEST PUSH2 0x32CF JUMP JUMPDEST SWAP1 POP DUP3 DUP2 MSTORE PUSH1 0x20 DUP2 ADD DUP5 DUP5 DUP5 ADD GT ISZERO PUSH2 0x399E JUMPI PUSH2 0x399D PUSH2 0x3259 JUMP JUMPDEST JUMPDEST PUSH2 0x39A9 DUP5 DUP3 DUP6 PUSH2 0x393C JUMP JUMPDEST POP SWAP4 SWAP3 POP POP POP JUMP JUMPDEST PUSH1 0x0 DUP3 PUSH1 0x1F DUP4 ADD SLT PUSH2 0x39C6 JUMPI PUSH2 0x39C5 PUSH2 0x2CCC JUMP JUMPDEST JUMPDEST DUP2 MLOAD PUSH2 0x39D6 DUP5 DUP3 PUSH1 0x20 DUP7 ADD PUSH2 0x396F JUMP JUMPDEST SWAP2 POP POP SWAP3 SWAP2 POP POP JUMP JUMPDEST PUSH1 0x0 PUSH1 0x20 DUP3 DUP5 SUB SLT ISZERO PUSH2 0x39F5 JUMPI PUSH2 0x39F4 PUSH2 0x2C01 JUMP JUMPDEST JUMPDEST PUSH1 0x0 DUP3 ADD MLOAD PUSH8 0xFFFFFFFFFFFFFFFF DUP2 GT ISZERO PUSH2 0x3A13 JUMPI PUSH2 0x3A12 PUSH2 0x2C06 JUMP JUMPDEST JUMPDEST PUSH2 0x3A1F DUP5 DUP3 DUP6 ADD PUSH2 0x39B1 JUMP JUMPDEST SWAP2 POP POP SWAP3 SWAP2 POP POP JUMP JUMPDEST PUSH2 0x3A31 DUP2 PUSH2 0x2C2B JUMP JUMPDEST DUP3 MSTORE POP POP JUMP JUMPDEST PUSH2 0x3A40 DUP2 PUSH2 0x2C96 JUMP JUMPDEST DUP3 MSTORE POP POP JUMP JUMPDEST PUSH1 0x0 DUP2 MLOAD SWAP1 POP SWAP2 SWAP1 POP JUMP JUMPDEST PUSH1 0x0 DUP3 DUP3 MSTORE PUSH1 0x20 DUP3 ADD SWAP1 POP SWAP3 SWAP2 POP POP JUMP JUMPDEST PUSH1 0x0 PUSH2 0x3A6D DUP3 PUSH2 0x3A46 JUMP JUMPDEST PUSH2 0x3A77 DUP2 DUP6 PUSH2 0x3A51 JUMP JUMPDEST SWAP4 POP PUSH2 0x3A87 DUP2 DUP6 PUSH1 0x20 DUP7 ADD PUSH2 0x393C JUMP JUMPDEST PUSH2 0x3A90 DUP2 PUSH2 0x325E JUMP JUMPDEST DUP5 ADD SWAP2 POP POP SWAP3 SWAP2 POP POP JUMP JUMPDEST PUSH1 0x0 PUSH1 0x80 DUP4 ADD PUSH1 0x0 DUP4 ADD MLOAD PUSH2 0x3AB3 PUSH1 0x0 DUP7 ADD DUP3 PUSH2 0x3A28 JUMP JUMPDEST POP PUSH1 0x20 DUP4 ADD MLOAD PUSH2 0x3AC6 PUSH1 0x20 DUP7 ADD DUP3 PUSH2 0x3A28 JUMP JUMPDEST POP PUSH1 0x40 DUP4 ADD MLOAD PUSH2 0x3AD9 PUSH1 0x40 DUP7 ADD DUP3 PUSH2 0x3A37 JUMP JUMPDEST POP PUSH1 0x60 DUP4 ADD MLOAD DUP5 DUP3 SUB PUSH1 0x60 DUP7 ADD MSTORE PUSH2 0x3AF1 DUP3 DUP3 PUSH2 0x3A62 JUMP JUMPDEST SWAP2 POP POP DUP1 SWAP2 POP POP SWAP3 SWAP2 POP POP JUMP JUMPDEST PUSH1 0x0 PUSH1 0x20 DUP3 ADD SWAP1 POP DUP2 DUP2 SUB PUSH1 0x0 DUP4 ADD MSTORE PUSH2 0x3B18 DUP2 DUP5 PUSH2 0x3A9B JUMP JUMPDEST SWAP1 POP SWAP3 SWAP2 POP POP JUMP JUMPDEST PUSH1 0x0 DUP2 MLOAD SWAP1 POP SWAP2 SWAP1 POP JUMP JUMPDEST PUSH1 0x0 DUP3 DUP3 MSTORE PUSH1 0x20 DUP3 ADD SWAP1 POP SWAP3 SWAP2 POP POP JUMP JUMPDEST PUSH1 0x0 PUSH2 0x3B47 DUP3 PUSH2 0x3B20 JUMP JUMPDEST PUSH2 0x3B51 DUP2 DUP6 PUSH2 0x3B2B JUMP JUMPDEST SWAP4 POP PUSH2 0x3B61 DUP2 DUP6 PUSH1 0x20 DUP7 ADD PUSH2 0x393C JUMP JUMPDEST PUSH2 0x3B6A DUP2 PUSH2 0x325E JUMP JUMPDEST DUP5 ADD SWAP2 POP POP SWAP3 SWAP2 POP POP JUMP JUMPDEST PUSH1 0x0 PUSH1 0x20 DUP3 ADD SWAP1 POP DUP2 DUP2 SUB PUSH1 0x0 DUP4 ADD MSTORE PUSH2 0x3B8F DUP2 DUP5 PUSH2 0x3B3C JUMP JUMPDEST SWAP1 POP SWAP3 SWAP2 POP POP JUMP JUMPDEST PUSH1 0x0 DUP2 MLOAD SWAP1 POP PUSH2 0x3BA6 DUP2 PUSH2 0x2CA0 JUMP JUMPDEST SWAP3 SWAP2 POP POP JUMP JUMPDEST PUSH1 0x0 PUSH1 0x20 DUP3 DUP5 SUB SLT ISZERO PUSH2 0x3BC2 JUMPI PUSH2 0x3BC1 PUSH2 0x2C01 JUMP JUMPDEST JUMPDEST PUSH1 0x0 PUSH2 0x3BD0 DUP5 DUP3 DUP6 ADD PUSH2 0x3B97 JUMP JUMPDEST SWAP2 POP POP SWAP3 SWAP2 POP POP JUMP JUMPDEST PUSH1 0x0 PUSH2 0x3BE4 DUP3 PUSH2 0x2C96 JUMP JUMPDEST SWAP2 POP PUSH2 0x3BEF DUP4 PUSH2 0x2C96 JUMP JUMPDEST SWAP3 POP DUP3 PUSH32 0xFFFFFFFFFFFFFFFFFFFFFFFFFFFFFFFFFFFFFFFFFFFFFFFFFFFFFFFFFFFFFFFF SUB DUP3 GT ISZERO PUSH2 0x3C24 JUMPI PUSH2 0x3C23 PUSH2 0x37E1 JUMP JUMPDEST JUMPDEST DUP3 DUP3 ADD SWAP1 POP SWAP3 SWAP2 POP POP JUMP JUMPDEST PUSH1 0x0 DUP1 REVERT JUMPDEST PUSH1 0x0 DUP1 REVERT JUMPDEST PUSH1 0x0 DUP2 MLOAD SWAP1 POP PUSH2 0x3C48 DUP2 PUSH2 0x2C3D JUMP JUMPDEST SWAP3 SWAP2 POP POP JUMP JUMPDEST PUSH1 0x0 PUSH1 0x80 DUP3 DUP5 SUB SLT ISZERO PUSH2 0x3C64 JUMPI PUSH2 0x3C63 PUSH2 0x3C2F JUMP JUMPDEST JUMPDEST PUSH2 0x3C6E PUSH1 0x80 PUSH2 0x32CF JUMP JUMPDEST SWAP1 POP PUSH1 0x0 PUSH2 0x3C7E DUP5 DUP3 DUP6 ADD PUSH2 0x3C39 JUMP JUMPDEST PUSH1 0x0 DUP4 ADD MSTORE POP PUSH1 0x20 PUSH2 0x3C92 DUP5 DUP3 DUP6 ADD PUSH2 0x3C39 JUMP JUMPDEST PUSH1 0x20 DUP4 ADD MSTORE POP PUSH1 0x40 PUSH2 0x3CA6 DUP5 DUP3 DUP6 ADD PUSH2 0x3B97 JUMP JUMPDEST PUSH1 0x40 DUP4 ADD MSTORE POP PUSH1 0x60 DUP3 ADD MLOAD PUSH8 0xFFFFFFFFFFFFFFFF DUP2 GT ISZERO PUSH2 0x3CCA JUMPI PUSH2 0x3CC9 PUSH2 0x3C34 JUMP JUMPDEST JUMPDEST PUSH2 0x3CD6 DUP5 DUP3 DUP6 ADD PUSH2 0x39B1 JUMP JUMPDEST PUSH1 0x60 DUP4 ADD MSTORE POP SWAP3 SWAP2 POP POP JUMP JUMPDEST PUSH1 0x0 PUSH1 0x20 DUP3 DUP5 SUB SLT ISZERO PUSH2 0x3CF8 JUMPI PUSH2 0x3CF7 PUSH2 0x2C01 JUMP JUMPDEST JUMPDEST PUSH1 0x0 DUP3 ADD MLOAD PUSH8 0xFFFFFFFFFFFFFFFF DUP2 GT ISZERO PUSH2 0x3D16 JUMPI PUSH2 0x3D15 PUSH2 0x2C06 JUMP JUMPDEST JUMPDEST PUSH2 0x3D22 DUP5 DUP3 DUP6 ADD PUSH2 0x3C4E JUMP JUMPDEST SWAP2 POP POP SWAP3 SWAP2 POP POP JUMP JUMPDEST PUSH1 0x0 PUSH1 0x60 DUP3 ADD SWAP1 POP PUSH2 0x3D40 PUSH1 0x0 DUP4 ADD DUP7 PUSH2 0x2F18 JUMP JUMPDEST PUSH2 0x3D4D PUSH1 0x20 DUP4 ADD DUP6 PUSH2 0x2F18 JUMP JUMPDEST PUSH2 0x3D5A PUSH1 0x40 DUP4 ADD DUP5 PUSH2 0x2EEE JUMP JUMPDEST SWAP5 SWAP4 POP POP POP POP JUMP JUMPDEST PUSH1 0x0 PUSH2 0x3D6D DUP3 PUSH2 0x3A46 JUMP JUMPDEST PUSH2 0x3D77 DUP2 DUP6 PUSH2 0x3634 JUMP JUMPDEST SWAP4 POP PUSH2 0x3D87 DUP2 DUP6 PUSH1 0x20 DUP7 ADD PUSH2 0x393C JUMP JUMPDEST PUSH2 0x3D90 DUP2 PUSH2 0x325E JUMP JUMPDEST DUP5 ADD SWAP2 POP POP SWAP3 SWAP2 POP POP JUMP JUMPDEST PUSH1 0x0 PUSH1 0x60 DUP3 ADD SWAP1 POP PUSH2 0x3DB0 PUSH1 0x0 DUP4 ADD DUP7 PUSH2 0x2F18 JUMP JUMPDEST PUSH2 0x3DBD PUSH1 0x20 DUP4 ADD DUP6 PUSH2 0x2EEE JUMP JUMPDEST DUP2 DUP2 SUB PUSH1 0x40 DUP4 ADD MSTORE PUSH2 0x3DCF DUP2 DUP5 PUSH2 0x3D62 JUMP JUMPDEST SWAP1 POP SWAP5 SWAP4 POP POP POP POP JUMP JUMPDEST PUSH1 0x0 PUSH1 0x80 DUP3 ADD SWAP1 POP PUSH2 0x3DEE PUSH1 0x0 DUP4 ADD DUP8 PUSH2 0x2F18 JUMP JUMPDEST PUSH2 0x3DFB PUSH1 0x20 DUP4 ADD DUP7 PUSH2 0x2F18 JUMP JUMPDEST PUSH2 0x3E08 PUSH1 0x40 DUP4 ADD DUP6 PUSH2 0x2EEE JUMP JUMPDEST PUSH2 0x3E15 PUSH1 0x60 DUP4 ADD DUP5 PUSH2 0x38C5 JUMP JUMPDEST SWAP6 SWAP5 POP POP POP POP POP JUMP JUMPDEST PUSH1 0x0 PUSH1 0x40 DUP3 ADD SWAP1 POP PUSH2 0x3E33 PUSH1 0x0 DUP4 ADD DUP6 PUSH2 0x38C5 JUMP JUMPDEST PUSH2 0x3E40 PUSH1 0x20 DUP4 ADD DUP5 PUSH2 0x2EEE JUMP JUMPDEST SWAP4 SWAP3 POP POP POP JUMP JUMPDEST PUSH32 0x5061757361626C653A2070617573656400000000000000000000000000000000 PUSH1 0x0 DUP3 ADD MSTORE POP JUMP JUMPDEST PUSH1 0x0 PUSH2 0x3E7D PUSH1 0x10 DUP4 PUSH2 0x3634 JUMP JUMPDEST SWAP2 POP PUSH2 0x3E88 DUP3 PUSH2 0x3E47 JUMP JUMPDEST PUSH1 0x20 DUP3 ADD SWAP1 POP SWAP2 SWAP1 POP JUMP JUMPDEST PUSH1 0x0 PUSH1 0x20 DUP3 ADD SWAP1 POP DUP2 DUP2 SUB PUSH1 0x0 DUP4 ADD MSTORE PUSH2 0x3EAC DUP2 PUSH2 0x3E70 JUMP JUMPDEST SWAP1 POP SWAP2 SWAP1 POP JUMP JUMPDEST PUSH1 0x0 PUSH1 0x20 DUP3 DUP5 SUB SLT ISZERO PUSH2 0x3EC9 JUMPI PUSH2 0x3EC8 PUSH2 0x2C01 JUMP JUMPDEST JUMPDEST PUSH1 0x0 PUSH2 0x3ED7 DUP5 DUP3 DUP6 ADD PUSH2 0x3C39 JUMP JUMPDEST SWAP2 POP POP SWAP3 SWAP2 POP POP JUMP JUMPDEST PUSH32 0x6E6F7420746F6B656E206F776E65720000000000000000000000000000000000 PUSH1 0x0 DUP3 ADD MSTORE POP JUMP JUMPDEST PUSH1 0x0 PUSH2 0x3F16 PUSH1 0xF DUP4 PUSH2 0x3634 JUMP JUMPDEST SWAP2 POP PUSH2 0x3F21 DUP3 PUSH2 0x3EE0 JUMP JUMPDEST PUSH1 0x20 DUP3 ADD SWAP1 POP SWAP2 SWAP1 POP JUMP JUMPDEST PUSH1 0x0 PUSH1 0x20 DUP3 ADD SWAP1 POP DUP2 DUP2 SUB PUSH1 0x0 DUP4 ADD MSTORE PUSH2 0x3F45 DUP2 PUSH2 0x3F09 JUMP JUMPDEST SWAP1 POP SWAP2 SWAP1 POP JUMP JUMPDEST PUSH32 0x7472616E73666572204E4654206661696C656400000000000000000000000000 PUSH1 0x0 DUP3 ADD MSTORE POP JUMP JUMPDEST PUSH1 0x0 PUSH2 0x3F82 PUSH1 0x13 DUP4 PUSH2 0x3634 JUMP JUMPDEST SWAP2 POP PUSH2 0x3F8D DUP3 PUSH2 0x3F4C JUMP JUMPDEST PUSH1 0x20 DUP3 ADD SWAP1 POP SWAP2 SWAP1 POP JUMP JUMPDEST PUSH1 0x0 PUSH1 0x20 DUP3 ADD SWAP1 POP DUP2 DUP2 SUB PUSH1 0x0 DUP4 ADD MSTORE PUSH2 0x3FB1 DUP2 PUSH2 0x3F75 JUMP JUMPDEST SWAP1 POP SWAP2 SWAP1 POP JUMP JUMPDEST PUSH1 0x0 PUSH1 0xC0 DUP3 ADD SWAP1 POP PUSH2 0x3FCD PUSH1 0x0 DUP4 ADD DUP10 PUSH2 0x2F18 JUMP JUMPDEST PUSH2 0x3FDA PUSH1 0x20 DUP4 ADD DUP9 PUSH2 0x2F18 JUMP JUMPDEST PUSH2 0x3FE7 PUSH1 0x40 DUP4 ADD DUP8 PUSH2 0x2EEE JUMP JUMPDEST PUSH2 0x3FF4 PUSH1 0x60 DUP4 ADD DUP7 PUSH2 0x38C5 JUMP JUMPDEST PUSH2 0x4001 PUSH1 0x80 DUP4 ADD DUP6 PUSH2 0x2F18 JUMP JUMPDEST PUSH2 0x400E PUSH1 0xA0 DUP4 ADD DUP5 PUSH2 0x2F18 JUMP JUMPDEST SWAP8 SWAP7 POP POP POP POP POP POP POP JUMP JUMPDEST PUSH1 0x0 PUSH1 0x40 DUP3 ADD SWAP1 POP PUSH2 0x402E PUSH1 0x0 DUP4 ADD DUP6 PUSH2 0x38C5 JUMP JUMPDEST PUSH2 0x403B PUSH1 0x20 DUP4 ADD DUP5 PUSH2 0x2F18 JUMP JUMPDEST SWAP4 SWAP3 POP POP POP JUMP JUMPDEST PUSH32 0x4F776E61626C653A206E6577206F776E657220697320746865207A65726F2061 PUSH1 0x0 DUP3 ADD MSTORE PUSH32 0x6464726573730000000000000000000000000000000000000000000000000000 PUSH1 0x20 DUP3 ADD MSTORE POP JUMP JUMPDEST PUSH1 0x0 PUSH2 0x409E PUSH1 0x26 DUP4 PUSH2 0x3634 JUMP JUMPDEST SWAP2 POP PUSH2 0x40A9 DUP3 PUSH2 0x4042 JUMP JUMPDEST PUSH1 0x40 DUP3 ADD SWAP1 POP SWAP2 SWAP1 POP JUMP JUMPDEST PUSH1 0x0 PUSH1 0x20 DUP3 ADD SWAP1 POP DUP2 DUP2 SUB PUSH1 0x0 DUP4 ADD MSTORE PUSH2 0x40CD DUP2 PUSH2 0x4091 JUMP JUMPDEST SWAP1 POP SWAP2 SWAP1 POP JUMP JUMPDEST PUSH32 0x6F776E657220616C726561647920736574000000000000000000000000000000 PUSH1 0x0 DUP3 ADD MSTORE POP JUMP JUMPDEST PUSH1 0x0 PUSH2 0x410A PUSH1 0x11 DUP4 PUSH2 0x3634 JUMP JUMPDEST SWAP2 POP PUSH2 0x4115 DUP3 PUSH2 0x40D4 JUMP JUMPDEST PUSH1 0x20 DUP3 ADD SWAP1 POP SWAP2 SWAP1 POP JUMP JUMPDEST PUSH1 0x0 PUSH1 0x20 DUP3 ADD SWAP1 POP DUP2 DUP2 SUB PUSH1 0x0 DUP4 ADD MSTORE PUSH2 0x4139 DUP2 PUSH2 0x40FD JUMP JUMPDEST SWAP1 POP SWAP2 SWAP1 POP JUMP JUMPDEST PUSH32 0x5061757361626C653A206E6F7420706175736564000000000000000000000000 PUSH1 0x0 DUP3 ADD MSTORE POP JUMP JUMPDEST PUSH1 0x0 PUSH2 0x4176 PUSH1 0x14 DUP4 PUSH2 0x3634 JUMP JUMPDEST SWAP2 POP PUSH2 0x4181 DUP3 PUSH2 0x4140 JUMP JUMPDEST PUSH1 0x20 DUP3 ADD SWAP1 POP SWAP2 SWAP1 POP JUMP JUMPDEST PUSH1 0x0 PUSH1 0x20 DUP3 ADD SWAP1 POP DUP2 DUP2 SUB PUSH1 0x0 DUP4 ADD MSTORE PUSH2 0x41A5 DUP2 PUSH2 0x4169 JUMP JUMPDEST SWAP1 POP SWAP2 SWAP1 POP JUMP JUMPDEST PUSH32 0x4163636F756E74206973206E6F74207061757365720000000000000000000000 PUSH1 0x0 DUP3 ADD MSTORE POP JUMP JUMPDEST PUSH1 0x0 PUSH2 0x41E2 PUSH1 0x15 DUP4 PUSH2 0x3634 JUMP JUMPDEST SWAP2 POP PUSH2 0x41ED DUP3 PUSH2 0x41AC JUMP JUMPDEST PUSH1 0x20 DUP3 ADD SWAP1 POP SWAP2 SWAP1 POP JUMP JUMPDEST PUSH1 0x0 PUSH1 0x20 DUP3 ADD SWAP1 POP DUP2 DUP2 SUB PUSH1 0x0 DUP4 ADD MSTORE PUSH2 0x4211 DUP2 PUSH2 0x41D5 JUMP JUMPDEST SWAP1 POP SWAP2 SWAP1 POP JUMP JUMPDEST PUSH32 0x4163636F756E7420697320616C72656164792070617573657200000000000000 PUSH1 0x0 DUP3 ADD MSTORE POP JUMP JUMPDEST PUSH1 0x0 PUSH2 0x424E PUSH1 0x19 DUP4 PUSH2 0x3634 JUMP JUMPDEST SWAP2 POP PUSH2 0x4259 DUP3 PUSH2 0x4218 JUMP JUMPDEST PUSH1 0x20 DUP3 ADD SWAP1 POP SWAP2 SWAP1 POP JUMP JUMPDEST PUSH1 0x0 PUSH1 0x20 DUP3 ADD SWAP1 POP DUP2 DUP2 SUB PUSH1 0x0 DUP4 ADD MSTORE PUSH2 0x427D DUP2 PUSH2 0x4241 JUMP JUMPDEST SWAP1 POP SWAP2 SWAP1 POP JUMP JUMPDEST PUSH32 0x64657374204E465420427269646765206E6F7420666F756E6400000000000000 PUSH1 0x0 DUP3 ADD MSTORE POP JUMP JUMPDEST PUSH1 0x0 PUSH2 0x42BA PUSH1 0x19 DUP4 PUSH2 0x3634 JUMP JUMPDEST SWAP2 POP PUSH2 0x42C5 DUP3 PUSH2 0x4284 JUMP JUMPDEST PUSH1 0x20 DUP3 ADD SWAP1 POP SWAP2 SWAP1 POP JUMP JUMPDEST PUSH1 0x0 PUSH1 0x20 DUP3 ADD SWAP1 POP DUP2 DUP2 SUB PUSH1 0x0 DUP4 ADD MSTORE PUSH2 0x42E9 DUP2 PUSH2 0x42AD JUMP JUMPDEST SWAP1 POP SWAP2 SWAP1 POP JUMP JUMPDEST PUSH32 0x64657374204E4654206E6F7420666F756E640000000000000000000000000000 PUSH1 0x0 DUP3 ADD MSTORE POP JUMP JUMPDEST PUSH1 0x0 PUSH2 0x4326 PUSH1 0x12 DUP4 PUSH2 0x3634 JUMP JUMPDEST SWAP2 POP PUSH2 0x4331 DUP3 PUSH2 0x42F0 JUMP JUMPDEST PUSH1 0x20 DUP3 ADD SWAP1 POP SWAP2 SWAP1 POP JUMP JUMPDEST PUSH1 0x0 PUSH1 0x20 DUP3 ADD SWAP1 POP DUP2 DUP2 SUB PUSH1 0x0 DUP4 ADD MSTORE PUSH2 0x4355 DUP2 PUSH2 0x4319 JUMP JUMPDEST SWAP1 POP SWAP2 SWAP1 POP JUMP JUMPDEST PUSH32 0x696E73756666696369656E742066656500000000000000000000000000000000 PUSH1 0x0 DUP3 ADD MSTORE POP JUMP JUMPDEST PUSH1 0x0 PUSH2 0x4392 PUSH1 0x10 DUP4 PUSH2 0x3634 JUMP JUMPDEST SWAP2 POP PUSH2 0x439D DUP3 PUSH2 0x435C JUMP JUMPDEST PUSH1 0x20 DUP3 ADD SWAP1 POP SWAP2 SWAP1 POP JUMP JUMPDEST PUSH1 0x0 PUSH1 0x20 DUP3 ADD SWAP1 POP DUP2 DUP2 SUB PUSH1 0x0 DUP4 ADD MSTORE PUSH2 0x43C1 DUP2 PUSH2 0x4385 JUMP JUMPDEST SWAP1 POP SWAP2 SWAP1 POP JUMP JUMPDEST PUSH1 0x0 DUP2 SWAP1 POP SWAP2 SWAP1 POP JUMP JUMPDEST PUSH1 0x0 PUSH2 0x43ED PUSH2 0x43E8 PUSH2 0x43E3 DUP5 PUSH2 0x2E81 JUMP JUMPDEST PUSH2 0x43C8 JUMP JUMPDEST PUSH2 0x2C96 JUMP JUMPDEST SWAP1 POP SWAP2 SWAP1 POP JUMP JUMPDEST PUSH2 0x43FD DUP2 PUSH2 0x43D2 JUMP JUMPDEST DUP3 MSTORE POP POP JUMP JUMPDEST PUSH1 0x0 PUSH1 0x60 DUP3 ADD SWAP1 POP PUSH2 0x4418 PUSH1 0x0 DUP4 ADD DUP7 PUSH2 0x2F18 JUMP JUMPDEST PUSH2 0x4425 PUSH1 0x20 DUP4 ADD DUP6 PUSH2 0x43F4 JUMP JUMPDEST DUP2 DUP2 SUB PUSH1 0x40 DUP4 ADD MSTORE PUSH2 0x4437 DUP2 DUP5 PUSH2 0x3B3C JUMP JUMPDEST SWAP1 POP SWAP5 SWAP4 POP POP POP POP JUMP INVALID LOG2 PUSH5 0x6970667358 0x22 SLT KECCAK256 0x23 RETURNDATACOPY PUSH10 0xAA794BE7DD5CDDC07E80 SWAP6 0xC0 ADDMOD 0xF9 SWAP6 PUSH25 0x1A6F7D085059630107DF333BBD64736F6C6343000809003300 "
		},
		"gasEstimates": {
			"creation": {
				"codeDepositCost": "3505400",
				"executionCost": "infinite",
				"totalCost": "infinite"
			},
			"external": {
				"addPauser(address)": "infinite",
				"claimFee()": "infinite",
				"delOrigNFT(address)": "infinite",
				"destBridge(uint64)": "2913",
				"destNFTAddr(address,uint64)": "infinite",
				"destTxFee(uint64)": "2884",
				"executeMessage(address,uint64,bytes,address)": "infinite",
				"executeMessageWithTransfer(address,address,uint256,uint64,bytes,address)": "infinite",
				"executeMessageWithTransferFallback(address,address,uint256,uint64,bytes,address)": "infinite",
				"executeMessageWithTransferRefund(address,uint256,bytes,address)": "infinite",
				"init(address)": "54949",
				"isPauser(address)": "2951",
				"messageBus()": "2603",
				"origNFT(address)": "2936",
				"owner()": "2634",
				"pause()": "30375",
				"paused()": "2574",
				"pausers(address)": "2891",
				"removePauser(address)": "infinite",
				"renouncePauser()": "28144",
				"sendMsg(uint64,address,address,uint256,string)": "infinite",
				"sendTo(address,uint256,uint64,address)": "infinite",
				"setDestBridge(uint64,address)": "infinite",
				"setDestBridges(uint64[],address[])": "infinite",
				"setDestNFT(address,uint64,address)": "infinite",
				"setDestNFTs(address,uint64[],address[])": "infinite",
				"setMessageBus(address)": "infinite",
				"setOrigNFT(address)": "infinite",
				"setTxFee(uint64,uint256)": "infinite",
				"totalFee(uint64,address,uint256)": "infinite",
				"transferOwnership(address)": "30798",
				"unpause()": "30394"
			},
			"internal": {
				"checkAddr(address,uint64)": "infinite",
				"msgBus(address,uint64,bytes memory)": "infinite"
			}
		},
		"methodIdentifiers": {
			"addPauser(address)": "82dc1ec4",
			"claimFee()": "99d32fc4",
			"delOrigNFT(address)": "ed99bf43",
			"destBridge(uint64)": "27cbe705",
			"destNFTAddr(address,uint64)": "9e041b9d",
			"destTxFee(uint64)": "151ff4eb",
			"executeMessage(address,uint64,bytes,address)": "9c649fdf",
			"executeMessageWithTransfer(address,address,uint256,uint64,bytes,address)": "7cd2bffc",
			"executeMessageWithTransferFallback(address,address,uint256,uint64,bytes,address)": "5ab7afc6",
			"executeMessageWithTransferRefund(address,uint256,bytes,address)": "0bcb4982",
			"init(address)": "19ab453c",
			"isPauser(address)": "46fbf68e",
			"messageBus()": "a1a227fa",
			"origNFT(address)": "1140c84e",
			"owner()": "8da5cb5b",
			"pause()": "8456cb59",
			"paused()": "5c975abb",
			"pausers(address)": "80f51c12",
			"removePauser(address)": "6b2c0f55",
			"renouncePauser()": "6ef8d66d",
			"sendMsg(uint64,address,address,uint256,string)": "f0cb57ce",
			"sendTo(address,uint256,uint64,address)": "b2c88775",
			"setDestBridge(uint64,address)": "da754f44",
			"setDestBridges(uint64[],address[])": "43a8c137",
			"setDestNFT(address,uint64,address)": "95b6a191",
			"setDestNFTs(address,uint64[],address[])": "2d5fa47c",
			"setMessageBus(address)": "547cad12",
			"setOrigNFT(address)": "065c38fd",
			"setTxFee(uint64,uint256)": "9f825f07",
			"totalFee(uint64,address,uint256)": "9c1a65bd",
			"transferOwnership(address)": "f2fde38b",
			"unpause()": "3f4ba83a"
		}
	},
	"abi": [
		{
			"inputs": [
				{
					"internalType": "address",
					"name": "_msgBus",
					"type": "address"
				}
			],
			"stateMutability": "nonpayable",
			"type": "constructor"
		},
		{
			"anonymous": false,
			"inputs": [
				{
					"indexed": false,
					"internalType": "bytes",
					"name": "returnData",
					"type": "bytes"
				}
			],
			"name": "ExtCallErr",
			"type": "event"
		},
		{
			"anonymous": false,
			"inputs": [
				{
					"indexed": false,
					"internalType": "uint256",
					"name": "amount",
					"type": "uint256"
				}
			],
			"name": "FeeClaimed",
			"type": "event"
		},
		{
			"anonymous": false,
			"inputs": [
				{
					"indexed": false,
					"internalType": "address",
					"name": "messageBus",
					"type": "address"
				}
			],
			"name": "MessageBusUpdated",
			"type": "event"
		},
		{
			"anonymous": false,
			"inputs": [
				{
					"indexed": true,
					"internalType": "address",
					"name": "previousOwner",
					"type": "address"
				},
				{
					"indexed": true,
					"internalType": "address",
					"name": "newOwner",
					"type": "address"
				}
			],
			"name": "OwnershipTransferred",
			"type": "event"
		},
		{
			"anonymous": false,
			"inputs": [
				{
					"indexed": false,
					"internalType": "address",
					"name": "account",
					"type": "address"
				}
			],
			"name": "Paused",
			"type": "event"
		},
		{
			"anonymous": false,
			"inputs": [
				{
					"indexed": false,
					"internalType": "address",
					"name": "account",
					"type": "address"
				}
			],
			"name": "PauserAdded",
			"type": "event"
		},
		{
			"anonymous": false,
			"inputs": [
				{
					"indexed": false,
					"internalType": "address",
					"name": "account",
					"type": "address"
				}
			],
			"name": "PauserRemoved",
			"type": "event"
		},
		{
			"anonymous": false,
			"inputs": [
				{
					"indexed": false,
					"internalType": "address",
					"name": "receiver",
					"type": "address"
				},
				{
					"indexed": false,
					"internalType": "address",
					"name": "nft",
					"type": "address"
				},
				{
					"indexed": false,
					"internalType": "uint256",
					"name": "id",
					"type": "uint256"
				},
				{
					"indexed": false,
					"internalType": "uint64",
					"name": "srcChid",
					"type": "uint64"
				}
			],
			"name": "Received",
			"type": "event"
		},
		{
			"anonymous": false,
			"inputs": [
				{
					"indexed": false,
					"internalType": "address",
					"name": "sender",
					"type": "address"
				},
				{
					"indexed": false,
					"internalType": "address",
					"name": "srcNft",
					"type": "address"
				},
				{
					"indexed": false,
					"internalType": "uint256",
					"name": "id",
					"type": "uint256"
				},
				{
					"indexed": false,
					"internalType": "uint64",
					"name": "dstChid",
					"type": "uint64"
				},
				{
					"indexed": false,
					"internalType": "address",
					"name": "receiver",
					"type": "address"
				},
				{
					"indexed": false,
					"internalType": "address",
					"name": "dstNft",
					"type": "address"
				}
			],
			"name": "Sent",
			"type": "event"
		},
		{
			"anonymous": false,
			"inputs": [
				{
					"indexed": false,
					"internalType": "uint64",
					"name": "dstChid",
					"type": "uint64"
				},
				{
					"indexed": false,
					"internalType": "address",
					"name": "dstNftBridge",
					"type": "address"
				}
			],
			"name": "SetDestBridge",
			"type": "event"
		},
		{
			"anonymous": false,
			"inputs": [
				{
					"indexed": false,
					"internalType": "address",
					"name": "srcNft",
					"type": "address"
				},
				{
					"indexed": false,
					"internalType": "uint64",
					"name": "dstChid",
					"type": "uint64"
				},
				{
					"indexed": false,
					"internalType": "address",
					"name": "dstNft",
					"type": "address"
				}
			],
			"name": "SetDestNFT",
			"type": "event"
		},
		{
			"anonymous": false,
			"inputs": [
				{
					"indexed": false,
					"internalType": "address",
					"name": "nft",
					"type": "address"
				},
				{
					"indexed": false,
					"internalType": "bool",
					"name": "isOrig",
					"type": "bool"
				}
			],
			"name": "SetOrigNFT",
			"type": "event"
		},
		{
			"anonymous": false,
			"inputs": [
				{
					"indexed": false,
					"internalType": "uint64",
					"name": "chid",
					"type": "uint64"
				},
				{
					"indexed": false,
					"internalType": "uint256",
					"name": "fee",
					"type": "uint256"
				}
			],
			"name": "SetTxFee",
			"type": "event"
		},
		{
			"anonymous": false,
			"inputs": [
				{
					"indexed": false,
					"internalType": "address",
					"name": "account",
					"type": "address"
				}
			],
			"name": "Unpaused",
			"type": "event"
		},
		{
			"inputs": [
				{
					"internalType": "address",
					"name": "account",
					"type": "address"
				}
			],
			"name": "addPauser",
			"outputs": [],
			"stateMutability": "nonpayable",
			"type": "function"
		},
		{
			"inputs": [],
			"name": "claimFee",
			"outputs": [],
			"stateMutability": "nonpayable",
			"type": "function"
		},
		{
			"inputs": [
				{
					"internalType": "address",
					"name": "_nft",
					"type": "address"
				}
			],
			"name": "delOrigNFT",
			"outputs": [],
			"stateMutability": "nonpayable",
			"type": "function"
		},
		{
			"inputs": [
				{
					"internalType": "uint64",
					"name": "",
					"type": "uint64"
				}
			],
			"name": "destBridge",
			"outputs": [
				{
					"internalType": "address",
					"name": "",
					"type": "address"
				}
			],
			"stateMutability": "view",
			"type": "function"
		},
		{
			"inputs": [
				{
					"internalType": "address",
					"name": "",
					"type": "address"
				},
				{
					"internalType": "uint64",
					"name": "",
					"type": "uint64"
				}
			],
			"name": "destNFTAddr",
			"outputs": [
				{
					"internalType": "address",
					"name": "",
					"type": "address"
				}
			],
			"stateMutability": "view",
			"type": "function"
		},
		{
			"inputs": [
				{
					"internalType": "uint64",
					"name": "",
					"type": "uint64"
				}
			],
			"name": "destTxFee",
			"outputs": [
				{
					"internalType": "uint256",
					"name": "",
					"type": "uint256"
				}
			],
			"stateMutability": "view",
			"type": "function"
		},
		{
			"inputs": [
				{
					"internalType": "address",
					"name": "sender",
					"type": "address"
				},
				{
					"internalType": "uint64",
					"name": "srcChid",
					"type": "uint64"
				},
				{
					"internalType": "bytes",
					"name": "_message",
					"type": "bytes"
				},
				{
					"internalType": "address",
					"name": "",
					"type": "address"
				}
			],
			"name": "executeMessage",
			"outputs": [
				{
					"internalType": "enum IMessageReceiverApp.ExecutionStatus",
					"name": "",
					"type": "uint8"
				}
			],
			"stateMutability": "payable",
			"type": "function"
		},
		{
			"inputs": [
				{
					"internalType": "address",
					"name": "_sender",
					"type": "address"
				},
				{
					"internalType": "address",
					"name": "_token",
					"type": "address"
				},
				{
					"internalType": "uint256",
					"name": "_amount",
					"type": "uint256"
				},
				{
					"internalType": "uint64",
					"name": "_srcChainId",
					"type": "uint64"
				},
				{
					"internalType": "bytes",
					"name": "_message",
					"type": "bytes"
				},
				{
					"internalType": "address",
					"name": "_executor",
					"type": "address"
				}
			],
			"name": "executeMessageWithTransfer",
			"outputs": [
				{
					"internalType": "enum IMessageReceiverApp.ExecutionStatus",
					"name": "",
					"type": "uint8"
				}
			],
			"stateMutability": "payable",
			"type": "function"
		},
		{
			"inputs": [
				{
					"internalType": "address",
					"name": "_sender",
					"type": "address"
				},
				{
					"internalType": "address",
					"name": "_token",
					"type": "address"
				},
				{
					"internalType": "uint256",
					"name": "_amount",
					"type": "uint256"
				},
				{
					"internalType": "uint64",
					"name": "_srcChainId",
					"type": "uint64"
				},
				{
					"internalType": "bytes",
					"name": "_message",
					"type": "bytes"
				},
				{
					"internalType": "address",
					"name": "_executor",
					"type": "address"
				}
			],
			"name": "executeMessageWithTransferFallback",
			"outputs": [
				{
					"internalType": "enum IMessageReceiverApp.ExecutionStatus",
					"name": "",
					"type": "uint8"
				}
			],
			"stateMutability": "payable",
			"type": "function"
		},
		{
			"inputs": [
				{
					"internalType": "address",
					"name": "_token",
					"type": "address"
				},
				{
					"internalType": "uint256",
					"name": "_amount",
					"type": "uint256"
				},
				{
					"internalType": "bytes",
					"name": "_message",
					"type": "bytes"
				},
				{
					"internalType": "address",
					"name": "_executor",
					"type": "address"
				}
			],
			"name": "executeMessageWithTransferRefund",
			"outputs": [
				{
					"internalType": "enum IMessageReceiverApp.ExecutionStatus",
					"name": "",
					"type": "uint8"
				}
			],
			"stateMutability": "payable",
			"type": "function"
		},
		{
			"inputs": [
				{
					"internalType": "address",
					"name": "_msgBus",
					"type": "address"
				}
			],
			"name": "init",
			"outputs": [],
			"stateMutability": "nonpayable",
			"type": "function"
		},
		{
			"inputs": [
				{
					"internalType": "address",
					"name": "account",
					"type": "address"
				}
			],
			"name": "isPauser",
			"outputs": [
				{
					"internalType": "bool",
					"name": "",
					"type": "bool"
				}
			],
			"stateMutability": "view",
			"type": "function"
		},
		{
			"inputs": [],
			"name": "messageBus",
			"outputs": [
				{
					"internalType": "address",
					"name": "",
					"type": "address"
				}
			],
			"stateMutability": "view",
			"type": "function"
		},
		{
			"inputs": [
				{
					"internalType": "address",
					"name": "",
					"type": "address"
				}
			],
			"name": "origNFT",
			"outputs": [
				{
					"internalType": "bool",
					"name": "",
					"type": "bool"
				}
			],
			"stateMutability": "view",
			"type": "function"
		},
		{
			"inputs": [],
			"name": "owner",
			"outputs": [
				{
					"internalType": "address",
					"name": "",
					"type": "address"
				}
			],
			"stateMutability": "view",
			"type": "function"
		},
		{
			"inputs": [],
			"name": "pause",
			"outputs": [],
			"stateMutability": "nonpayable",
			"type": "function"
		},
		{
			"inputs": [],
			"name": "paused",
			"outputs": [
				{
					"internalType": "bool",
					"name": "",
					"type": "bool"
				}
			],
			"stateMutability": "view",
			"type": "function"
		},
		{
			"inputs": [
				{
					"internalType": "address",
					"name": "",
					"type": "address"
				}
			],
			"name": "pausers",
			"outputs": [
				{
					"internalType": "bool",
					"name": "",
					"type": "bool"
				}
			],
			"stateMutability": "view",
			"type": "function"
		},
		{
			"inputs": [
				{
					"internalType": "address",
					"name": "account",
					"type": "address"
				}
			],
			"name": "removePauser",
			"outputs": [],
			"stateMutability": "nonpayable",
			"type": "function"
		},
		{
			"inputs": [],
			"name": "renouncePauser",
			"outputs": [],
			"stateMutability": "nonpayable",
			"type": "function"
		},
		{
			"inputs": [
				{
					"internalType": "uint64",
					"name": "_dstChid",
					"type": "uint64"
				},
				{
					"internalType": "address",
					"name": "_sender",
					"type": "address"
				},
				{
					"internalType": "address",
					"name": "_receiver",
					"type": "address"
				},
				{
					"internalType": "uint256",
					"name": "_id",
					"type": "uint256"
				},
				{
					"internalType": "string",
					"name": "_uri",
					"type": "string"
				}
			],
			"name": "sendMsg",
			"outputs": [],
			"stateMutability": "payable",
			"type": "function"
		},
		{
			"inputs": [
				{
					"internalType": "address",
					"name": "_nft",
					"type": "address"
				},
				{
					"internalType": "uint256",
					"name": "_id",
					"type": "uint256"
				},
				{
					"internalType": "uint64",
					"name": "_dstChid",
					"type": "uint64"
				},
				{
					"internalType": "address",
					"name": "_receiver",
					"type": "address"
				}
			],
			"name": "sendTo",
			"outputs": [],
			"stateMutability": "payable",
			"type": "function"
		},
		{
			"inputs": [
				{
					"internalType": "uint64",
					"name": "dstChid",
					"type": "uint64"
				},
				{
					"internalType": "address",
					"name": "dstNftBridge",
					"type": "address"
				}
			],
			"name": "setDestBridge",
			"outputs": [],
			"stateMutability": "nonpayable",
			"type": "function"
		},
		{
			"inputs": [
				{
					"internalType": "uint64[]",
					"name": "dstChid",
					"type": "uint64[]"
				},
				{
					"internalType": "address[]",
					"name": "dstNftBridge",
					"type": "address[]"
				}
			],
			"name": "setDestBridges",
			"outputs": [],
			"stateMutability": "nonpayable",
			"type": "function"
		},
		{
			"inputs": [
				{
					"internalType": "address",
					"name": "srcNft",
					"type": "address"
				},
				{
					"internalType": "uint64",
					"name": "dstChid",
					"type": "uint64"
				},
				{
					"internalType": "address",
					"name": "dstNft",
					"type": "address"
				}
			],
			"name": "setDestNFT",
			"outputs": [],
			"stateMutability": "nonpayable",
			"type": "function"
		},
		{
			"inputs": [
				{
					"internalType": "address",
					"name": "srcNft",
					"type": "address"
				},
				{
					"internalType": "uint64[]",
					"name": "dstChid",
					"type": "uint64[]"
				},
				{
					"internalType": "address[]",
					"name": "dstNft",
					"type": "address[]"
				}
			],
			"name": "setDestNFTs",
			"outputs": [],
			"stateMutability": "nonpayable",
			"type": "function"
		},
		{
			"inputs": [
				{
					"internalType": "address",
					"name": "_messageBus",
					"type": "address"
				}
			],
			"name": "setMessageBus",
			"outputs": [],
			"stateMutability": "nonpayable",
			"type": "function"
		},
		{
			"inputs": [
				{
					"internalType": "address",
					"name": "_nft",
					"type": "address"
				}
			],
			"name": "setOrigNFT",
			"outputs": [],
			"stateMutability": "nonpayable",
			"type": "function"
		},
		{
			"inputs": [
				{
					"internalType": "uint64",
					"name": "chid",
					"type": "uint64"
				},
				{
					"internalType": "uint256",
					"name": "fee",
					"type": "uint256"
				}
			],
			"name": "setTxFee",
			"outputs": [],
			"stateMutability": "nonpayable",
			"type": "function"
		},
		{
			"inputs": [
				{
					"internalType": "uint64",
					"name": "_dstChid",
					"type": "uint64"
				},
				{
					"internalType": "address",
					"name": "_nft",
					"type": "address"
				},
				{
					"internalType": "uint256",
					"name": "_id",
					"type": "uint256"
				}
			],
			"name": "totalFee",
			"outputs": [
				{
					"internalType": "uint256",
					"name": "",
					"type": "uint256"
				}
			],
			"stateMutability": "view",
			"type": "function"
		},
		{
			"inputs": [
				{
					"internalType": "address",
					"name": "newOwner",
					"type": "address"
				}
			],
			"name": "transferOwnership",
			"outputs": [],
			"stateMutability": "nonpayable",
			"type": "function"
		},
		{
			"inputs": [],
			"name": "unpause",
			"outputs": [],
			"stateMutability": "nonpayable",
			"type": "function"
		}
	]
}